:10000000000600201D050000450500004505000014
:1000100000000000000000000000000000000000E0
:100020000000000000000000000000004505000086
:10003000000000000000000045050000450500002C
:100040004505000045050000450500004505000088
:10005000450500004505000045050000B5210000EC
:1000600093410000450500009D410000450500004A
:10007000A7410000450500004505000045050000BA
:100080004505000045050000450500004505000048
:100090008D210000A5210000450500004505000058
:1000A0004505000045050000450500004505000028
:1000B0004505000045050000C5210000450500007C
:10040000FFFFFFFFFFFFFFFFFFFFFFFFFE3DFFFFBF
:100410000448054B10B5834203D0044B002B00D099
:10042000984710BD04FFFF1F04FFFF1F00000000DE
:1004300006480749091A8B10C90FC91810B5491089
:1004400003D0044B002B00D0984710BD04FFFF1FC2
:1004500004FFFF1F0000000010B5074C2378002B9D
:1004600009D1FFF7D5FF054B002B02D0044800E06F
:1004700000BF0123237010BD04FFFF1F0000000018
:10048000C87E0000054B10B5002B03D00449054879
:1004900000E000BFFFF7CCFF10BDC0460000000029
:1004A00008FFFF1FC87E0000402292029A1A92465F
:1004B0007047C046154B002B00D1114B9D46FFF7EE
:1004C000F3FF00218B460F461148124A121A00F022
:1004D00005F90C4B002B00D098470B4B002B00D09C
:1004E00098470020002104000D000B4800F02EF872
:1004F00000F06AF82000290002F0FEF900F03AF856
:1005000000000800000000000000000000060020BD
:1005100004FFFF1F2C020020A105000072B6064850
:100520000649074A02600A6003F042FE03F082FEB9
:1005300062B6FFF7BFFF000080E100E080E200E06C
:10054000FFFFFFFF004800474505000010B5010010
:1005500000230022002000F09DFA10BD10B50A0013
:10056000002100F0BBF810BD014B18687047C04671
:1005700000FEFF1F084B10B50400002B02D0002125
:1005800000F0F6FA054B1868836A002B00D09847F4
:10059000200001F05FFDC046710B00006C6400009C
:1005A00070B5074D074C641BA41005D0013CA30097
:1005B000EB589847002CF9D107F08CFC70BDC04671
:1005C000EC7E0000F07E000070B50C4D0C4E761BEA
:1005D000B61005D0002408CD01349847A642FAD1C0
:1005E00007F072FC074D084E761BB61005D00024AC
:1005F00008CD01349847A642FAD170BDE87E0000CC
:10060000E87E0000E87E0000EC7E000010B5034BA1
:100610000100186800F00CF910BDC04600FEFF1F75
:1006200010B5034B0100186800F0ACF810BDC046CF
:1006300000FEFF1FF0B5C64600B50F2A43D90B00D8
:10064000032603431E400C000300002E40D115007A
:10065000103D2D09AC462D01A846804400E03B002A
:10066000676825685F60E7681D60DF601F00A56838
:1006700010379D6010344345F1D165460F230C249B
:1006800001352D01491913404519144223D08C59C5
:10069000AC5104369C1B032CF9D80324043B9B0863
:1006A00001339B002240ED18C918561E002A07D0BE
:1006B000002300E02300CA5C5C1CEA549E42F9D18E
:1006C00004BC9046F0BD0500561E002AF0D1F7E7A5
:1006D000561E0500ECE71A00F6E7C046F0B5050027
:1006E00083074AD0541E002A44D0CEB2030003220E
:1006F00002E00135013C3DD301332E701342F8D1A5
:10070000032C2FD9FF220A40150215432A04154352
:100710000F2C35D92700103F3F093E01B4461E007B
:100720001A0010366644156055609560D560103229
:10073000B242F8D10F260C2201373F012640DB19C7
:100740003700224217D03E1FB608B400A4461A0054
:100750001C1D644420C2A242FCD103240136B60011
:100760009B193C40002C05D0C9B21C1919700133EB
:100770009C42FBD1F0BD3400F4E714000300BFE756
:100780002700E0E770B50500002915D00C1F23688D
:10079000002B27DB280000F049FA244B1A68002AB6
:1007A00005D0A2420CD921686018824224D0626030
:1007B00028001C6000F03CFA70BDA34203D81A0068
:1007C0005368002BF9D111685018A0421BD027D8CC
:1007D00021686018834207D063605460280000F0ED
:1007E00027FAE9E7E418D5E718685B6884466144AE
:1007F000216063605460F1E7106852688446614488
:1008000021606260D4E720680918501811608342A3
:10081000E4D118685B688446614411605360DDE789
:100820000C2328002B6000F003FAC5E720FFFF1F10
:10083000F8B50323CD1C9D43083506000C2D2AD2A4
:100840000C25A94229D8300000F0F0F92A4F3A6867
:10085000002A0AD013685B1B04D441E023685B1BA9
:100860001FD522005468002CF8D17B68002B3DD0A6
:100870002900300000F042F8431C2AD00323C41C96
:100880009C43A04205D0211A300000F037F8431CE9
:100890001FD0256010E0002DD3DA0C230020336038
:1008A000F8BD0B2B05D86368A2421DD0536003E04E
:1008B00014002360E4182560300000F0B9F920002E
:1008C00007220B30231D9043C21AE9D01B1AA350F4
:1008D000E6E70C233000336000F0AAF90020DFE7E0
:1008E0000B2BE5D8140053683B60E5E7002130008E
:1008F00000F004F87860BBE720FFFF1F002370B50D
:10090000064C05000800236001F0A6FB431C00D044
:1009100070BD2368002BFBD02B60F9E72802002074
:1009200008B410B504009DB0002A31DB822302A870
:100930009B00838102910161002A14D00123013AB6
:100940005B4282604261C381010020AB1F9A20009C
:10095000019300F061FA431C01DA8B23236000232A
:10096000029A13700FE001235B4282604261C381EF
:10097000010020AB1F9A2000019300F04DFA431CA8
:1009800001DA8B2323601DB010BC08BC01B01847EE
:100990008B23036001204042F5E7C0460CB430B51C
:1009A0001D4B9DB01D68002931DB822302AC9B00EA
:1009B000A38102902061002914D0012301395B42F8
:1009C000A1606161E381209A21AB2100280001939D
:1009D00000F022FA431C01DA8B232B600023029AD9
:1009E00013700FE001235B42A1606161E381209AF3
:1009F00021AB21002800019300F00EFA431C01DA1C
:100A00008B232B601DB030BC08BC02B018478B2371
:100A100001202B604042F5E700FEFF1F03000A782B
:100A200001311A700133002AF9D1704710B58307DC
:100A300027D00378002B26D00300032102E01A7888
:100A4000002A1CD001330B42F9D119680F4A104C0F
:100A50008A188A4322420FD1043319680B4A8A1834
:100A60008A43224208D104331968084A8A188A4303
:100A70002242F1D000E001331A78002AFBD1181A83
:100A800010BD0300E1E70020FAE7C046FFFEFEFECE
:100A900080808080F0B546464F46D646C0B51F00E0
:100AA0002F4B82B01C6805000E009046002C2DD004
:100AB00063681F2B50DC002D1CD08822A058914663
:100AC000002834D07832825894469A009146814466
:100AD000424649460A600121624699400A439446CB
:100AE00080228A466146520081504946803A8F50A2
:100AF000022D16D000205A1C02339B0062601E514A
:100B000002B01CBC90469946A246F0BD154C1C6034
:100B1000154B002BCCD01B6801938823019AE2501F
:100B2000C6E75546843281580D438550E2E70F4BA6
:100B3000002B11D084204000FFF768FD00280BD067
:100B40008022002352008350043283504B460022FF
:100B5000E05094466368B8E701204042D0E7C046C1
:100B6000B4FFFF1F28FFFF1F000000000D0600005C
:100B7000F0B5DE464E46454657462B4B88469B46CB
:100B8000E0B51E6883B00190002E45D088237568BB
:100B9000F7586C1E40D40135AD00783375199A466C
:100BA0000AE0002F05D03B00A20080339B5843454C
:100BB00005D0043D013C2FD34346002BF1D173688F
:100BC0002A68013BA34222D000232B60002AF0D0E8
:100BD00073689946002F18D001235146A3407958D5
:100BE000194212D0822040003858A1007958009054
:100BF00018420ED1019890475B4672681B684A45BF
:100C000001D1B342D5D01E00BEE79047F4E774602F
:100C1000DCE708009047EFE703B03CBC90469946FC
:100C2000A246AB46F0BDC046B4FFFF1F7047C046AA
:100C30007047C046F0B546464F46D646C0B58E68AA
:100C400081460C0090461D0008689E4239D89022CB
:100C50008B89D200134211D135002A00414600F0A1
:100C600055FCA36800209E1B2368A6609C46654433
:100C700025601CBC90469946A246F0BD0969421AFF
:100C800092466269681C5700BF18FA0FD7197F1087
:100C900050443A00B84201D9070002005B0512D562
:100CA00011004846FFF7C4FD061E1FD052462169B9
:100CB000FFF7C0FCA389124A134080221343A3818B
:100CC00006E01E00C9E7484600F07EFC061E09D07B
:100CD0003000534650446761FF1A266120602E00A1
:100CE000A760BAE721694846FFF74CFD0C234A4646
:100CF000136040220120A38940421343A381B8E737
:100D00007FFBFFFFF0B54E464546DE465746E0B551
:100D1000936883B001900D009146002B6BD017684B
:100D200008688C6844E09022AB89D20013422ED030
:100D30002969421A9346686942001218D00F821836
:100D4000701C521058449046904201D980460200CF
:100D50008020C000034237D011000198FFF768FDE2
:100D6000041E53D05A462969FFF764FCAB89294A0F
:100D7000134080221343AB81434620005A462C6126
:100D8000B046340058446B619B1A2860AB60424601
:100D9000514600F0BBFBAB681C1B2B68AC604344A6
:100DA0002B6018004B469B689E1B4B469E6022D0D2
:100DB0003B687E689A460837A046002EF8D0A642C7
:100DC000B1D23400B046E2E7019800F0FDFB041E0A
:100DD000D2D1019C29692000FFF7D4FC0C232360A9
:100DE0004022AB8901201343AB814A460023404295
:100DF0009360536003E000234A460020536003B031
:100E00003CBC90469946A246AB46F0BD0C23019AE5
:100E10001360E5E77FFBFFFFF0B54E46DE46574621
:100E20004546E0B5A1B0049003911C008B89914622
:100E30001B0604D50B690593002B00D119E1002393
:100E400008AD6B6120336B761033AB762F3B984641
:100E50004B461B780794924F002B00D186E0252B40
:100E600000D104E14E4603E0252B00D18BE02600A3
:100E70007378741C002BF7D14B46E31A9A4675D051
:100E800053464A4603990498FFF7D4FE431C6DD09D
:100E90006B6953446B617378002B67D00122002388
:100EA00052426A60443201342B60EB60AB60AB5459
:100EB000AB6506E04346C01B834034002A681343F9
:100EC0002B6021780522380000F0E0FA661C00282B
:100ED000F0D12B68B246DA0602D543222021A9546C
:100EE0001A0702D543222B21A95421782A2950D14F
:100EF000079A111D12680791002A00DA9AE0EA6049
:100F00006178A61C2E295CD0664B032218009946F6
:100F100000F0BCFA002800D171E04B46C01A402313
:100F200083402A68317813432B600622731C5E4885
:100F30009946297600F0AAFA00286AD05B4B002B6C
:100F400000D170E007AB0093039A594B2900049835
:100F500000E000BF83465B46013307D06B695B440A
:100F60006B614B461B78002B00D078E7039B9B8975
:100F70005B0600D58CE0686921B03CBC9046994680
:100F8000A246AB46F0BD4B46E31A9A4600D185E730
:100F900076E70A00303AA246092AB3D8EB6818006F
:100FA00001E03400013683001B1831785B0098188B
:100FB0000A00303A092AF4D9B246E860A61C2E2964
:100FC000A2D1534659782A293AD1079B1A1D079274
:100FD00052469178D61C022294461B68E2446B600C
:100FE000002B00DB90E701235B426B602D4B03225B
:100FF0001800994600F04AFA002800D08DE7B14663
:101000005646317806222848297600F03FFA002813
:1010100094D107AB0093039A254B2900049800F064
:10102000E1F8834697E70722079B0733934308338A
:10103000079393E75242EA60022213432B605FE773
:101040000A000023303A6B601800092A01D91CE01D
:101050001E0083001B1871785B0098180A00303A54
:10106000731C092AF4D99A46023668604CE74C464C
:1010700014E74021FFF7DCFB039B18601861002890
:1010800009D04023039A5361D9E6B24601363BE7C3
:101090000120404270E70C23049A013813606BE78B
:1010A0008C7E0000947E0000987E0000000000000E
:1010B000350C0000F0B54F464646D646C0B51F0079
:1010C000089B914698468A680B6906000C0093427B
:1010D00000DA13004A4613604322A25C002A02D0C1
:1010E0004A460133136023689A065AD54B461B685B
:1010F00006209A1C4B461A6023681900184208D132
:10110000E16800258A1A19218A461900A244002A9A
:101110003FDC4323E35C5A1E93418A060AD5302004
:10112000E1184331087045215A1C615CA218433212
:10113000023311702200390043323000C047431C93
:1011400019D006232068A26821690340042B30D0FF
:101150008A423ADD00239946521A91441A340025F6
:1011600002E001354D4530DA01232200390030001C
:10117000C047431CF5D1012040421CBC9046994613
:10118000A246F0BD4B46E2681B680135D31AAB425C
:1011900020DD0123524639003000C047431CF1D105
:1011A000E9E706221A4212D04323E35C5A1E934118
:1011B000C0E74B46E0681B68C31AD843C017184005
:1011C00081468A42C8DC002BC8DC0020D5E74A46AD
:1011D000126895E743232168E35C5A1E93418A060F
:1011E0009DD4A7E7F0B557469A4643239C464E4602
:1011F0004546DE468C446346E0B587B003930B7EDC
:10120000914680460C00109A6E2B00D1D8E000D891
:1012100071E0732B00D11AE100D881E0752B00D169
:10122000FFE0782B00D00BE10B687820452160545B
:1012300094498B46116840C91160180603D45806BA
:1012400001D53604360CDA0702D520221343236079
:101250001027002E00D1C2E043230022E25463682D
:10126000A360002B00DAC5E00422216891432160CD
:10127000002E00D083E0002B00D0BDE0039D082F9E
:1012800000D18CE0039B5B1B2361534605AA0093AE
:1012900021004B464046FFF70DFF431C22D0236937
:1012A0002A0049464046D047431C1BD02268059877
:1012B000E368920700D47FE01A1A002A00DC7BE082
:1012C00026000025193606E0E368059801351A1A4C
:1012D000AA4200DC70E00123320049464046D04774
:1012E000431CF1D10120404207B03CBC90469946D6
:1012F000A246AB46F0BD632B00D184E01FD8002B83
:1013000069D0582B00D09BE0452163545E49236887
:101310008B46116840C91160180600D48FE792E728
:101320006F2B7ED0702B00D08AE0202309687820B4
:101330000B4345212360605452498B467AE7642B66
:1013400001D0692B7CD111682368081D10601D062F
:101350004AD50A681600002A03DB4B4B0A279B4636
:101360007DE743222D21A15462687642A260002AC3
:1013700002DB042293432360434B0A279B46039DD1
:1013800000E006003900300000F0EAF95B465B5CE3
:10139000013D2B70BE42F4D2082F00D072E72368C3
:1013A000DB0700D46EE763682269934200DD69E7DA
:1013B0003023013D2B7065E7984295DA180093E7DA
:1013C000136809681D1D606915601B680E0601D44D
:1013D00049064BD418600023039D236155E7202361
:1013E00022689A43226037E75D06B2D500228E5EFE
:1013F0003200B0E7002EC2D15B4625001A784223A6
:101400004235E2543BE713682500191D11601A6844
:101410004223E254413B4235236143230022E254FC
:1014200033E7116820680D1D1560060601D44006DB
:101430001ED40E686F2B1DD0134B0A279B460BE75B
:1014400042222500A354012342352361E5E71368B6
:10145000191D11601D6862680021280000F016F84F
:1014600000280BD0401B60602061D6E71880B2E7EF
:101470000E88DFE7044B08279B46EDE66068206195
:10148000CBE7C046B47E0000A07E000070B5CDB2B0
:10149000830734D0531E002A1BD00278AA4219D0E9
:1014A000032404E0013B14D30278AA4212D0013095
:1014B0002042F7D1032B0ED8002B0AD00278AA4283
:1014C00008D0C31802E00278AA4203D00130834258
:1014D000F9D1002070BDFF220C06240C11402143DD
:1014E0000C04084E0C4302680749624051189143AE
:1014F0003142E3D1043B0430032BF4D8DCE7130082
:10150000D8E7C04680808080FFFEFEFEF0B5C6466C
:1015100000B588420CD98B18984209D2531E002A74
:1015200003D0CA5CC254013BFBD204BC9046F0BD60
:101530000F2A0CD80500561E002AF6D0002300E022
:101540002300CA5C5C1CEA549E42F9D1EDE70B0013
:10155000032603431E400C000300002E2ED115006D
:10156000103D2D09AC462D01A846804400E02B001B
:101570001D00276810351F6067685F60A7689F605F
:10158000E7681034DF604345F1D165460F230C2432
:1015900001352D01491913404519144211D08C59B8
:1015A000AC5104369C1B032CF9D80324043B9B0844
:1015B00001339B00ED18C9182240BCE7561E0500F8
:1015C000BCE71A00B7E7C046F8B507000C001500E5
:1015D00000291BD0002A15D000F01EF82600A842D2
:1015E00001D33000F8BD29003800FFF721F9061EAD
:1015F000F7D021002A00FFF71DF821003800FFF77F
:10160000C1F8EEE7FFF7BEF80026EAE71100FFF7A2
:101610000FF90600E5E7C0460B1F1B68181F002BDB
:1016200000DB70470B58C018FBE7C04602B4714698
:1016300049084900095C49008E4402BC7047C04615
:1016400003B47146490840004900095E49008E44D0
:1016500003BC7047002243088B4274D303098B42BA
:101660005FD3030A8B4244D3030B8B4228D3030C72
:101670008B420DD3FF22090212BA030C8B4202D314
:101680001212090265D0030B8B4219D300E0090A3C
:10169000C30B8B4201D3CB03C01A5241830B8B4245
:1016A00001D38B03C01A5241430B8B4201D34B032E
:1016B000C01A5241030B8B4201D30B03C01A524193
:1016C000C30A8B4201D3CB02C01A5241830A8B4218
:1016D00001D38B02C01A5241430A8B4201D34B0201
:1016E000C01A5241030A8B4201D30B02C01A524165
:1016F000CDD2C3098B4201D3CB01C01A5241830919
:101700008B4201D38B01C01A524143098B4201D352
:101710004B01C01A524103098B4201D30B01C01A7D
:101720005241C3088B4201D3CB00C01A52418308F7
:101730008B4201D38B00C01A524143088B4201D324
:101740004B00C01A5241411A00D201465241104684
:101750007047FFE701B5002000F0F0F802BDC04679
:101760000029F7D076E7704703460B437FD4002269
:1017700043088B4274D303098B425FD3030A8B4225
:1017800044D3030B8B4228D3030C8B420DD3FF228F
:10179000090212BA030C8B4202D31212090265D05D
:1017A000030B8B4219D300E0090AC30B8B4201D310
:1017B000CB03C01A5241830B8B4201D38B03C01A57
:1017C0005241430B8B4201D34B03C01A5241030BCE
:1017D0008B4201D30B03C01A5241C30A8B4201D37F
:1017E000CB02C01A5241830A8B4201D38B02C01A2A
:1017F0005241430A8B4201D34B02C01A5241030AA1
:101800008B4201D30B02C01A5241CDD2C3098B4285
:1018100001D3CB01C01A524183098B4201D38B0102
:10182000C01A524143098B4201D34B01C01A5241A5
:1018300003098B4201D30B01C01A5241C3088B42EA
:1018400001D3CB00C01A524183088B4201D38B00D5
:10185000C01A524143088B4201D34B00C01A524177
:10186000411A00D201465241104670475DE0CA0F4E
:1018700000D04942031000D34042534000229C460E
:1018800003098B422DD3030A8B4212D3FC22890118
:1018900012BA030A8B420CD3890192118B4208D3EE
:1018A000890192118B4204D389013AD0921100E050
:1018B0008909C3098B4201D3CB01C01A5241830964
:1018C0008B4201D38B01C01A524143098B4201D391
:1018D0004B01C01A524103098B4201D30B01C01ABC
:1018E0005241C3088B4201D3CB00C01A5241830836
:1018F0008B4201D38B00C01A5241D9D243088B428C
:1019000001D34B00C01A5241411A00D2014663462E
:1019100052415B10104601D34042002B00D5494292
:10192000704763465B1000D3404201B5002000F0D1
:1019300005F802BD0029F8D016E770477047C04689
:10194000F0B557464E464546DE46E0B598460C0390
:101950004B000600924687B0240B5B0DCF0F002B87
:101960006CD0DD4A934200D186E0420FE40014437C
:10197000802212041443D94AC5009446634400935C
:10198000002399469B46434642461E03D20F5B0006
:1019900050469046360B5B0D00D178E0CE4A93421C
:1019A0001DD0CE49420F8C4600996344F6008C4608
:1019B000164380229C44120463461643C200002052
:1019C00000930099434601318C4649467B40019380
:1019D0000F2900D97EE0C24B890059588F465246E4
:1019E000009B324300D056E1BB4900268C4663443D
:1019F000494600930223194389460220E1E7434602
:101A000001933400150083465B46022B5ED0032B06
:101A100000D1F3E1012B00D018E1002200240025C1
:101A2000019B12052243DB071A432800110007B06F
:101A30003CBC90469946A246AB46F0BD2500054306
:101A400000D141E1002C00D1ADE1200000F0E4FA2A
:101A5000010002000B391D2310005B1A3100350014
:101A600008388440D94085400C439E48831A00932F
:101A7000002399469B4686E70500254300D01CE1DC
:101A8000082200930223002491469B467BE752469E
:101A9000324300D10AE1002E00D176E1300000F09F
:101AA000BBFA02000B3A1D2301009B1A524608396B
:101AB000DA408E40164352468A40009B8949181AE4
:101AC00003008C466344002000937AE7002400253D
:101AD000814AA5E72F0C2D042D0C2B00110C1204AC
:101AE000120C53439846130028007B439946484301
:101AF0004844834640460B00000C824658467B43D0
:101B000050440293814506D99A4680235B02994648
:101B1000CA4453460293030C9B4643461B040004ED
:101B20001B0C9846030043440493330C99462B0046
:101B30003604360C7343984633007B439A464B4633
:101B40005D435F4343465544180C4019824503D911
:101B500080235B029A465744050CEB1905934346D4
:101B60001D042D0C00044019250C2404240C27000E
:101B700057436A4390462A003B0C9A464A436143C6
:101B8000414451448344884503D980235B029846ED
:101B900042443F040B0C3F0C0904C9192700984626
:101BA0004B4677435C436E435D433B0C9946A41917
:101BB0004C4442440395A64204D980235B029846D4
:101BC00045440395029B3F045B441E0083428041D1
:101BD00023049846059B3F0C4744984676188E424E
:101BE0008941474440423D18A846934649428A46A7
:101BF000C3449F42BF4180458041039BDA449846DD
:101C0000534640427F420743240C934592418A4504
:101C100089413F19DC0D049B75021D43681E8541F7
:101C20005346524249420A43BF184744F60D7F02C9
:101C300035435A023C431543FB0100D4C1E0012166
:101C40006A080D401543E2071543640826496144BC
:101C5000002956DD6B0709D00F222A40042A05D03F
:101C60002A1DAA42AD416D4264191500E30104D555
:101C700080211E4AC900144061441D4A914200DD82
:101C800024E76207ED08640249051543240B4A0D59
:101C9000C6E60197B8E6104A0320944663444A46D4
:101CA000009303231A43914652468AE6494601238C
:101CB000194389460026012083E60C220093032362
:101CC000050091469B465EE6042399460023009357
:101CD000013300249B4656E6FF07000001FCFFFF8E
:101CE000706400000DFCFFFFFF030000FFFFFFFE1C
:101CF000FE070000002380240025444A01932403AA
:101D00008EE60120401A382800DD86E61F285BDDBC
:101D10001F2223005242511ACB401900202803D021
:101D20003B4A6244944025436A1E95412A000A4377
:101D300007210D000024154011425BD00F21002423
:101D40001140042953D0111D914292415242A418CE
:101D50000A0023024BD501220024002560E68023DF
:101D60001B031C4209D01E4207D133431C034346C8
:101D70001500240B254A019352E6802212031443D6
:101D80002403224A240B01974AE600F045F9030098
:101D90001A00153220301C2A00DC84E65646083B27
:101DA00000229E4089E600F037F90100020015315B
:101DB00020321C2900DC4EE634000838002584401F
:101DC00053E6009B9C4641E71249220061442E00E5
:101DD0008D408A40C640691E8D4132432A43C4402B
:101DE0005307B6D00F2111400429ACD1B1E76507E4
:101DF0006402240BD2081543002211E6802212034C
:101E000014432403014A240B0AE6C046FF070000DE
:101E10003E0400001E04000070B5002816D0C31751
:101E2000C5185D40C40F280000F0F6F8114A121AD8
:101E30000A2816DC03002E0015339E400B23181AC7
:101E4000C54053052D032D0B5B0D03E0002400233B
:101E5000002500261B052B43E4072343300019000F
:101E600070BD0B38854053052D0300262D0B5B0DEF
:101E7000F0E7C0461E04000070B543004602C40FE0
:101E8000FE201B0E591C750A08420CD0E02292005D
:101E900094466D07360B63441B053343E407234325
:101EA0002800190070BD002B14D1002D1BD0280074
:101EB00000F0B2F80A281CDC0B232A001B1ADA40B7
:101EC000030015339D400E4B12031B1A5B05160BC6
:101ED0005B0DE1E7002D09D0320B80263603094B5C
:101EE0006D071643D8E700230026D5E70026054BEB
:101EF000D2E703002A000B3B9A400025E3E7C046E7
:101F000089030000FF07000002004B00F0B5080342
:101F10005B0D3D4ECC0F400A510F5F1C0843D500AE
:101F200037420AD039495E18FE2E16DDFF23002104
:101F3000DB050B43E0071843F0BD002B06D1284317
:101F400027D005218901490ADBB2F1E70543EDD02D
:101F50008021C903FF230143EAE7002E1CDD920123
:101F600011004A1E9141C0006D0F014329434B07E8
:101F700048D00F230B40042B00D004318023DB0416
:101F80000B403FD0721CFE2ED0D08901490AD3B23B
:101F9000CEE700230021CBE73200173222DB80217D
:101FA0001E2209040843921B1F2A1DDD02214942FB
:101FB0008E1B0100F1400E00202A04D0144A9446E2
:101FC00063449840054329004D1EA9413143002632
:101FD0004B07CED180200B00C004012203400142F8
:101FE000D3D1AFE70023ACE70A498C46290063440C
:101FF000D1409D400A00290098404D1EA94101434F
:102000001143E4E733009DE7FE07000080FCFFFF7B
:10201000A2FCFFFF82FCFFFF1C2101231B0498424E
:1020200001D3000C10391B0A984201D3000A083969
:102030001B09984201D30009043902A2105C401820
:102040007047C046040302020101010100000000C4
:1020500000000000FEE7C0460A4A0300116810B500
:10206000002901D10849116010680849C3188B4242
:1020700006D9FEF779FA0C2303600120404210BD17
:102080001360FCE7B8FFFF1F300200203002002081
:10209000837802209842804140427047437A002072
:1020A000013B012B03D90B78013001330B707047D2
:1020B000C023174A9B001360164A1360164A136028
:1020C0000023164A1360164A1360164A1360164A14
:1020D0001360164A1360164A1360164A1360164AB4
:1020E0001360164A1360164A1360164A1360164AA4
:1020F0001360164A1360164A1360164A1360164A94
:102100001360164A1360164A1360164A136070472C
:102110000090145404901454089014540C901454C7
:102120001090145414901454189014541C90145477
:1021300020901454249014543090145400A014543B
:1021400004A0145408A014540CA0145410A0145447
:1021500014A0145418A014541CA0145428A01454EF
:102160002CA0145434A0145403003038092805D985
:102170001A00613A052A02D8573B180070471A0026
:10218000413A0020052AF9D8373BF6E710B5002080
:1021900003F018FD002803D00021080003F006FD1D
:1021A00010BD0000024A1368013313607047C04637
:1021B00080FEFF1F10B50721014803F0B1F910BDE3
:1021C00000C007400122024B52421A607047C046CD
:1021D000A090044037B5012002F019FBC023002471
:1021E0000D4A9B0013600D4A0D4D13600D4A2000EF
:1021F00013600D4B2C716C71AC711A68FA239B0043
:1022000053430A492B6003F02BFD2900200001AA4B
:1022100003F08CFD37BDC046189014542090145420
:10222000640000202490145484FEFF1F340000201A
:1022300010B5002003F056FD80230A4A5B001360AE
:10224000094A07201360094A136002F091FD062035
:1022500002F08EFD092002F08BFD002002F0DCFA76
:1022600010BDC046189014541C901454249014545B
:1022700010B5002002F0DAFA8023064A9B001360B2
:10228000054A0020136002F08BFE0020034902F093
:102290004BFE10BD0CA0145410A0145410000020CC
:1022A00010B5002002F07CFE0020034B1860034BA9
:1022B000186002F0C0FA10BD0CA0145410A0145401
:1022C000014B1B887047C04674FEFF1F0FB41FB53B
:1022D0000E4B1B78DCB2002B0FD107AB03934023CE
:1022E0002000009306990A4B03AA01F01BFE002868
:1022F00007DA2000074901F029FD1FBC08BC04B023
:102300001847052002F055F8F7E7C046CDFFFF1F3C
:10231000CEFFFF1FB07B000010B50400002901D0E4
:10232000FFF7C6FE0021022001F08AF821000420F8
:1023300001F086F8002802D00148FFF7C7FF10BD62
:10234000DA640000F8B50E00040026481500FFF717
:10235000BDFF2548FFF7BAFF320021002348FFF7F1
:10236000B5FF234B23481968234B244E1A68244B8E
:10237000244F1B68FFF7AAFF234B244CF95824482D
:1023800072693368FFF7A2FF21786278A379214848
:10239000C9B2D2B2DBB2FFF799FF1F4B217A227E7E
:1023A0001B781E48C9B2D2B2DBB2FFF78FFF1C4BBD
:1023B0001C4819785A781C4BC9B21B69D2B2FFF776
:1023C00085FF1A4B1A4899781A4BC9B2FA587368A4
:1023D000FFF77CFF184B2A7819681848FFF776FF3B
:1023E000F8BDC0463865000078650000AA650000A9
:1023F00078FEFF1FDE65000084FEFF1F00D0034053
:102400008CFEFF1F007004403C100000004006409E
:10241000156600004B660000005006407A6600001A
:1024200000E00740AA66000000ED00E000D0074091
:10243000E46600003410000080FEFF1F1C670000EF
:1024400010B501F08FFC0028FBDB10BD70B5FFF765
:10245000F7FF0400FFF7F4FFFF26050020003040DF
:10246000FFF782FE040028003040FFF77DFE2401C4
:102470002018C0B270BD70B5FFF7E2FF0600FFF78D
:10248000DFFF0500FFF7DCFF0400FFF7D9FFFF22A5
:10249000FA23642116401540303E14409B00303D25
:1024A0004D4373435A39303C4C435B1910401B1960
:1024B0003038181870BD0000F0B591B01C0016AB94
:1024C0000C91197817AB05921A7818AB1B78050098
:1024D0000D931CAB1B780EA80E931DAB1B880F1C15
:1024E000099321231B18DB7F08931FAB1B880F93D5
:1024F00020AB1B780A93914200D9171C059BFFB2B1
:10250000002C05D1002B05D15448FFF7DFFE01E078
:10251000002BF9D1280000252E00514B1B88FFF716
:10252000D5FE099B04950293069500230793079B0C
:10253000199A934200DC8FE00E9B002B04D00137E8
:102540000D9BFFB29F42F0D9069B3100F21845481F
:10255000FFF7BCFE322001F02CFF3200089B0499EB
:102560004148FFF7B3FE322001F023FF29003F4826
:10257000FFF7ACFE322001F01CFF11B0F0BD039B51
:102580002C22FB180B936B469B18187801210C9B8F
:102590009847002848D1029B099A0136934204D9F2
:1025A000643B9BB202932E4B1B88002C27D0E36820
:1025B000089A9B789B1A5A425341049AD318049361
:1025C0000A9B002B0BD0E268E368E06803998078EF
:1025D0005B781278791800902548FFF777FE1B9BEF
:1025E000002B02DD180001F0E4FE039B013303938E
:1025F000039B1A9A9342C2DB079B013396E7059B24
:10260000089A9B789B1A5A425341049AD318049310
:102610000A9B002BE3D0059B16489A78039BD2B205
:10262000F918FFF753FEDAE7022810D10B99124888
:10263000FFF74CFE069B0F9A01330693029B9342D1
:10264000CDD264339BB20293054B1B88C7E7033896
:10265000434258412D18C2E70023C8E74A670000EB
:1026600074FEFF1FC4670000DC6700000D680000F7
:10267000776700009C670000B1670000F0B593B079
:102680001C0018AB0E91197819AB17001A781AAB09
:102690001B7805000F931EAB1B7810A810931FAB7F
:1026A0001B880B9321231B18DB7F0A9321AB1B880C
:1026B000119322AB1B780C930B1C914200D9131C75
:1026C000DBB20393002C05D1002F05D16048FFF742
:1026D000FDFD01E0002FF9D15E4B28001B88FFF7BC
:1026E000F5FD0B9B049300231D00089306930793AD
:1026F00000230993099B1B9A934200DCA6E0109BE0
:10270000002B06D0039B0F9A0133DBB20393934255
:10271000EED9079B2900EA184F48FFF7D7FD322072
:1027200001F047FE2A000A9B06994C48FFF7CEFDB0
:10273000322001F03EFE08994948FFF7C7FD3220DC
:1027400001F037FE13B0F0BD059A039B9446634435
:102750000D9334226B469B181E78022130000E9B8D
:102760009847002858D1049B0B9A0135934204D90D
:10277000643B9BB20493374B1B88002C28D0E36842
:102780000A9A9B789B1A5A425341069AD318069389
:102790000C9B002B0CD0E268E368E068039980781A
:1027A000059E5B781278891900902E48FFF78EFD00
:1027B0001D9B002B02DD180001F0FBFD059B013382
:1027C0000593059B1C9A9342BEDB099B013390E75E
:1027D0000A9ABB789B1A5A425341069AD318069319
:1027E0000C9B002BE4D0B978FA783000D2B2C9B291
:1027F00001F044F9BE78FB78F6B2DBB20D93FFF737
:102800003BFB0090019105980399320009180D9B3C
:102810001548FFF75BFDCBE7022810D10D9913484F
:10282000FFF754FD079B119A01330793049B9342D2
:10283000BED264339BB20493064B1B88B8E70338BF
:1028400043425841089B1B180893B1E70023B7E7A0
:102850004A67000074FEFF1FC4670000DC670000C9
:102860000D6800007767000022680000B167000073
:1028700070B50C00160088B00CAA157806A908805F
:102880000A4A05A805700A4D12682D684A6004AA14
:1028900016700193009023000020029502F0A8FC1E
:1028A000002800D0022008B070BDC04678FEFF1F8F
:1028B0007CFEFF1FF7B56A46CB1DDB08DB00D31A91
:1028C00002AF9D460C000500FFF784FC0021094B78
:1028D00002AE1B682A00019300943300080003F045
:1028E00081FA0400FFF7A4FC002C00D00424BD46AC
:1028F0002000F2BD88FEFF1FF0B50027C9B03900E7
:1029000007222AA8FDF7EAFE8022012403260AAB4B
:102910009B181C701AAB32931CAB33932AAB3493C5
:102920001EAB359320AB369322AB379324AB389351
:1029300026ABC14A399328AB38003A9316AD2FAB7A
:102940001E712F921993319501F04CFF200001F078
:1029500049FF8022B94B12021A6001F049FD3B0089
:102960003A0039000094380001F01CFA2300B44A00
:102970000221B44801F060FD2100200001F068FD53
:10298000380003F05DF89022AF4B2CA92C930AABD2
:102990009B181F8002320AAB9B1838001F702D94C1
:1029A00003F07AF8220039002800FDF797FE07228D
:1029B0002AA91EA8FDF73EFE50220AAB9B182AA9A1
:1029C000493A20A81E70FDF735FE582105230AAAB2
:1029D000521813702AA907221AA8FDF72BFE4021CE
:1029E00002230AAA521813702AA907221CA8FDF76D
:1029F00021FE482104230AAA521813702AA907228B
:102A000022A8FDF717FE602108230AAA52181370A6
:102A10002AA9072224A8FDF70DFE68220AAB9B18FD
:102A20000636613A2AA926A81E70FDF703FE70211A
:102A30000A230AAA5218137078220AAB9B18310095
:102A400019AA1F7032A8230001F050FF7F48FFF73A
:102A50003DFC7F497F4802F063F97F4E3000FFF76D
:102A600035FCC0237D4A9B0013607D4A7D4813607E
:102A70007D4A1360FFF72AFCFFF71AFB3000FFF7CF
:102A800025FCE1211D20C90000F08EFDFA21402027
:102A9000090100F0A1FF754B75481C70FFF716FC8B
:102AA000744B75481C781F70FFF710FC714BE4B233
:102AB0001C70724C01F056F90600012001F079FCFF
:102AC000002E19DA013C002CF4D16D4B2A00188835
:102AD000210080B2FFF736FC96226A4B520021009B
:102AE00008201A6000F0ACFC071E02D06648FFF711
:102AF000EDFB6648FFF7EAFB65480026FFF7E6FBBB
:102B000000F042FE05230D960C930023594A5C4CBD
:102B100013702088310016AA80B2FFF713FC5D48BD
:102B2000FFF7D4FB5C48FFF7D1FB5C48FFF7CEFB17
:102B30005B48FFF7CBFB5B48FFF7C8FB5A48FFF742
:102B4000C5FB5A48FFF7C2FB5948FFF7BFFB59487E
:102B5000FFF7BCFB5848FFF7B9FB31000C9A574808
:102B6000FFF7B4FB5648FFF7B1FB5648FFF7AEFB43
:102B70005548FFF7ABFB5548FFF7A8FB5448FFF754
:102B8000A5FB5448FFF7A2FB5348FFF79FFB5348B0
:102B9000FFF79CFB5248FFF799FB5248FFF796FB63
:102BA0005148FFF793FB5148FFF790FB5048FFF760
:102BB0008DFBFFF745FCFF2301000E9019400A2909
:102BC00000D1C8E3080050382A2800D9DFE0FEF71A
:102BD00037FDBD03DE009CFFDE00DE00DE00DE0010
:102BE000DE00DE00DE00BB03DE00DE00DE00DE0015
:102BF000DE00DE009500E000F20002010C0115018C
:102C00004F015A01DE006B0111021E021E02ED028D
:102C10009CFFF002DE00FC0205030A036F03DE00E6
:102C2000DE007C03DE008403324B0D9301236BE74F
:102C3000314B0D93022367E79D2000001C0200200A
:102C400064FEFF1FECFEFF1FE00701004A68000062
:102C500098FEFF1F90FEFF1F8D6800000090145427
:102C6000049014546768000008901454CCFFFF1FB0
:102C700088680000CDFFFF1F94680000B80B0000BB
:102C800074FEFF1F78FEFF1FB3680000106900008C
:102C9000426900008669000090690000AD6900008B
:102CA000C9690000E5690000026A0000296A0000A5
:102CB000486A0000746A00009F6A0000C26A00004F
:102CC000F16A00000D6B0000316B0000556B0000D5
:102CD0007C6B0000A46B0000C26B0000DF6B000087
:102CE000FE6B00001D6C0000376C0000626C000081
:102CF0008D6C0000BCFFFF1FC4FFFF1FE448FFF7FF
:102D0000E5FAE448FFF7E2FAE348FFF7DFFAE348C1
:102D1000FFF7DCFAE248FFF7D9FAE248FFF7D6FA04
:102D2000E148FFF7D3FAE148FFF7D0FAE048FFF7B0
:102D3000CDFAE048FFF7CAFADF48FFF7C7FADF48E5
:102D4000FFF7C4FADE48FFF7C1FADE48FFF7BEFA24
:102D5000DD48FFF7BBFADD48FFF7B8FADC48FFF7BC
:102D6000B5FADC48FFF7B2FADB48FFF7AFFADB4809
:102D7000FFF7ACFADA48FFF7A9FAFFF761FBFF218A
:102D80000140352900D14FE7362900D150E7D54819
:102D90000EE0D548FFF79AFAFFF76DFBD34BD44A04
:102DA00018601968914201D1D24A1A601968D24854
:102DB000FFF78CFAA9E6D148FFF788FAFFF75BFB2B
:102DC000CF4BCB4A18601968914201D1C94A1A60A9
:102DD0001968CC48ECE7CC48FFF778FAFFF74BFBD3
:102DE000CA4B18601968CA48E2E7CA48FFF76EFA8A
:102DF000FFF72CFB06000100C748D9E7C748FFF7DB
:102E000065FAFFF723FBC64D010004002800FFF719
:102E10005DFAC448FFF75AFAFFF718FB34220AABF1
:102E20009B18010018702800FFF750FABE48992C33
:102E300037D0AE4B3BAD1B682C803C93BB4B1A8804
:102E40001B88FFF715FABA4B18AA1B681670029375
:102E5000012317A9009100202900019302F0C8F96D
:102E6000011E02D0B348FFF731FAFFF719FA4CE61A
:102E7000B148FFF72BFAFFF7FEFA80B220802188D5
:102E8000AE4889B294E7AE48FFF720FAAD4C200077
:102E9000FFF71CFA2000FFF719FAAB48FFF716FA04
:102EA000AA48FFF713FA30E63100A948FFF70EFAF7
:102EB000FFF7C6FA3038431E9841C3B2A5481293B3
:102EC000FFF704FAFFF7BCFA30381390A248FFF777
:102ED000FDF9FFF7B5FA3038431E9841C3B29F4859
:102EE0001493FFF7F3F9FFF7C6FA0E909C48FFF72B
:102EF000EDF9FFF7C0FA0F909A48FFF7E7F9FFF7EF
:102F0000BAFA04009848FFF7E1F9FFF79FFA0E9B21
:102F10001590009395480F9B32000C99FFF7D6F956
:102F2000824B1B889BB21093A3B211930C9B981EEB
:102F300003283CD8FEF77AFB02565A5C32218C4AB1
:102F40003BA8FDF72BFD00203BA900F0FFFE00256C
:102F5000149B00240A93119B28000993159B854A12
:102F60000893109B84490793129B019406930E9B30
:102F700000960593139B04930F9B039305230293E1
:102F80002300FFF77BFBFA20800001F012FA00F02B
:102F9000F9FEA04209D03BA93222200000F078FEC1
:102FA0002000764900F0D2FE5FE70135D0E7149BA0
:102FB000734A0A93119B73490993159B72480893AE
:102FC000109B00960793129B06930E9B0593139BF1
:102FD00004930F9B03933123029300230193FFF784
:102FE0006BFA42E76948FFF771F93EE76848FAE78C
:102FF0006848F8E76848FFF769F9012420000021D4
:10300000FFF78AF921003C20FFF786F9F6E74C48E4
:10301000FFF75CF96148FFF759F9FFF717FAC42386
:103020000AA9C91808705E48FFF750F9FFF723FA9C
:1030300038226B469B180AA98C321B788A18050027
:1030400012786C2B13D1238801009BB25548FFF7EF
:103050003DF90024AC4200DB57E53BAB1A78002376
:103060000121FF200093FFF703FC0134F2E72388DE
:1030700001009BB24C48FFF729F90024AC4200DB69
:1030800043E501213BA8FFF715FC0134F6E7C046F4
:10309000A06C0000AB6C0000E96C00002B6D000020
:1030A0006C6D0000AC6D0000DC6D0000176E000060
:1030B000566E0000946E0000D16E00000F6F00008D
:1030C0004C6F0000896F0000C96F0000087000009D
:1030D0004570000082700000BD700000FA700000B2
:1030E000377100004B7100006771000078FEFF1F10
:1030F0000F2700001027000095710000B571000037
:1031000084FEFF1FE3710000FD7100008CFEFF1FB5
:103110002C720000477200007D7200009472000063
:10312000C7720000DD7200000673000074FEFF1F0E
:103130007CFEFF1F2C7300004D730000867300009F
:10314000B5730000E37300001374000044740000C2
:1031500076740000B0740000D9740000F2740000AE
:10316000317500005D75000095750000C6750000A2
:1031700003760000C4FFFF1FE5390000277600003A
:10318000BCFFFF1FE13500004D7600005B760000BC
:1031900086760000B1760000E27600000577000038
:1031A00024770000447700008F770000238823886D
:1031B000ABE40021022000F043F9071E00D1A4E493
:1031C0006648082F00D1A0E46BE60021082000F03B
:1031D00037F96348002F00D197E462E66148FFF7B2
:1031E00075F861485DE63BA9002001F0C3FAFA21B9
:1031F0003B988900FEF72EFA01005C48FFF766F85D
:1032000001F00AFD01005A48FFF760F801F09EF94D
:1032100001005848FFF75AF8574B584819684B1E99
:103220009941FFF753F8002001F0FBFA01005448E0
:10323000FFF74CF8002001F003FB01005148FFF7B5
:1032400045F8002001F001FB01004F48FFF73EF870
:10325000002001F0CFFA01004C48FFF737F80120B9
:1032600001F0C8FA01004A48FFF730F8494B4A48D4
:1032700019684B1E9941FFF729F8002001F0C2FAA6
:1032800001004648FFF722F8454B464819684B1E97
:103290009941FFF71BF8444B444819684B1E99416C
:1032A000FFF714F8002001F0D5FA010040487FE54F
:1032B0000D9B4048002B00D1F3E53F48FFF706F88F
:1032C000FFF7C4F80D9B58701FE43C48FEF7FEFF63
:1032D0003B4801F06EF83B48E3E53B48FEF7F6FF5C
:1032E000FFF7C9F881B23948FEF7F0FF3848FEF71A
:1032F000EDFFFFF7A5F8C4B2683C60424441354891
:10330000FEF7E4FF01F010F80121002000F052F96F
:1033100001210500002000F09BFB2D182E48FEF730
:10332000D5FF2E48FEF7D2FF2D48E4B2FEF7CEFFC0
:10333000200000F093F929002A48FEF7C7FF00F0AB
:1033400011FD7128F4D190E52748AAE52748FEF73A
:10335000BDFF2748A5E52748A3E5C046DA7700006A
:10336000B3680000B573000038780000647800008E
:10337000767800008C7800003C80845EB378000092
:10338000C4780000D5780000E6780000FA780000E4
:103390000E7900003C80045022790000337900004F
:1033A00034808459447900003480045A55790000EF
:1033B0006779000078790000B6790000EE790000A6
:1033C000102700000D7A0000177A0000637A0000D1
:1033D000997A000092720000C27A0000E47A00003C
:1033E00091720000877800001B7B0000317B000099
:1033F000537B00007E7B00001FB5040001A9002064
:1034000002F072FB694601A802F0ACFA009B684624
:103410001C1901A9009402F02DFA012201A9002033
:1034200002F08EFB1FBD00000022034B1A608022B9
:10343000024BD205DA67704700901C5804E100E0A7
:1034400070B50D000A2408281CD8FEF7EFF8051DFA
:103450002A3F546771795C0001F0DEFB05240128E6
:1034600010D0FFF7E1FF2800FFF7C6FF002108009A
:1034700001F05EFA01210400002000F0E9FF002CB9
:1034800022D10024200070BD01F0C6FB06240128D3
:10349000F8D0FFF7C9FF2800FFF7AEFF0021012099
:1034A000E6E701F0B9FB08240128EBD001F04EF863
:1034B000002803D00121002000F0CAFF00210220D3
:1034C00001F036FA0028DCD00924DBE701F0A4FB88
:1034D00007240028D6D0FFF7A7FF2800FFF78CFFAE
:1034E0000021032001F024FA040001F095FB0121E2
:1034F0000028C4D1C1E7FFF797FF2800FFF77CFF42
:1035000000210420EEE70021082001F011FA041E3A
:10351000DAD10121080000F09BFFB3E7FFF784FF39
:103520002800FFF769FF0021052001F001FACBE731
:10353000FFF77AFF2800FFF75FFF00210620F4E77E
:10354000FFF772FF2800FFF757FF00210720ECE785
:10355000F0B506000D00114B89B05A7806AC2280F8
:103560000F4A05AF12680792D88880B2FEF7A8FE0E
:103570003E7004AE3570FEF77BFE0A4B3A001B68C6
:1035800021000293012300200193009601F030FEF8
:10359000002800D0022009B0F0BDC046BCFFFF1FCC
:1035A00078FEFF1F7CFEFF1F014B5870D9807047CB
:1035B000BCFFFF1F70B50400084B0D00D88880B217
:1035C000FEF77EFE21000920FFF7C2FF290004005C
:1035D0002A20FFF7BDFF2043C0B270BDBCFFFF1F14
:1035E00070B588B06A46184B04001B780E0013753E
:1035F000182822D8C31F0320012B23D9134B06AD53
:103600005A782A80124A12680792D88880B2FEF748
:1036100057FE6B461C75FEF72BFE0E4B29001B68F0
:10362000002002930C4B0196009305AA012301F0A0
:10363000ECFD002806D0022004E023001D3B0320FF
:10364000142BDBD908B070BDD67B0000BCFFFF1F78
:1036500078FEFF1F7CFEFF1FBEFFFF1F70B5324CC0
:103660000500E08880B2FEF72BFE02210120FFF763
:10367000B7FFA178E278C9B2D2B200281DD02B489A
:10368000FEF724FE02210320FFF7AAFFA178E278CB
:10369000C9B2D2B2002822D02448FEF717FE022178
:1036A0000520FFF79DFFA178E278C9B2D2B20028C9
:1036B00027D01E48FEF70AFE70BD002D03D01C481F
:1036C000FEF704FEDEE79208890111438022194BC0
:1036D000920151401848C918FEF7F8FDD2E7002DB5
:1036E00003D01348FEF7F2FDD9E792088901114390
:1036F0008022104B920151400F48C918FEF7E6FD99
:10370000CDE7002D03D00A48FEF7E0FDD4E792088C
:10371000890111438022074B920151400648C91884
:10372000FEF7D4FDC8E7C046BCFFFF1FD87B0000F2
:10373000DF7B000000E0FFFFEF7B000037B50E25C8
:10374000FF350400280001F005FB0A2000F031FEDF
:10375000280001F00DFB0C2001F00AFBFA23084AB7
:103760009B00147000210193012308000093054B76
:1037700002F038FB0400280001F0ECFA20003EBD06
:103780008C0000206C000020C02310B58024704AFB
:103790009B0013606F4A64001360FEF71BFD6E4BC5
:1037A00020001C606D4B1C606D4B1C6001F0D2FA58
:1037B000642000F0FEFD200001F0DAFA642000F041
:1037C000F8FD200001F0C6FA642000F0F2FD654922
:1037D000002000F0BBFAAE20FFF7B0FFA020FFF7FB
:1037E000ADFF7220FFF7AAFFA120FFF7A7FF00207F
:1037F000FFF7A4FFA220FFF7A1FF0020FFF79EFF25
:10380000A420FFF79BFFA820FFF798FF3F20FFF7BA
:1038100095FFAD20FFF792FF8E20FFF78FFFB020BE
:10382000FFF78CFF0B20FFF789FFB120FFF786FF22
:103830003120FFF783FFB320FFF780FFF020FFF771
:103840007DFF8A20FFF77AFFFF20FFF777FF8B20AD
:10385000FFF774FFFF20FFF771FF8A20FFF76EFF6D
:10386000FF20FFF76BFFBB20FFF768FF3E20FFF74D
:1038700065FFBE20FFF762FF3E20FFF75FFF872056
:10388000FFF75CFF0F20FFF759FF8120FFF756FF7E
:10389000FF20FFF753FF8220FFF750FFFF20FFF7C5
:1038A0004DFF8320FFF74AFFFF20FFF747FFAF20C0
:1038B000FFF744FF2C49002000F048FA2620FFF7CC
:1038C0003DFF0120FFF73AFF2849002000F03EFAB3
:1038D0002520FFF733FF0020FFF730FF0020FFF720
:1038E0002DFF5F20FFF72AFF3F20FFF727FF20492A
:1038F000002000F02BFA1F48FEF7E8FCAF20FFF78E
:103900001DFF2220FFF71AFF0020FFF717FF0020FE
:10391000FFF714FF5F20FFF711FF3F20FFF70EFFB7
:103920000020FFF70BFF3F20FFF708FF0020FFF705
:1039300005FF0020FFF702FF3F20FFF7FFFE0020FA
:10394000FFF7FCFE0C49002000F000FA002010BD3B
:10395000209014542490145434A0145430901454CF
:1039600000A01454F47B00000E7C0000567C000084
:10397000757C0000937C0000B27C0000F0B50D0067
:103980000700124B89B05A7806AC2280104A04AE68
:1039900012686DBA0792D88880B2FEF791FC377032
:1039A00005AF3D800225FEF763FC0A4B32001B6821
:1039B00021000293002001230195009701F018FCDB
:1039C000002800D0280009B0F0BDC046C4FFFF1F8A
:1039D00078FEFF1F7CFEFF1F014B5870D980704797
:1039E000C4FFFF1F70B588B06A46144B04001B78F3
:1039F0000E0003201375052C1DD8114B06AD5A7807
:103A00002A80104A12680792D88880B2FEF758FCC4
:103A10006B461C75FEF72CFC0B4B29001B68002025
:103A200002930A4B0196009305AA022301F0EDFBD5
:103A3000002800D0022008B070BDC046D67B000030
:103A4000C4FFFF1F78FEFF1F7CFEFF1FC6FFFF1F86
:103A500070B50400084B0D00D88880B2FEF730FC2A
:103A600021000020FFF78AFF290004000520FFF74E
:103A700085FF2043C0B270BDC4FFFF1F0902114380
:103A800070B50CB20500010022001348FEF71EFCC1
:103A9000022D0DD0042D12D0012D16D12000FEF7DD
:103AA000BBF90E4A0E4BFDF74BFFFEF72DFA70BD2A
:103AB000A0B2C008FEF7B0F90A4A0B4BF3E72000AA
:103AC000FEF7AAF90022094BEDE709482900FEF7A5
:103AD000FDFB0020EBE7C046D27C0000F168E388E4
:103AE000B5F8E43EFCA9F1D24D62703F0000303FD2
:103AF000097D00000369C268934201D880681B18E1
:103B0000013B981A7047F7B58368C46801931F1B7F
:103B1000436805000E001819A418974207D83A0008
:103B2000FCF788FD019B6868E41A2200F119FCF794
:103B300081FDEC60F7BD0023F7B506001700C568EE
:103B4000019100933369B4689D421FD2013B5B1B16
:103B5000641BBC4200D93C009C4200D91C00736825
:103B6000220058190199FCF765FD009B2D191B19BE
:103B70000093019B3F1B1B190193B368AB4200D11B
:103B80000025F560002FDDD10098FEBD1B19DDE793
:103B9000022310B50F4C104A236163610F4BA261E1
:103BA000E3616423A2640E4A2362E26400230422D8
:103BB000A3626362E362A3656365E3652265094905
:103BC000E01DFCF72BFF20000749FCF727FF20230F
:103BD000A37110BDAC0000202D7D00002801002045
:103BE00024010020367D00003A7D0000F0B5274B0F
:103BF00085B01B780E0002900192002B01D1FFF7D7
:103C0000C7FF1823029A00255343204AD3185A6D40
:103C10009C6D0392944219D91B6D019D1B1B9D4203
:103C200000D91D001827029B30005F43174B2A0064
:103C3000DF19FB6C76191919FCF7FCFC019B641960
:103C40005B1B01933B6DA34200D10024039B019FAA
:103C50001B1B9F4200D91F00002F0CD01823029A73
:103C600030005343094AED19D318D96C3A000919A9
:103C7000FCF7E0FCE419002D05D01823029A034854
:103C80005343C0188465280005B0F0BDAC00002087
:103C900010B50B00EFF31084012181F31088190097
:103CA000FFF7A4FF84F3108810BD0000F8B51600DC
:103CB0001822451C55434243164B0F005D199B18B3
:103CC000DC6A012C10D0022C1BD0002C1FD1280044
:103CD000FFF710FF864205D8320039002800FFF7B1
:103CE00012FF34002000F8BD2800FFF703FF340066
:103CF000864200D90400220039002800FFF703FFA4
:103D0000F0E732002800FFF716FF0400EAE700247E
:103D1000E8E7C046AC000020F8B50B4B04001B7868
:103D20000E001700002B01D1FFF732FFEFF31085D3
:103D3000012181F310883A0031002000FFF7B6FF1F
:103D400085F31088F8BDC046AC00002070B50500B2
:103D500008000C00FCF76AFE210002002800FFF7B3
:103D6000DBFF70BD13B56B46DC1D01222100002076
:103D7000FFF78EFF012801D1207816BD01204042B7
:103D8000FBE7000010B5064C2378002B01D1FFF7AC
:103D9000FFFE636DA06DC01A431E984110BDC04662
:103DA000AC000020F7B5164C0193237805000F00F6
:103DB0001600002B01D1FFF7EBFE2369AB421CD9A3
:103DC000EFF31082012181F31088002D0CD018230D
:103DD000691C59436B43675061184E600199E318A1
:103DE000196200219962596218204543089B6419A1
:103DF000E36282F310880020FEBD01204042FBE711
:103E0000AC000020826810B504004068531C834257
:103E100005D820688154A360E3680133E360A26899
:103E200063689A4209D121682069FFF775FFA3688A
:103E3000984203D001235B42E36010BD0023A360DE
:103E4000FBE70000F0B5050017000800012685B06B
:103E50000A9C02910093B84219D2009A01969642A8
:103E600000D2019201230B9A1A4003920B9A1A4234
:103E700002D1002C10D10024EB680126002B4BDB73
:103E8000009B012B1FD9013B00937E43F8E73900CB
:103E9000FDF7E0FB0136DEE70B9B20269B0704D5F0
:103EA000009B1036002B00D0103E019BA342E3D2B2
:103EB00031002800FFF7A6FFEB68013C002BDBDB9D
:103EC000002CF2D1D7E731000298FDF7C3FB8742FF
:103ED000DBD902983100FDF743FC114B0291195CCC
:103EE0002800FFF78FFFEB68002B05DB390030005F
:103EF000FDF7B0FBBE4211D2039B002B0CD0002C6F
:103F00000AD0019BA34207D220212800FFF77AFFA5
:103F1000EB68013C002BF2DA05B0F0BD0600D8E7F3
:103F2000417D0000F0B58FB007900E001800149985
:103F300015000693FCF712FB069B079A0993149B46
:103F40000D920A9300230B930C93317801360029CC
:103F500007D10C9B0293002B00DD09E10C980FB0F8
:103F6000F0BD252900D0B3E000270822042006E098
:103F7000302B0DD1022300E001231F430E003378C4
:103F8000711C2D2BF8D0F3D8232B10D02B2B0CD059
:103F900000240A213378721C18003038092808D808
:103FA0004C43303C16001C19F4E70743E6E717437F
:103FB000E4E7002102912E2B0ED116000A20327860
:103FC000711C1300303B092B06D8029B0E004343A3
:103FD000303BD3180293F2E7042331780A0001360C
:103FE0009A43682A01D13178F8E7782909D86F29EE
:103FF0000BD8632967D017D8252969D0582900D153
:1040000095E00C9B002BA0DAA3E770390800082983
:10401000F7D8FDF715FBA500F6FFF6FF9400F6FFB5
:104020008300F6FFF6FF8C006429EAD12B681A1D85
:104030001B682A60DA1798180393012350400493F1
:10404000092849DC029B049A0593934200D2059209
:10405000002C05D0039B002B01DB7B0700D5013C26
:1040600002231F4202D0029B002B05D001231F42D6
:1040700002D1002C36D100240C9B0493002BC0DB12
:10408000039B002B3ADA2D215B42039309A8FFF72B
:10409000B9FE0C9B002BB4DB03233B40022B05D164
:1040A000029B002B02D1002C2CD100240C9B0493EA
:1040B000002BA6DB0A22029B03990197009409A812
:1040C000FFF7C0FE9DE72B6819681A1D2A60C9B268
:1040D00009A8FFF797FE94E70A21FDF745FB049B2B
:1040E0000133ACE7059BA342C6D2202109A8FFF704
:1040F00089FE0C9B013C002BBBDABDE77B07C8D5D2
:104100002B21C3E7059BA342D0D2302109A8FFF79A
:1041100079FE0C9B013C002BC5DAC7E70A2229680F
:1041200001970B1D2B60029B00940968C7E7296863
:1041300001970B1D2B60029B00941022F5E72B6862
:104140001A1D2A601C6821780134002900D158E723
:1041500009A8FFF757FE0C9B0293002BF3DA50E7F8
:1041600029680B1D2B600023019308330093E4E7BB
:104170000B9A002A03D006990798FFF7CDFD0C9BF8
:1041800002930B9B0393039A029B944663440C9304
:10419000E4E610B5002000F0F9FD10BD10B50020D8
:1041A00001F02CFD10BD10B5002001F005FA10BD86
:1041B000082310B5164A9178194202D091780B4322
:1041C0009370882100222220124B49015A50124933
:1041D000124C08708020124940025850196811484A
:1041E00001401960195910480840C0218904014351
:1041F000195180210D4B1A7219767F391A70597036
:104200000B490A700C3299791142FCD110BDC0469D
:1042100000D007400070044000E007400410000098
:1042200044100000FFFFF3FFFFFFFFF000400640D7
:10423000005006401249134810B5814205D00022B3
:10424000114B9B089B009A420FD1104B104A99606A
:10425000002310491048521A9A420AD100210F4BEC
:104260000F4AD21A013A08D210BD84588C50043239
:10427000E9E7CC5CC4540133EEE719700133F1E790
:1042800000000000000000000000000000ED00E061
:10429000F47F0000F07E000000FEFF1F04FFFF1F00
:1042A0002C020020030041700020187058609860B4
:1042B000704710B5437804000120FF2B08D000F0B0
:1042C000DDFA63780133DBB2637000F0CBFA0020D3
:1042D00010BD0020704770B504000D0000F0CEFA4C
:1042E000E1682943E16000F0BDFA002070BD0000E4
:1042F00000220A4B9A641A0040329A631A00303244
:104300009A621A0020329A611A0010329A60044AA6
:104310001360044B9B60DB607047C0469001002037
:104320008C010020E00100200022024B1A60186876
:1043300080B270470C007C5070B5437804000D00CB
:10434000002B0BD0002500F099FA6378013BDBB21B
:104350006370257000F086FA280070BD02200029E5
:10436000FBD02378002B17D0FFF7DEFF6368A2682D
:10437000834204D8C01A824206D30320EDE7C01A54
:1043800080235B02C018F6E700F078FA0023237060
:1043900000F068FA0220E0E74B1CEED000F06EFA65
:1043A0000123237000F05EFAFFF7BEFFA560606096
:1043B000E3E770B50500FFF7B7FF8026040076023B
:1043C000FFF7B2FF0300844203D8031B9D42F7D2DC
:1043D00070BD301BC318F9E710B5012801D100F0FA
:1043E0004DFA10BD10B5012801D100F03BFA10BD07
:1043F00010B5FFF77DFF01230020084A084913602C
:10440000084A094C1060086004212160074C2160B3
:1044100007490B6007490860136010BD38800450DD
:1044200000008450000004500000045104000451B6
:1044300004000C500000045310B5044C206021719E
:104440000020A2602373637310BDC046F0010020FA
:104450000422F0B587B005AC3B4E0190029120706C
:10446000617033790092834226D90022337B150094
:10447000737301230092A3700393334F3B7BAB42D2
:104480001DD8009B002B02D0029B012B48D101209C
:10449000FFF7A2FF0C20019B002558433368181832
:1044A00000F0D6F8019B012073710226FFF79AFFF6
:1044B000A6703B7BAB421AD8009807B0F0BDBA6833
:1044C000AB009B58002B0FD01A7903990A420BD0EE
:1044D00020001A6899689047002805D0029B7D73D8
:1044E000002B1BD0052300930135EDB2C5E7BA6858
:1044F000AB009B58002B0ED01A7932420BD0200013
:104500001A6899689047002805D0029B7D73002B9C
:1045100017D0062300930135EDB2CAE705230093B7
:104520000023A370013DEDB2FF2DC5D0064BAA00BC
:104530009B68D358002BF5D020001A6899689047E3
:10454000F0E706230093B7E7F0010020014B58790C
:104550007047C046F001002013B504000020217808
:104560000190022920D0032922D0012925D12279C6
:1045700001AB144801F00AF9002814D1A3795A1E9E
:104580009341114ADB01137063785A1E93410F4A1D
:104590005B001370A2780E4B1A70E2780D4B1A7004
:1045A00062790D4B1A7016BD0100227901ABE0E76C
:1045B00001A9044801F02CF9DEE701A9014801F046
:1045C000C9F8D9E70040064018408653004086509D
:1045D000004006500140065018401650084A430952
:1045E0009B009B18F822C005120510401843802339
:1045F0005B0518430068431E9841C0B27047C0462F
:1046000028800440074A43099B009B18F822C005F4
:1046100012051040184380235B05184300230360F4
:104620007047C04628800440F821084A43099B008F
:104630009B180905C2050A40134380225205134303
:104640001F2210401E3A82401A60704728800440A2
:10465000072373B5009300230400104D1A000121B5
:10466000280001F0BDFA2000FFF776FF637A2800EA
:1046700000930023217A1A0001F0B2FAE379084A84
:104680009B041360074BA17A1D68280001F0DCF839
:104690002800E17A01F0E7F8002076BD00700440C0
:1046A00000700C59AC7D000010B5054801F012F8FF
:1046B000044B1968C9B20131FCF7CCFF10BDC046EC
:1046C0000040064044801C5E10B5FFF7EDFF10BDB2
:1046D00010B5054800F0FEFF044B1968C9B201315E
:1046E000FCF7B8FF10BDC046004006404480145897
:1046F00010B5FFF7EDFF10BD0B4B1B68DBB2022BB3
:104700000CD0032B0DD00020834206D1074A10683D
:1047100080221202904200D018007047044B1868A3
:10472000FBE7FA208000F8E700700C591C0200201B
:104730002002002010B5FFF7DFFF10BD054B10B5BC
:10474000186801F088F80023984201D0024B1B68DA
:10475000180010BDAC7D00001C020020044B01209D
:104760001B6810B5DBB2002B01D0FFF7E7FF10BDCF
:104770000480045210B50C0012282AD8FCF756FF0A
:104780000A0A0A0F290F12152929181B2929292974
:104790001E222600FFF788FF2060002010BDFFF7D3
:1047A00097FFF9E7FFF7A8FFF6E7FFF7C7FFF3E783
:1047B0000A4B2360F1E7FFF7D1FFEDE7084800F06F
:1047C00089FFE9E7064800F06FFFE5E7FA239B0061
:1047D000EFE7002302202360E0E7C046006CDC0224
:1047E0000040064010B5024B185CFFF71DFF10BDDE
:1047F000517D000010B5024B185CFFF7EFFE10BDB5
:10480000517D000010B5BB20FFF7E8FE10BD10B5CC
:104810007620FFF709FF10BD10B57620FFF7F2FEF6
:1048200010BD10B57620FFF7D9FE10BD10B566207B
:10483000FFF7FAFE10BD10B56620FFF7E3FE10BDCE
:1048400010B56620FFF7CAFE10BD10B59420FFF723
:10485000C5FE10BD10B5024B185CFFF7BFFE10BDC2
:10486000537D0000044A1368002B04D0013B136001
:10487000002B00D162B670470002002072B6024AD7
:1048800013680133136070470002002010B5064C16
:10489000064801F037FC042801D1002010BD013C7E
:1048A000002CF5D10320F9E7EA03000000E00740FF
:1048B00010B50B4B0B490A78002A07D0084C0A4860
:1048C00001F020FC012806D1002003E0013B002B71
:1048D000F1D1032010BD013C002CF0D1F9E7C04616
:1048E000EA03000002D0075100E00740F7B50700D7
:1048F0000E00150001200193002F15D0002913D0C0
:10490000FFF76AFD094C102200212000FBF7E6FEAC
:1049100027602671002D03D0019BA560237363736C
:104920000120FFF75FFD0020FEBDC046040200200D
:10493000F0B5B14C8DB002900391237B01206373DD
:10494000FFF74AFD2379029A934206D80120FFF728
:1049500049FD022738000DB0F0BD029A236892008D
:10496000D35809AC1D780193039B2A002372029B44
:104970002370019B636002239A430492012A01D0B1
:10498000052D0AD101219D4801F010FB002807D117
:104990000120FFF727FD0127DCE70321072DF2D8CF
:1049A0000123002763723C000593934E337BA3429F
:1049B0002AD80120FFF716FD914800F0AFFE049BB6
:1049C000012B4AD10138022835D9039B012B00D095
:1049D0000DE106270120FFF7FFFC0023012609ADAA
:1049E0006B72013CE4B2FF2C00D1AFE0824BA2001D
:1049F0009B68D358002BF4D01A793242F1D02800AA
:104A00001A6899689047ECE7B268A3009B58002B9E
:104A10000ED01A7905990A420AD01A68996809A82D
:104A20009047002804D0039B04277473012BC0D146
:104A30000134E4B2B9E7FFF75BFE724B9842C4D889
:104A4000FFF732FE704EB042BFD8FFF741FEB042D2
:104A5000BBD8FFF739FEB042B7D8039B012B00D07B
:104A6000C1E00A2D00D9BCE02800FCF7DFFD060AF2
:104A70000D1E879A7B822F737800002207AB1A7075
:104A80002DE0032207ABFAE75C4801F03BFB01286D
:104A900008D00021594801F099FAFFF709FF071ED5
:104AA00000D057E7012207ABE9E7544801F02AFBA1
:104AB000042808D00221514801F088FAFFF7E6FEE9
:104AC000071E00D046E7042207ABD8E7072207AB52
:104AD0001A80019AD2789A70019A1279DA702B00B2
:104AE000083B022B06D8019B06AA5B799372019BB7
:104AF0009B79D372019B5B78002B0AD0012D08D9DA
:104B0000019B02229978414B00294DD019690A4333
:104B10001A613A4807A901F07DFA002800D003275E
:104B2000002D45D1FFF7C4FE071E00D012E7002775
:104B30000120FFF751FC029B2F4D0024AB73022391
:104B400009AE737201932B7BA34236D80120FFF785
:104B500049FCFFE6082207ABFF321A80BFE72C4A68
:104B600007ABFAE7022207AB1A700222FF329A80E3
:104B7000B5E7022207AB1A70264AF8E7022207AB14
:104B80001A70013A1D489A8001F0BCFA0128A6D09B
:104B900000211A4801F01AFAFFF78AFE071E9ED07C
:104BA000D8E6052207AB6AE7196991431961B0E7B6
:104BB000012DBDD1FFF76AFEB6E7AA68A3009B5896
:104BC000002B0BD01A7901990A4207D030001A68DD
:104BD00099689047002801D005276C730134E4B22E
:104BE000B1E70327B6E6002F00D13AE7F2E6002F3F
:104BF00000D0EFE6EDE6C0460402002000E00740EA
:104C00000040064040420F0080841E0000ED00E09E
:104C1000070300000102000010B5064801F072FA17
:104C200003000020012B03D00B30042B00D10A38E5
:104C300010BDC04600E00740F7B5FF2403681D4AD9
:104C40001E0A26401C40B3009F581B4A05009B5873
:104C500030000193FFF7C6FD00222100380001F06B
:104C600059FA019BA400E41884232A795B052343A5
:104C700052001A6080236A795B0523431A609023EF
:104C8000AA795B05234312011A600C4B1C43EB7994
:104C90001B042360EB79002B0AD0094B9B57002B98
:104CA00006D01F2213401E3A9A401300054A136093
:104CB000F7BDC046B07D0000B87D000000001818A8
:104CC000C07D000000E100E0F8B5FF2405000368A6
:104CD000114A180A20401C4083009F580F4A9E58D2
:104CE000FFF780FD38002100012201F013FA6A6805
:104CF0002100380001F01DFA88232A7AA400A419A3
:104D00005B05234392001A6098235B051C436B7A72
:104D10009B012360F8BDC046B07D0000B87D000057
:104D200070B50C00002807D1002C0FD170BD050014
:104D30000835FFF781FF280003680133F7D1F3E757
:104D4000250020000C35FFF7BFFF2C00236801333E
:104D5000F6D1EBE7FF22030A044913409B005958A0
:104D60000123104083404B607047C046B07D000077
:104D7000FF22030A044913409B00595801231040A5
:104D800083408B607047C046B07D0000084B8200B6
:104D9000D258942310B502325B0513431B78002BC5
:104DA00002D000F03FFA10BD00F092FAFBE7C046D7
:104DB000587D0000020080230C325B0513431A78F3
:104DC000002AFCD00171704770B50D00084B8000BF
:104DD000C458200029001830FFF7AEFA0328F8D095
:104DE000002801D004232374207CC0B270BDC046CB
:104DF0001402002010B5104B8000C458E37C002B37
:104E000005D0237C052B02D0237C042B0BD10B4B2C
:104E100018589823821C5B05134300221A7001F076
:104E2000F7F901236374A37C002B03D02000183012
:104E3000FFF73FFA10BDC04614020020587D000065
:104E4000F0B51700002289B005930EAB1B78050062
:104E50000393830032481E5832481C5807AB1A800F
:104E6000A37C880A04930223FF3363828B0A019395
:104E7000CBB21E2801D11A000B0A5B00D8B2019BED
:104E800000211E2B05D08F4203D1012303995B1A09
:104E900059B20143CBB202930299019807AB197042
:104EA00001211E2801D15A704918A3603000E16029
:104EB0000299FFF77FFF28000F99FFF785FF237CFA
:104EC000002B0CD1002F0AD0059BA760E3603000B7
:104ED0003978FFF76FFF28000F99FFF775FF237CE4
:104EE000039A1A4314D1019B1E2B01D0002F0FD01F
:104EF000002301273000A360E76001F077F90299F1
:104F000030003943FFF756FF28000F99FFF75CFF89
:104F10000023207CE374049BC0B2A37409B0F0BDED
:104F2000587D000014020020F7B583000193184B50
:104F30008200D75805000C000126002F26D1154B02
:104F40003900D358200024220193FBF7C7FB20002F
:104F500039001830FFF7A6F92800FFF767FC019821
:104F600001F0EFF80A4BAA00D4501F220A4B5B5DF8
:104F7000134032009A40094B1A609C22019B520553
:104F800002331343802266743E001A703000FEBD67
:104F900014020020587D00005C7D000000E100E06C
:104FA000F7B50E4E8500AB59002701930C4B04005A
:104FB000EA589C2302325B0513431F70FFF73BFC4A
:104FC000084B01981A5D1F231A401E3B9340064A66
:104FD0001830D367FFF77DF9AF51F7BD14020020F9
:104FE000587D00005C7D000004E100E00A4B800079
:104FF00070B5C5584B686A690C0093420BD0074BDB
:10500000C658FFF765FB002301006268300001F01D
:10501000A7F863686B6170BD14020020587D000022
:10502000F0B587B004920593334A0FAB1E78830026
:105030009C580391627C0700002A03D1032020744E
:1050400007B0F0BD002E01D11E220E922B4A38006F
:10505000D55800230399E360A3602374236063742D
:10506000A674FFF7C3FF90231021AA1C5B0513430E
:1050700019708423E91C5B050B43022119709823E6
:105080005B05134302934023029A2800137001F03A
:10509000ADF8039B380019880E9B049A01930123F5
:1050A0000093059BFFF7CCFE0D9B002B17D0237CB4
:1050B000002B11D10C9B2800A3600D9BE3600C9B7F
:1050C0001978FFF777FE002E03D038000E99FFF70E
:1050D0007BFE207CC0B2B3E7237C042BF9D10023F4
:1050E0000126029A1370EB785B09334202D0280044
:1050F00001F08EF86674ECE714020020587D000081
:10510000F0B589B0079311AB1B780692364A02932B
:1051100083009C580591627C0600002A03D103207D
:10512000207409B0F0BD029A002A01D11E321092FB
:1051300000272E4A0599D5580E9B300023600F9BFF
:10514000A7606360029BE760A37427746774FFF72E
:105150004DFF9023AA1C5B051A4310231370842370
:1051600004925B05EA1C134302221A709823AA18C2
:105170005B051A43402328001370039201F036F8B0
:10518000059B069A1988109B300001930097079B96
:10519000FFF756FE237CDAB2BB4215D1049BA91C53
:1051A0001A708C235B050B430F99012900D108224B
:1051B0001A702B79029B002B03D030001099FFF757
:1051C00003FE207CC0B2ACE7237C042BF9D101267E
:1051D000039B1F70EB785B09334202D0280001F07B
:1051E00017F86674EDE7C04614020020587D0000F1
:1051F0001FB501240394089C0294079C0194069C0B
:105200000094FFF70DFF04B010BD1FB501240394F7
:10521000089C0294079C0194069C0094FFF770FF81
:1052200004B010BD244B70B58400E5588423EA1CFB
:105230005B05134302221A709023A9185B050B43E8
:105240001B78EA78DBB292061DD5942252050A43F8
:105250001278002A17D0194AA458012B14D1EA78E1
:105260001A4204D004332374FFF7C4FD0BE0E36853
:10527000013BE360002BF7D0A36828005A1CA26012
:105280005978FFF797FD70BD6268013A6260002AA5
:1052900006D08C235B05012A0AD000220B4309E0CB
:1052A000FFF7A8FD23685A1C22602A791A70EAE7E2
:1052B00008220B431A70F5E7587D00001402002005
:1052C000C31C84204005184302230370704700006C
:1052D0000122F0B5904B8100CD5889B0EB1C0193B1
:1052E000EB7890261B091A4005920122EB7876058F
:1052F0009B091A4002923200AB1D1A439446127861
:105300000090D2B20792942252051A431278AF1C31
:10531000D0B203909820400503431878C0B206909D
:105320007E480C583100394301910978C9B2049183
:10533000002A35D0079A002A0ED010236246280092
:105340001370FFF7BDFF236B002B52D06A4601217B
:105350001078626B98474CE0069A002A20D04022D1
:1053600028001A70FFF7ACFF23002C331B78002BAA
:1053700003D19822520517433B70236B002B04D0B6
:105380006A4680211078626B9847E37D002B04D039
:10539000200080211830FEF79EFF0A23237028E0AA
:1053A0002800FFF78DFF059B002B24D0EB1C1E432C
:1053B00010233370029B002B10D0EB785B07DA0FC1
:1053C000002B48DB019B1A70236B002B04D06A462C
:1053D00004211078626B98472B790AE00823237028
:1053E0002C342378002B04D198235B051F43029BA8
:1053F0003B7009B0F0BD029B002BDED1049B012B5A
:1054000054D1EB78049A134230D0019B029A1A705F
:105410002B7923002C331B78002B07D1039B002B07
:1054200004D198235B051F43039B3B70236B002B28
:1054300004D06A4608211078626B9847A37D002B40
:1054400004D0200008211830FEF745FF00236360D8
:10545000E3602375CDE71023019A1370236B002BB3
:1054600004D06A4602211078626B98476368002B6B
:1054700050D028008022E3680C305205197802438E
:1054800010780028FCD029710133E3606368013B88
:1054900063606368002BACD1E3602375236B002B42
:1054A000A7D06A4610211078626B53E72B79A26867
:1054B000DBB2002A2CD022691370236901332361E7
:1054C000A368013BA360A368002B00D091E7039B76
:1054D000002B11D123002C331B78002B04D19823EF
:1054E0005B051F43039B3B70E37D002B04D0200032
:1054F00020211830FEF7EFFE002363752361236B34
:10550000002B00D175E76A4620211078626B21E7F5
:10551000072343E7062341E7587D000014020020DB
:10552000042902D0072907D07047902303305B0578
:10553000184310230370F7E79C2303305B051843DF
:105540008023F7E7DC2270B50024094B8000C558A2
:10555000084B5205C35808331A431460AA7CA24270
:1055600003D028001430FEF7A4FE2C7470BDC04692
:1055700018020020607D00000C4B800070B5C558FB
:105580000B4B0024C058D42302005B0508321343A0
:105590001C602200074900F05CFEEB7CA34203D0B4
:1055A00028002030FEF785FE6C7470BD18020020C4
:1055B000607D00001B000200F8B52B4A83009C5858
:1055C0000600227C002A02D1627C002A3ED0274AB3
:1055D000D558DC232F005B051A0008373A431268C0
:1055E000002A15D02A1D13431B68002B10D0A36876
:1055F000002B0DD023681A780133EA602360A3687A
:10560000013BA360A368002B02D13000FFF79AFF93
:10561000D4235B051F433A68002A0DD02A1D13438B
:105620001B68002B08D0EB6862681370E36A002BDC
:105630000DD021003000984728000D4900F04AFEA7
:10564000002803D028000A4900F048FEF8BD63682E
:1056500001336360E368013BE360E368002BEBD157
:105660003000FFF789FFE7E718020020607D0000A7
:105670001300010084225205024312780300D0B2C5
:10568000002A0CD0802001334005034318780138EC
:1056900043425841024B40421840024BC0187047E9
:1056A000808D5B0080841E00020070B5074B0832BD
:1056B00013431C78064B103213431D78FFF7DAFFB3
:1056C000EDB2E4B26419E04070BDC0460000901035
:1056D0000000101010B50D4B821D13431A78040002
:1056E000D3B2002A0FD0012B07D1FFF7C3FF084B1D
:1056F00008341C432378D84010BD0020022BFBD176
:10570000044B1868F8E70448F6E7C04600000811A3
:10571000000090101C020020006CDC020C4A811D6D
:105720000A4312780300D0B2012A04D002280BD019
:1057300000280BD1704780220133520513431B7898
:10574000002BF7D10220F5E70320F3E70520F1E76E
:105750000000081102009C2318325B0513438022CD
:105760001A700022064B03431A70064B063018438A
:105770000378DAB2002BFBD1034B10000B607047AB
:105780000000081300000811006CDC02F8B50400EA
:105790000D0016001F00FFF7C1FF012823D1002DC7
:1057A00025D08023621C5B0513431D7084230222D5
:1057B0005B0523431A702200104B0832134372001A
:1057C000D2B21A7040220E4B0E48234306341A7090
:1057D00004432378012BFCD1002D0DD10A4B33411A
:1057E00000203B60F8BD0228DBD1012DD9D1390062
:1057F0002000FFF7AFFFD4E7044BF0E70000901064
:10580000000008130000081180841E0000127A00B6
:1058100010B50A4C030022680120002A0CD0084A67
:105820007F301A4310700748063303431A78022A60
:10583000FCD1002023680B6010BDC0461C02002074
:1058400000000813000008119C23C9015B050343F5
:10585000C9B2197070479C235B0503431878431E37
:105860009841C0B27047942349015B050343C9B214
:105870001970704770B506680C0030002049FBF7BE
:10588000E9FE1F4905003000FBF76AFF0E00E12129
:1058900030000901FBF7DEFEE121E0800901300064
:1058A000FBF75EFF0E003C213000FBF7D3FE3C21EE
:1058B00020813000FBF754FF6E22A1720321114BAF
:1058C000FF322380238895420AD80F499B0700D1D5
:1058D0000E490123CA5CAA420CD36380A58070BD27
:1058E00001339BB223800B40AD1A5A425A416E32AB
:1058F000FF32E7E70133AD1A0D2BEBD1EEE7C046DF
:1059000080510100B20700008C7D0000647D000022
:105910000188114A03008A18002030B5812A17D85F
:105920005A88541E0B2C13D89C88651E1E2D0FD828
:10593000DD88172D0CD81D893B2D09D89B7A3B2B70
:1059400006D88B0705D0054B9B5CA3424041C0B2F3
:1059500030BD034BF8E7C0464EF8FFFF8C7D0000DA
:10596000647D000070B5134D838802885B196E2535
:10597000FF35554344885B1995085B190E4D660049
:10598000755B5B19920710D00B600A680B4BC488DB
:105990005343827A00899B18E122120162439B18CB
:1059A0003C2242439B180B6070BD022CECD8013B9B
:1059B000EAE7C0464A05F5FF727D0000805101000C
:1059C0008023084A1B0212689A4209D1A023103092
:1059D0005B0518430368002B02D10133FF330360DA
:1059E0007047C0461C0200200100802210B5002331
:1059F00001245205103111430C600B60902143606B
:105A0000490504601C3001430B60882149050143AE
:105A10000B6084214905014310430B60036010BDF6
:105A20000200902314325B05134300221A60426087
:105A3000103201601A60704703680B607047000005
:105A4000104B820070B5D558802204000E4B920591
:105A50001A602800FFF7C8FF2800FFF7B1FF0B4BC3
:105A60001F261A5D0123180009493240095DC0252F
:105A7000314090408B40074A6D00505153511060A7
:105A8000136070BD9C7D00003C80845EA07D0000A2
:105A9000A17D000000E100E0F7B50027114B800078
:105AA000C55808000E000197FFF732FF0400B84206
:105AB00016D001A93000FFF755FF3800FEF73AFE77
:105AC000010080200002814206D0FBF7C3FD0100E7
:105AD0000198FBF7BFFD019028000199FFF7A0FF97
:105AE0002000FEBD9C7D0000F7B50025124B800014
:105AF000C4580E00200001A90195FFF79DFF280062
:105B0000FEF718FE05008020000285420ED00B4BE8
:105B1000290004341C43FBF79DFD2768019C2900E4
:105B20004443B8B2FBF796FD24180194310001A854
:105B3000FFF7A0FEF7BDC0469C7D00000000781076
:105B4000F0B50027184B800085B0C55808000E003E
:105B500001920397FFF7DCFE0400B84203D1002452
:105B6000200005B0F0BD300003A9FFF7FBFE3800B0
:105B70002E68FEF7DFFD010080200002814206D082
:105B8000FBF768FD01000398FBF764FD0390039B9E
:105B9000B342E4D3AB6088231C355B051D43019BF6
:105BA0009A002A60DCE7C0469C7D0000044B800020
:105BB000C25888231C325B05134389001960704763
:105BC0009C7D0000054B8000C258882314325B0581
:105BD00013431868431E9841C0B270479C7D000073
:105BE0006B46E0221B78D2021B041340024A0907CD
:105BF0000B4380180360704744100000084B82007C
:105C0000D258902310B503325B0513431B78002B49
:105C100002D000F013F910BD00F078F9FBE7C046A0
:105C2000A47D00009C210C4B0C4A8000C358825874
:105C3000002003324905114310B5187108709421F2
:105C400049050A4310701A7F824203D0203318009E
:105C5000FEF72FFB10BDC04624020020A47D0000EB
:105C6000F7B50C0005001B4B3022002187002000F7
:105C7000FE58FAF733FD2800FEF7C9FDFEF728FDB0
:105C80002060300000F080FB200000212030FEF773
:105C900009FBF31C01939023F21C5B0513431022B4
:105CA00030001A70032100F0ADFB3000002100F03D
:105CB000CEFB094BFC50094B5A5D1F231A401E3B7B
:105CC0009340074A13609823019A5B0513434022CF
:105CD0001A70F7BDA47D000024020020A87D0000FA
:105CE00000E100E0F8B50D4E85000D4BAF59040002
:105CF000E85800F049FB38002030FEF7EAFA094B7B
:105D000020001A5D1F231A401E3B9340064AD367AA
:105D1000FEF782FD0023AB51F8BDC04624020020EF
:105D2000A47D0000A87D000004E100E00A4B800093
:105D300070B5C658094B0C00C358150030001A68DE
:105D4000096800F028FB2860A37930006279217986
:105D500000F06AFB70BDC046A47D00002402002054
:105D6000F7B51E4A83009C58050022790420002ABA
:105D700016D11B4A9E58002903D0280001AAFFF71C
:105D8000D5FF982300214020F21C5B0513431970B6
:105D9000187027698F4204D12800FFF743FF0020C5
:105DA000FEBD0123237194235B05A16133431B785E
:105DB0000720002BF4D0A368191E02D019780133F4
:105DC000A360B1712369013B2361A3690133A3611E
:105DD0009C235B051A4380231370E0E72402002014
:105DE000A47D0000F8B5134F134C85002C59ED59D4
:105DF0000127069E2777A2602661E3606661FFF7B0
:105E0000AFFF002814D1200007992030FEF794FA44
:105E10000328F8D000280BD09C23002203355B0513
