S02B00002F686F6D652F73747564656E74732F74657334362F344232352D4357332F6275696C642F6B73646B4D
S1130000000600201D050000450500004505000010
S113001000000000000000000000000000000000DC
S11300200000000000000000000000004505000082
S11300300000000000000000450500004505000028
S11300404505000045050000450500004505000084
S113005045050000450500004505000005120000A7
S11300602F2300004505000039230000450500004A
S11300704323000045050000450500004505000038
S11300804505000045050000450500004505000044
S1130090DD110000F51100004505000045050000D4
S11300A04505000045050000450500004505000024
S11300B04505000045050000151200004505000037
S1130400FFFFFFFFFFFFFFFFFFFFFFFFFE3DFFFFBB
S11304100448054B10B5834203D0044B002B00D095
S1130420984710BD7CFFFF1F7CFFFF1F00000000EA
S113043006480749091A8B10C90FC91810B5491085
S113044003D0044B002B00D0984710BD7CFFFF1F46
S11304507CFFFF1F0000000010B5074C2378002B21
S113046009D1FFF7D5FF054B002B02D0044800E06B
S113047000BF0123237010BD80FFFF1F0000000098
S1130480D0480000054B10B5002B03D004490548A3
S113049000E000BFFFF7CCFF10BDC0460000000025
S11304A084FFFF1FD0480000402292029A1A92460D
S11304B07047C046154B002B00D1114B9D46FFF7EA
S11304C0F3FF00218B460F461148124A121A00F01E
S11304D005F90C4B002B00D098470B4B002B00D098
S11304E098470020002104000D000B4800F02EF86E
S11304F000F06AF82000290000F056FF00F03AF8F6
S113050000000800000000000000000000060020B9
S113051080FFFF1FA8020020A105000072B6064854
S11305200649074A02600A6001F010FF01F050FF1B
S113053062B6FFF7BFFF000080E100E080E200E068
S1130540FFFFFFFF004800474505000010B501000C
S113055000230022002000F01FFA10BD10B50A008D
S1130560002100F0BBF810BD014B18687047C0466D
S113057000FEFF1F084B10B50400002B02D0002121
S113058000F078FA054B1868836A002B00D098476E
S1130590200000F099FDC046750A0000A841000043
S11305A070B5074D074C641BA41005D0013CA30093
S11305B0EB589847002CF9D104F090F970BDC0466F
S11305C0F4480000F848000070B50C4D0C4E761B42
S11305D0B61005D0002408CD01349847A642FAD1BC
S11305E004F076F9074D084E761BB61005D00024AA
S11305F008CD01349847A642FAD170BDF0480000F6
S1130600F0480000F0480000F448000010B5034B27
S11306100100186800F00CF910BDC04600FEFF1F71
S113062010B5034B0100186800F0ACF810BDC046CB
S113063000FEFF1FF0B5C64600B50F2A43D90B00D4
S1130640032603431E400C000300002E40D1150076
S1130650103D2D09AC462D01A846804400E03B0026
S1130660676825685F60E7681D60DF601F00A56834
S113067010379D6010344345F1D165460F230C2497
S113068001352D01491913404519144223D08C59C1
S1130690AC5104369C1B032CF9D80324043B9B085F
S11306A001339B002240ED18C918561E002A07D0BA
S11306B0002300E02300CA5C5C1CEA549E42F9D18A
S11306C004BC9046F0BD0500561E002AF0D1F7E7A1
S11306D0561E0500ECE71A00F6E7C046F0B5050023
S11306E083074AD0541E002A44D0CEB2030003220A
S11306F002E00135013C3DD301332E701342F8D1A1
S1130700032C2FD9FF220A40150215432A0415434E
S11307100F2C35D92700103F3F093E01B4461E0077
S11307201A0010366644156055609560D560103225
S1130730B242F8D10F260C2201373F012640DB19C3
S11307403700224217D03E1FB608B400A4461A0050
S11307501C1D644420C2A242FCD103240136B6000D
S11307609B193C40002C05D0C9B21C1919700133E7
S11307709C42FBD1F0BD3400F4E714000300BFE752
S11307802700E0E770B50500002915D00C1F236889
S1130790002B27DB280000F0CBF9244B1A68002A31
S11307A005D0A2420CD921686018824224D062602C
S11307B028001C6000F0BEF970BDA34203D81A00E3
S11307C05368002BF9D111685018A0421BD027D8C8
S11307D021686018834207D063605460280000F0E9
S11307E0A9F9E9E7E418D5E718685B688446614429
S11307F0216063605460F1E7106852688446614484
S113080021606260D4E7206809185018116083429F
S1130810E4D118685B688446614411605360DDE785
S11308200C2328002B6000F085F9C5E79CFFFF1F0F
S1130830F8B50323CD1C9D43083506000C2D2AD2A0
S11308400C25A94229D8300000F072F92A4F3A68E1
S1130850002A0AD013685B1B04D441E023685B1BA5
S11308601FD522005468002CF8D17B68002B3DD0A2
S11308702900300000F042F8431C2AD00323C41C92
S11308809C43A04205D0211A300000F037F8431CE5
S11308901FD0256010E0002DD3DA0C230020336034
S11308A0F8BD0B2B05D86368A2421DD0536003E04A
S11308B014002360E4182560300000F03BF92000A8
S11308C007220B30231D9043C21AE9D01B1AA350F0
S11308D0E6E70C233000336000F02CF90020DFE75A
S11308E00B2BE5D8140053683B60E5E7002130008A
S11308F000F004F87860BBE79CFFFF1F002370B58D
S1130900064C05000800236000F0E0FB431C00D007
S113091070BD2368002BFBD02B60F9E7A4020020F4
S113092003000A7801311A700133002AF9D17047A3
S113093010B5830727D00378002B26D003000321AA
S113094002E01A78002A1CD001330B42F9D119684D
S11309500F4A104C8A188A4322420FD10433196873
S11309600B4A8A188A43224208D104331968084A78
S11309708A188A432242F1D000E001331A78002A0F
S1130980FBD1181A10BD0300E1E70020FAE7C046C6
S1130990FFFEFEFE80808080F0B546464F46D64678
S11309A0C0B51F002F4B82B01C6805000E00904696
S11309B0002C2DD063681F2B50DC002D1CD0882206
S11309C0A0589146002834D07832825894469A0030
S11309D091468144424649460A6001216246994053
S11309E00A43944680228A46614652008150494611
S11309F0803A8F50022D16D000205A1C02339B00DF
S1130A0062601E5102B01CBC90469946A246F0BDDD
S1130A10154C1C60154B002BCCD01B68019388230C
S1130A20019AE250C6E75546843281580D438550F9
S1130A30E2E70F4B002B11D084204000FFF7E6FDC6
S1130A4000280BD0802200235200835004328350AC
S1130A504B460022E05094466368B8E701204042C8
S1130A60D0E7C04630000020A4FFFF1F00000000B4
S1130A700D060000F0B5DE464E46454657462B4B64
S1130A8088469B46E0B51E6883B00190002E45D091
S1130A9088237568F7586C1E40D40135AD0078334F
S1130AA075199A460AE0002F05D03B00A200803356
S1130AB09B58434505D0043D013C2FD34346002BAE
S1130AC0F1D173682A68013BA34222D000232B6032
S1130AD0002AF0D073689946002F18D0012351469C
S1130AE0A3407958194212D0822040003858A100FE
S1130AF07958009018420ED1019890475B4672686D
S1130B001B684A4501D1B342D5D01E00BEE79047C9
S1130B10F4E77460DCE708009047EFE703B03CBCFF
S1130B2090469946A246AB46F0BDC0463000002030
S1130B307047C0467047C04602B471464908490030
S1130B40095C49008E4402BC7047C04603B4714638
S1130B50490840004900095E49008E4403BC7047BF
S1130B60002243088B4274D303098B425FD3030AE8
S1130B708B4244D3030B8B4228D3030C8B420DD3FB
S1130B80FF22090212BA030C8B4202D31212090289
S1130B9065D0030B8B4219D300E0090AC30B8B42C7
S1130BA001D3CB03C01A5241830B8B4201D38B0375
S1130BB0C01A5241430B8B4201D34B03C01A52411A
S1130BC0030B8B4201D30B03C01A5241C30A8B425D
S1130BD001D3CB02C01A5241830A8B4201D38B0248
S1130BE0C01A5241430A8B4201D34B02C01A5241EC
S1130BF0030A8B4201D30B02C01A5241CDD2C3095E
S1130C008B4201D3CB01C01A524183098B4201D3D9
S1130C108B01C01A524143098B4201D34B01C01AC4
S1130C20524103098B4201D30B01C01A5241C3083C
S1130C308B4201D3CB00C01A524183088B4201D3AB
S1130C408B00C01A524143088B4201D34B00C01A97
S1130C505241411A00D20146524110467047FFE703
S1130C6001B5002000F0F0F802BDC0460029F7D01D
S1130C7076E7704703460B437FD4002243088B4238
S1130C8074D303098B425FD3030A8B4244D3030B0F
S1130C908B4228D3030C8B420DD3FF22090212BAD4
S1130CA0030C8B4202D31212090265D0030B8B4250
S1130CB019D300E0090AC30B8B4201D3CB03C01A3A
S1130CC05241830B8B4201D38B03C01A5241430B15
S1130CD08B4201D34B03C01A5241030B8B4201D305
S1130CE00B03C01A5241C30A8B4201D3CB02C01A70
S1130CF05241830A8B4201D38B02C01A5241430AE8
S1130D008B4201D34B02C01A5241030A8B4201D3D6
S1130D100B02C01A5241CDD2C3098B4201D3CB017D
S1130D20C01A524183098B4201D38B01C01A52412C
S1130D3043098B4201D34B01C01A524103098B4230
S1130D4001D30B01C01A5241C3088B4201D3CB001B
S1130D50C01A524183088B4201D38B00C01A5241FE
S1130D6043088B4201D34B00C01A5241411A00D2AE
S1130D7001465241104670475DE0CA0F00D0494217
S1130D80031000D34042534000229C4603098B4287
S1130D902DD3030A8B4212D3FC22890112BA030A0F
S1130DA08B420CD3890192118B4208D38901921191
S1130DB08B4204D389013AD0921100E08909C30916
S1130DC08B4201D3CB01C01A524183098B4201D318
S1130DD08B01C01A524143098B4201D34B01C01A03
S1130DE0524103098B4201D30B01C01A5241C3087B
S1130DF08B4201D3CB00C01A524183088B4201D3EA
S1130E008B00C01A5241D9D243088B4201D34B0004
S1130E10C01A5241411A00D20146634652415B1046
S1130E20104601D34042002B00D549427047634627
S1130E305B1000D3404201B5002000F005F802BD6C
S1130E400029F8D016E770477047C046002B11D12F
S1130E50002A0FD1002900D1002802D00021C94363
S1130E60081C07B4024802A14018029003BDC04602
S1130E70D9FFFFFF03B4684601B5029800F02EF8CD
S1130E80019B9E4602B00CBC7047C046F0B51504E9
S1130E902D0C0F0001002E00C64684460004140CDD
S1130EA0000C090C46434D43604361434019340C24
S1130EB0241800B5A54203D980204002804641444D
S1130EC0250C6D18614659437A43300449192404AA
S1130ED0000C2018891804BC9046F0BDF0B55746A4
S1130EE04E464546DE46E0B504000D00924699465E
S1130EF083B08B4230D82DD04946504600F0BAF822
S1130F0029000600200000F0B5F8331A9846203B6B
S1130F109B4633D45A465346934042461F00534699
S1130F2093401E00AF423AD8AF4200D178E05B460E
S1130F30A41BBD41002B00DA75E0002200230092BF
S1130F40019301235A46934001930123424693405F
S1130F50009328E08242CFD900220023009201931B
S1130F600C9B002B01D01C605D600098019903B0BC
S1130F703CBC90469946A246AB46F0BD424620236F
S1130F809B1A5246DA40414613004A468A401700EB
S1130F9042461F43534693401E00AF42C4D9002229
S1130FA00023009201934346002BD9D0FB0772081B
S1130FB01A4346467B080EE0AB4201D1A2420CD84C
S1130FC0A41A9D41012024196D410021013E2418D9
S1130FD04D41002E06D0AB42EED9013E24196D419D
S1130FE0002EF8D1009801995B4600196941002B45
S1130FF024DB2B005A464446D3402A00E2401C001E
S11310005B461500002B2ADB26009E403300260099
S11310104746BE403200801A9941009001919FE7F3
S1131020A342BCD883E74246202300219B1A002216
S1131030009101920122DA40019286E74246202380
S11310409B1A2A0046469A402300F3404446134321
S11310502A00E2401C005B461500002BD4DA42460D
S11310602F002023260097409B1ADE403B00334389
S1131070CDE7C04610B5002903D100F007F82030B1
S113108002E0081C00F002F810BDC0461C21012338
S11310901B04984201D3000C10391B0A984201D357
S11310A0000A08391B09984201D30009043902A235
S11310B0105C40187047C04604030202010101019C
S11310C00000000000000000FEE7C0460A4A0300DA
S11310D0116810B5002901D1084911601068084948
S11310E0C3188B4206D9FFF73FFA0C230360012093
S11310F0404210BD1360FCE734000020A802002029
S1131100A802002083780220984280414042704720
S1131110437A0020013B012B03D90B7801300133C2
S11311200B707047C023174A9B001360164A136064
S1131130164A13600023164A1360164A1360164AAF
S11311401360164A1360164A1360164A1360164A4F
S11311501360164A1360164A1360164A1360164A3F
S11311601360164A1360164A1360164A1360164A2F
S11311701360164A1360164A1360164A1360164A1F
S1131180136070470090145404901454089014543D
S11311900C90145410901454149014541890145423
S11311A01C901454209014542490145430901454CB
S11311B000A0145404A0145408A014540CA01454F3
S11311C010A0145414A0145418A014541CA01454A3
S11311D028A014542CA0145434A0145410B5002086
S11311E002F0EEFC002803D00021080002F0DCFC31
S11311F010BD0000024A1368013313607047C046F3
S113120080FEFF1F10B50721014802F0A5F910BDAB
S113121000C007400122024B52421A607047C04688
S1131220A090044010B5002001F04AFB8023064A38
S11312309B001360054A0020136001F0CDFE0020DE
S1131240034901F08DFE10BD0CA0145410A01454D9
S113125084000020014B1B887047C04674FEFF1FAA
S11312600FB41FB50E4B1B78DCB2002B0FD107ABAC
S1131270039340232000009306990A4B03AA00F02D
S11312801FFF002807DA2000074900F03DFE1FBCBD
S113129008BC04B01847052001F059F9F7E7C04627
S11312A041000020420000202C450000F8B50E004B
S11312B0040026481500FFF7D3FF2548FFF7D0FFA9
S11312C0320021002348FFF7CBFF234B2348196842
S11312D0234B244E1A68244B244F1B68FFF7C0FF8E
S11312E0234B244CF958244872693368FFF7B8FF3C
S11312F021786278A3792148C9B2D2B2DBB2FFF770
S1131300AFFF1F4B217A227E1B781E48C9B2D2B28E
S1131310DBB2FFF7A5FF1C4B1C4819785A781C4B0D
S1131320C9B21B69D2B2FFF79BFF1A4B1A489978CE
S11313301A4BC9B2FA587368FFF792FF184B2A7810
S113134019681848FFF78CFFF8BDC046AC4100008F
S1131350EC4100001E42000078FEFF1F52420000D4
S113136084FEFF1F00D0034088FEFF1F007004406E
S11313703C1000000040064089420000BF420000CB
S113138000500640EE42000000E007401E4300000B
S113139000ED00E000D00740584300003410000086
S11313A080FEFF1F90430000F0B5A7B015AC0722E4
S11313B000212000FFF792F9964A01251A92032290
S11313C005AB1D9307AB1E930BAB21930DAB22937F
S11313D00FAB239311AB249313AB09AF03A90020E4
S11313E025931AAB1A711C91257004931F942097AE
S11313F001F05EFA280001F05BFA8022864B1202AB
S11314001A6001F0C3F8002300951A0019001800AF
S113141000F096FD2B00814A0221814801F0DAF8A0
S11314202900280001F0E2F8002002F007FB7D4BC0
S1131430642117936B4600265B181E806B460231AD
S11314405B18300017A91E70189502F023FB2A00C0
S1131450310003A8FFF742F9159B69460993A28856
S11314603220BA80A279BA7103223A700B93A2880F
S113147005270A86A27909180A702C216A4652188F
S1131480694617700593A28810380A83A2798A7670
S113149002220A750793A2880A84A27909180A709D
S11314A0694604220A770D93A28818300A87A27924
S11314B009180A7069460822063809180A7069462C
S11314C00F93A2880C3009180A806946A279023069
S11314D009180A706A4609210638121811706A46FA
S11314E01193A3880C30121813806A46A379023032
S11314F0121813706A460A230638121813704C2205
S11315006B469B181E7004AA2B001DA801F026FA36
S11315104548FFF7A5FE4549454801F039FC454CCF
S11315202000FFF79DFEC023434A9B001360434AFB
S113153043481360434A1360FFF792FEFFF7F2FD3E
S11315402000FFF78DFEE1211D20C90000F06CF999
S11315503D4B3E481D70FFF783FEE1211D20C9006D
S113156000F062F9122303223900300000F0C0F9C0
S113157001003748FFF774FE364800F0E8FF3648AC
S1131580FFF76EFE00F09EFF05003000441BF92CAF
S11315900CD9320021003148FFF762FEA0B200F0FE
S11315A039FA00F08FFF0500013636B200F08AFFE9
S11315B0282EEBDD00232A4C2A4825782370EDB22F
S11315C0FFF74EFE2570234C00F0AAFC0500012015
S11315D000F0BDFF002D19DA013C002CF4D1224BA0
S11315E02100188803AA80B2FFF760FE96221F4BE1
S11315F05200210008201A6000F062F8002802D08E
S11316001B48FFF72DFE1B48FFF72AFE002027B0DA
S1131610F0BDC046111100009802002064FEFF1FB7
S113162064FFFF1FE0070100BE43000010FFFF1F1F
S113163008FFFF1F01440000009014540490145448
S1131640DB4300000890145440000020FC430000D9
S113165008440000B80B000029440000494400007D
S1131660410000207E44000074FEFF1F78FEFF1F2F
S11316709D440000FA4400001FB5040001A90020A5
S113168002F030FA694601A802F06AF9009B684644
S11316901C1901A9009402F0EBF8012201A9002011
S11316A002F04CFA1FBD00000022034B1A60802296
S11316B0024BD205DA67704700901C5804E100E041
S11316C070B50D000A2408281CD8FFF735FA051D4B
S11316D02A3F546771795C0001F0D6FA0524012889
S11316E010D0FFF7E1FF2800FFF7C6FF0021080034
S11316F001F056F901210400002000F077FF002CCE
S113170022D10024200070BD01F0BEFA0624012875
S1131710F8D0FFF7C9FF2800FFF7AEFF0021012032
S1131720E6E701F0B1FA08240128EBD000F0DCFF71
S1131730002803D00121002000F058FF00210220DE
S113174001F02EF90028DCD00924DBE701F09CFA33
S113175007240028D6D0FFF7A7FF2800FFF78CFF47
S11317600021032001F01CF9040001F08DFA01218D
S11317700028C4D1C1E7FFF797FF2800FFF77CFFDB
S113178000210420EEE70021082001F009F9041EDD
S1131790DAD10121080000F029FFB3E7FFF784FF45
S11317A02800FFF769FF0021052001F0F9F8CBE7D5
S11317B0FFF77AFF2800FFF75FFF00210620F4E718
S11317C0FFF772FF2800FFF757FF00210720ECE71F
S11317D0F0B506000D00114B89B05A7806AC228092
S11317E00F4A05AF12680792D88880B2FFF732FD1E
S11317F03E7004AE3570FFF715FD0A4B3A001B68C6
S113180021000293012300200193009601F00CFDB6
S1131810002800D0022009B0F0BDC04638000020E6
S113182078FEFF1F7CFEFF1F10B5034B5870034862
S1131830D980FFF715FD10BD380000205245000087
S113184010B5084C2368236800F0C6F82368272BDA
S113185001D100F0F5F9206828210130FFF7F0FAF2
S1131860216010BDA8000020F7B5089E099F140050
S11318701D0036196F4100900191009A019BB61822
S11318805F4133003B432ED00C9A0D9B100019008E
S1131890FFF7FCFA22002B00FFF7F8FA0E9A0F9BD1
S11318A004000D0010001900FFF7F0FA089A099BD4
S11318B0FFF7ECFA0A9A0B9B24184D41100019000B
S11318C0FFF7E4FA009A019BFFF7E0FAFA220023FB
S11318D0920000196941FFF7D9FA32003B00FFF783
S11318E0B5FA06000F003000390003B0F0BD000067
S11318F0F8B506001C00104B1500D8880F0080B204
S1131900FFF7A8FC31000920FFF762FF2900060059
S11319100F20FFF75DFF210005000E20FFF758FFA1
S11319200F21040039402A20FFF752FF35432C438E
S11319302043C0B2F8BDC0463800002070B588B05E
S11319406A46184B04001B780E001375182822D819
S1131950C31F0320012B23D9134B06AD5A782A80C9
S1131960124A12680792D88880B2FFF773FC6B465C
S11319701C75FFF757FC0E4B29001B6800200293CF
S11319800C4B0196009305AA012301F05AFC002890
S113199006D0022004E023001D3B0320142BDBD9D6
S11319A008B070BD814500003800002078FEFF1F9C
S11319B07CFEFF1F3A00002070B5051E0BD00C26DC
S11319C0440821002800FFF7CBF8013E04196408FD
S11319D0002EF6D1200070BDF7B5FA2700250B4C78
S11319E001907F000A4AAB0066689858390070433A
S11319F0FFF740F923680135C01A019B2660C0181F
S1131A00606008340C2DEDD1F7BDC046C80000203D
S1131A1018470000F0B58BB0099006210120FFF7AC
S1131A208DFF0890002805D04E48FFF719FC3800B8
S1131A300BB0F0BD00F046FD80244B4B4B4F18809B
S1131A40BB78FA789B019208494EA4011343634082
S1131A50484A9B199BB21380474A1BB25343DD1774
S1131A60AD05AD0DED18AD122A0029004348FFF76E
S1131A70F7FB3B797A799B01920813436340404A10
S1131A809B199BB213803C4A1BB25343DE17B60525
S1131A90B60DF618B612320031003A48FFF7E0FBF3
S1131AA0BB79FA799B01920813435C40304B324A6C
S1131AB0E418354BA4B21C8023B25343DC17A405AD
S1131AC0A40DE418A412220021003048FFF7C8FB3B
S1131AD000F0F8FC244B76431B8864436D43C01A22
S1131AE02B4B9880A0194019FFF766FF294B089AE1
S1131AF00999070018605A60FFF7A2FE264AF017FA
S1131B005368126806920793244AE91753681268C7
S1131B1004920593224A536812680094E4170292CF
S1131B2003930194320003002800FFF79DFE050093
S1131B300C001C483900FFF793FBFA21144B890071
S1131B409B8819485943FFF78BFBFA22002328008E
S1131B5021009200FFF77AF901001448FFF780FB97
S1131B6065E7C04683450000BE0000203800002021
S1131B7000E0FFFFB800002052260000AF4500003F
S1131B80BA000020E7450000BC0000201F4600000A
S1131B90C0000020B000002000FFFF1FF8FEFF1F60
S1131BA0F0FEFF1F584600007846000095460000EE
S1131BB0F7B51C4B198883000193019A1A4B08004E
S1131BC0D25800231900FFF761F9184B0600019A57
S1131BD01888174B0F00D25800231900FFF756F945
S1131BE080197941030004000D000B4315D0FA223B
S1131BF00023920030003900FFF748F922002B003F
S1131C00FFF724F904000D0001980A492B00095834
S1131C1022000948FFF724FBFEBD0848FFF720FB1C
S1131C20F2E7C046EEFEFF1FBCFEFF1FECFEFF1FE7
S1131C308CFEFF1F48470000D2460000B546000056
S1131C40F0B5002491B004AE302200213000FEF73C
S1131C5045FD144F029401943B68A2000093124B7B
S1131C607D68D3581149180068430393009B6D4362
S1131C705843FEF7FFFF009B5B43ED184519A30093
S1131C809D51029B9D4201D902950194013408376C
S1131C900C2CE1D131000198FFF78AFF300011B01C
S1131CA0F0BDC046C80000201847000018FCFFFF24
S1131CB00369C268934201D880681B18013B981AD3
S1131CC07047F7B58368C46801931F1B4368050018
S1131CD00E001819A418974207D83A00FEF7AAFC78
S1131CE0019B6868E41A2200F119FEF7A3FCEC607A
S1131CF0F7BD0023F7B506001700C56801910093EE
S1131D003369B4689D421FD2013B5B1B641BBC4218
S1131D1000D93C009C4200D91C0073682200581969
S1131D200199FEF787FC009B2D191B190093019B59
S1131D303F1B1B190193B368AB4200D10025F5602A
S1131D40002FDDD10098FEBD1B19DDE7022310B57D
S1131D500F4C104A236163610F4BA261E36164235A
S1131D60A2640E4A2362E26400230422A362636233
S1131D70E362A3656365E36522650949E01DFEF737
S1131D80CFFD20000749FEF7CBFD2023A37110BD32
S1131D902801002078470000A4010020A0010020B1
S1131DA08147000085470000F0B5274B85B01B78BC
S1131DB00E0002900192002B01D1FFF7C7FF1823F8
S1131DC0029A00255343204AD3185A6D9C6D0392FE
S1131DD0944219D91B6D019D1B1B9D4200D91D0006
S1131DE01827029B30005F43174B2A00DF19FB6C56
S1131DF076191919FEF71EFC019B64195B1B0193EC
S1131E003B6DA34200D10024039B019F1B1B9F42F7
S1131E1000D91F00002F0CD01823029A300053431E
S1131E20094AED19D318D96C3A000919FEF702FCD6
S1131E30E419002D05D01823029A03485343C0180F
S1131E408465280005B0F0BD2801002010B50B0002
S1131E50EFF31084012181F310881900FFF7A4FF28
S1131E6084F3108810BD0000F8B516001822451C34
S1131E7055434243164B0F005D199B18DC6A012C35
S1131E8010D0022C1BD0002C1FD12800FFF710FF0C
S1131E90864205D8320039002800FFF712FF3400CB
S1131EA02000F8BD2800FFF703FF3400864200D964
S1131EB00400220039002800FFF703FFF0E7320096
S1131EC02800FFF716FF0400EAE70024E8E7C0460D
S1131ED028010020F8B50B4B04001B780E001700F6
S1131EE0002B01D1FFF732FFEFF31085012181F3BD
S1131EF010883A0031002000FFF7B6FF85F3108800
S1131F00F8BDC0462801002070B5050008000C008B
S1131F10FEF70EFD210002002800FFF7DBFF70BD75
S1131F2013B56B46DC1D012221000020FFF78EFF54
S1131F30012801D1207816BD01204042FBE70000B2
S1131F40F7B5164C0193237805000F001600002BFB
S1131F5001D1FFF7FBFE2369AB421CD9EFF31082DA
S1131F60012181F31088002D0CD01823691C5943DA
S1131F706B43675061184E600199E31819620021A0
S1131F809962596218204543089B6419E36282F3FD
S1131F9010880020FEBD01204042FBE728010020FC
S1131FA0826810B504004068531C834205D8206839
S1131FB08154A360E3680133E360A26863689A42D2
S1131FC009D121682069FFF785FFA368984203D0EF
S1131FD001235B42E36010BD0023A360FBE7000024
S1131FE0F0B5050017000800012685B00A9C02918F
S1131FF00093B84219D2009A0196964200D20192F7
S113200001230B9A1A4003920B9A1A4202D1002C14
S113201010D10024EB680126002B4BDB009B012B25
S11320201FD9013B00937E43F8E73900FEF798FD82
S11320300136DEE70B9B20269B0704D5009B103658
S1132040002B00D0103E019BA342E3D231002800B4
S1132050FFF7A6FFEB68013C002BDBDB002CF2D181
S1132060D7E731000298FEF77BFD8742DBD902985F
S11320703100FEF7FBFD114B0291195C2800FFF7BC
S11320808FFFEB68002B05DB39003000FEF768FD9D
S1132090BE4211D2039B002B0CD0002C0AD0019B12
S11320A0A34207D220212800FFF77AFFEB68013C06
S11320B0002BF2DA05B0F0BD0600D8E78C4700002B
S11320C0F0B58FB007900E00180014991500069310
S11320D0FEF744FA069B079A0993149B0D920A9300
S11320E000230B930C9331780136002907D10C9B04
S11320F00293002B00DD09E10C980FB0F0BD2529F7
S113210000D0B3E000270822042006E0302B0DD1D4
S1132110022300E001231F430E003378711C2D2B92
S1132120F8D0F3D8232B10D02B2B0CD000240A2169
S11321303378721C18003038092808D84C43303CD6
S113214016001C19F4E70743E6E71743E4E7002108
S113215002912E2B0ED116000A203278711C130026
S1132160303B092B06D8029B0E004343303BD31867
S11321700293F2E7042331780A0001369A43682A6D
S113218001D13178F8E7782909D86F290BD8632968
S113219067D017D8252969D0582900D195E00C9B20
S11321A0002BA0DAA3E7703908000829F7D8FEF756
S11321B0CDFCA500F6FFF6FF9400F6FF8300F6FFC2
S11321C0F6FF8C006429EAD12B681A1D1B682A606B
S11321D0DA1798180393012350400493092849DC23
S11321E0029B049A0593934200D20592002C05D0D9
S11321F0039B002B01DB7B0700D5013C02231F421C
S113220002D0029B002B05D001231F4202D1002CD7
S113221036D100240C9B0493002BC0DB039B002BC2
S11322203ADA2D215B42039309A8FFF7B9FE0C9B10
S1132230002BB4DB03233B40022B05D1029B002B74
S113224002D1002C2CD100240C9B0493002BA6DB80
S11322500A22029B03990197009409A8FFF7C0FE84
S11322609DE72B6819681A1D2A60C9B209A8FFF7EF
S113227097FE94E70A21FEF7FDFC049B0133ACE7CB
S1132280059BA342C6D2202109A8FFF789FE0C9B17
S1132290013C002BBBDABDE77B07C8D52B21C3E784
S11322A0059BA342D0D2302109A8FFF779FE0C9BED
S11322B0013C002BC5DAC7E70A22296801970B1DE8
S11322C02B60029B00940968C7E7296801970B1DDE
S11322D02B60029B00941022F5E72B681A1D2A60DC
S11322E01C6821780134002900D158E709A8FFF7B8
S11322F057FE0C9B0293002BF3DA50E729680B1D61
S11323002B600023019308330093E4E70B9A002A1F
S113231003D006990798FFF7DDFD0C9B02930B9BF6
S11323200393039A029B944663440C93E4E610B52A
S1132330002000F047FD10BD10B5002001F05CFC4A
S113234010BD10B5002001F053F910BD082310B5DD
S1132350164A9178194202D091780B4393708821E0
S113236000222220124B49015A501249124C087083
S113237080201249400258501968114801401960E0
S1132380195910480840C02189040143195180217A
S11323900D4B1A7219767F391A7059700B490A70ED
S11323A00C3299791142FCD110BDC04600D00740CF
S11323B00070044000E007400410000044100000D6
S11323C0FFFFF3FFFFFFFFF0004006400050064010
S11323D01249134810B5814205D00022114B9B08C5
S11323E09B009A420FD1104B104A99600023104968
S11323F01048521A9A420AD100210F4B0F4AD21A9E
S1132400013A08D210BD84588C500432E9E7CC5C00
S1132410C4540133EEE719700133F1E70000000002
S1132420000000000000000000ED00E0744A00001D
S1132430F848000000FEFF1F80FFFF1FA8020020D5
S1132440030041700020187058609860704710B500
S1132450437804000120FF2B08D000F047FA63788A
S11324600133DBB2637000F035FA002010BD0020A8
S1132470704770B504000D0000F038FAE168294394
S1132480E16000F027FA002070BD000000220A4B32
S11324909A641A0040329A631A0030329A621A001F
S11324A020329A611A0010329A60044A1360044B75
S11324B09B60DB607047C0460C02002008020020CD
S11324C05C0200200022024B1A60186880B2704738
S11324D00C007C5070B5437804000D00002B0BD029
S11324E0002500F003FA6378013BDBB263702570CA
S11324F000F0F0F9280070BD02200029FBD02378F9
S1132500002B17D0FFF7DEFF6368A268834204D86C
S1132510C01A824206D30320EDE7C01A80235B026F
S1132520C018F6E700F0E2F90023237000F0D2F9B6
S11325300220E0E74B1CEED000F0D8F90123237011
S113254000F0C8F9FFF7BEFFA5606060E3E770B56F
S11325500500FFF7B7FF802604007602FFF7B2FFFD
S11325600300844203D8031B9D42F7D270BD301B85
S1132570C318F9E710B5012801D100F0B7F910BD6F
S113258010B5012801D100F0A5F910BD10B5FFF771
S11325907DFF01230020084A08491360084A094CBA
S11325A01060086004212160074C216007490B601A
S11325B007490860136010BD38800450000084503F
S11325C000000450000004510400045104000C50A5
S11325D00000045310B5044C206021710020A26057
S11325E02373637310BDC0466C0200200422F0B54F
S11325F087B005AC3B4E0190029120706170337935
S11326000092834226D90022337B15007373012381
S11326100092A3700393334F3B7BAB421DD8009BC6
S1132620002B02D0029B012B48D10120FFF7A2FF0F
S11326300C20019B002558433368181800F0C2F899
S1132640019B012073710226FFF79AFFA6703B7B62
S1132650AB421AD8009807B0F0BDBA68AB009B58DB
S1132660002B0FD01A7903990A420BD020001A6864
S113267099689047002805D0029B7D73002B1BD0DE
S1132680052300930135EDB2C5E7BA68AB009B584A
S1132690002B0ED01A7932420BD020001A689968A8
S11326A09047002805D0029B7D73002B17D006238A
S11326B000930135EDB2CAE7052300930023A3700C
S11326C0013DEDB2FF2DC5D0064BAA009B68D3583F
S11326D0002BF5D020001A6899689047F0E706238C
S11326E00093B7E76C020020014B58797047C0464D
S11326F06C02002013B50400002021780190022907
S113270020D0032922D0012925D1227901AB1448F4
S113271001F042F8002814D1A3795A1E9341114ABA
S1132720DB01137063785A1E93410F4A5B001370E8
S1132730A2780E4B1A70E2780D4B1A7062790D4B29
S11327401A7016BD0100227901ABE0E701A9044823
S113275001F064F8DEE701A9014801F001F8D9E7C6
S11327600040064018408653004086500040065002
S11327700140065018401650074A43099B009B1815
S1132780F822C00512051040184380235B05184346
S1132790002303607047C04628800440F821084A9B
S11327A043099B009B180905C2050A401343802274
S11327B0520513431F2210401E3A82401A6070478C
S11327C028800440072373B5009300230400104DB0
S11327D01A000121280001F001FA2000FFF78AFF06
S11327E0637A280000930023217A1A0001F0F6F995
S11327F0E379084A9B041360074BA17A1D682800FB
S113280001F028F82800E17A01F02BF8002076BDC9
S11328100070044000700C59F047000010B50548E2
S113282000F05EFF044B1968C9B20131FEF798F954
S113283010BDC0460040064044801C5E10B5FFF742
S1132840EDFF10BD10B5054800F04AFF044B1968B0
S1132850C9B20131FEF784F910BDC04600400640FC
S11328604480145810B5FFF7EDFF10BD0B4B1B68E7
S1132870DBB2022B0CD0032B0DD00020834206D1F7
S1132880074A106880221202904200D01800704754
S1132890044B1868FBE7FA208000F8E700700C5935
S11328A0980200209C02002010B5FFF7DFFF10BD46
S11328B010B5024B185CFFF771FF10BD9C47000078
S11328C010B56620FFF76AFF10BD10B56620FFF74C
S11328D053FF10BD044A1368002B04D0013B13605E
S11328E0002B00D162B670477C02002072B6024A07
S11328F013680133136070477C02002010B5064C46
S1132900064801F00FFB042801D1002010BD013C52
S1132910002CF5D10320F9E7EA03000000E00740AA
S113292010B50B4B0B490A78002A07D0084C0A480B
S113293001F0F8FA012806D1002003E0013B002B46
S1132940F1D1032010BD013C002CF0D1F9E7C046C1
S1132950EA03000002D0075100E00740F7B5070082
S11329600E00150001200193002F15D0002913D06B
S1132970FFF700FE094C102200212000FDF7AEFEF7
S113298027602671002D03D0019BA5602373637318
S11329900120FFF7F5FD0020FEBDC04680020020A7
S11329A0F0B5B14C8DB002900391237B0120637389
S11329B0FFF7E0FD2379029A934206D80120FFF73E
S11329C0DFFD022738000DB0F0BD029A23689200A3
S11329D0D35809AC1D780193039B2A002372029BF0
S11329E02370019B636002239A430492012A01D05D
S11329F0052D0AD101219D4801F0E8F9002807D1ED
S1132A000120FFF7BDFD0127DCE70321072DF2D8E4
S1132A100123002763723C000593934E337BA3424A
S1132A202AD80120FFF7ACFD914800F07DFE049BFD
S1132A30012B4AD10138022835D9039B012B00D040
S1132A400DE106270120FFF795FD0023012609ADBE
S1132A506B72013CE4B2FF2C00D1AFE0824BA200C8
S1132A609B68D358002BF4D01A793242F1D0280055
S1132A701A6899689047ECE7B268A3009B58002B4A
S1132A800ED01A7905990A420AD01A68996809A8D9
S1132A909047002804D0039B04277473012BC0D1F2
S1132AA00134E4B2B9E7FFF7DDFE724B9842C4D8B3
S1132AB0FFF7B4FE704EB042BFD8FFF7C3FEB0427A
S1132AC0BBD8FFF7BBFEB042B7D8039B012B00D0A5
S1132AD0C1E00A2D00D9BCE02800FEF72DF8060A53
S1132AE00D1E879A7B822F737800002207AB1A7021
S1132AF02DE0032207ABFAE75C4801F013FA012842
S1132B0008D00021594801F071F9FFF709FF071EA9
S1132B1000D057E7012207ABE9E7544801F002FA75
S1132B20042808D00221514801F060F9FFF7E6FEBD
S1132B30071E00D046E7042207ABD8E7072207ABFD
S1132B401A80019AD2789A70019A1279DA702B005D
S1132B50083B022B06D8019B06AA5B799372019B62
S1132B609B79D372019B5B78002B0AD0012D08D985
S1132B70019B02229978414B00294DD019690A43DF
S1132B801A613A4807A901F055F9002800D0032733
S1132B90002D45D1FFF7C4FE071E00D012E7002721
S1132BA00120FFF7E7FC029B2F4D0024AB730223A7
S1132BB009AE737201932B7BA34236D80120FFF731
S1132BC0DFFCFFE6082207ABFF321A80BFE72C4A7E
S1132BD007ABFAE7022207AB1A700222FF329A808F
S1132BE0B5E7022207AB1A70264AF8E7022207ABC0
S1132BF01A70013A1D489A8001F094F90128A6D070
S1132C0000211A4801F0F2F8FFF78AFE071E9ED051
S1132C10D8E6052207AB6AE7196991431961B0E761
S1132C20012DBDD1FFF76AFEB6E7AA68A3009B5841
S1132C30002B0BD01A7901990A4207D030001A6888
S1132C4099689047002801D005276C730134E4B2D9
S1132C50B1E70327B6E6002F00D13AE7F2E6002FEA
S1132C6000D0EFE6EDE6C0468002002000E0074019
S1132C700040064040420F0080841E0000ED00E04A
S1132C80070300000102000010B5064801F04AF9EC
S1132C9003000020012B03D00B30042B00D10A3891
S1132CA010BDC04600E00740F7B5FF2403681D4A85
S1132CB01E0A26401C40B3009F581B4A05009B581F
S1132CC030000193FFF7F4FD00222100380001F0E9
S1132CD031F9019BA400E41884232A795B0523437A
S1132CE052001A6080236A795B0523431A6090239B
S1132CF0AA795B05234312011A600C4B1C43EB7940
S1132D001B042360EB79002B0AD0094B9B57002B43
S1132D1006D01F2213401E3A9A401300054A13603E
S1132D20F7BDC046F4470000FC4700000000181837
S1132D300448000000E100E0F8B5FF240500036842
S1132D40114A180A20401C4083009F580F4A9E587D
S1132D50FFF7AEFD38002100012201F0EBF86A68AC
S1132D602100380001F0F5F888232A7AA400A41978
S1132D705B05234392001A6098235B051C436B7A1E
S1132D809B012360F8BDC046F4470000FC470000E7
S1132D9070B50C00002807D1002C0FD170BD0500C0
S1132DA00835FFF781FF280003680133F7D1F3E703
S1132DB0250020000C35FFF7BFFF2C0023680133EA
S1132DC0F6D1EBE7084B8200D258942310B50232B7
S1132DD05B0513431B78002B02D000F03FFA10BDB3
S1132DE000F092FAFBE7C046A047000002008023EF
S1132DF00C325B0513431A78002AFCD0017170472A
S1132E0070B50D00084B8000C4582000290018300C
S1132E10FFF760FB0328F8D0002801D004232374B3
S1132E20207CC0B270BDC0469002002010B5104B8B
S1132E308000C458E37C002B05D0237C052B02D0F2
S1132E40237C042B0BD10B4B18589823821C5B0555
S1132E50134300221A7001F0EBF801236374A37C7E
S1132E60002B03D020001830FFF7F1FA10BDC04644
S1132E7090020020A0470000F0B51700002289B09E
S1132E8005930EAB1B7805000393830032481E584C
S1132E9032481C5807AB1A80A37C880A0493022387
S1132EA0FF3363828B0A0193CBB21E2801D11A002F
S1132EB00B0A5B00D8B2019B00211E2B05D08F4268
S1132EC003D1012303995B1A59B20143CBB2029394
S1132ED00299019807AB197001211E2801D15A707B
S1132EE04918A3603000E1600299FFF77FFF2800D2
S1132EF00F99FFF785FF237C002B0CD1002F0AD0FC
S1132F00059BA760E36030003978FFF76FFF280066
S1132F100F99FFF775FF237C039A1A4314D1019B81
S1132F201E2B01D0002F0FD0002301273000A360F7
S1132F30E76001F06BF8029930003943FFF756FF60
S1132F4028000F99FFF75CFF0023207CE374049BA7
S1132F50C0B2A37409B0F0BDA047000090020020E5
S1132F60F7B583000193184B8200D75805000C0075
S1132F700126002F26D1154B3900D35820002422D6
S1132F800193FDF7ABFB200039001830FFF758FA26
S1132F902800FFF795FC019800F0E3FF0A4BAA0014
S1132FA0D4501F220A4B5B5D134032009A40094BF8
S1132FB01A609C22019B52050233134380226674DB
S1132FC03E001A703000FEBD90020020A0470000B1
S1132FD0A447000000E100E0F7B50E4E8500AB59B0
S1132FE0002701930C4B0400EA589C2302325B0532
S1132FF013431F70FFF769FC084B01981A5D1F23E8
S11330001A401E3B9340064A1830D367FFF72FFA45
S1133010AF51F7BD90020020A0470000A447000074
S113302004E100E00A4B800070B5C5584B686A693A
S11330300C0093420BD0074BC658FFF703FC002348
S113304001006268300000F09BFF63686B6170BD33
S113305090020020A0470000F0B587B004920593C9
S1133060334A0FAB1E7883009C580391627C07009F
S1133070002A03D10320207407B0F0BD002E01D133
S11330801E220E922B4A3800D55800230399E36080
S1133090A360237423606374A674FFF7C3FF9023B3
S11330A01021AA1C5B05134319708423E91C5B05DA
S11330B00B430221197098235B05134302934023A9
S11330C0029A2800137000F0A1FF039B38001988AE
S11330D00E9B049A019301230093059BFFF7CCFEFA
S11330E00D9B002B17D0237C002B11D10C9B2800A7
S11330F0A3600D9BE3600C9B1978FFF777FE002E0D
S113310003D038000E99FFF77BFE207CC0B2B3E7F2
S1133110237C042BF9D100230126029A1370EB7847
S11331205B09334202D0280000F082FF6674ECE7AA
S113313090020020A0470000F0B589B0079311ABBE
S11331401B780692364A029383009C580591627C50
S11331500600002A03D10320207409B0F0BD029AAE
S1133160002A01D11E32109200272E4A0599D55803
S11331700E9B300023600F9BA7606360029BE76097
S1133180A37427746774FFF74DFF9023AA1C5B0593
S11331901A4310231370842304925B05EA1C13431F
S11331A002221A709823AA185B051A4340232800A8
S11331B01370039200F02AFF059B069A1988109B4E
S11331C0300001930097079BFFF756FE237CDAB289
S11331D0BB4215D1049BA91C1A708C235B050B43BD
S11331E00F99012900D108221A702B79029B002B18
S11331F003D030001099FFF703FE207CC0B2ACE787
S1133200237C042BF9D10126039B1F70EB785B0907
S1133210334202D0280000F00BFF6674EDE7C0468D
S113322090020020A04700001FB501240394089CCD
S11332300294079C0194069C0094FFF70DFF04B0D0
S113324010BD1FB501240394089C0294079C0194AB
S1133250069C0094FFF770FF04B010BD244B70B5BA
S11332608400E5588423EA1C5B05134302221A7088
S11332709023A9185B050B431B78EA78DBB292060E
S11332801DD5942252050A431278002A17D0194AF0
S1133290A458012B14D1EA781A4204D004332374BD
S11332A0FFF7C4FD0BE0E368013BE360002BF7D0BC
S11332B0A36828005A1CA2605978FFF797FD70BDD7
S11332C06268013A6260002A06D08C235B05012AF9
S11332D00AD000220B4309E0FFF7A8FD23685A1C1B
S11332E022602A791A70EAE708220B431A70F5E77C
S11332F0A047000090020020C31C8420400518430E
S113330002230370704700000122F0B5904B810046
S1133310CD5889B0EB1C0193EB7890261B091A4019
S113332005920122EB7876059B091A40029232003D
S1133330AB1D1A43944612780090D2B2079294229D
S113334052051A431278AF1CD0B20390982040055E
S113335003431878C0B206907E480C5831003943B4
S113336001910978C9B20491002A35D0079A002A3C
S11333700ED01023624628001370FFF7BDFF236BA5
S1133380002B52D06A4601211078626B98474CE0BA
S1133390069A002A20D0402228001A70FFF7ACFFBA
S11333A023002C331B78002B03D19822520517439A
S11333B03B70236B002B04D06A4680211078626B2B
S11333C09847E37D002B04D0200080211830FFF7BC
S11333D050F80A23237028E02800FFF78DFF059B8F
S11333E0002B24D0EB1C1E4310233370029B002BB4
S11333F010D0EB785B07DA0F002B48DB019B1A70C7
S1133400236B002B04D06A4604211078626B984722
S11334102B790AE0082323702C342378002B04D161
S113342098235B051F43029B3B7009B0F0BD029BD0
S1133430002BDED1049B012B54D1EB78049A134268
S113344030D0019B029A1A702B7923002C331B78FD
S1133450002B07D1039B002B04D198235B051F434A
S1133460039B3B70236B002B04D06A460821107821
S1133470626B9847A37D002B04D0200008211830EC
S1133480FEF7F7FF00236360E3602375CDE71023A5
S1133490019A1370236B002B04D06A460221107822
S11334A0626B98476368002B50D028008022E36841
S11334B00C3052051978024310780028FCD0297189
S11334C00133E3606368013B63606368002BACD144
S11334D0E3602375236B002BA7D06A461021107874
S11334E0626B53E72B79A268DBB2002A2CD02269E5
S11334F01370236901332361A368013BA360A368AC
S1133500002B00D091E7039B002B11D123002C3317
S11335101B78002B04D198235B051F43039B3B704E
S1133520E37D002B04D0200020211830FEF7A1FFFA
S1133530002363752361236B002B00D175E76A4672
S113354020211078626B21E7072343E7062341E734
S1133550A047000090020020042902D0072907D0C8
S11335607047902303305B05184310230370F7E77B
S11335709C2303305B0518438023F7E7DC2270B5F6
S11335800024094B8000C558084B5205C358083322
S11335901A431460AA7CA24203D028001430FEF718
S11335A056FF2C7470BDC04694020020A84700004A
S11335B00C4B800070B5C5580B4B0024C058D42365
S11335C002005B05083213431C602200074900F027
S11335D050FDEB7CA34203D028002030FEF737FFD8
S11335E06C7470BD94020020A84700001B00020008
S11335F0F8B52B4A83009C580600227C002A02D18D
S1133600627C002A3ED0274AD558DC232F005B0574
S11336101A0008373A431268002A15D02A1D1343AA
S11336201B68002B10D0A368002B0DD023681A78D8
S11336300133EA602360A368013BA360A368002B05
S113364002D13000FFF79AFFD4235B051F433A6889
S1133650002A0DD02A1D13431B68002B08D0EB68E9
S113366062681370E36A002B0DD021003000984784
S113367028000D4900F03EFD002803D028000A4927
S113368000F03CFDF8BD636801336360E368013B0F
S1133690E360E368002BEBD13000FFF789FFE7E735
S11336A094020020A8470000130001008422520560
S11336B0024312780300D0B2002A0CD080200133D8
S11336C0400503431878013843425841024B4042B5
S11336D01840024BC0187047808D5B0080841E0028
S11336E010B50D4B821D13431A780400D3B2002A7F
S11336F00FD0012B07D1FFF7D9FF084B08341C4327
S11337002378D84010BD0020022BFBD1044B18684D
S1133710F8E70448F6E7C0460000081100009010DE
S113372098020020006CDC020C4A811D0A431278C6
S11337300300D0B2012A04D002280BD000280BD1F8
S1133740704780220133520513431B78002BF7D1B5
S11337500220F5E70320F3E70520F1E70000081154
S113376002009C2318325B05134380221A70002246
S1133770064B03431A70064B063018430378DAB23B
S1133780002BFBD1034B10000B60704700000813A3
S113379000000811006CDC02F8B504000D001600EE
S11337A01F00FFF7C1FF012823D1002D25D080235E
S11337B0621C5B0513431D70842302225B052343B3
S11337C01A702200104B083213437200D2B21A70DE
S11337D040220E4B0E48234306341A7004432378C8
S11337E0012BFCD1002D0DD10A4B334100203B604D
S11337F0F8BD0228DBD1012DD9D139002000FFF713
S1133800AFFFD4E7044BF0E700009010000008136A
S11338100000081180841E0000127A0010B50A4CC2
S1133820030022680120002A0CD0084A7F301A4382
S113383010700748063303431A78022AFCD100208B
S113384023680B6010BDC0469802002000000813D6
S1133850000008119C23C9015B050343C9B2197018
S11338607047942349015B050343C9B2197070473B
S113387070B506680C0030002049FDF771F91F4946
S113388005003000FDF7F2F90E00E12130000901D6
S1133890FDF766F9E121E08009013000FDF7E6F962
S11338A00E003C213000FDF75BF93C212081300003
S11338B0FDF7DCF96E22A1720321114BFF32238044
S11338C0238895420AD80F499B0700D10E4901234A
S11338D0CA5CAA420CD36380A58070BD01339BB23D
S11338E023800B40AD1A5A425A416E32FF32E7E749
S11338F00133AD1A0D2BEBD1EEE7C0468051010028
S1133900B2070000D4470000AC4700000188114A08
S113391003008A18002030B5812A17D85A88541E0B
S11339200B2C13D89C88651E1E2D0FD8DD88172DEF
S11339300CD81D893B2D09D89B7A3B2B06D88B07C5
S113394005D0054B9B5CA3424041C0B230BD034B44
S1133950F8E7C0464EF8FFFFD4470000AC4700002C
S113396070B5134D838802885B196E25FF35554366
S113397044885B1995085B190E4D6600755B5B19ED
S1133980920710D00B600A680B4BC4885343827AA9
S113399000899B18E122120162439B183C22424396
S11339A09B180B6070BD022CECD8013BEAE7C046C3
S11339B04A05F5FFBA470000805101008023084AF8
S11339C01B0212689A4209D1A02310305B051843E8
S11339D00368002B02D10133FF3303607047C046F4
S11339E0980200200100802210B500230124520512
S11339F0103111430C600B60902143604905046051
S1133A001C3001430B608821490501430B6084216C
S1133A104905014310430B60036010BD020090236D
S1133A2014325B05134300221A60426010320160B5
S1133A301A60704703680B6070470000104B8200E7
S1133A4070B5D558802204000E4B92051A602800E8
S1133A50FFF7C8FF2800FFF7B1FF0B4B1F261A5DC5
S1133A600123180009493240095DC02531409040C6
S1133A708B40074A6D00505153511060136070BD64
S1133A80E44700003C80845EE8470000E94700000A
S1133A9000E100E0F7B50027114B8000C55808008D
S1133AA00E000197FFF732FF0400B84216D001A9B7
S1133AB03000FFF755FF3800FEF7F6FE01008020C6
S1133AC00002814206D0FDF74BF801000198FDF792
S1133AD047F8019028000199FFF7A0FF2000FEBDE0
S1133AE0E4470000F7B50025124B8000C4580E00CF
S1133AF0200001A90195FFF79DFF2800FEF7D4FEE1
S1133B0005008020000285420ED00B4B29000434AE
S1133B101C43FDF725F82768019C29004443B8B2EB
S1133B20FDF71EF824180194310001A8FFF7A0FE48
S1133B30F7BDC046E447000000007810F0B5002748
S1133B40184B800085B0C55808000E0001920397F9
S1133B50FFF7DCFE0400B84203D10024200005B0C6
S1133B60F0BD300003A9FFF7FBFE38002E68FEF716
S1133B709BFE010080200002814206D0FCF7F0FF8A
S1133B8001000398FCF7ECFF0390039BB342E4D3DA
S1133B90AB6088231C355B051D43019B9A002A609A
S1133BA0DCE7C046E4470000044B8000C258882389
S1133BB01C325B051343890019607047E447000019
S1133BC0054B8000C258882314325B0513431868E0
S1133BD0431E9841C0B27047E44700006B46E022A0
S1133BE01B78D2021B041340024A09070B438018B6
S1133BF00360704744100000084B8200D2589023A1
S1133C0010B503325B0513431B78002B02D000F080
S1133C1025F810BD00F08AF8FBE7C046EC47000029
S1133C209C210C4B0C4A8000C3588258002003325C
S1133C304905114310B518710870942149050A43C8
S1133C4010701A7F824203D020331800FEF7FFFB66
S1133C5010BDC046A0020020EC47000010B51E4B6A
S1133C608200D3581979002934D01C4951585A6913
S1133C70002A11D09C2252050A431278002A0BD044
S1133C808A79DC68D2B2002C03D02270DA6801325F
S1133C90DA605A69013A5A611A69002A12D09422E8
S1133CA052050A431278002A0CD09A68141E02D0D6
S1133CB0147801329A608C711A69013A1A619A690E
S1133CC001329A611A69002A04D15B69002B01D17F
S1133CD0FFF7A6FF10BDC046A0020020EC4700007D
S1133CE0104A8000815800220F4B10B5C35803318D
S1133CF0581CC2779C2040050843DA621A701A8364
S1133D005A629A621A6302709420400501430A7051
S1133D101A0038321278002A03D00121181DFEF748
S1133D20A8FB10BDEC470000A002002070B5254B95
S1133D308200D358591CC97F002942D022495258C5
S1133D40D96A002917DB9421490511430978002910
S1133D5011D0D969CCB2596A002905D0DD6A002D89
S1133D6002DD0C78013159629471D96A0139D96242
S1133D70596B01315963D96A002905DA9421D41C9D
S1133D804905214300240C70196B002911DD9C2185
S1133D9049051143097800290BD09279996AD2B266
S1133DA0002903D00A709A6A01329A621A6B013AA6
S1133DB01A63DA6A002A04DC1B6B002B01DCFFF7B0
S1133DC08FFF70BDA0020020EC470000012903D042
S1133DD0032909D00020704794235B051843007819
S1133DE0431E9841C0B2F6E78423F6E7431C034818
S1133DF049011843C9B201707047C04600008812D7
S1133E00831C9420490140051843C9B201707047CE
S1133E10831C034889011843C9B201707047C04626
S1133E2000000813831C8C20C90040051843C9B244
S1133E3001707047F7B50400364EE31C1E43337817
S1133E4008780D00DBB2072860D8FCF775FE04196A
S1133E502B0E192B2B45304B01341C4300232370AC
S1133E603378012BFCD10020FEBD012BFCD12A4B61
S1133E7001341C43402323703378042BFCD1F2E734
S1133E800021012801D004200231337898423FD127
S1133E902000FFF7ABFF0421204A13698B43136111
S1133EA030BFE0E70227B84207D100270B79BB42B5
S1133EB003D020004979FFF7ABFF194B01341C43B1
S1133EC027703378154ADBB20193019B01330193C8
S1133ED0042311690B43E2E70421114B621C1A43CA
S1133EE011706A78A11C0B431A70002A06D1AB78B2
S1133EF0002B03D02000E978FFF782FFAB79002B79
S1133F00DFD02000E979FFF78DFFDAE70120ABE786
S1133F100320A9E7000030100000881200ED00E043
S1133F2000001010C31C024818430078C0B2704748
S1133F3000003010012314308B40012A04D1802268
S1133F4012051043036070478022D204DB43104300
S1133F50F8E701238B40002A01D043607047836057
S1133F60FCE70023C222037043708370C370437163
S1133F708371C371037242728372C372704700000B
S1133F80F0B5002487B00293FA2301262700250008
S1133F909B00534303900491009301947642AB0039
S1133FA00593194BAA009B1859880498A140FCF763
S1133FB0D7FD009B009AC31A824200D9131AB34258
S1133FC01FD2114AA900525C27000192002B02D093
S1133FD00135322D13D10134032C01D0002B0DD126
S1133FE0029A002A00D013603F220199BB011140BC
S1133FF00B43039ADBB2537007B0F0BD00251E00DB
S1134000CDE73300E4E7C0460648000094230230BD
S11340105B0503431B78002B05D088235B051843FD
S113402004230370704780231B0518433023F8E7EB
S1134030942210B55205841C224311780300CAB29D
S1134040022001290DD18021C90421438024CD30CF
S11340500870E4000333197849090800104011423C
S113406000D110BD013C002C01D0C046F3E709206B
S1134070F7E7012310B58B400400080C04280AD884
S1134080FCF75AFD030E14171A008020002A03D0EF
S113409000050443236010BDC004DB430443F9E777
S11340A0201D8024002A0AD02405F2E720000830CD
S11340B0F7E720000C30F4E720001030F1E7E404C7
S11340C0EBE70200002300B5080C042808D80133EC
S11340D0FCF732FD03080A0C0E001068C8400340C8
S11340E0180000BD5068F9E79068F7E7D068F5E775
S11340F01069F3E710B5FFF7E4FF10BD294A030088
S1134100881800B510284BD8FCF716FD433C27202F
S11341101912094A4A4A4A2E4A4A4A4A3500D020C4
S11341208022043340050343520300201A6000BD7B
S1134130CC2080220433400503431203F5E7C82052
S11341408022043340050343D202EEE7C4208022D8
S11341500433400503439202E7E7C020802204337E
S1134160400503435202E0E7FC208022043340056B
S113417003431206D9E7F8208022043340050343A1
S1134180D205D2E7BC208022043340050343120247
S1134190CBE7B8208022043340050343D201C4E7AF
S11341A00320C4E7F2FFFEFF04FEFF1F0D0A0A0A04
S11341B00A5B202A090909095761727020284857A7
S11341C0207265766973696F6E204329202F20471A
S11341D06C61757820284857207265766973696F19
S11341E06E2042290909092A205D0A000D5B20205E
S11341F00909090920202020202043616D62726989
S1134200646765202F2050687973636F6D706C61EB
S1134210622020200909090920205D0A0A000D09ED
S1134220537570706C793D25646D562C0944656630
S113423061756C74205461726765742052656164A1
S11342402052656769737465723D30782530327821
S11342500A000D094932433D25646B622F732C0912
S11342605350493D25646B622F732C0955415254B8
S11342703D2564622F732C094932432050756C6CC0
S11342802D55703D25640A0A000D0953494D2D3EF4
S113429053434743363D3078253032780909525428
S11342A0432D3E53523D307825303278090952541B
S11342B0432D3E5453523D3078253032780A000D58
S11342C0094D43475F43313D307825303278090941
S11342D0094D43475F43323D307825303278090930
S11342E04D43475F533D3078253032780A000D093D
S11342F04D43475F53433D307825303278090909EF
S11343004D43475F4D433D30782530327809094F9E
S113431053435F43523D3078253032780A000D090B
S1134320534D435F504D50524F543D3078253032F9
S113433078090909534D435F504D4354524C3D3065
S1134340782530327809095343422D3E5343523D78
S11343503078253032780A000D09504D435F5245BC
S11343604753433D30782530327809090953494D84
S11343705F53434743343D307825303278095254F3
S1134380432D3E5450523D3078253032780A0A008D
S11343900D0925647320696E205254432048616ED0
S11343A0646C657220746F2D646174652C092564D6
S11343B020506D6772204572726F72730A004162F9
S11343C06F757420746F204750494F5F4452565F95
S11343D0496E697428292E2E2E200041626F75744F
S11343E020746F206C6F77506F77657250696E53CD
S11343F0746174657328292E2E2E2000426F6F7409
S113440020646F6E652E0A004D4D413834353151AC
S113441020436F6E666967204572726F7220537411
S11344206174653A2025640A000A46696E697368F6
S1134430656420696E697469616C6973696E67206B
S113444073656E736F722E0A000A4C617374205484
S1134450696D6520646966666572656E63653A2098
S113446025646D732E0A497465726174696F6E20D8
S11344706E756D6265723A2025642E200A005072B2
S113448065737320616E79206B657920746F207376
S1134490686F77206D656E752E2E2E0A0077617217
S11344A0705365744C6F77506F7765724D6F6465A8
S11344B0286B57617270506F7765724D6F646552E7
S11344C0554E2C2030202F2A20736C656570207384
S11344D065636F6E6473203A20697272656C6576E9
S11344E0616E742068657265202A2F292829206648
S11344F061696C65642E2E2E0A000D0A09577269D3
S113450074696E67206469726563746C7920746F72
S113451020666C6173682E20507265737320277156
S11345202720746F20657869742E0A000A776172F7
S1134530705072696E7428293A2076736E707269AD
S11345406E74662829206661696C65642E2E2E0AB5
S11345500A0046696E697368656420696E697469E6
S1134560616C6973696E67204D4D41383435315142
S113457020616363656C65726F6D657465722E0A84
S113458000FF000A4661696C656420746F207265DF
S1134590616420616363656C65726174696F6E2028
S11345A06D6561737572656D656E74732E0A00585E
S11345B0416363656C65726174696F6E20286D6D0B
S11345C0735E2D3229202D20446563696D616C3A38
S11345D02025642C2048657861646563696D616C8D
S11345E03A2025782E0A0059416363656C6572612F
S11345F074696F6E20286D6D735E2D3229202D2015
S1134600446563696D616C3A2025642C20486578A3
S113461061646563696D616C3A2025782E0A005ADD
S1134620416363656C65726174696F6E20286D6D9A
S1134630735E2D3229202D20446563696D616C3AC7
S11346402025642C2048657861646563696D616C1C
S11346503A2025782E0A0A004D61676E69747564E4
S113466065206F6620616363656C65726174696F50
S11346706E3A202564200A00546F74616C20706FB8
S11346806C6C696E672064656C61793A20256420DE
S11346907573200A00496E7374616E74616E656F80
S11346A0757320436F2D56617269616E63653A209C
S11346B0256C6C75000A4552524F523A2044656E7F
S11346C06F6D696E61746F72206973205A45524F21
S11346D021000A4672657175656E63792062696EA0
S11346E02077697468207065616B20706F776572DC
S11346F03A20256420487A2E200A20505F48315FF2
S1134700676976656E5F663A207B25757D2F31304B
S11347103030200A000000006E070000F60600009A
S11347205206000086050000970400008B03000079
S11347306A0200003901000000000000C7FEFFFF0C
S11347400BFAFFFF0000000002000000030000005D
S1134750040000000500000006000000070000003F
S113476008000000090000000A0000000B0000001F
S11347700C0000000D0000005465726D696E616CE0
S113478000525454005345474745520030313233A8
S1134790343536373839414243444546898A000026
S11347A0006006400800000000400540001F1D1F77
S11347B01E1F1E1F1F1E1F1E1F00000000001F00C3
S11347C03B005A0078009700B500D400F3001101B3
S11347D030014E01001F1C1F1E1F1E1F1F1E1F1E07
S11347E01F00000000D003401415000000600740C3
S11347F00050064000F00F4040F00F40009004408D
S113480000A004401E1F0000140001001600020056
S1134810180003001A0004001C0005001E00090013
S11348202000060022000A002400070028000C00D3
S11348302C001000300011003800120040000F005E
S113484044001300480014005000150058001900DB
S11348506000160068001A007000170080001C0039
S113486090001D00A0001E00C0002200E0001F00F8
S1134870F00023000001240020012500400126004F
S113488080012A00C0012700E0012B0000022C0057
S113489040022D0080022E000003320080032F000E
S11348A0C0033300000434008004350000053600E2
S11348B000063A000007370080073B0000083C0070
S11348C000093D00000A3E00000C3F00000F0000FC
S11348D0F8B5C046F8BC08BC9E467047F8B5C0465B
S10B48E0F8BC08BC9E467047B9
S10B48E8C0BBFF7F01000000CA
S10748F08504000037
S10748F4590400005F
S11348F804FEFF1F0000000000000000000000008C
S1134908000000000000000000000000000000009B
S1134918000000000000000000000000000000008B
S1134928000000000000000000000000000000007B
S1134938000000000000000000000000000000006B
S1134948000000000000000000000000000000005B
S11349580000000068FEFF1F0511000003000000AE
S11349680000000008070000C8000000050000005F
S11349783C0000001027000000C20100FE190000DE
S1134988B91E0000EE330000C23A0000F333000001
S11349982C260000F43A0000361C000082110000A6
S11349A801070000E70A0000860A0000480000002A
S11349B80C030000947400007C8200000270000064
S11349C85A0F0000860500006D03000079000000FE
S11349D86300000068010000A901000060EA409C2F
S11349E8C2000000000000004901000000000000AF
S11349F8CC00000000000000FFFFFFFF00000000E3
S1134A08050000000100000001000000080000008B
S1134A18010000000100000009000000010000007E
S1134A28010000000C00000001000000010000006B
S1134A380101000001000000010000000201000063
S1134A480100000001000000FFFFFFFF010000005B
S1134A580000000001010000000000000001000047
S10F4A680000000000000100000100003C
S903051DDA
