:10000000000600201D050000450500004505000014
:1000100000000000000000000000000000000000E0
:100020000000000000000000000000004505000086
:10003000000000000000000045050000450500002C
:100040004505000045050000450500004505000088
:10005000450500004505000045050000AD0F000006
:10006000532C0000450500005D2C000045050000F4
:10007000672C00004505000045050000450500000F
:100080004505000045050000450500004505000048
:10009000850F00009D0F000045050000450500008C
:1000A0004505000045050000450500004505000028
:1000B0004505000045050000BD0F00004505000096
:10040000FFFFFFFFFFFFFFFFFFFFFFFFFE3DFFFFBF
:100410000448054B10B5834203D0044B002B00D099
:10042000984710BD04FFFF1F04FFFF1F00000000DE
:1004300006480749091A8B10C90FC91810B5491089
:1004400003D0044B002B00D0984710BD04FFFF1FC2
:1004500004FFFF1F0000000010B5074C2378002B9D
:1004600009D1FFF7D5FF054B002B02D0044800E06F
:1004700000BF0123237010BD04FFFF1F0000000018
:100480003C690000054B10B5002B03D0044905481A
:1004900000E000BFFFF7CCFF10BDC0460000000029
:1004A00008FFFF1F3C690000402292029A1A924600
:1004B0007047C046154B002B00D1114B9D46FFF7EE
:1004C000F3FF00218B460F461148124A121A00F022
:1004D00005F90C4B002B00D098470B4B002B00D09C
:1004E00098470020002104000D000B4800F02EF872
:1004F00000F06AF82000290001F000F800F03AF856
:1005000000000800000000000000000000060020BD
:1005100004FFFF1F5C030020A105000072B606481F
:100520000649074A02600A6002F0A2FB02F0E2FB01
:1005300062B6FFF7BFFF000080E100E080E200E06C
:10054000FFFFFFFF004800474505000010B5010010
:1005500000230022002000F01FFA10BD10B50A0091
:10056000002100F0BBF810BD014B18687047C04671
:1005700000FEFF1F084B10B50400002B02D0002125
:1005800000F078FA054B1868836A002B00D0984772
:10059000200000F05BFCC046750A0000104F000010
:1005A00070B5074D074C641BA41005D0013CA30097
:1005B000EB589847002CF9D106F0C6F970BDC0463B
:1005C000606900006469000070B50C4D0C4E761B2C
:1005D000B61005D0002408CD01349847A642FAD1C0
:1005E00006F0ACF9074D084E761BB61005D0002476
:1005F00008CD01349847A642FAD170BD5C6900006D
:100600005C6900005C6900006069000010B5034B84
:100610000100186800F00CF910BDC04600FEFF1F75
:1006200010B5034B0100186800F0ACF810BDC046CF
:1006300000FEFF1FF0B5C64600B50F2A43D90B00D8
:10064000032603431E400C000300002E40D115007A
:10065000103D2D09AC462D01A846804400E03B002A
:10066000676825685F60E7681D60DF601F00A56838
:1006700010379D6010344345F1D165460F230C249B
:1006800001352D01491913404519144223D08C59C5
:10069000AC5104369C1B032CF9D80324043B9B0863
:1006A00001339B002240ED18C918561E002A07D0BE
:1006B000002300E02300CA5C5C1CEA549E42F9D18E
:1006C00004BC9046F0BD0500561E002AF0D1F7E7A5
:1006D000561E0500ECE71A00F6E7C046F0B5050027
:1006E00083074AD0541E002A44D0CEB2030003220E
:1006F00002E00135013C3DD301332E701342F8D1A5
:10070000032C2FD9FF220A40150215432A04154352
:100710000F2C35D92700103F3F093E01B4461E007B
:100720001A0010366644156055609560D560103229
:10073000B242F8D10F260C2201373F012640DB19C7
:100740003700224217D03E1FB608B400A4461A0054
:100750001C1D644420C2A242FCD103240136B60011
:100760009B193C40002C05D0C9B21C1919700133EB
:100770009C42FBD1F0BD3400F4E714000300BFE756
:100780002700E0E770B50500002915D00C1F23688D
:10079000002B27DB280000F0CBF9244B1A68002A35
:1007A00005D0A2420CD921686018824224D0626030
:1007B00028001C6000F0BEF970BDA34203D81A00E7
:1007C0005368002BF9D111685018A0421BD027D8CC
:1007D00021686018834207D063605460280000F0ED
:1007E000A9F9E9E7E418D5E718685B68844661442D
:1007F000216063605460F1E7106852688446614488
:1008000021606260D4E720680918501811608342A3
:10081000E4D118685B688446614411605360DDE789
:100820000C2328002B6000F085F9C5E720FFFF1F8F
:10083000F8B50323CD1C9D43083506000C2D2AD2A4
:100840000C25A94229D8300000F072F92A4F3A68E5
:10085000002A0AD013685B1B04D441E023685B1BA9
:100860001FD522005468002CF8D17B68002B3DD0A6
:100870002900300000F042F8431C2AD00323C41C96
:100880009C43A04205D0211A300000F037F8431CE9
:100890001FD0256010E0002DD3DA0C230020336038
:1008A000F8BD0B2B05D86368A2421DD0536003E04E
:1008B00014002360E4182560300000F03BF92000AC
:1008C00007220B30231D9043C21AE9D01B1AA350F4
:1008D000E6E70C233000336000F02CF90020DFE75E
:1008E0000B2BE5D8140053683B60E5E7002130008E
:1008F00000F004F87860BBE720FFFF1F002370B50D
:10090000064C05000800236000F0A2FA431C00D04A
:1009100070BD2368002BFBD02B60F9E75803002043
:1009200003000A7801311A700133002AF9D17047A7
:1009300010B5830727D00378002B26D003000321AE
:1009400002E01A78002A1CD001330B42F9D1196851
:100950000F4A104C8A188A4322420FD10433196877
:100960000B4A8A188A43224208D104331968084A7C
:100970008A188A432242F1D000E001331A78002A13
:10098000FBD1181A10BD0300E1E70020FAE7C046CA
:10099000FFFEFEFE80808080F0B546464F46D6467C
:1009A000C0B51F002F4B82B01C6805000E0090469A
:1009B000002C2DD063681F2B50DC002D1CD088220A
:1009C000A0589146002834D07832825894469A0034
:1009D00091468144424649460A6001216246994057
:1009E0000A43944680228A46614652008150494615
:1009F000803A8F50022D16D000205A1C02339B00E3
:100A000062601E5102B01CBC90469946A246F0BDE1
:100A1000154C1C60154B002BCCD01B680193882310
:100A2000019AE250C6E75546843281580D438550FD
:100A3000E2E70F4B002B11D084204000FFF7E6FDCA
:100A400000280BD0802200235200835004328350B0
:100A50004B460022E05094466368B8E701204042CC
:100A6000D0E7C046B4FFFF1F28FFFF1F00000000B3
:100A70000D060000F0B5DE464E46454657462B4B68
:100A800088469B46E0B51E6883B00190002E45D095
:100A900088237568F7586C1E40D40135AD00783353
:100AA00075199A460AE0002F05D03B00A20080335A
:100AB0009B58434505D0043D013C2FD34346002BB2
:100AC000F1D173682A68013BA34222D000232B6036
:100AD000002AF0D073689946002F18D001235146A0
:100AE000A3407958194212D0822040003858A10002
:100AF0007958009018420ED1019890475B46726871
:100B00001B684A4501D1B342D5D01E00BEE79047CD
:100B1000F4E77460DCE708009047EFE703B03CBC03
:100B200090469946A246AB46F0BDC046B4FFFF1FB3
:100B30007047C0467047C04602B471464908490034
:100B4000095C49008E4402BC7047C04603B471463C
:100B5000490840004900095E49008E4403BC7047C3
:100B6000002243088B4274D303098B425FD3030AEC
:100B70008B4244D3030B8B4228D3030C8B420DD3FF
:100B8000FF22090212BA030C8B4202D3121209028D
:100B900065D0030B8B4219D300E0090AC30B8B42CB
:100BA00001D3CB03C01A5241830B8B4201D38B0379
:100BB000C01A5241430B8B4201D34B03C01A52411E
:100BC000030B8B4201D30B03C01A5241C30A8B4261
:100BD00001D3CB02C01A5241830A8B4201D38B024C
:100BE000C01A5241430A8B4201D34B02C01A5241F0
:100BF000030A8B4201D30B02C01A5241CDD2C30962
:100C00008B4201D3CB01C01A524183098B4201D3DD
:100C10008B01C01A524143098B4201D34B01C01AC8
:100C2000524103098B4201D30B01C01A5241C30840
:100C30008B4201D3CB00C01A524183088B4201D3AF
:100C40008B00C01A524143088B4201D34B00C01A9B
:100C50005241411A00D20146524110467047FFE707
:100C600001B5002000F0F0F802BDC0460029F7D021
:100C700076E7704703460B437FD4002243088B423C
:100C800074D303098B425FD3030A8B4244D3030B13
:100C90008B4228D3030C8B420DD3FF22090212BAD8
:100CA000030C8B4202D31212090265D0030B8B4254
:100CB00019D300E0090AC30B8B4201D3CB03C01A3E
:100CC0005241830B8B4201D38B03C01A5241430B19
:100CD0008B4201D34B03C01A5241030B8B4201D309
:100CE0000B03C01A5241C30A8B4201D3CB02C01A74
:100CF0005241830A8B4201D38B02C01A5241430AEC
:100D00008B4201D34B02C01A5241030A8B4201D3DA
:100D10000B02C01A5241CDD2C3098B4201D3CB0181
:100D2000C01A524183098B4201D38B01C01A524130
:100D300043098B4201D34B01C01A524103098B4234
:100D400001D30B01C01A5241C3088B4201D3CB001F
:100D5000C01A524183088B4201D38B00C01A524102
:100D600043088B4201D34B00C01A5241411A00D2B2
:100D700001465241104670475DE0CA0F00D049421B
:100D8000031000D34042534000229C4603098B428B
:100D90002DD3030A8B4212D3FC22890112BA030A13
:100DA0008B420CD3890192118B4208D38901921195
:100DB0008B4204D389013AD0921100E08909C3091A
:100DC0008B4201D3CB01C01A524183098B4201D31C
:100DD0008B01C01A524143098B4201D34B01C01A07
:100DE000524103098B4201D30B01C01A5241C3087F
:100DF0008B4201D3CB00C01A524183088B4201D3EE
:100E00008B00C01A5241D9D243088B4201D34B0008
:100E1000C01A5241411A00D20146634652415B104A
:100E2000104601D34042002B00D54942704763462B
:100E30005B1000D3404201B5002000F005F802BD70
:100E40000029F8D016E770477047C046FEE7C04655
:100E50000A4A0300116810B5002901D10849116040
:100E600010680849C3188B4206D9FFF77DFB0C2395
:100E700003600120404210BD1360FCE7B8FFFF1F74
:100E800060030020600300208378022098428041A4
:100E900040427047437A0020013B012B03D90B7875
:100EA000013001330B707047C023174A9B00136059
:100EB000164A1360164A13600023164A1360164A36
:100EC0001360164A1360164A1360164A1360164AD6
:100ED0001360164A1360164A1360164A1360164AC6
:100EE0001360164A1360164A1360164A1360164AB6
:100EF0001360164A1360164A1360164A1360164AA6
:100F00001360164A136070470090145404901454F0
:100F1000089014540C9014541090145414901454B9
:100F2000189014541C901454209014542490145469
:100F30003090145400A0145404A0145408A0145465
:100F40000CA0145410A0145414A0145418A0145439
:100F50001CA0145428A014542CA0145434A01454CD
:100F600003003038092805D91A00613A052A02D849
:100F7000573B180070471A00413A0020052AF9D85B
:100F8000373BF6E710B5002003F06EFB002803D0D6
:100F90000021080003F05CFB10BD0000024A13684A
:100FA000013313607047C04680FEFF1F10B5072154
:100FB000014803F007F810BD00C007400122024BB2
:100FC00052421A607047C046A090044037B50120D5
:100FD00002F07DF9C02300240D4A9B0013600D4AE6
:100FE0000D4D13600D4A200013600D4B2C716C7178
:100FF000AC711A68FA239B0053430A492B6003F033
:1010000081FB2900200001AA03F0E2FB37BDC046A6
:1010100018901454209014545C0000202490145410
:1010200084FEFF1F2C00002010B5002003F0ACFB55
:1010300080230A4A5B001360094A07201360094AAB
:10104000136002F0E7FB062002F0E4FB092002F047
:10105000E1FB002002F040F910BDC0461890145486
:101060001C9014542490145410B5002002F03EF942
:101070008023064A9B001360054A0020136002F09B
:10108000E1FC0020034902F0A1FC10BD0CA01454A7
:1010900010A014540800002010B5002002F0D2FC6B
:1010A0000020034B1860034B186002F024F910BDB8
:1010B0000CA0145410A01454014B1B887047C04658
:1010C00074FEFF1F0FB41FB50E4B1B78DCB2002B54
:1010D0000FD107AB039340232000009306990A4BDE
:1010E00003AA01F07FFC002807DA2000074901F07D
:1010F0008DFB1FBC08BC04B01847052001F0B9FEE9
:10110000F7E7C046C5FFFF1FC6FFFF1F3866000098
:1011100010B50400002901D0FFF7C6FE002102200F
:1011200000F0A2FF2100042000F09EFF002802D062
:101130000148FFF7C7FF10BD3E4F0000F8B50E0095
:10114000040026481500FFF7BDFF2548FFF7BAFF4A
:10115000320021002348FFF7B5FF234B23481968CD
:10116000234B244E1A68244B244F1B68FFF7AAFF19
:10117000234B244CF958244872693368FFF7A2FFC7
:1011800021786278A3792148C9B2D2B2DBB2FFF7E5
:1011900099FF1F4B217A227E1B781E48C9B2D2B21A
:1011A000DBB2FFF78FFF1C4B1C4819785A781C4B99
:1011B000C9B21B69D2B2FFF785FF1A4B1A4899785A
:1011C0001A4BC9B2FA587368FFF77CFF184B2A789C
:1011D00019681848FFF776FFF8BDC0469C4F00001D
:1011E000DC4F00000E50000078FEFF1F4250000050
:1011F00084FEFF1F00D003408CFEFF1F00700440E0
:101200003C1000000040064079500000AF50000044
:1012100000500640DE50000000E007400E51000084
:1012200000ED00E000D007404851000034100000FD
:1012300080FEFF1F8051000010B501F0F3FA002876
:10124000FBDB10BD70B5FFF7F7FF0400FFF7F4FFFD
:10125000FF26050020003040FFF782FE0400280032
:101260003040FFF77DFE24012018C0B270BD70B57C
:10127000FFF7E2FF0600FFF7DFFF0500FFF7DCFFE7
:101280000400FFF7D9FFFF22FA236421164015401E
:10129000303E14409B00303D4D4373435A39303C3F
:1012A0004C435B1910401B193038181870BD0000F2
:1012B000F0B591B01C0016AB0C91197817AB0592E4
:1012C0001A7818AB1B7805000D931CAB1B780EA881
:1012D0000E931DAB1B880F1C099321231B18DB7F6A
:1012E00008931FAB1B880F9320AB1B780A93914286
:1012F00000D9171C059BFFB2002C05D1002B05D18E
:101300005448FFF7DFFE01E0002BF9D1280000254B
:101310002E00514B1B88FFF7D5FE099B04950293C5
:10132000069500230793079B199A934200DC8FE0F0
:101330000E9B002B04D001370D9BFFB29F42F0D9CA
:10134000069B3100F2184548FFF7BCFE322001F041
:1013500090FD3200089B04994148FFF7B3FE32200C
:1013600001F087FD29003F48FFF7ACFE322001F075
:1013700080FD11B0F0BD039B2C22FB180B936B4634
:101380009B18187801210C9B9847002848D1029B94
:10139000099A0136934204D9643B9BB202932E4BC7
:1013A0001B88002C27D0E368089A9B789B1A5A4226
:1013B0005341049AD31804930A9B002B0BD0E26884
:1013C000E368E068039980785B7812787918009078
:1013D0002548FFF777FE1B9B002B02DD180001F06C
:1013E00048FD039B01330393039B1A9A9342C2DB8C
:1013F000079B013396E7059B089A9B789B1A5A42F4
:101400005341049AD31804930A9B002BE3D0059B05
:1014100016489A78039BD2B2F918FFF753FEDAE721
:10142000022810D10B991248FFF74CFE069B0F9A29
:1014300001330693029B9342CDD264339BB2029355
:10144000054B1B88C7E70338434258412D18C2E7B4
:101450000023C8E7AE51000074FEFF1F28520000B1
:101460004052000071520000DB51000000520000A9
:101470001552000070B50C00160088B00CAA157843
:1014800006A908800A4A05A805700A4D12682D6849
:101490004A6004AA16700193009023000020029570
:1014A00002F0F8FB002800D0022008B070BDC04652
:1014B00078FEFF1F7CFEFF1FF7B56A46CB1DDB08D9
:1014C000DB00D31A02AF9D460C000500FFF77EFD3E
:1014D0000021094B02AE1B682A00019300943300DF
:1014E000080003F0D1F90400FFF79EFD002C00D0A6
:1014F0000424BD462000F2BD88FEFF1FF0B5002782
:10150000BFB02BAC072239002000FFF7E7F8A14A53
:101510000125329203221BAB35931DAB36931FABD3
:10152000389323AB3A9325AB3B9327AB3C9329AB42
:1015300017A921AE38003D9332AB1A7134911A933A
:1015400025703794399601F0ADFE280001F0AAFE0F
:101550008022914B12021A6001F0AAFC3B003A0073
:1015600039003800009501F07DF98C4A2B000221EA
:101570008B4801F0C1FC2900280001F0C9FC3800AB
:1015800002F0B0FF9C21874B38002F930AAB5B1809
:101590001F8002310AAB5B182FA91F70309502F033
:1015A000CDFF2A00390017A8FFF798F858202B9B89
:1015B0000AA91F93A28809180A80A27902300AA9F1
:1015C00009180A70032206380AA909180A7021931B
:1015D000A2880C38B280A2790AA9B27105223270B1
:1015E0001B93A28809180A80A27902300AA9091857
:1015F0000A70022206380AA909180A701D93A288E7
:101600000C300AA909180A80A27902300AA909181F
:101610000A70042206380AA909180A702393A288BE
:101620001C300AA909180A80A27902300AA90918EF
:101630000A70082206380AA909180A702593A28898
:101640000C300AA909180A80A27902300AA90918DF
:101650000A70092106380AAA121811702793A38864
:101660000C300AAA12181380A37902300AAA1218A1
:1016700013700A2306380AAA121813707C220AABC8
:101680009B181F701AAA2B0035A801F08FFE464840
:10169000FFF718FD4549464802F0A2F8454C2000E6
:1016A000FFF710FDC023444A9B001360434A44489F
:1016B0001360444A1360FFF705FDFFF7F5FB2000B8
:1016C000FFF700FDE1211D20C90000F081FD3E4B28
:1016D0003E481D70FFF7F6FC3D4B3E481C781F70DE
:1016E000FFF7F0FC3A4BE4B21C703B4C01F09AF867
:1016F0000500012001F0BDFB002D19DA013C002C92
:10170000F4D1364B2100188817AA80B2FFF716FDD6
:101710009622334B5200210008201A6000F0A4FCEE
:10172000071E02D02F48FFF7CDFC2F48FFF7CAFC59
:10173000E1211D20C90000F04BFD122303220521E9
:10174000002000F075FD01002848FFF7BBFC284889
:1017500001F08FFB2748FFF7B5FC002401F044FBA4
:10176000FA26050020007600411BB1420AD922006A
:101770002148FFF7A7FC00F08FFE01F035FB0500C4
:10178000013424B201F030FB142CEDDD00260523DA
:101790000D9636E0950E00004C03002064FEFF1FFE
:1017A000ECFEFF1FE00701008652000098FEFF1FBD
:1017B00090FEFF1FC952000000901454049014546E
:1017C000A352000008901454C4FFFF1FC45200002D
:1017D000C5FFFF1FD0520000B80B000074FEFF1FB2
:1017E00078FEFF1FEF5200004C5300007E530000B4
:1017F000881300009F530000BF530000D34B0D938C
:1018000001230C930023D24AD24C1370208831005C
:1018100017AA80B2FFF792FCCF48FFF753FCCF48DE
:10182000FFF750FCCE48FFF74DFCCE48FFF74AFCCF
:10183000CD48FFF747FCCD48FFF744FCCC48FFF705
:1018400041FCCC48FFF73EFCCB48FFF73BFCCB48C4
:10185000FFF738FC31000C9AC948FFF733FCC94840
:10186000FFF730FCC848FFF72DFCC848FFF72AFCFB
:10187000C748FFF727FCC748FFF724FCC648FFF717
:1018800021FCC648FFF71EFCC548FFF71BFCC548F6
:10189000FFF718FCC448FFF715FCC448FFF712FC1B
:1018A000C348FFF70FFCC348FFF70CFCFFF7C4FC6D
:1018B000FF21050001400A2900D146E30800503805
:1018C0002A2872D8FFF742F93C0371009EFF71008D
:1018D0007100710071007100710071003A037100B4
:1018E000710071007100710071002B0073008500A0
:1018F00095009F00A800E200ED007100FE002702A5
:10190000340234026F029EFF720271007E0287026F
:101910008C02F10271007100FE0271000603A648FC
:10192000FFF7D0FBA548FFF7CDFBA548FFF7CAFBA3
:10193000A448FFF7C7FBA448FFF7C4FBA348FFF781
:10194000C1FBA348FFF7BEFBA248FFF7BBFBA248C1
:10195000FFF7B8FBA148FFF7B5FBA148FFF7B2FBC3
:10196000A048FFF7AFFBA048FFF7ACFB9F48FFF78D
:10197000A9FB9F48FFF7A6FB9E48FFF7A3FB9E48E5
:10198000FFF7A0FB9D48FFF79DFB9D48FFF79AFBE3
:101990009C48FFF797FB9C48FFF794FBFFF74CFC34
:1019A000FF210140352900D128E798480EE09848EA
:1019B000FFF788FBFFF75BFC964B974A18601968A6
:1019C000914201D1954A1A6019689548FFF77AFB50
:1019D00018E79448FFF776FBFFF749FC924B8E4AD5
:1019E00018601968914201D18C4A1A6019688F48B1
:1019F000ECE78F48FFF766FBFFF739FC8D4B18606B
:101A000019688D48E2E78D48FFF75CFBFFF71AFC89
:101A1000060001008A48D9E78A48FFF753FBFFF721
:101A200011FC894D010004002800FFF74BFB87489B
:101A3000FFF748FBFFF706FC38220AAB9B180100B2
:101A400018702800FFF73EFB8148992C37D0714B66
:101A50002DAD1B682C802E933E4B1A881B88FFF7F8
:101A600003FB7C4B19AA1B6816700293012318A96B
:101A7000009100202900019302F00CF9011E02D010
:101A80007548FFF71FFBFFF707FBBBE67348FFF73F
:101A900019FBFFF7ECFB80B220802188704889B2E7
:101AA00094E77048FFF70EFB6F4C2000FFF70AFB2E
:101AB0002000FFF707FB6D48FFF704FB6C48FFF7BA
:101AC00001FB9FE631006B48FFF7FCFAFFF7B4FB20
:101AD00010906948FFF7F6FAFFF7AEFB11906748E0
:101AE000FFF7F0FAFFF7A8FB05006548FFF7EAFAF1
:101AF000FFF7BDFB0E906348FFF7E4FAFFF7B7FB73
:101B00000F906148FFF7DEFAFFF7B1FB04005F4872
:101B1000FFF7D8FAFFF796FB0E9B159000935C48F1
:101B20000F9B32000C99FFF7CDFA0A4B1B889BB232
:101B300012930C9B981E032800D9ADE0FEF7FCFF22
:101B400002E5E7E95348FFF7BDFA9CE7BCFFFF1F3A
:101B5000C5FFFF1F74FEFF1FF65300000054000076
:101B60001D54000039540000555400007254000008
:101B700099540000B8540000E45400000F550000D0
:101B800032550000615500007D550000A155000050
:101B9000C5550000EC5500001456000032560000F8
:101BA0004F5600006E5600008D560000A7560000EC
:101BB000D2560000FD560000105700001B570000D1
:101BC000595700009B570000DC5700001C580000CC
:101BD0004C58000098580000D758000015590000D4
:101BE0005259000090590000CD5900000A5A0000D7
:101BF0004A5A0000895A0000C65A0000035B0000E0
:101C00003E5B00007B5B0000B85B0000CC5B00002B
:101C1000E85B000078FEFF1F0F2700001027000080
:101C2000165C0000365C000084FEFF1F645C000050
:101C30007E5C00008CFEFF1FAD5C0000C85C0000F5
:101C4000FE5C0000155D0000485D00005E5D000068
:101C5000875D00007CFEFF1FAD5D0000CE5D0000D3
:101C6000075E0000365E0000645E0000945E0000C7
:101C7000C55E0000F75E0000315F00005A5F0000A3
:101C8000735F0000B25F0000DE5F000016600000BE
:101C90004760000084600000109B303D303B581EC0
:101CA0008341681E8541DBB21393119B303B119336
:101CB000EBB21493A3B2FA241093A400149B002552
:101CC0000A93109BA24A0993159BA2490893129B61
:101CD000A1480793139B019506930E9B00960593CD
:101CE000119B04930F9B0393312302932B00FFF767
:101CF000DFFA200001F0BDF800F0A4FDA842DDD01D
:101D00002800964900F082FDBDE695481BE79548FE
:101D100019E7954817E79548FFF7D4F90124200003
:101D20000021FFF7F5F921003C20FFF7F1F9F6E774
:101D30008F48FFF7C7F98F48FFF7C4F9FFF782FA1A
:101D40008C230AA9C91808708B48FFF7BBF9FFF765
:101D50008EFA8C22894B0AA91B888A18EDB20400DE
:101D6000010012789BB26C2D10D18548FFF7AAF9BB
:101D70000025A54200DB45E52DAB1A7800230121A3
:101D8000FF200093FFF776FB0135F2E77D48FFF770
:101D900099F90025A54200DB34E501212DA8FFF7C4
:101DA0008BFB0135F6E7238823882BE500210220F1
:101DB00000F05AF9071E00D124E57348082F00D11E
:101DC00020E57CE60021082000F04EF96F48002F46
:101DD00000D117E573E66648FFF774F96C486EE6C4
:101DE0002DA9002001F026FAFA212D988900FEF78E
:101DF000B7FE01006748FFF765F901F06DFC0100CF
:101E00006548FFF75FF901F001F901006348FFF74A
:101E100059F9634B634819684B1E9941FFF752F912
:101E2000002001F05EFA01005F48FFF74BF9002047
:101E300001F066FA01005D48FFF744F9002001F067
:101E400064FA01005A48FFF73DF9002001F032FA28
:101E500001005848FFF736F9012001F02BFA010084
:101E60005548FFF72FF9554B554819684B1E9941B6
:101E7000FFF728F9002001F025FA01005148FFF78B
:101E800021F9514B514819684B1E9941FFF71AF936
:101E90004F4B504819684B1E9941FFF713F900202A
:101EA00001F038FA01004C4890E50D9B4B48002B9F
:101EB00000D104E64A48FFF705F9FFF7C3F90D9B87
:101EC00058709FE44748FFF7FDF8474800F0D1FFFE
:101ED0004648F4E54648FFF7F5F8FFF7C8F981B240
:101EE0004448FFF7EFF84448FFF7ECF8FFF7A4F990
:101EF000C4B2683C604244414048FFF7E3F800F058
:101F000073FF032312220521002000F091F9050040
:101F10003B48FFF7D7F83B48FFF7D4F83A48E4B21C
:101F2000FFF7D0F8200000F0E7F929003748FFF765
:101F3000C9F800F077FC7128F4D1A4E53448BEE577
:101F40003448FFF7BFF83448B9E53448B7E5C04630
:101F5000BCFFFF1F7D220000AF600000BD600000DD
:101F6000E36000000E610000396100006A6100005A
:101F7000365E00008D610000AC61000074FEFF1F42
:101F8000CC6100001762000062620000EF520000A6
:101F9000C0620000EC620000FE62000014630000FA
:101FA0003C80845E3B6300004C6300005D63000086
:101FB0006E63000082630000966300003C80045062
:101FC000AA630000BB63000034808459CC63000026
:101FD0003480045ADD630000EF63000000640000F9
:101FE0003E64000076640000102700009564000045
:101FF0009F640000EB64000021650000135D000099
:102000004A6500006C650000125D00000F6300006F
:10201000A3650000B9650000DB65000006660000EE
:102020001FB5040001A9002002F0B0FA694601A81A
:1020300002F0EAF9009B68461C1901A9009402F01D
:102040006BF9012201A9002002F0CCFA1FBD0000AB
:102050000022034B1A608022024BD205DA677047D8
:1020600000901C5804E100E070B50D000A24082817
:102070001CD8FEF761FD051D2A3F546771795C008D
:1020800001F02AFB0524012810D0FFF7E1FF28000A
:10209000FFF7C6FF0021080001F0AAF901210400A2
:1020A000002000F035FF002C22D10024200070BD5C
:1020B00001F012FB06240128F8D0FFF7C9FF280021
:1020C000FFF7AEFF00210120E6E701F005FB082441
:1020D0000128EBD000F09AFF002803D00121002056
:1020E00000F016FF0021022001F082F90028DCD068
:1020F0000924DBE701F0F0FA07240028D6D0FFF727
:10210000A7FF2800FFF78CFF0021032001F070F9E2
:10211000040001F0E1FA01210028C4D1C1E7FFF772
:1021200097FF2800FFF77CFF00210420EEE7002145
:10213000082001F05DF9041EDAD10121080000F049
:10214000E7FEB3E7FFF784FF2800FFF769FF0021F0
:10215000052001F04DF9CBE7FFF77AFF2800FFF7E4
:102160005FFF00210620F4E7FFF772FF2800FFF76A
:1021700057FF00210720ECE7F0B506000D00114BDA
:1021800089B05A7806AC22800F4A05AF12680792D0
:10219000D88880B2FEF790FF3E7004AE3570FEF72F
:1021A00063FF0A4B3A001B682100029301230020C1
:1021B0000193009601F06EFD002800D0022009B0C6
:1021C000F0BDC046BCFFFF1F78FEFF1F7CFEFF1F57
:1021D000094B10B55870D98000231A00074C0848E5
:1021E00019190A60191804330A60A02BF8D10548A0
:1021F000FEF768FF10BDC046BCFFFF1F6400002053
:10220000040100205E66000010B5084C23682368B6
:1022100000F024F92368272B01D100F0EDF82068A5
:1022200028210130FEF70CFE216010BDA401002022
:10223000F8B506001C00104B1500D8880F0080B2BE
:10224000FEF73AFF31000920FFF796FF290006004C
:102250000F20FFF791FF210005000E20FFF78CFFF4
:102260000F21040039402A20FFF786FF35432C4315
:102270002043C0B2F8BDC046BCFFFF1F70B588B098
:102280006A46184B04001B780E001375182822D8D4
:10229000C31F0320012B23D9134B06AD5A782A8084
:1022A000124A12680792D88880B2FEF705FF6B4683
:1022B0001C75FEF7D9FE0E4B29001B680020029307
:1022C0000C4B0196009305AA012301F0F0FC0028B5
:1022D00006D0022004E023001D3B0320142BDBD991
:1022E00008B070BD8D660000BCFFFF1F78FEFF1FA9
:1022F0007CFEFF1FBEFFFF1F70B5324C0500E0885B
:1023000080B2FEF7D9FE02210120FFF7B7FFA178C6
:10231000E278C9B2D2B200281DD02B48FEF7D2FE17
:1023200002210320FFF7AAFFA178E278C9B2D2B256
:10233000002822D02448FEF7C5FE02210520FFF721
:102340009DFFA178E278C9B2D2B2002827D01E48FA
:10235000FEF7B8FE70BD002D03D01C48FEF7B2FE9C
:10236000DEE79208890111438022194B9201514006
:102370001848C918FEF7A6FED2E7002D03D013486F
:10238000FEF7A0FED9E79208890111438022104B85
:10239000920151400F48C918FEF794FECDE7002D79
:1023A00003D00A48FEF78EFED4E792088901114354
:1023B0008022074B920151400648C918FEF782FE61
:1023C000C8E7C046BCFFFF1F8F660000966600008E
:1023D00000E0FFFFA666000070B5051E0BD00626C4
:1023E000440821002800FEF7BBFB013E04196408E5
:1023F000002EF6D1200070BDF0B5002589B003AFE6
:10240000142200213800FEF769F90F4E3368746812
:1024100001930E4B0E49E858019B60435843FEF769
:1024200029FC019A644352430A4BA2188218E958C6
:102430007A5109480435FEF745FE0836142DE5D1DA
:10244000380009B0F0BDC046B4010020B8670000F4
:1024500018FCFFFFCC670000AB660000F7B5FA2759
:1024600000250B4C01907F000A4AAB006668985823
:1024700039007043FEF7FEFB23680135C01A019B4B
:102480002660C01860600834052DEDD1F7BDC04648
:10249000B4010020B8670000F8B500F0A5FC384B87
:1024A000062118800120FFF7E9FE002804D03548F6
:1024B000FEF708FE2000F8BD8026334F334DBB7871
:1024C000FA789B019208B60113437340304A5B19B6
:1024D0009BB213802F4A1BB25343DC17A405A40DF3
:1024E000E418A412220021002B48FEF7EBFD3879F6
:1024F0007B7980019B0818437040284B4019254A7E
:1025000080B2188000B25043C517AD05AD0D2D182F
:10251000AD122A0029002248FEF7D4FDBB79FA79D2
:102520009B01920813435E40184B1A4AF618B6B244
:1025300030B250431B4B6D431E80C617B605B60D17
:102540003618B61232003100764364431648FEF75F
:10255000B9FD70190019FFF73FFF0100040013488F
:10256000FEF7B0FD00F040FC114B80B21880044B28
:1025700019886431091A89B22000FFF745FE99E7EE
:10258000B0010020C3660000BCFFFF1F00E0FFFF9A
:10259000A801002052260000EF660000AA010020DA
:1025A00027670000AC0100205F670000986700000B
:1025B000AE0100200369C268934201D880681B18ED
:1025C000013B981A7047F7B58368C46801931F1BD5
:1025D000436805000E001819A418974207D83A005E
:1025E000FEF728F8019B6868E41A2200F119FEF74B
:1025F00021F8EC60F7BD0023F7B506001700C568A9
:10260000019100933369B4689D421FD2013B5B1B6B
:10261000641BBC4200D93C009C4200D91C0073687A
:10262000220058190199FEF705F8009B2D191B1976
:102630000093019B3F1B1B190193B368AB4200D170
:102640000025F560002FDDD10098FEBD1B19DDE7E8
:10265000022310B50F4C104A236163610F4BA26136
:10266000E3616423A2640E4A2362E264002304222D
:10267000A3626362E362A3656365E365226509495A
:10268000E01DFEF74DF920000749FEF749F9202328
:10269000A37110BDDC010020E0670000580200209B
:1026A00054020020E9670000ED670000F0B5274BF9
:1026B00085B01B780E0002900192002B01D1FFF72C
:1026C000C7FF1823029A00255343204AD3185A6D96
:1026D0009C6D0392944219D91B6D019D1B1B9D4259
:1026E00000D91D001827029B30005F43174B2A00BA
:1026F000DF19FB6C76191919FDF79CFF019B641912
:102700005B1B01933B6DA34200D10024039B019FFF
:102710001B1B9F4200D91F00002F0CD01823029AC8
:1027200030005343094AED19D318D96C3A000919FE
:10273000FDF780FFE419002D05D01823029A034805
:102740005343C0188465280005B0F0BDDC010020AB
:1027500010B50B00EFF31084012181F310881900EC
:10276000FFF7A4FF84F3108810BD0000F8B5160031
:102770001822451C55434243164B0F005D199B1808
:10278000DC6A012C10D0022C1BD0002C1FD1280099
:10279000FFF710FF864205D8320039002800FFF706
:1027A00012FF34002000F8BD2800FFF703FF3400BB
:1027B000864200D90400220039002800FFF703FFF9
:1027C000F0E732002800FFF716FF0400EAE70024D4
:1027D000E8E7C046DC010020F8B50B4B04001B788D
:1027E0000E001700002B01D1FFF732FFEFF3108529
:1027F000012181F310883A0031002000FFF7B6FF75
:1028000085F31088F8BDC046DC01002070B50500D6
:1028100008000C00FEF78CF8210002002800FFF7EA
:10282000DBFF70BD13B56B46DC1D012221000020CB
:10283000FFF78EFF012801D1207816BD012040420C
:10284000FBE7000010B5064C2378002B01D1FFF701
:10285000FFFE636DA06DC01A431E984110BDC046B7
:10286000DC010020F7B5164C0193237805000F001A
:102870001600002B01D1FFF7EBFE2369AB421CD9F8
:10288000EFF31082012181F31088002D0CD0182362
:10289000691C59436B43675061184E600199E318F6
:1028A000196200219962596218204543089B6419F6
:1028B000E36282F310880020FEBD01204042FBE766
:1028C000DC010020826810B504004068531C83427C
:1028D00005D820688154A360E3680133E360A268EF
:1028E00063689A4209D121682069FFF775FFA368E0
:1028F000984203D001235B42E36010BD0023A36034
:10290000FBE70000F0B5050017000800012685B0C0
:102910000A9C02910093B84219D2009A01969642FD
:1029200000D2019201230B9A1A4003920B9A1A4289
:1029300002D1002C10D10024EB680126002B4BDBC8
:10294000009B012B1FD9013B00937E43F8E7390020
:10295000FEF706F90136DEE70B9B20269B0704D520
:10296000009B1036002B00D0103E019BA342E3D207
:1029700031002800FFF7A6FFEB68013C002BDBDBF2
:10298000002CF2D1D7E731000298FEF7E9F8874230
:10299000DBD902983100FEF769F9114B0291195CFD
:1029A0002800FFF78FFFEB68002B05DB39003000B4
:1029B000FEF7D6F8BE4211D2039B002B0CD0002CA0
:1029C0000AD0019BA34207D220212800FFF77AFFFB
:1029D000EB68013C002BF2DA05B0F0BD0600D8E749
:1029E000F4670000F0B58FB007900E00180014993E
:1029F00015000693FDF7B2FD069B079A0993149BF9
:102A00000D920A9300230B930C9331780136002921
:102A100007D10C9B0293002B00DD09E10C980FB04D
:102A2000F0BD252900D0B3E000270822042006E0ED
:102A3000302B0DD1022300E001231F430E00337819
:102A4000711C2D2BF8D0F3D8232B10D02B2B0CD0AE
:102A500000240A213378721C18003038092808D85D
:102A60004C43303C16001C19F4E70743E6E71743D4
:102A7000E4E7002102912E2B0ED116000A203278B5
:102A8000711C1300303B092B06D8029B0E004343F8
:102A9000303BD3180293F2E7042331780A00013661
:102AA0009A43682A01D13178F8E7782909D86F2943
:102AB0000BD8632967D017D8252969D0582900D1A8
:102AC00095E00C9B002BA0DAA3E7703908000829D9
:102AD000F7D8FEF73BF8A500F6FFF6FF9400F6FFE7
:102AE0008300F6FFF6FF8C006429EAD12B681A1DDB
:102AF0001B682A60DA179818039301235040049347
:102B0000092849DC029B049A0593934200D205925E
:102B1000002C05D0039B002B01DB7B0700D5013C7B
:102B200002231F4202D0029B002B05D001231F422B
:102B300002D1002C36D100240C9B0493002BC0DB67
:102B4000039B002B3ADA2D215B42039309A8FFF780
:102B5000B9FE0C9B002BB4DB03233B40022B05D1B9
:102B6000029B002B02D1002C2CD100240C9B04933F
:102B7000002BA6DB0A22029B03990197009409A867
:102B8000FFF7C0FE9DE72B6819681A1D2A60C9B2BD
:102B900009A8FFF797FE94E70A21FEF76BF8049B5C
:102BA0000133ACE7059BA342C6D2202109A8FFF759
:102BB00089FE0C9B013C002BBBDABDE77B07C8D527
:102BC0002B21C3E7059BA342D0D2302109A8FFF7F0
:102BD00079FE0C9B013C002BC5DAC7E70A22296865
:102BE00001970B1D2B60029B00940968C7E72968B9
:102BF00001970B1D2B60029B00941022F5E72B68B8
:102C00001A1D2A601C6821780134002900D158E778
:102C100009A8FFF757FE0C9B0293002BF3DA50E74D
:102C200029680B1D2B600023019308330093E4E710
:102C30000B9A002A03D006990798FFF7CDFD0C9B4D
:102C400002930B9B0393039A029B944663440C9359
:102C5000E4E610B5002000F0EBFD10BD10B500203B
:102C600001F01EFD10BD10B5002001F0F7F910BDF8
:102C7000082310B5164A9178194202D091780B4377
:102C80009370882100222220124B49015A50124988
:102C9000124C08708020124940025850196811489F
:102CA00001401960195910480840C02189040143A6
:102CB000195180210D4B1A7219767F391A7059708B
:102CC0000B490A700C3299791142FCD110BDC046F3
:102CD00000D007400070044000E0074004100000EE
:102CE00044100000FFFFF3FFFFFFFFF0004006402D
:102CF000005006401249134810B5814205D0002209
:102D0000114B9B089B009A420FD1104B104A9960BF
:102D1000002310491048521A9A420AD100210F4B41
:102D20000F4AD21A013A08D210BD84588C5004328E
:102D3000E9E7CC5CC4540133EEE719700133F1E7E5
:102D400000000000000000000000000000ED00E0B6
:102D5000686A00006469000000FEFF1F04FFFF1F97
:102D60005C030020030041700020187058609860D8
:102D7000704710B5437804000120FF2B08D000F005
:102D8000DDFA63780133DBB2637000F0CBFA002028
:102D900010BD0020704770B504000D0000F0CEFAA1
:102DA000E1682943E16000F0BDFA002070BD000039
:102DB00000220A4B9A641A0040329A631A00303299
:102DC0009A621A0020329A611A0010329A60044AFC
:102DD0001360044B9B60DB607047C046C00200205C
:102DE000BC020020100300200022024B1A60186869
:102DF00080B270470C007C5070B5437804000D0021
:102E0000002B0BD0002500F099FA6378013BDBB270
:102E10006370257000F086FA280070BD022000293A
:102E2000FBD02378002B17D0FFF7DEFF6368A26882
:102E3000834204D8C01A824206D30320EDE7C01AA9
:102E400080235B02C018F6E700F078FA00232370B5
:102E500000F068FA0220E0E74B1CEED000F06EFABA
:102E60000123237000F05EFAFFF7BEFFA5606060EB
:102E7000E3E770B50500FFF7B7FF80260400760290
:102E8000FFF7B2FF0300844203D8031B9D42F7D231
:102E900070BD301BC318F9E710B5012801D100F04F
:102EA0004DFA10BD10B5012801D100F03BFA10BD5C
:102EB00010B5FFF77DFF01230020084A0849136081
:102EC000084A094C1060086004212160074C216009
:102ED00007490B6007490860136010BD3880045033
:102EE000000084500000045000000451040004510C
:102EF00004000C500000045310B5044C20602171F4
:102F00000020A2602373637310BDC046200300201D
:102F10000422F0B587B005AC3B4E019002912070C1
:102F2000617033790092834226D90022337B1500E9
:102F3000737301230092A3700393334F3B7BAB4227
:102F40001DD8009B002B02D0029B012B48D10120F1
:102F5000FFF7A2FF0C20019B002558433368181887
:102F600000F0D6F8019B012073710226FFF79AFF4B
:102F7000A6703B7BAB421AD8009807B0F0BDBA6888
:102F8000AB009B58002B0FD01A7903990A420BD043
:102F900020001A6899689047002805D0029B7D732D
:102FA000002B1BD0052300930135EDB2C5E7BA68AD
:102FB000AB009B58002B0ED01A7932420BD0200068
:102FC0001A6899689047002805D0029B7D73002BF2
:102FD00017D0062300930135EDB2CAE7052300930D
:102FE0000023A370013DEDB2FF2DC5D0064BAA0012
:102FF0009B68D358002BF5D020001A689968904739
:10300000F0E706230093B7E720030020014B58792F
:103010007047C0462003002013B50400002021782B
:103020000190022920D0032922D0012925D122791B
:1030300001AB144801F0FCF8002814D1A3795A1E02
:103040009341114ADB01137063785A1E93410F4A72
:103050005B001370A2780E4B1A70E2780D4B1A7059
:1030600062790D4B1A7016BD0100227901ABE0E7C1
:1030700001A9044801F01EF9DEE701A9014801F0A9
:10308000BBF8D9E700400640184086530040865000
:10309000004006500140065018401650084A4309A7
:1030A0009B009B18F822C00512051040184380238E
:1030B0005B0518430068431E9841C0B27047C04684
:1030C00028800440074A43099B009B18F822C0054A
:1030D00012051040184380235B051843002303604A
:1030E0007047C04628800440F821084A43099B00E5
:1030F0009B180905C2050A40134380225205134359
:103100001F2210401E3A82401A60704728800440F7
:10311000072373B5009300230400104D1A0001210A
:10312000280001F0AFFA2000FFF776FF637A28004D
:1031300000930023217A1A0001F0A4FAE379084AE7
:103140009B041360074BA17A1D68280001F0CEF89C
:103150002800E17A01F0D9F8002076BD0070044023
:1031600000700C595C68000010B5054801F004F8C7
:10317000044B1968C9B20131FDF7F2FC10BDC0461D
:103180000040064044801C5E10B5FFF7EDFF10BD07
:1031900010B5054800F0F0FF044B1968C9B20131C1
:1031A000FDF7DEFC10BDC0460040064044801458C8
:1031B00010B5FFF7EDFF10BD0B4B1B68DBB2022B08
:1031C0000CD0032B0DD00020834206D1074A106893
:1031D00080221202904200D018007047044B1868F9
:1031E000FBE7FA208000F8E700700C594C03002040
:1031F0005003002010B5FFF7DFFF10BD054B10B5E1
:10320000186801F07AF80023984201D0024B1B683D
:10321000180010BD5C6800004C030020044B012026
:103220001B6810B5DBB2002B01D0FFF7E7FF10BD24
:103230000480045210B50C0012282AD8FDF77CFC3B
:103240000A0A0A0F290F12152929181B29292929C9
:103250001E222600FFF788FF2060002010BDFFF728
:1032600097FFF9E7FFF7A8FFF6E7FFF7C7FFF3E7D8
:103270000A4B2360F1E7FFF7D1FFEDE7084800F0C4
:103280007BFFE9E7064800F061FFE5E7FA239B00D2
:10329000EFE7002302202360E0E7C046006CDC0279
:1032A0000040064010B5024B185CFFF71DFF10BD33
:1032B0000468000010B5024B185CFFF7EFFE10BD6C
:1032C0000468000010B5BB20FFF7E8FE10BD10B584
:1032D0007620FFF709FF10BD10B57620FFF7F2FE4C
:1032E00010BD10B57620FFF7D9FE10BD10B56620D1
:1032F000FFF7FAFE10BD10B56620FFF7E3FE10BD24
:1033000010B56620FFF7CAFE10BD10B59420FFF778
:10331000C5FE10BD10B5024B185CFFF7BFFE10BD17
:1033200006680000044A1368002B04D0013B1360B8
:10333000002B00D162B670473003002072B6024AFB
:1033400013680133136070473003002010B5064C3A
:10335000064801F029FC042801D1002010BD013CE1
:10336000002CF5D10320F9E7EA03000000E0074054
:1033700010B50B4B0B490A78002A07D0084C0A48B5
:1033800001F012FC012806D1002003E0013B002BD4
:10339000F1D1032010BD013C002CF0D1F9E7C0466B
:1033A000EA03000002D0075100E00740F7B507002C
:1033B0000E00150001200193002F15D0002913D015
:1033C000FFF76AFD094C102200212000FDF786F965
:1033D00027602671002D03D0019BA56023736373C2
:1033E0000120FFF75FFD0020FEBDC0463403002032
:1033F000F0B5B14C8DB002900391237B0120637333
:10340000FFF74AFD2379029A934206D80120FFF77D
:1034100049FD022738000DB0F0BD029A23689200E2
:10342000D35809AC1D780193039B2A002372029B99
:103430002370019B636002239A430492012A01D006
:10344000052D0AD101219D4801F002FB002807D17A
:103450000120FFF727FD0127DCE70321072DF2D824
:103460000123002763723C000593934E337BA342F4
:103470002AD80120FFF716FD914800F0A1FE049B19
:10348000012B4AD10138022835D9039B012B00D0EA
:103490000DE106270120FFF7FFFC0023012609ADFF
:1034A0006B72013CE4B2FF2C00D1AFE0824BA20072
:1034B0009B68D358002BF4D01A793242F1D02800FF
:1034C0001A6899689047ECE7B268A3009B58002BF4
:1034D0000ED01A7905990A420AD01A68996809A883
:1034E0009047002804D0039B04277473012BC0D19C
:1034F0000134E4B2B9E7FFF75BFE724B9842C4D8DF
:10350000FFF732FE704EB042BFD8FFF741FEB04227
:10351000BBD8FFF739FEB042B7D8039B012B00D0D0
:10352000C1E00A2D00D9BCE02800FDF705FB060A22
:103530000D1E879A7B822F737800002207AB1A70CA
:103540002DE0032207ABFAE75C4801F02DFB0128D0
:1035500008D00021594801F08BFAFFF709FF071E38
:1035600000D057E7012207ABE9E7544801F01CFB04
:10357000042808D00221514801F07AFAFFF7E6FE4C
:10358000071E00D046E7042207ABD8E7072207ABA7
:103590001A80019AD2789A70019A1279DA702B0007
:1035A000083B022B06D8019B06AA5B799372019B0C
:1035B0009B79D372019B5B78002B0AD0012D08D92F
:1035C000019B02229978414B00294DD019690A4389
:1035D0001A613A4807A901F06FFA002800D00327C2
:1035E000002D45D1FFF7C4FE071E00D012E70027CB
:1035F0000120FFF751FC029B2F4D0024AB730223E7
:1036000009AE737201932B7BA34236D80120FFF7DA
:1036100049FCFFE6082207ABFF321A80BFE72C4ABD
:1036200007ABFAE7022207AB1A700222FF329A8038
:10363000B5E7022207AB1A70264AF8E7022207AB69
:103640001A70013A1D489A8001F0AEFA0128A6D0FE
:1036500000211A4801F00CFAFFF78AFE071E9ED0DF
:10366000D8E6052207AB6AE7196991431961B0E70B
:10367000012DBDD1FFF76AFEB6E7AA68A3009B58EB
:10368000002B0BD01A7901990A4207D030001A6832
:1036900099689047002801D005276C730134E4B283
:1036A000B1E70327B6E6002F00D13AE7F2E6002F94
:1036B00000D0EFE6EDE6C0463403002000E007400E
:1036C0000040064040420F0080841E0000ED00E0F4
:1036D000070300000102000010B5064801F064FA7B
:1036E00003000020012B03D00B30042B00D10A383B
:1036F00010BDC04600E00740F7B5FF2403681D4A2F
:103700001E0A26401C40B3009F581B4A05009B58C8
:1037100030000193FFF7C6FD00222100380001F0C0
:103720004BFA019BA400E41884232A795B05234308
:1037300052001A6080236A795B0523431A60902344
:10374000AA795B05234312011A600C4B1C43EB79E9
:103750001B042360EB79002B0AD0094B9B57002BED
:1037600006D01F2213401E3A9A401300054A1360E8
:10377000F7BDC046606800006868000000001818C7
:103780007068000000E100E0F8B5FF240500036860
:10379000114A180A20401C4083009F580F4A9E5827
:1037A000FFF780FD38002100012201F005FA6A6868
:1037B0002100380001F00FFA88232A7AA400A41906
:1037C0005B05234392001A6098235B051C436B7AC8
:1037D0009B012360F8BDC046606800006868000077
:1037E00070B50C00002807D1002C0FD170BD05006A
:1037F0000835FFF781FF280003680133F7D1F3E7AD
:10380000250020000C35FFF7BFFF2C002368013393
:10381000F6D1EBE7FF22030A044913409B005958F5
:103820000123104083408B607047C04660680000F1
:10383000084B8200D258942310B502325B05134323
:103840001B78002B02D000F03FFA10BD00F092FA76
:10385000FBE7C04608680000020080230C325B05CD
:1038600013431A78002AFCD00171704770B50D001F
:10387000084B8000C458200029001830FFF7BCFA1C
:103880000328F8D0002801D004232374207CC0B280
:1038900070BDC0464403002010B5104B8000C458D2
:1038A000E37C002B05D0237C052B02D0237C042B4A
:1038B0000BD10B4B18589823821C5B051343002235
:1038C0001A7001F0F7F901236374A37C002B03D075
:1038D00020001830FFF74DFA10BDC0464403002009
:1038E00008680000F0B51700002289B005930EAB00
:1038F0001B7805000393830032481E5832481C5839
:1039000007AB1A80A37C880A04930223FF336382E7
:103910008B0A0193CBB21E2801D11A000B0A5B005F
:10392000D8B2019B00211E2B05D08F4203D1012369
:1039300003995B1A59B20143CBB2029302990198E1
:1039400007AB197001211E2801D15A704918A360D4
:103950003000E1600299FFF77FFF28000F99FFF721
:1039600085FF237C002B0CD1002F0AD0059BA7607C
:10397000E36030003978FFF76FFF28000F99FFF7F9
:1039800075FF237C039A1A4314D1019B1E2B01D08F
:10399000002F0FD0002301273000A360E76001F063
:1039A00077F9029930003943FFF756FF28000F9945
:1039B000FFF75CFF0023207CE374049BC0B2A37478
:1039C00009B0F0BD0868000044030020F7B583008B
:1039D0000193184B8200D75805000C000126002FD8
:1039E00026D1154B3900D358200024220193FCF72F
:1039F00075FE200039001830FFF7B4F92800FFF7F2
:103A000075FC019801F0EFF80A4BAA00D4501F2270
:103A10000A4B5B5D134032009A40094B1A609C22AE
:103A2000019B520502331343802266743E001A70D4
:103A30003000FEBD44030020086800000C68000050
:103A400000E100E0F7B50E4E8500AB590027019369
:103A50000C4B0400EA589C2302325B0513431F7091
:103A6000FFF749FC084B01981A5D1F231A401E3BC3
:103A70009340064A1830D367FFF78BF9AF51F7BD73
:103A800044030020086800000C68000004E100E026
:103A90000A4B800070B5C5584B686A690C009342A8
:103AA0000BD0074BC658FFF773FB00230100626879
:103AB000300001F0A7F863686B6170BD440300201B
:103AC00008680000F0B587B004920593334A0FAB45
:103AD0001E7883009C580391627C0700002A03D162
:103AE0000320207407B0F0BD002E01D11E220E92DB
:103AF0002B4A3800D55800230399E360A360237450
:103B000023606374A674FFF7C3FF90231021AA1CDF
:103B10005B05134319708423E91C5B050B430221E9
:103B2000197098235B05134302934023029A2800DF
:103B3000137001F0ADF8039B380019880E9B049AAE
:103B4000019301230093059BFFF7CCFE0D9B002BF7
:103B500017D0237C002B11D10C9B2800A3600D9B58
:103B6000E3600C9B1978FFF777FE002E03D0380036
:103B70000E99FFF77BFE207CC0B2B3E7237C042BB9
:103B8000F9D100230126029A1370EB785B093342C6
:103B900002D0280001F08EF86674ECE744030020A0
:103BA00008680000F0B589B0079311AB1B78069246
:103BB000364A029383009C580591627C0600002AD5
:103BC00003D10320207409B0F0BD029A002A01D16C
:103BD0001E32109200272E4A0599D5580E9B3000B0
:103BE00023600F9BA7606360029BE760A374277448
:103BF0006774FFF74DFF9023AA1C5B051A4310233F
:103C00001370842304925B05EA1C134302221A708A
:103C10009823AA185B051A434023280013700392C7
:103C200001F036F8059B069A1988109B3000019325
:103C30000097079BFFF756FE237CDAB2BB4215D1F3
:103C4000049BA91C1A708C235B050B430F99012957
:103C500000D108221A702B79029B002B03D0300070
:103C60001099FFF703FE207CC0B2ACE7237C042B45
:103C7000F9D10126039B1F70EB785B09334202D018
:103C8000280001F017F86674EDE7C04644030020F1
:103C9000086800001FB501240394089C0294079C47
:103CA0000194069C0094FFF70DFF04B010BD1FB5F2
:103CB00001240394089C0294079C0194069C0094A0
:103CC000FFF770FF04B010BD244B70B58400E558B9
:103CD0008423EA1C5B05134302221A709023A9185F
:103CE0005B050B431B78EA78DBB292061DD5942264
:103CF00052050A431278002A17D0194AA458012BFA
:103D000014D1EA781A4204D004332374FFF7C4FDB7
:103D10000BE0E368013BE360002BF7D0A3682800C9
:103D20005A1CA2605978FFF797FD70BD6268013A8E
:103D30006260002A06D08C235B05012A0AD000228B
:103D40000B4309E0FFF7A8FD23685A1C22602A797B
:103D50001A70EAE708220B431A70F5E708680000BA
:103D600044030020C31C8420400518430223037031
:103D7000704700000122F0B5904B8100CD5889B00A
:103D8000EB1C0193EB7890261B091A400592012247
:103D9000EB7876059B091A4002923200AB1D1A435C
:103DA000944612780090D2B20792942252051A4398
:103DB0001278AF1CD0B203909820400503431878C6
:103DC000C0B206907E480C58310039430191097801
:103DD000C9B20491002A35D0079A002A0ED01023C8
:103DE000624628001370FFF7BDFF236B002B52D0F3
:103DF0006A4601211078626B98474CE0069A002AC7
:103E000020D0402228001A70FFF7ACFF23002C338B
:103E10001B78002B03D19822520517433B70236B6C
:103E2000002B04D06A4680211078626B9847E37DAE
:103E3000002B04D0200080211830FEF7ACFF0A23AD
:103E4000237028E02800FFF78DFF059B002B24D06E
:103E5000EB1C1E4310233370029B002B10D0EB7819
:103E60005B07DA0F002B48DB019B1A70236B002BDA
:103E700004D06A4604211078626B98472B790AE0D7
:103E8000082323702C342378002B04D198235B055E
:103E90001F43029B3B7009B0F0BD029B002BDED19B
:103EA000049B012B54D1EB78049A134230D0019B30
:103EB000029A1A702B7923002C331B78002B07D120
:103EC000039B002B04D198235B051F43039B3B708E
:103ED000236B002B04D06A4608211078626B984748
:103EE000A37D002B04D0200008211830FEF753FFDB
:103EF00000236360E3602375CDE71023019A1370FC
:103F0000236B002B04D06A4602211078626B98471D
:103F10006368002B50D028008022E3680C305205E3
:103F20001978024310780028FCD029710133E3602E
:103F30006368013B63606368002BACD1E360237569
:103F4000236B002BA7D06A4610211078626B53E7D1
:103F50002B79A268DBB2002A2CD022691370236966
:103F600001332361A368013BA360A368002B00D049
:103F700091E7039B002B11D123002C331B78002BDE
:103F800004D198235B051F43039B3B70E37D002B0B
:103F900004D0200020211830FEF7FDFE00236375B9
:103FA0002361236B002B00D175E76A46202110782E
:103FB000626B21E7072343E7062341E70868000017
:103FC00044030020042902D0072907D0704790231A
:103FD00003305B05184310230370F7E79C2303307D
:103FE0005B0518438023F7E7DC2270B50024094BFA
:103FF0008000C558084B5205C35808331A43146053
:10400000AA7CA24203D028001430FEF7B2FE2C7422
:1040100070BDC04648030020106800000C4B8000B3
:1040200070B5C5580B4B0024C058D42302005B0563
:10403000083213431C602200074900F05CFEEB7C51
:10404000A34203D028002030FEF793FE6C7470BDAD
:1040500048030020106800001B000200F8B52B4A3E
:1040600083009C580600227C002A02D1627C002A30
:104070003ED0274AD558DC232F005B051A000837AD
:104080003A431268002A15D02A1D13431B68002BDF
:1040900010D0A368002B0DD023681A780133EA6092
:1040A0002360A368013BA360A368002B02D130000A
:1040B000FFF79AFFD4235B051F433A68002A0DD00F
:1040C0002A1D13431B68002B08D0EB68626813702D
:1040D000E36A002B0DD021003000984728000D49DD
:1040E00000F04AFE002803D028000A4900F048FEEC
:1040F000F8BD636801336360E368013BE360E36834
:10410000002BEBD13000FFF789FFE7E748030020E1
:104110001068000013000100842252050243127847
:104120000300D0B2002A0CD08020013340050343A5
:104130001878013843425841024B40421840024B24
:10414000C0187047808D5B0080841E00020070B52F
:10415000074B083213431C78064B103213431D786B
:10416000FFF7DAFFEDB2E4B26419E04070BDC0467B
:10417000000090100000101010B50D4B821D13436D
:104180001A780400D3B2002A0FD0012B07D1FFF711
:10419000C3FF084B08341C432378D84010BD0020CF
:1041A000022BFBD1044B1868F8E70448F6E7C04639
:1041B00000000811000090104C030020006CDC028D
:1041C0000C4A811D0A4312780300D0B2012A04D0A0
:1041D00002280BD000280BD17047802201335205F2
:1041E00013431B78002BF7D10220F5E70320F3E7F8
:1041F0000520F1E70000081102009C2318325B053E
:10420000134380221A700022064B03431A70064B98
:10421000063018430378DAB2002BFBD1034B1000B1
:104220000B6070470000081300000811006CDC02EE
:10423000F8B504000D0016001F00FFF7C1FF0128AC
:1042400023D1002D25D08023621C5B0513431D70F4
:10425000842302225B0523431A702200104B08328C
:1042600013437200D2B21A7040220E4B0E48234301
:1042700006341A7004432378012BFCD1002D0DD194
:104280000A4B334100203B60F8BD0228DBD1012DF1
:10429000D9D139002000FFF7AFFFD4E7044BF0E796
:1042A00000009010000008130000081180841E0018
:1042B00000127A0010B50A4C030022680120002A7F
:1042C0000CD0084A7F301A43107007480633034366
:1042D0001A78022AFCD1002023680B6010BDC0466A
:1042E0004C03002000000813000008119C23C901A2
:1042F0005B050343C9B2197070479C235B050343F8
:104300001878431E9841C0B27047942349015B0559
:104310000343C9B21970704770B506680C003000CD
:104320002049FCF71DFC1F4905003000FCF79EFCEE
:104330000E00E12130000901FCF712FCE121E080D0
:1043400009013000FCF792FC0E003C213000FCF724
:1043500007FC3C2120813000FCF788FC6E22A17212
:104360000321114BFF322380238895420AD80F493D
:104370009B0700D10E490123CA5CAA420CD363807B
:10438000A58070BD01339BB223800B40AD1A5A4209
:104390005A416E32FF32E7E70133AD1A0D2BEBD1F4
:1043A000EEE7C04680510100B20700003C68000003
:1043B000146800000188114A03008A18002030B5F3
:1043C000812A17D85A88541E0B2C13D89C88651E36
:1043D0001E2D0FD8DD88172D0CD81D893B2D09D82F
:1043E0009B7A3B2B06D88B0705D0054B9B5CA342E1
:1043F0004041C0B230BD034BF8E7C0464EF8FFFF66
:104400003C6800001468000070B5134D8388028872
:104410005B196E25FF35554344885B1995085B1978
:104420000E4D6600755B5B19920710D00B600A6831
:104430000B4BC4885343827A00899B18E1221201F6
:1044400062439B183C2242439B180B6070BD022CB8
:10445000ECD8013BEAE7C0464A05F5FF22680000B8
:10446000805101008023084A1B0212689A4209D138
:10447000A02310305B0518430368002B02D10133E1
:10448000FF3303607047C0464C03002001008022C8
:1044900010B5002301245205103111430C600B604C
:1044A00090214360490504601C3001430B60882162
:1044B000490501430B6084214905014310430B600A
:1044C000036010BD0200902314325B0513430022E9
:1044D0001A604260103201601A60704703680B6016
:1044E00070470000104B820070B5D5588022040040
:1044F0000E4B92051A602800FFF7C8FF2800FFF74F
:10450000B1FF0B4B1F261A5D0123180009493240E9
:10451000095DC025314090408B40074A6D005051E5
:1045200053511060136070BD4C6800003C80845E85
:10453000506800005168000000E100E0F7B5002776
:10454000114B8000C55808000E000197FFF732FF9D
:104550000400B84216D001A93000FFF755FF38001B
:10456000FEF748FE010080200002814206D0FCF7E1
:10457000F7FA01000198FCF7F3FA0190280001997D
:10458000FFF7A0FF2000FEBD4C680000F7B5002536
:10459000124B8000C4580E00200001A90195FFF7BE
:1045A0009DFF2800FEF726FE0500802000028542C0
:1045B0000ED00B4B290004341C43FCF7D1FA2768BA
:1045C000019C29004443B8B2FCF7CAFA24180194AC
:1045D000310001A8FFF7A0FEF7BDC0464C680000FF
:1045E00000007810F0B50027184B800085B0C55842
:1045F00008000E0001920397FFF7DCFE0400B842AA
:1046000003D10024200005B0F0BD300003A9FFF75E
:10461000FBFE38002E68FEF7EDFD01008020000251
:10462000814206D0FCF79CFA01000398FCF798FA47
:104630000390039BB342E4D3AB6088231C355B0536
:104640001D43019B9A002A60DCE7C0464C680000CD
:10465000044B8000C25888231C325B051343890039
:10466000196070474C680000054B8000C2588823D1
:1046700014325B0513431868431E9841C0B270475B
:104680004C6800006B46E0221B78D2021B041340EA
:10469000024A09070B43801803607047441000006A
:1046A000084B8200D258902310B503325B051343A8
:1046B0001B78002B02D000F013F910BD00F078F940
:1046C000FBE7C046546800009C210C4B0C4A80005C
:1046D000C3588258002003324905114310B51871A0
:1046E0000870942149050A4310701A7F824203D052
:1046F00020331800FEF73DFB10BDC04654030020D8
:1047000054680000F7B50C0005001B4B3022002157
:1047100087002000FE58FBF7E1FF2800FEF7D7FDD9
:10472000FEF736FD2060300000F080FB2000002105
:104730002030FEF717FBF31C01939023F21C5B055E
:104740001343102230001A70032100F0ADFB30003B
:10475000002100F0CEFB094BFC50094B5A5D1F2392
:104760001A401E3B9340074A13609823019A5B0549
:10477000134340221A70F7BD546800005403002010
:104780005868000000E100E0F8B50D4E85000D4BC3
:10479000AF590400E85800F049FB38002030FEF71C
:1047A000F8FA094B20001A5D1F231A401E3B934064
:1047B000064AD367FEF790FD0023AB51F8BDC04613
:1047C00054030020546800005868000004E100E031
:1047D0000A4B800070B5C658094B0C00C358150031
:1047E00030001A68096800F028FB2860A3793000BF
:1047F0006279217900F06AFB70BDC0465468000000
:1048000054030020F7B51E4A83009C580500227906
:104810000420002A16D11B4A9E58002903D02800E4
:1048200001AAFFF7D5FF982300214020F21C5B0569
:1048300013431970187027698F4204D12800FFF7BD
:1048400043FF0020FEBD0123237194235B05A1617A
:1048500033431B780720002BF4D0A368191E02D025
:1048600019780133A360B1712369013B2361A36906
:104870000133A3619C235B051A4380231370E0E797
:104880005403002054680000F8B5134F134C850002
:104890002C59ED590127069E2777A2602661E36017
:1048A0006661FFF7AFFF002814D120000799203080
:1048B000FEF7A2FA0328F8D000280BD09C23002290
:1048C00003355B052B4322711A70942303205B058B
:1048D0001D432A70F8BDC0465468000054030020F0
:1048E00010B51E4B8200D3581979002934D01C49C9
:1048F00051585A69002A11D09C2252050A43127855
:10490000002A0BD08A79DC68D2B2002C03D0227046
:10491000DA680132DA605A69013A5A611A69002A82
:1049200012D0942252050A431278002A0CD09A68B9
:10493000141E02D0147801329A608C711A69013AFF
:104940001A619A6901329A611A69002A04D15B6975
:10495000002B01D1FFF7B8FE10BDC0465403002064
:1049600054680000104A8000815800220F4B10B597
:10497000C3580331581CC2779C2040050843DA62B3
:104980001A701A835A629A621A6302709420400560
:1049900001430A701A0038321278002A03D001212C
:1049A000181DFEF7F8F910BD5468000054030020EC
:1049B00070B5254B8200D358591CC97F002942D0BD
:1049C00022495258D96A002917DB9421490511431D
:1049D0000978002911D0D969CCB2596A002905D0CB
:1049E000DD6A002D02DD0C78013159629471D96ABB
:1049F0000139D962596B01315963D96A002905DA45
:104A00009421D41C4905214300240C70196B002902
:104A100011DD9C2149051143097800290BD09279B9
:104A2000996AD2B2002903D00A709A6A01329A6256
:104A30001A6B013A1A63DA6A002A04DC1B6B002B3A
:104A400001DCFFF78FFF70BD5403002054680000A5
:104A5000012903D0032909D00020704794235B0566
:104A600018430078431E9841C0B2F6E78423F6E766
:104A7000431C034849011843C9B201707047C0463E
:104A800000008812831C9420490140051843C9B2D4
:104A900001707047831C034889011843C9B2017033
:104AA0007047C04600000813831C8C20C9004005D5
:104AB0001843C9B201707047F7B50400364EE31CC5
:104AC0001E43337808780D00DBB2072860D8FCF766
:104AD00033F804192B0E192B2B45304B01341C4392
:104AE000002323703378012BFCD10020FEBD012B65
:104AF000FCD12A4B01341C43402323703378042B10
:104B0000FCD1F2E70021012801D0042002313378E2
:104B100098423FD12000FFF7ABFF0421204A1369E0
:104B20008B43136130BFE0E70227B84207D100276B
:104B30000B79BB4203D020004979FFF7ABFF194B3B
:104B400001341C4327703378154ADBB20193019B73
:104B500001330193042311690B43E2E70421114B54
:104B6000621C1A4311706A78A11C0B431A70002A48
:104B700006D1AB78002B03D02000E978FFF782FF45
:104B8000AB79002BDFD02000E979FFF78DFFDAE762
:104B90000120ABE70320A9E70000301000008812D5
:104BA00000ED00E000001010C31C0248184300781C
:104BB000C0B2704700003010012314308B40012A2E
:104BC00004D1802212051043036070478022D20472
:104BD000DB431043F8E701238B40002A01D04360F8
:104BE00070478360FCE70023C22203704370837028
:104BF000C37043718371C371037242728372C37253
:104C000070470000F0B5002487B00293FA23012614
:104C1000270025009B0053430390049100930194C7
:104C20007642AB000593194BAA009B18598804984B
:104C3000A140FBF795FF009B009AC31A824200D95E
:104C4000131AB3421FD2114AA900525C27000192E5
:104C5000002B02D00135322D13D10134032C01D0A9
:104C6000002B0DD1029A002A00D013603F22019937
:104C7000BB0111400B43039ADBB2537007B0F0BD88
:104C800000251E00CDE73300E4E7C046726800004F
:104C9000942302305B0503431B78002B05D0882347
:104CA0005B05184304230370704780231B051843DA
:104CB0003023F8E7942210B55205841C2243117862
:104CC0000300CAB2022001290DD18021C904214369
:104CD0008024CD300870E4000333197849090800B6
:104CE0001040114200D110BD013C002C01D0C04643
:104CF000F3E70920F7E7012310B58B400400080C07
:104D000004280AD8FBF718FF030E14171A00802096
:104D1000002A03D000050443236010BDC004DB4318
:104D20000443F9E7201D8024002A0AD02405F2E775
:104D300020000830F7E720000C30F4E720001030A6
:104D4000F1E7E404EBE70200002300B5080C0428B7
:104D500008D80133FBF7F0FE03080A0C0E001068B8
:104D6000C8400340180000BD5068F9E79068F7E7B5
:104D7000D068F5E71069F3E710B5FFF7E4FF10BD61
:104D8000294A0300881800B510284BD8FBF7D4FE39
:104D9000433C27201912094A4A4A4A2E4A4A4A4A9B
:104DA0003500D02080220433400503435203002005
:104DB0001A6000BDCC208022043340050343120357
:104DC000F5E7C8208022043340050343D202EEE712
:104DD000C42080220433400503439202E7E7C02049
:104DE00080220433400503435202E0E7FC20802286
:104DF0000433400503431206D9E7F8208022043328
:104E000040050343D205D2E7BC208022043340058D
:104E100003431202CBE7B82080220433400503434A
:104E2000D201C4E70320C4E7F2FFFEFF0423C370EE
:104E300000238370437003717047F0B5130B89B082
:104E40000126039308230124764202939B190790BD
:104E500004910592019302270025631E0693210009
:104E600005987943FBF77CFE049B834207D31B1A0A
:104E7000B34204D21E00069B0390029501930135B4
:104E80007F00092D01D0002EE9D1082C02D0013479
:104E9000002EE0D1019B029A1B0103981343079A4D
:104EA000DBB2537009B0F0BD842310B50224C21CDC
:104EB0005B0513434A0022401A70902300195B05DA
:104EC00018431023C9001940017010BD10B58C247F
:104ED00003306405C9000443C9B2217088219200DF
:104EE00049050143D2B20A70802252051043037073
:104EF00010BD8023012202305B0503430A401A7073
:104F00008C235B0518430823890019400170704702
:104F100004FEFF1F096757617270537069436F6D1C
:104F20006D6F6E53696E6B4275666665725B256464
:104F30005D203D205B3078253032585D0A00776176
:104F400072705365744C6F77506F7765724D6F64F4
:104F500065286B57617270506F7765724D6F64652D
:104F6000564C50532C2030202F2A20736C656570CE
:104F7000207365636F6E6473203A20697272656C8A
:104F80006576616E742068657265202A2F2928294C
:104F9000206661696C65642E2E2E0A000D0A0A0ACD
:104FA0000A5B202A090909095761727020284857AD
:104FB000207265766973696F6E204329202F204720
:104FC0006C61757820284857207265766973696F1F
:104FD0006E2042290909092A205D0A000D5B202064
:104FE0000909090920202020202043616D6272698F
:104FF000646765202F2050687973636F6D706C61F2
:10500000622020200909090920205D0A0A000D09F3
:10501000537570706C793D25646D562C0944656636
:1050200061756C74205461726765742052656164A7
:105030002052656769737465723D30782530327827
:105040000A000D094932433D25646B622F732C0918
:105050005350493D25646B622F732C0955415254BE
:105060003D2564622F732C094932432050756C6CC6
:105070002D55703D25640A0A000D0953494D2D3EFA
:1050800053434743363D307825303278090952542E
:10509000432D3E53523D3078253032780909525421
:1050A000432D3E5453523D3078253032780A000D5E
:1050B000094D43475F43313D307825303278090947
:1050C000094D43475F43323D307825303278090936
:1050D0004D43475F533D3078253032780A000D0943
:1050E0004D43475F53433D307825303278090909F5
:1050F0004D43475F4D433D30782530327809094FA5
:1051000053435F43523D3078253032780A000D0911
:10511000534D435F504D50524F543D3078253032FF
:1051200078090909534D435F504D4354524C3D306B
:10513000782530327809095343422D3E5343523D7E
:105140003078253032780A000D09504D435F5245C2
:105150004753433D30782530327809090953494D8A
:105160005F53434743343D307825303278095254F9
:10517000432D3E5450523D3078253032780A0A0093
:105180000D0925647320696E205254432048616ED6
:10519000646C657220746F2D646174652C092564DC
:1051A00020506D6772204572726F72730A001B5B2C
:1051B000306D1B5B343B34336D1B5B313B33376DE0
:1051C0000D53616E69747920636865636B20666155
:1051D000696C6564211B5B306D0A000D0930782510
:1051E000303278202D2D3E205B30782530327820EB
:1051F000307825303278203078253032785D0A00DA
:105200000D09307825303278202D2D3E203078253C
:105210003032780A000D09307825303278202D2D73
:105220003E202D2D2D2D0A000D0A0925642F256401
:10523000207375636365737320726174652E0A0051
:105240000D0925642F256420737563636573736589
:1052500073206D617463686564207265662E2076C4
:10526000616C7565206F66203078253032782E0AA3
:10527000000D0925642062616420636F6D6D616EAD
:1052800064732E0A0A0041626F757420746F2047A0
:1052900050494F5F4452565F496E697428292E2E3B
:1052A0002E200041626F757420746F206C6F7750F0
:1052B0006F77657250696E53746174657328292E17
:1052C0002E2E2000426F6F7420646F6E652E0A00D0
:1052D000507265737320616E79206B657920746FED
:1052E0002073686F77206D656E752E2E2E0A0077FD
:1052F0006172705365744C6F77506F7765724D6F44
:105300006465286B57617270506F7765724D6F647A
:105310006552554E2C2030202F2A20736C65657005
:10532000207365636F6E6473203A20697272656CD6
:105330006576616E742068657265202A2F29282998
:10534000206661696C65642E2E2E0A000D0A0957CD
:10535000726974696E67206469726563746C792020
:10536000746F20666C6173682E20507265737320B1
:1053700027712720746F20657869742E0A004D4DBF
:1053800041383435315120436F6E6669672045726C
:10539000726F722053746174653A2025640A000AA2
:1053A00046696E697368656420696E697469616CC9
:1053B0006973696E672073656E736F722E0A000AD7
:1053C000204C6173742054696D652064696666655C
:1053D00072656E63653A2025646D732E0A204974E8
:1053E00065726174696F6E206E756D6265723A20C8
:1053F00025642E200A000D53656C6563743A0A001B
:105400000D2D202761273A2073657420646566613D
:10541000756C742073656E736F722E0A000D2D20EB
:105420002762273A207365742049324320626175F0
:105430006420726174652E0A000D2D202763273ABF
:105440002073657420535049206261756420726135
:1054500074652E0A000D2D202764273A2073657489
:105460002055415254206261756420726174652E2A
:105470000A000D2D202765273A2073657420646586
:105480006661756C742072656769737465722061FA
:105490006464726573732E0A000D2D202766273A07
:1054A000207772697465206279746520746F207347
:1054B000656E736F722E0A000D2D202767273A2024
:1054C0007365742064656661756C742073656E73B2
:1054D0006F7220737570706C7920766F6C74616771
:1054E000652E0A000D2D202768273A20706F7765FA
:1054F00072646F776E20636F6D6D616E6420746F80
:1055000020616C6C2073656E736F72732E0A000DD0
:105510002D202769273A207365742070756C6C2DD7
:10552000757020656E61626C652076616C75652EA4
:105530000A000D2D20276A273A2072657065617474
:10554000207265616420726567203078253032787A
:10555000206F6E2073656E736F72202325642E0A90
:10556000000D2D20276B273A20736C656570207520
:105570006E74696C2072657365742E0A000D2D209F
:10558000276C273A2073656E6420726570656174BC
:1055900065642062797465206F6E204932432E0A5B
:1055A000000D2D20276D273A2073656E64207265EB
:1055B0007065617465642062797465206F6E205334
:1055C00050492E0A000D2D20276E273A20656E6166
:1055D000626C652073656E736F7220737570706C8A
:1055E0007920766F6C746167652E0A000D2D202777
:1055F0006F273A2064697361626C652073656E730E
:105600006F7220737570706C7920766F6C7461673F
:10561000652E0A000D2D202770273A2073776974B4
:10562000636820746F20564C5052206D6F64652E55
:105630000A000D2D202772273A207377697463685A
:1056400020746F2052554E206D6F64652E0A000D38
:105650002D202773273A20706F7765722075702090
:10566000616C6C2073656E736F72732E0A000D2D62
:10567000202774273A2064756D702070726F6365FF
:1056800073736F722073746174652E0A000D2D2080
:105690002775273A2073657420493243206164647A
:1056A000726573732E0A000D2D202778273A206427
:1056B000697361626C652053574420616E64207386
:1056C00070696E20666F7220313020736563732EAF
:1056D0000A000D2D20277A273A20706572706574B4
:1056E00075616C6C792064756D7020616C6C2073D1
:1056F000656E736F7220646174612E0A000D456ED1
:105700007465722073656C656374696F6E3E20000A
:105710000D0953656C6563743A0A000D092D202745
:105720003127204144584C33363209090928307852
:1057300030302D2D30783244293A20312E36562003
:105740002D2D20332E35562028636F6D70696C65C2
:1057500064206F757429200A000D092D2027322737
:1057600020424D58303535616363656C2009092846
:10577000307830302D2D30783346293A20322E348F
:1057800056202D2D20332E36562028636F6D7069DC
:105790006C6564206F757429200A000D092D20277F
:1057A000332720424D583035356779726F09090922
:1057B00028307830302D2D30783346293A20322E5B
:1057C0003456202D2D20332E36562028636F6D70D1
:1057D000696C6564206F757429200A000D092D20FD
:1057E00027342720424D583035356D616709090946
:1057F00028307834302D2D30783532293A20322E29
:105800003456202D2D20332E36562028636F6D7090
:10581000696C6564206F757429200A000D092D20BC
:10582000273527204D4D4138343531510909092894
:10583000307830302D2D30783331293A20312E39DF
:105840003556202D2D20332E36560A000D092D20D9
:105850002736272043555252454E545F53454E53E9
:10586000455F494E413231390909092830783030D5
:105870002D2D30783331293A20312E393556202DCF
:105880002D20332E36562028636F6D70696C656449
:10589000206F757429200A000D092D202737272035
:1058A0004D41473331313009090928307830302DE6
:1058B0002D30783131293A20312E393556202D2D91
:1058C00020332E36562028636F6D70696C65642016
:1058D0006F757429200A000D092D202738272048CC
:1058E00044433130303009090928307830302D2DCB
:1058F00030783146293A20332E3056202D2D203550
:105900002E30562028636F6D70696C6564206F754A
:105910007429200A000D092D2027392720534937E3
:1059200030323109090928307830302D2D30783067
:1059300046293A20312E3956202D2D20332E365629
:105940002028636F6D70696C6564206F7574292001
:105950000A000D092D20276127204C33474432309F
:105960004809090928307830462D2D3078333929F7
:105970003A20322E3256202D2D20332E3656202816
:10598000636F6D70696C6564206F757429200A00FF
:105990000D092D2027622720424D45363830090950
:1059A0000928307841412D2D30784638293A203168
:1059B0002E3656202D2D20332E36562028636F6D1F
:1059C00070696C6564206F757429200A000D092DBB
:1059D00020274D2720424E4F303535090909283000
:1059E0007830442D2D30783735293A20322E3756ED
:1059F000202D2D20332E36562028636F6D70696C54
:105A00006564206F757429200A000D092D20274D2B
:105A100027205246343330434C3333314809090987
:105A200028307830442D2D30783735293A203356B8
:105A3000202D2D20332E36562028636F6D70696C13
:105A40006564206F757429200A000D092D202764D4
:105A50002720544353333437323509090928307825
:105A600030302D2D30783144293A20322E375620CF
:105A70002D2D20332E33562028636F6D70696C6591
:105A800064206F757429200A000D092D20276527D1
:105A900020534934373035090909286E2F61293AD6
:105AA0002020202020202020322E3756202D2D206F
:105AB000352E35562028636F6D70696C6564206FD4
:105AC000757429200A000D092D20276727204343DC
:105AD0005338313109090928307830302D2D30788C
:105AE0004646293A20312E3856202D2D20332E3689
:105AF000562028636F6D70696C6564206F7574291A
:105B0000200A000D092D2027682720414D473838ED
:105B1000333409090928307830302D2D3F293A20B7
:105B2000332E3356202D2D20332E33562028636FED
:105B30006D70696C6564206F757429200A000D0909
:105B40002D20276A27204153373236320909092888
:105B5000307830302D2D30783242293A20322E37AD
:105B600056202D2D20332E36562028636F6D7069F8
:105B70006C6564206F757429200A000D092D20279B
:105B80006B272041533732363309090928307830E2
:105B9000302D2D30783242293A20322E3756202DA2
:105BA0002D20332E36562028636F6D70696C656426
:105BB000206F757429200A000D09456E74657220E6
:105BC00073656C656374696F6E3E20000D09496EE4
:105BD00076616C69642073656C656374696F6E20AF
:105BE0002725632720210A000D0A095365742049DF
:105BF00032432062617564207261746520696E2091
:105C00006B6270732028652E672E2C202730303071
:105C10003127293E20000D0A09493243206261756F
:105C20006420726174652073657420746F2025642C
:105C3000206B622F73000D0A09536574205350497D
:105C40002062617564207261746520696E206B62E8
:105C500070732028652E672E2C2027303030312796
:105C6000293E20000D0A09535049206261756420C5
:105C7000726174653A202564206B622F73000D0AEF
:105C80000953657420554152542062617564207235
:105C900061746520696E206B6270732028652E67C1
:105CA0002E2C20273030303127293E20000D0A09C4
:105CB00055415254206261756420726174653A20C6
:105CC0002564206B622F73000D0A09456E7465729E
:105CD00020322D6E7962626C65207265676973741B
:105CE000657220686578206164647265737320282A
:105CF000652E672E2C2027336527293E20000D0AAC
:105D000009456E7465726564205B307825303278A1
:105D10005D2E0A0A000D0A09456E7465722049322B
:105D20004320616464722E2028652E672E2C202764
:105D300030662729206F72202739392720666F7235
:105D400020535049203E20000D0A09456E746572AB
:105D50006564205B3078253032785D2E0A000D0AAC
:105D600009456E74657220686578206279746520D3
:105D7000746F2073656E642028652E672E2C202793
:105D8000306627293E20000D0A09535049207772BA
:105D9000697465206661696C65642E204144584CC5
:105DA0003336322044697361626C6564000D0A0900
:105DB000493243207772697465206661696C656455
:105DC0002C206572726F722025642E0A0A000D0A5B
:105DD000094F766572726964652073656E736F72C0
:105DE00020737570706C7920766F6C7461676520B4
:105DF000696E206D562028652E672E2C202731389D
:105E0000303027293E20000D0A094F7665727269ED
:105E100064652073656E736F7220737570706C7932
