:10000000000600201D050000450500004505000014
:1000100000000000000000000000000000000000E0
:100020000000000000000000000000004505000086
:10003000000000000000000045050000450500002C
:100040004505000045050000450500004505000088
:10005000450500004505000045050000AD0F000006
:10006000CB2D000045050000D52D00004505000002
:10007000DF2D000045050000450500004505000096
:100080004505000045050000450500004505000048
:10009000850F00009D0F000045050000450500008C
:1000A0004505000045050000450500004505000028
:1000B0004505000045050000BD0F00004505000096
:10040000FFFFFFFFFFFFFFFFFFFFFFFFFE3DFFFFBF
:100410000448054B10B5834203D0044B002B00D099
:10042000984710BD04FFFF1F04FFFF1F00000000DE
:1004300006480749091A8B10C90FC91810B5491089
:1004400003D0044B002B00D0984710BD04FFFF1FC2
:1004500004FFFF1F0000000010B5074C2378002B9D
:1004600009D1FFF7D5FF054B002B02D0044800E06F
:1004700000BF0123237010BD04FFFF1F0000000018
:10048000C0690000054B10B5002B03D00449054896
:1004900000E000BFFFF7CCFF10BDC0460000000029
:1004A00008FFFF1FC0690000402292029A1A92467C
:1004B0007047C046154B002B00D1114B9D46FFF7EE
:1004C000F3FF00218B460F461148124A121A00F022
:1004D00005F90C4B002B00D098470B4B002B00D09C
:1004E00098470020002104000D000B4800F02EF872
:1004F00000F06AF82000290001F000F800F03AF856
:1005000000000800000000000000000000060020BD
:1005100004FFFF1F2C020020A105000072B6064850
:100520000649074A02600A6002F05EFC02F09EFC87
:1005300062B6FFF7BFFF000080E100E080E200E06C
:10054000FFFFFFFF004800474505000010B5010010
:1005500000230022002000F01FFA10BD10B50A0091
:10056000002100F0BBF810BD014B18687047C04671
:1005700000FEFF1F084B10B50400002B02D0002125
:1005800000F078FA054B1868836A002B00D0984772
:10059000200000F05BFCC046750A0000A45000007B
:1005A00070B5074D074C641BA41005D0013CA30097
:1005B000EB589847002CF9D106F008FA70BDC046F8
:1005C000E4690000E869000070B50C4D0C4E761B24
:1005D000B61005D0002408CD01349847A642FAD1C0
:1005E00006F0EEF9074D084E761BB61005D0002434
:1005F00008CD01349847A642FAD170BDE0690000E9
:10060000E0690000E0690000E469000010B5034BF8
:100610000100186800F00CF910BDC04600FEFF1F75
:1006200010B5034B0100186800F0ACF810BDC046CF
:1006300000FEFF1FF0B5C64600B50F2A43D90B00D8
:10064000032603431E400C000300002E40D115007A
:10065000103D2D09AC462D01A846804400E03B002A
:10066000676825685F60E7681D60DF601F00A56838
:1006700010379D6010344345F1D165460F230C249B
:1006800001352D01491913404519144223D08C59C5
:10069000AC5104369C1B032CF9D80324043B9B0863
:1006A00001339B002240ED18C918561E002A07D0BE
:1006B000002300E02300CA5C5C1CEA549E42F9D18E
:1006C00004BC9046F0BD0500561E002AF0D1F7E7A5
:1006D000561E0500ECE71A00F6E7C046F0B5050027
:1006E00083074AD0541E002A44D0CEB2030003220E
:1006F00002E00135013C3DD301332E701342F8D1A5
:10070000032C2FD9FF220A40150215432A04154352
:100710000F2C35D92700103F3F093E01B4461E007B
:100720001A0010366644156055609560D560103229
:10073000B242F8D10F260C2201373F012640DB19C7
:100740003700224217D03E1FB608B400A4461A0054
:100750001C1D644420C2A242FCD103240136B60011
:100760009B193C40002C05D0C9B21C1919700133EB
:100770009C42FBD1F0BD3400F4E714000300BFE756
:100780002700E0E770B50500002915D00C1F23688D
:10079000002B27DB280000F0CBF9244B1A68002A35
:1007A00005D0A2420CD921686018824224D0626030
:1007B00028001C6000F0BEF970BDA34203D81A00E7
:1007C0005368002BF9D111685018A0421BD027D8CC
:1007D00021686018834207D063605460280000F0ED
:1007E000A9F9E9E7E418D5E718685B68844661442D
:1007F000216063605460F1E7106852688446614488
:1008000021606260D4E720680918501811608342A3
:10081000E4D118685B688446614411605360DDE789
:100820000C2328002B6000F085F9C5E720FFFF1F8F
:10083000F8B50323CD1C9D43083506000C2D2AD2A4
:100840000C25A94229D8300000F072F92A4F3A68E5
:10085000002A0AD013685B1B04D441E023685B1BA9
:100860001FD522005468002CF8D17B68002B3DD0A6
:100870002900300000F042F8431C2AD00323C41C96
:100880009C43A04205D0211A300000F037F8431CE9
:100890001FD0256010E0002DD3DA0C230020336038
:1008A000F8BD0B2B05D86368A2421DD0536003E04E
:1008B00014002360E4182560300000F03BF92000AC
:1008C00007220B30231D9043C21AE9D01B1AA350F4
:1008D000E6E70C233000336000F02CF90020DFE75E
:1008E0000B2BE5D8140053683B60E5E7002130008E
:1008F00000F004F87860BBE720FFFF1F002370B50D
:10090000064C05000800236000F0A2FA431C00D04A
:1009100070BD2368002BFBD02B60F9E72802002074
:1009200003000A7801311A700133002AF9D17047A7
:1009300010B5830727D00378002B26D003000321AE
:1009400002E01A78002A1CD001330B42F9D1196851
:100950000F4A104C8A188A4322420FD10433196877
:100960000B4A8A188A43224208D104331968084A7C
:100970008A188A432242F1D000E001331A78002A13
:10098000FBD1181A10BD0300E1E70020FAE7C046CA
:10099000FFFEFEFE80808080F0B546464F46D6467C
:1009A000C0B51F002F4B82B01C6805000E0090469A
:1009B000002C2DD063681F2B50DC002D1CD088220A
:1009C000A0589146002834D07832825894469A0034
:1009D00091468144424649460A6001216246994057
:1009E0000A43944680228A46614652008150494615
:1009F000803A8F50022D16D000205A1C02339B00E3
:100A000062601E5102B01CBC90469946A246F0BDE1
:100A1000154C1C60154B002BCCD01B680193882310
:100A2000019AE250C6E75546843281580D438550FD
:100A3000E2E70F4B002B11D084204000FFF7E6FDCA
:100A400000280BD0802200235200835004328350B0
:100A50004B460022E05094466368B8E701204042CC
:100A6000D0E7C046B4FFFF1F28FFFF1F00000000B3
:100A70000D060000F0B5DE464E46454657462B4B68
:100A800088469B46E0B51E6883B00190002E45D095
:100A900088237568F7586C1E40D40135AD00783353
:100AA00075199A460AE0002F05D03B00A20080335A
:100AB0009B58434505D0043D013C2FD34346002BB2
:100AC000F1D173682A68013BA34222D000232B6036
:100AD000002AF0D073689946002F18D001235146A0
:100AE000A3407958194212D0822040003858A10002
:100AF0007958009018420ED1019890475B46726871
:100B00001B684A4501D1B342D5D01E00BEE79047CD
:100B1000F4E77460DCE708009047EFE703B03CBC03
:100B200090469946A246AB46F0BDC046B4FFFF1FB3
:100B30007047C0467047C04602B471464908490034
:100B4000095C49008E4402BC7047C04603B471463C
:100B5000490840004900095E49008E4403BC7047C3
:100B6000002243088B4274D303098B425FD3030AEC
:100B70008B4244D3030B8B4228D3030C8B420DD3FF
:100B8000FF22090212BA030C8B4202D3121209028D
:100B900065D0030B8B4219D300E0090AC30B8B42CB
:100BA00001D3CB03C01A5241830B8B4201D38B0379
:100BB000C01A5241430B8B4201D34B03C01A52411E
:100BC000030B8B4201D30B03C01A5241C30A8B4261
:100BD00001D3CB02C01A5241830A8B4201D38B024C
:100BE000C01A5241430A8B4201D34B02C01A5241F0
:100BF000030A8B4201D30B02C01A5241CDD2C30962
:100C00008B4201D3CB01C01A524183098B4201D3DD
:100C10008B01C01A524143098B4201D34B01C01AC8
:100C2000524103098B4201D30B01C01A5241C30840
:100C30008B4201D3CB00C01A524183088B4201D3AF
:100C40008B00C01A524143088B4201D34B00C01A9B
:100C50005241411A00D20146524110467047FFE707
:100C600001B5002000F0F0F802BDC0460029F7D021
:100C700076E7704703460B437FD4002243088B423C
:100C800074D303098B425FD3030A8B4244D3030B13
:100C90008B4228D3030C8B420DD3FF22090212BAD8
:100CA000030C8B4202D31212090265D0030B8B4254
:100CB00019D300E0090AC30B8B4201D3CB03C01A3E
:100CC0005241830B8B4201D38B03C01A5241430B19
:100CD0008B4201D34B03C01A5241030B8B4201D309
:100CE0000B03C01A5241C30A8B4201D3CB02C01A74
:100CF0005241830A8B4201D38B02C01A5241430AEC
:100D00008B4201D34B02C01A5241030A8B4201D3DA
:100D10000B02C01A5241CDD2C3098B4201D3CB0181
:100D2000C01A524183098B4201D38B01C01A524130
:100D300043098B4201D34B01C01A524103098B4234
:100D400001D30B01C01A5241C3088B4201D3CB001F
:100D5000C01A524183088B4201D38B00C01A524102
:100D600043088B4201D34B00C01A5241411A00D2B2
:100D700001465241104670475DE0CA0F00D049421B
:100D8000031000D34042534000229C4603098B428B
:100D90002DD3030A8B4212D3FC22890112BA030A13
:100DA0008B420CD3890192118B4208D38901921195
:100DB0008B4204D389013AD0921100E08909C3091A
:100DC0008B4201D3CB01C01A524183098B4201D31C
:100DD0008B01C01A524143098B4201D34B01C01A07
:100DE000524103098B4201D30B01C01A5241C3087F
:100DF0008B4201D3CB00C01A524183088B4201D3EE
:100E00008B00C01A5241D9D243088B4201D34B0008
:100E1000C01A5241411A00D20146634652415B104A
:100E2000104601D34042002B00D54942704763462B
:100E30005B1000D3404201B5002000F005F802BD70
:100E40000029F8D016E770477047C046FEE7C04655
:100E50000A4A0300116810B5002901D10849116040
:100E600010680849C3188B4206D9FFF77DFB0C2395
:100E700003600120404210BD1360FCE7B8FFFF1F74
:100E80003002002030020020837802209842804106
:100E900040427047437A0020013B012B03D90B7875
:100EA000013001330B707047C023174A9B00136059
:100EB000164A1360164A13600023164A1360164A36
:100EC0001360164A1360164A1360164A1360164AD6
:100ED0001360164A1360164A1360164A1360164AC6
:100EE0001360164A1360164A1360164A1360164AB6
:100EF0001360164A1360164A1360164A1360164AA6
:100F00001360164A136070470090145404901454F0
:100F1000089014540C9014541090145414901454B9
:100F2000189014541C901454209014542490145469
:100F30003090145400A0145404A0145408A0145465
:100F40000CA0145410A0145414A0145418A0145439
:100F50001CA0145428A014542CA0145434A01454CD
:100F600003003038092805D91A00613A052A02D849
:100F7000573B180070471A00413A0020052AF9D85B
:100F8000373BF6E710B5002003F038FC002803D00B
:100F90000021080003F026FC10BD0000024A13687F
:100FA000013313607047C04680FEFF1F10B5072154
:100FB000014803F0D1F810BD00C007400122024BE8
:100FC00052421A607047C046A090044037B50120D5
:100FD00002F039FAC02300240D4A9B0013600D4A29
:100FE0000D4D13600D4A200013600D4B2C716C7178
:100FF000AC711A68FA239B0053430A492B6003F033
:101000004BFC2900200001AA03F0ACFC37BDC04610
:101010001890145420901454640000202490145408
:1010200084FEFF1F3400002010B5002003F076FC82
:1010300080230A4A5B001360094A07201360094AAB
:10104000136002F0B1FC062002F0AEFC092002F0B1
:10105000ABFC002002F0FCF910BDC04618901454FF
:101060001C9014542490145410B5002002F0FAF986
:101070008023064A9B001360054A0020136002F09B
:10108000ABFD0020034902F06BFD10BD0CA0145411
:1010900010A014541000002010B5002002F09CFD98
:1010A0000020034B1860034B186002F0E0F910BDFC
:1010B0000CA0145410A01454014B1B887047C04658
:1010C00074FEFF1F0FB41FB50E4B1B78DCB2002B54
:1010D0000FD107AB039340232000009306990A4BDE
:1010E00003AA01F03BFD002807DA2000074901F0C0
:1010F00059FC1FBC08BC04B01847052001F075FF5F
:10110000F7E7C046CDFFFF1FCEFFFF1F426700007D
:1011100010B50400002901D0FFF7C6FE002102200F
:1011200000F080FF2100042000F07CFF002802D0A6
:101130000148FFF7C7FF10BDD2500000F8B50E0000
:10114000040026481500FFF7BDFF2548FFF7BAFF4A
:10115000320021002348FFF7B5FF234B23481968CD
:10116000234B244E1A68244B244F1B68FFF7AAFF19
:10117000234B244CF958244872693368FFF7A2FFC7
:1011800021786278A3792148C9B2D2B2DBB2FFF7E5
:1011900099FF1F4B217A227E1B781E48C9B2D2B21A
:1011A000DBB2FFF78FFF1C4B1C4819785A781C4B99
:1011B000C9B21B69D2B2FFF785FF1A4B1A4899785A
:1011C0001A4BC9B2FA587368FFF77CFF184B2A789C
:1011D00019681848FFF776FFF8BDC0463051000087
:1011E00070510000A251000078FEFF1FD651000090
:1011F00084FEFF1F00D003408CFEFF1F00700440E0
:101200003C100000004006400D5200004352000018
:10121000005006407252000000E00740A252000059
:1012200000ED00E000D00740DC5200003410000068
:1012300080FEFF1F1453000010B501F0BFFB002813
:10124000FBDB10BD70B5FFF7F7FF0400FFF7F4FFFD
:10125000FF26050020003040FFF782FE0400280032
:101260003040FFF77DFE24012018C0B270BD70B57C
:10127000FFF7E2FF0600FFF7DFFF0500FFF7DCFFE7
:101280000400FFF7D9FFFF22FA236421164015401E
:10129000303E14409B00303D4D4373435A39303C3F
:1012A0004C435B1910401B193038181870BD0000F2
:1012B000F0B591B01C0016AB0C91197817AB0592E4
:1012C0001A7818AB1B7805000D931CAB1B780EA881
:1012D0000E931DAB1B880F1C099321231B18DB7F6A
:1012E00008931FAB1B880F9320AB1B780A93914286
:1012F00000D9171C059BFFB2002C05D1002B05D18E
:101300005448FFF7DFFE01E0002BF9D1280000254B
:101310002E00514B1B88FFF7D5FE099B04950293C5
:10132000069500230793079B199A934200DC8FE0F0
:101330000E9B002B04D001370D9BFFB29F42F0D9CA
:10134000069B3100F2184548FFF7BCFE322001F041
:101350004CFE3200089B04994148FFF7B3FE32204F
:1013600001F043FE29003F48FFF7ACFE322001F0B8
:101370003CFE11B0F0BD039B2C22FB180B936B4677
:101380009B18187801210C9B9847002848D1029B94
:10139000099A0136934204D9643B9BB202932E4BC7
:1013A0001B88002C27D0E368089A9B789B1A5A4226
:1013B0005341049AD31804930A9B002B0BD0E26884
:1013C000E368E068039980785B7812787918009078
:1013D0002548FFF777FE1B9B002B02DD180001F06C
:1013E00004FE039B01330393039B1A9A9342C2DBCF
:1013F000079B013396E7059B089A9B789B1A5A42F4
:101400005341049AD31804930A9B002BE3D0059B05
:1014100016489A78039BD2B2F918FFF753FEDAE721
:10142000022810D10B991248FFF74CFE069B0F9A29
:1014300001330693029B9342CDD264339BB2029355
:10144000054B1B88C7E70338434258412D18C2E7B4
:101450000023C8E74253000074FEFF1FBC53000086
:10146000D4530000055400006F5300009453000053
:10147000A953000070B50C00160088B00CAA1578AE
:1014800006A908800A4A05A805700A4D12682D6849
:101490004A6004AA16700193009023000020029570
:1014A00002F0C2FC002800D0022008B070BDC04687
:1014B00078FEFF1F7CFEFF1FF7B56A46CB1DDB08D9
:1014C000DB00D31A02AF9D460C000500FFF77EFD3E
:1014D0000021094B02AE1B682A00019300943300DF
:1014E000080003F09BFA0400FFF79EFD002C00D0DB
:1014F0000424BD462000F2BD88FEFF1FF0B5002782
:10150000BDB029AC072239002000FFF7E7F8DA4A1E
:1015100001253092032219AB33931BAB34931DABDF
:10152000369321AB389323AB399325AB3A9327AB52
:1015300015A91FAE38003B9330AB1A713291189346
:1015400025703594379601F069FF280001F066FF99
:101550008022CA4B12021A6001F066FD3B003A007D
:1015600039003800009501F039FAC54A2B000221F4
:10157000C44801F07DFD2900280001F085FD3800F8
:1015800003F07AF89C21C04B38002D9308AB5B1810
:101590001F80023108AB5B182DA91F702E9503F038
:1015A00097F82A00390015A8FFF798F85820299BCA
:1015B00008A91D93A28809180A80A279023008A9F7
:1015C00009180A700322063808A909180A701F931F
:1015D000A2880C38B280A27908A9B27105223270B3
:1015E0001993A28809180A80A279023008A909185B
:1015F0000A700222063808A909180A701B93A288EB
:101600000C3008A909180A80A279023008A9091823
:101610000A700422063808A909180A702193A288C2
:101620001C3008A909180A80A279023008A90918F3
:101630000A700822063808A909180A702393A2889C
:101640000C3008A909180A80A279023008A90918E3
:101650000A700921063808AA121811702593A38868
:101660000C3008AA12181380A379023008AA1218A5
:1016700013700A23063808AA121813707C2208ABCC
:101680009B181F7018AA2B0033A801F04BFF7F484E
:10169000FFF718FD7E497F4802F05EF97E4C20007E
:1016A000FFF710FDC0237D4A9B0013607C4A7D48F4
:1016B00013607D4A1360FFF705FDFFF7F5FB20007F
:1016C000FFF700FDE1211D20C90000F05FFDFA21B8
:1016D0004020090100F070FF744B75481D70FFF742
:1016E000F1FC744B74481C781F70FFF7EBFC714BD6
:1016F000E4B21C70714C01F061F90500012001F0A9
:1017000074FC002D19DA013C002CF4D16C4B210043
:10171000188815AA80B2FFF711FD9622694B520076
:10172000210008201A6000F07DFC071E02D06648E8
:10173000FFF7C8FC6548FFF7C5FC65480026FFF7C2
:10174000C1FC00F013FE05230E960D930023594AA9
:101750005B4C13702088310015AA80B2FFF7EEFCB5
:101760005C48FFF7AFFC5C48FFF7ACFC5B48FFF759
:10177000A9FC5B48FFF7A6FC5A48FFF7A3FC5A48B0
:10178000FFF7A0FC5948FFF79DFC5948FFF79AFC6A
:101790005848FFF797FC5848FFF794FC31000D9A22
:1017A0005648FFF78FFC5648FFF78CFC5548FFF76B
:1017B00089FC5548FFF786FC5448FFF783FC5448E2
:1017C000FFF780FC5348FFF77DFC5348FFF77AFC96
:1017D0005248FFF777FC5248FFF774FC5148FFF777
:1017E00071FC5148FFF76EFC5048FFF76BFC504806
:1017F000FFF768FCFFF720FDFF21050001400A29E3
:1018000000D1A2E3080050382A2800D9DFE0FFF712
:101810009DF99703DE009DFFDE00DE00DE00DE00A6
:10182000DE00DE00DE009503DE00DE00DE00DE000E
:10183000DE00DE009500E000F20002010C0115015F
:101840004F015A01DE006B01E901F601F601310298
:101850009DFF3402DE0040024902E1024603DE0041
:10186000DE005303DE005B03324B0E9301236CE773
:10187000314B0E93022368E7950E00001C020020F6
:1018800064FEFF1FECFEFF1FE00701001A5400007A
:1018900098FEFF1F90FEFF1F5D540000009014543F
:1018A000049014543754000008901454CCFFFF1FC8
:1018B00058540000CDFFFF1F64540000B80B000017
:1018C00074FEFF1F78FEFF1F83540000E0540000E9
:1018D0001255000056550000605500007D5500006F
:1018E00099550000B5550000D2550000F95500008B
:1018F00018560000445600006F5600009256000033
:10190000C1560000DD5600000157000025570000B9
:101910004C5700007457000092570000AF5700006A
:10192000CE570000ED570000075800003258000065
:101930005D580000BCFFFF1FC4FFFF1FDC48FFF71E
:10194000C1FBDC48FFF7BEFBDB48FFF7BBFBDB4816
:10195000FFF7B8FBDA48FFF7B5FBDA48FFF7B2FB51
:10196000D948FFF7AFFBD948FFF7ACFBD848FFF7E2
:10197000A9FBD848FFF7A6FBD748FFF7A3FBD7483A
:10198000FFF7A0FBD648FFF79DFBD648FFF79AFB71
:10199000D548FFF797FBD548FFF794FBD448FFF7EE
:1019A00091FBD448FFF78EFBD348FFF78BFBD3485E
:1019B000FFF788FBD248FFF785FBFFF73DFCFF21CF
:1019C0000140352900D14FE7362900D150E7CD48F5
:1019D0000EE0CD48FFF776FBFFF749FCCB4BCC4A36
:1019E00018601968914201D1CA4A1A601968CA4838
:1019F000FFF768FBAAE6C948FFF764FBFFF737FC6F
:101A0000C74BC34A18601968914201D1C14A1A6094
:101A10001968C448ECE7C448FFF754FBFFF727FCFC
:101A2000C24B18601968C248E2E7C248FFF74AFB98
:101A3000FFF708FC06000100BF48D9E7BF48FFF7E1
:101A400041FBFFF7FFFBBE4D010004002800FFF73C
:101A500039FBBC48FFF736FBFFF7F4FB382208AB35
:101A60009B18010018702800FFF72CFBB648992C32
:101A700037D0A64B2BAD1B682C802C93B34B1A8808
:101A80001B88FFF7F1FAB24B17AA1B681670029376
:101A9000012316A9009100202900019302F0C4F946
:101AA000011E02D0AB48FFF70DFBFFF7F5FA4DE63C
:101AB000A948FFF707FBFFF7DAFB80B220802188F7
:101AC000A64889B294E7A648FFF7FCFAA54C200087
:101AD000FFF7F8FA2000FFF7F5FAA348FFF7F2FA4C
:101AE000A248FFF7EFFA31E63100A148FFF7EAFA22
:101AF000FFF7A2FB3038431E9841C3B29D481093B4
:101B0000FFF7E0FAFFF798FB303811909A48FFF79B
:101B1000D9FAFFF791FB3038431E9841C3B297487A
:101B20001293FFF7CFFAFFF7A2FB0F909448FFF74D
:101B3000C9FAFFF79CFB05009248FFF7C3FAFFF7CD
:101B400096FB04009048FFF7BDFAFFF77BFB0F9B65
:101B50003200139000938D482B000D99FFF7B2FAD5
:101B60007A4B0D9A1B88901E9BB2A4B203281BD8F7
:101B7000FEF7E2FF023034360793109B129A069369
:101B80000F9B0A920593119B139A0493312302939E
:101B9000002308927E497F4A7F4809940395019368
:101BA0000096FFF785FB80E70793109B129A069338
:101BB0000F9B0A920593119B139A0493312302936E
:101BC000002308927549764A764809940395019353
:101BD0000096E6E77448FFF775FA66E77348FAE798
:101BE0007348F8E77348FFF76DFA012420000021DD
:101BF000FFF78EFA21003C20FFF78AFAF6E75848F3
:101C0000FFF760FA6C48FFF75DFAFFF71BFB8C23C8
:101C100008A9C91808706948FFF754FAFFF727FBAD
:101C20008C224A4B08A91B888A18EDB204000100D7
:101C300012789BB26C2D10D16148FFF743FA002552
:101C4000A54200DB82E52BAB1A7800230121FF209F
:101C50000093FFF70FFC0135F2E75A48FFF732FA1D
:101C60000025A54200DB71E501212BA8FFF724FC2C
:101C70000135F6E72388238868E50021022000F07B
:101C8000D1F9071E00D161E54F48082F00D15DE56D
:101C900027E70021082000F0C5F94C48002F00D1AB
:101CA00054E51EE72E48FFF70DFA494819E7C046EC
:101CB000705800007B580000B9580000FB58000025
:101CC0003C5900007C590000AC590000E759000065
:101CD000265A0000645A0000A15A0000DF5A000092
:101CE0001C5B0000595B0000995B0000D85B0000A2
:101CF000155C0000525C00008D5C0000CA5C0000B6
:101D0000075D00001B5D0000375D000078FEFF1FCF
:101D10000F27000010270000655D0000855D0000B2
:101D200084FEFF1FB35D0000CD5D00008CFEFF1F31
:101D3000FC5D0000175E00004D5E0000645E000068
:101D4000975E0000AD5E0000D65E000074FEFF1FCF
:101D50007CFEFF1FFC5E00001D5F0000565F000060
:101D6000855F0000B35F0000E35F000014600000C7
:101D70004660000080600000A9600000C2600000B2
:101D8000016100002D6100006561000096610000A6
:101D9000F1250000C4FFFF1FD3610000C521000032
:101DA000BCFFFF1FDF610000ED6100001862000052
:101DB000436200007462000097620000B662000097
:101DC000D6620000216300006C63000083540000B1
:101DD000CA6300002BA9002001F0E8FAFA212B9831
:101DE0008900FEF7BDFE01005948FFF76BF901F0CD
:101DF0002FFD01005748FFF765F901F0C3F9010015
:101E00005548FFF75FF9554B554819684B1E9941E6
:101E1000FFF758F9002001F020FB01005148FFF7BF
:101E200051F9002001F028FB01004F48FFF74AF963
:101E3000002001F026FB01004C48FFF743F9002089
:101E400001F0F4FA01004A48FFF73CF9012001F0E3
:101E5000EDFA01004748FFF735F9474B4748196845
:101E60004B1E9941FFF72EF9002001F0E7FA01001F
:101E70004348FFF727F9434B434819684B1E9941E4
:101E8000FFF720F9414B424819684B1E9941FFF773
:101E900019F9002001F0FAFA01003E48A8E50E9B6E
:101EA0003D48002B00D11CE63C48FFF70BF9FFF73B
:101EB000C9F90E9B587049E43948FFF703F93948CE
:101EC00001F093F838480CE63848FFF7FBF8FFF7C5
:101ED000CEF981B23648FFF7F5F83648FFF7F2F849
:101EE000FFF7AAF9C4B2683C604244413248FFF7A8
:101EF000E9F801F035F80121002000F04DF9012149
:101F00000500002000F05EFB2D182C48FFF7DAF8E2
:101F10002B48FFF7D7F82B48E4B2FFF7D3F820009F
:101F200000F08EF9200000F0A1FB29002648FFF701
:101F3000C9F800F043FD7128F1D1B6E52348D0E59A
:101F40002348FFF7BFF82348CBE52348C9E5C0463F
:101F5000F6630000086400001E6400003C80845E9C
:101F60004564000056640000676400007864000067
:101F70008C640000A06400003C800450B464000045
:101F8000C564000034808459D66400003480045A4B
:101F9000E7640000F96400000A650000486500007D
:101FA00080650000102700009F650000A965000003
:101FB000F56500002B660000625E000054660000BC
:101FC00076660000615E000019640000AD660000E6
:101FD000C3660000E5660000106700001FB504003E
:101FE00001A9002002F09CFB694601A802F0D6FA84
:101FF000009B68461C1901A9009402F057FA0122BF
:1020000001A9002002F0B8FB1FBD00000022034B15
:102010001A608022024BD205DA67704700901C5884
:1020200004E100E070B50D000A2408281CD8FEF772
:1020300083FD051D2A3F546771795C0001F008FC9F
:102040000524012810D0FFF7E1FF2800FFF7C6FFA5
:102050000021080001F088FA01210400002001F0AD
:1020600013F8002C22D10024200070BD01F0F0FBF9
:1020700006240128F8D0FFF7C9FF2800FFF7AEFFBC
:1020800000210120E6E701F0E3FB08240128EBD062
:1020900001F078F8002803D00121002000F0F4FFBF
:1020A0000021022001F060FA0028DCD00924DBE7DF
:1020B00001F0CEFB07240028D6D0FFF7A7FF2800A9
:1020C000FFF78CFF0021032001F04EFA040001F01D
:1020D000BFFB01210028C4D1C1E7FFF797FF28000B
:1020E000FFF77CFF00210420EEE70021082001F02B
:1020F0003BFA041EDAD10121080000F0C5FFB3E766
:10210000FFF784FF2800FFF769FF0021052001F099
:102110002BFACBE7FFF77AFF2800FFF75FFF0021DC
:102120000620F4E7FFF772FF2800FFF757FF0021B2
:102130000720ECE7F0B506000D00114B89B05A7886
:1021400006AC22800F4A05AF12680792D88880B289
:10215000FEF7B2FF3E7004AE3570FEF785FF0A4B06
:102160003A001B682100029301230020019300968E
:1021700001F05AFE002800D0022009B0F0BDC04690
:10218000BCFFFF1F78FEFF1F7CFEFF1F014B587036
:10219000D9807047BCFFFF1F70B50400084B0D00CD
:1021A000D88880B2FEF788FF21000920FFF7C2FF20
:1021B000290004002A20FFF7BDFF2043C0B270BDF4
:1021C000BCFFFF1F70B588B06A46184B04001B782F
:1021D0000E001375182822D8C31F0320012B23D902
:1021E000134B06AD5A782A80124A12680792D88893
:1021F00080B2FEF761FF6B461C75FEF735FF0E4B94
:1022000029001B68002002930C4B0196009305AA3D
:10221000012301F016FE002806D0022004E023006E
:102220001D3B0320142BDBD908B070BD686700008C
:10223000BCFFFF1F78FEFF1F7CFEFF1FBEFFFF1FBE
:1022400070B5324C0500E08880B2FEF735FF022100
:102250000120FFF7B7FFA178E278C9B2D2B2002817
:102260001DD02B48FEF72EFF02210320FFF7AAFF07
:10227000A178E278C9B2D2B2002822D02448FEF771
:1022800021FF02210520FFF79DFFA178E278C9B266
:10229000D2B2002827D01E48FEF714FF70BD002DD3
:1022A00003D01C48FEF70EFFDEE7920889011143B8
:1022B0008022194B920151401848C918FEF702FFBD
:1022C000D2E7002D03D01348FEF7FCFED9E79208B1
:1022D000890111438022104B920151400F48C918C7
:1022E000FEF7F0FECDE7002D03D00A48FEF7EAFE28
:1022F000D4E79208890111438022074B9201514093
:102300000648C918FEF7DEFEC8E7C046BCFFFF1F3F
:102310006A6700007167000000E0FFFF816700004E
:1023200037B50E25FF350400280001F02FFB0A20E9
:1023300000F05BFE280001F037FB0C2001F034FBBD
:10234000FA23084A9B00147000210193012308001E
:102350000093054B02F062FB0400280001F016FB1D
:1023600020003EBD8C0000206C000020C02310B572
:102370008024704A9B0013606F4A64001360FEF76C
:1023800025FE6E4B20001C606D4B1C606D4B1C606D
:1023900001F0FCFA642000F028FE200001F004FBAC
:1023A000642000F022FE200001F0F0FA642000F02A
:1023B0001CFE6549002000F0F5FAAE20FFF7B0FFE3
:1023C000A020FFF7ADFF7220FFF7AAFFA120FFF7C3
:1023D000A7FF0020FFF7A4FFA220FFF7A1FF002026
:1023E000FFF79EFFA420FFF79BFFA820FFF798FFB1
:1023F0003F20FFF795FFAD20FFF792FF8E20FFF7FC
:102400008FFFB020FFF78CFF0B20FFF789FFB12073
:10241000FFF786FF3120FFF783FFB320FFF780FF30
:10242000F020FFF77DFF8A20FFF77AFFFF20FFF7FC
:1024300077FF8B20FFF774FFFF20FFF771FF8A20E3
:10244000FFF76EFFFF20FFF76BFFBB20FFF768FF72
:102450003E20FFF765FFBE20FFF762FF3E20FFF73B
:102460005FFF8720FFF75CFF0F20FFF759FF8120F8
:10247000FFF756FFFF20FFF753FF8220FFF750FFC3
:10248000FF20FFF74DFF8320FFF74AFFFF20FFF7F4
:1024900047FFAF20FFF744FF2C49002000F082FAED
:1024A0002620FFF73DFF0120FFF73AFF28490020D3
:1024B00000F078FA2520FFF733FF0020FFF730FF08
:1024C0000020FFF72DFF5F20FFF72AFF3F20FFF7D7
:1024D00027FF2049002000F065FA1F48FEF7F2FDB3
:1024E000AF20FFF71DFF2220FFF71AFF0020FFF7A4
:1024F00017FF0020FFF714FF5F20FFF711FF3F20B9
:10250000FFF70EFF0020FFF70BFF3F20FFF708FF4C
:102510000020FFF705FF0020FFF702FF3F20FFF735
:10252000FFFE0020FFF7FCFE0C49002000F03AFA05
:10253000002010BD209014542490145434A014543E
:102540003090145400A0145486670000A067000067
:10255000E867000007680000256800004468000084
:10256000F0B506000D00114B89B05A7806AC2280F8
:102570000F4A05AF12680792D88880B2FEF79CFD1B
:102580003E7004AE3570FEF76FFD0A4B3A001B68D3
:1025900021000293012300200193009601F044FCE6
:1025A000002800D0022009B0F0BDC046C4FFFF1FC4
:1025B00078FEFF1F7CFEFF1F014B5870D9807047CB
:1025C000C4FFFF1F70B50400084B0D00D88880B20F
:1025D000FEF772FD21000920FFF7C2FF2900040069
:1025E0002A20FFF7BDFF2043C0B270BDC4FFFF1F0C
:1025F00070B588B06A46184B04001B780E0013753E
:10260000182822D8C31F0320012B23D9134B06AD52
:102610005A782A80124A12680792D88880B2FEF748
:102620004BFD6B461C75FEF71FFD0E4B29001B680A
:10263000002002930C4B0196009305AA012301F0A0
:1026400000FC002806D0022004E023001D3B0320EC
:10265000142BDBD908B070BD68670000C4FFFF1FF2
:1026600078FEFF1F7CFEFF1FC6FFFF1F70B5324CB8
:102670000500E08880B2FEF71FFD02210120FFF770
:10268000B7FFA178E278C9B2D2B200281DD02B489A
:10269000FEF718FD02210320FFF7AAFFA178E278D8
:1026A000C9B2D2B2002822D02448FEF70BFD022185
:1026B0000520FFF79DFFA178E278C9B2D2B20028C9
:1026C00027D01E48FEF7FEFC70BD002D03D01C482D
:1026D000FEF7F8FCDEE79208890111438022194BCE
:1026E000920151401848C918FEF7ECFCD2E7002DC2
:1026F00003D01348FEF7E6FCD9E79208890111439D
:102700008022104B920151400F48C918FEF7DAFCA5
:10271000CDE7002D03D00A48FEF7D4FCD4E7920899
:10272000890111438022074B920151400648C91884
:10273000FEF7C8FCC8E7C046C4FFFF1F6A67000079
:102740007167000000E0FFFF816700000369C26855
:10275000934201D880681B18013B981A7047F7B55F
:102760008368C46801931F1B436805000E00181995
:10277000A418974207D83A00FDF75CFF019B6868F0
:10278000E41A2200F119FDF755FFEC60F7BD0023B4
:10279000F7B506001700C568019100933369B46866
:1027A0009D421FD2013B5B1B641BBC4200D93C0015
:1027B0009C4200D91C007368220058190199FDF74A
:1027C00039FF009B2D191B190093019B3F1B1B19FF
:1027D0000193B368AB4200D10025F560002FDDD135
:1027E0000098FEBD1B19DDE7022310B50F4C104AFF
:1027F000236163610F4BA261E3616423A2640E4A0B
:102800002362E26400230422A3626362E362A3659D
:102810006365E36522650949E01DFEF781F8200044
:102820000749FEF77DF82023A37110BDAC000020FE
:102830006468000028010020240100206D68000069
:1028400071680000F0B5274B85B01B780E00029030
:102850000192002B01D1FFF7C7FF1823029A002530
:102860005343204AD3185A6D9C6D0392944219D950
:102870001B6D019D1B1B9D4200D91D001827029B4B
:1028800030005F43174B2A00DF19FB6C76191919CA
:10289000FDF7D0FE019B64195B1B01933B6DA342C6
:1028A00000D10024039B019F1B1B9F4200D91F00E6
:1028B000002F0CD01823029A30005343094AED1917
:1028C000D318D96C3A000919FDF7B4FEE419002DAC
:1028D00005D01823029A03485343C0188465280082
:1028E00005B0F0BDAC00002010B50B00EFF3108474
:1028F000012181F310881900FFF7A4FF84F31088E9
:1029000010BD0000F8B516001822451C554342437F
:10291000164B0F005D199B18DC6A012C10D0022C9D
:102920001BD0002C1FD12800FFF710FF864205D8CE
:10293000320039002800FFF712FF34002000F8BDF4
:102940002800FFF703FF3400864200D9040022006C
:1029500039002800FFF703FFF0E732002800FFF7F7
:1029600016FF0400EAE70024E8E7C046AC000020B8
:10297000F8B50B4B04001B780E001700002B01D19B
:10298000FFF732FFEFF31085012181F310883A0041
:1029900031002000FFF7B6FF85F31088F8BDC04670
:1029A000AC00002070B5050008000C00FDF7C0FF6A
:1029B000210002002800FFF7DBFF70BD13B56B4656
:1029C000DC1D012221000020FFF78EFF012801D12C
:1029D000207816BD01204042FBE70000F7B5164CF9
:1029E0000193237805000F001600002B01D1FFF79B
:1029F000FBFE2369AB421CD9EFF31082012181F366
:102A00001088002D0CD01823691C59436B43675064
:102A100061184E600199E3181962002199625962A8
:102A200018204543089B6419E36282F31088002054
:102A3000FEBD01204042FBE7AC000020826810B5DB
:102A400004004068531C834205D820688154A36069
:102A5000E3680133E360A26863689A4209D12168A0
:102A60002069FFF785FFA368984203D001235B42EA
:102A7000E36010BD0023A360FBE70000F0B5050094
:102A800017000800012685B00A9C02910093B84205
:102A900019D2009A0196964200D2019201230B9A14
:102AA0001A4003920B9A1A4202D1002C10D1002432
:102AB000EB680126002B4BDB009B012B1FD9013B50
:102AC00000937E43F8E73900FEF74AF80136DEE767
:102AD0000B9B20269B0704D5009B1036002B00D0B3
:102AE000103E019BA342E3D231002800FFF7A6FF6E
:102AF000EB68013C002BDBDB002CF2D1D7E7310087
:102B00000298FEF72DF88742DBD902983100FEF7D4
:102B1000ADF8114B0291195C2800FFF78FFFEB68AD
:102B2000002B05DB39003000FEF71AF8BE4211D247
:102B3000039B002B0CD0002C0AD0019BA34207D290
:102B400020212800FFF77AFFEB68013C002BF2DA26
:102B500005B0F0BD0600D8E778680000F0B58FB08A
:102B600007900E001800149915000693FDF7F6FC67
:102B7000069B079A0993149B0D920A9300230B93CB
:102B80000C9331780136002907D10C9B0293002B5E
:102B900000DD09E10C980FB0F0BD252900D0B3E0AD
:102BA00000270822042006E0302B0DD1022300E08C
:102BB00001231F430E003378711C2D2BF8D0F3D85E
:102BC000232B10D02B2B0CD000240A213378721C1D
:102BD00018003038092808D84C43303C16001C191E
:102BE000F4E70743E6E71743E4E7002102912E2BC1
:102BF0000ED116000A203278711C1300303B092BCD
:102C000006D8029B0E004343303BD3180293F2E7F1
:102C1000042331780A0001369A43682A01D13178B9
:102C2000F8E7782909D86F290BD8632967D017D816
:102C3000252969D0582900D195E00C9B002BA0DAFA
:102C4000A3E7703908000829F7D8FDF77FFFA50032
:102C5000F6FFF6FF9400F6FF8300F6FFF6FF8C0008
:102C60006429EAD12B681A1D1B682A60DA179818A4
:102C70000393012350400493092849DC029B049AE2
:102C80000593934200D20592002C05D0039B002BA4
:102C900001DB7B0700D5013C02231F4202D0029BCF
:102CA000002B05D001231F4202D1002C36D1002475
:102CB0000C9B0493002BC0DB039B002B3ADA2D21E5
:102CC0005B42039309A8FFF7B9FE0C9B002BB4DB12
:102CD00003233B40022B05D1029B002B02D1002C89
:102CE0002CD100240C9B0493002BA6DB0A22029B10
:102CF00003990197009409A8FFF7C0FE9DE72B6890
:102D000019681A1D2A60C9B209A8FFF797FE94E74F
:102D10000A21FDF7AFFF049B0133ACE7059BA342FB
:102D2000C6D2202109A8FFF789FE0C9B013C002B8D
:102D3000BBDABDE77B07C8D52B21C3E7059BA342C0
:102D4000D0D2302109A8FFF779FE0C9B013C002B63
:102D5000C5DAC7E70A22296801970B1D2B60029B81
:102D600000940968C7E7296801970B1D2B60029B37
:102D700000941022F5E72B681A1D2A601C68217840
:102D80000134002900D158E709A8FFF757FE0C9B32
:102D90000293002BF3DA50E729680B1D2B60002308
:102DA000019308330093E4E70B9A002A03D00699B5
:102DB0000798FFF7DDFD0C9B02930B9B0393039A8F
:102DC000029B944663440C93E4E610B5002000F0A7
:102DD000F9FD10BD10B5002001F02CFD10BD10B59F
:102DE000002001F005FA10BD082310B5164A9178AD
:102DF000194202D091780B4393708821002222203F
:102E0000124B49015A501249124C08708020124945
:102E1000400258501968114801401960195910486A
:102E20000840C02189040143195180210D4B1A72B9
:102E300019767F391A7059700B490A700C329979DA
:102E40001142FCD110BDC04600D0074000700440C4
:102E500000E007400410000044100000FFFFF3FFF3
:102E6000FFFFFFF0004006400050064012491348A3
:102E700010B5814205D00022114B9B089B009A425D
:102E80000FD1104B104A9960002310491048521A74
:102E90009A420AD100210F4B0F4AD21A013A08D2A6
:102EA00010BD84588C500432E9E7CC5CC454013323
:102EB000EEE719700133F1E70000000000000000A8
:102EC0000000000000ED00E0EC6A0000E86900008E
:102ED00000FEFF1F04FFFF1F2C02002003004170B3
:102EE0000020187058609860704710B5437804004F
:102EF0000120FF2B08D000F0DDFA63780133DBB24C
:102F0000637000F0CBFA002010BD0020704770B550
:102F100004000D0000F0CEFAE1682943E16000F002
:102F2000BDFA002070BD000000220A4B9A641A000E
:102F300040329A631A0030329A621A0020329A6143
:102F40001A0010329A60044A1360044B9B60DB60E5
:102F50007047C046900100208C010020E001002055
:102F60000022024B1A60186880B270470C007C5037
:102F700070B5437804000D00002B0BD0002500F045
:102F800099FA6378013BDBB26370257000F086FA32
:102F9000280070BD02200029FBD02378002B17D019
:102FA000FFF7DEFF6368A268834204D8C01A82423A
:102FB00006D30320EDE7C01A80235B02C018F6E7B2
:102FC00000F078FA0023237000F068FA0220E0E7AE
:102FD0004B1CEED000F06EFA0123237000F05EFA75
:102FE000FFF7BEFFA5606060E3E770B50500FFF77F
:102FF000B7FF802604007602FFF7B2FF0300844289
:1030000003D8031B9D42F7D270BD301BC318F9E7EC
:1030100010B5012801D100F04DFA10BD10B50128FE
:1030200001D100F03BFA10BD10B5FFF77DFF012381
:103030000020084A08491360084A094C10600860DB
:1030400004212160074C216007490B600749086093
:10305000136010BD388004500000845000000450FC
:10306000000004510400045104000C5000000453FB
:1030700010B5044C206021710020A260237363739B
:1030800010BDC046F00100200422F0B587B005ACA9
:103090003B4E01900291207061703379009283421F
:1030A00026D90022337B1500737301230092A3708D
:1030B0000393334F3B7BAB421DD8009B002B02D0C8
:1030C000029B012B48D10120FFF7A2FF0C20019B9E
:1030D000002558433368181800F0D6F8019B0120EA
:1030E00073710226FFF79AFFA6703B7BAB421AD89A
:1030F000009807B0F0BDBA68AB009B58002B0FD00A
:103100001A7903990A420BD020001A6899689047EF
:10311000002805D0029B7D73002B1BD00523009354
:103120000135EDB2C5E7BA68AB009B58002B0ED055
:103130001A7932420BD020001A689968904700280B
:1031400005D0029B7D73002B17D006230093013519
:10315000EDB2CAE7052300930023A370013DEDB251
:10316000FF2DC5D0064BAA009B68D358002BF5D085
:1031700020001A6899689047F0E706230093B7E7A4
:10318000F0010020014B58797047C046F001002043
:1031900013B50400002021780190022920D00329D2
:1031A00022D0012925D1227901AB144801F00AF976
:1031B000002814D1A3795A1E9341114ADB011370E0
:1031C00063785A1E93410F4A5B001370A2780E4B2E
:1031D0001A70E2780D4B1A7062790D4B1A7016BD99
:1031E0000100227901ABE0E701A9044801F02CF9C4
:1031F000DEE701A9014801F0C9F8D9E7004006401F
:10320000184086530040865000400650014006504A
:1032100018401650084A43099B009B18F822C00525
:1032200012051040184380235B0518430068431EB5
:103230009841C0B27047C04628800440074A4309FD
:103240009B009B18F822C0051205104018438023EC
:103250005B051843002303607047C0462880044084
:10326000F821084A43099B009B180905C2050A403A
:1032700013438022520513431F2210401E3A8240FE
:103280001A60704728800440072373B50093002319
:103290000400104D1A000121280001F0BDFA2000A1
:1032A000FFF776FF637A280000930023217A1A0043
:1032B00001F0B2FAE379084A9B041360074BA17A44
:1032C0001D68280001F0DCF82800E17A01F0E7F839
:1032D000002076BD0070044000700C59E0680000CA
:1032E00010B5054801F012F8044B1968C9B2013154
:1032F000FDF736FC10BDC0460040064044801C5E11
:1033000010B5FFF7EDFF10BD10B5054800F0FEFF4A
:10331000044B1968C9B20131FDF722FC10BDC0464B
:10332000004006404480145810B5FFF7EDFF10BD73
:103330000B4B1B68DBB2022B0CD0032B0DD00020F3
:10334000834206D1074A106880221202904200D0C0
:1033500018007047044B1868FBE7FA208000F8E774
:1033600000700C591C0200202002002010B5FFF74D
:10337000DFFF10BD054B10B5186801F088F8002379
:10338000984201D0024B1B68180010BDE068000095
:103390001C020020044B01201B6810B5DBB2002B7F
:1033A00001D0FFF7E7FF10BD0480045210B50C00F8
:1033B00012282AD8FDF7C0FB0A0A0A0F290F121596
:1033C0002929181B292929291E222600FFF788FFF1
:1033D0002060002010BDFFF797FFF9E7FFF7A8FF77
:1033E000F6E7FFF7C7FFF3E70A4B2360F1E7FFF7C4
:1033F000D1FFEDE7084800F089FFE9E7064800F053
:103400006FFFE5E7FA239B00EFE70023022023602C
:10341000E0E7C046006CDC020040064010B5024BFD
:10342000185CFFF71DFF10BD8868000010B5024B47
:10343000185CFFF7EFFE10BD8868000010B5BB20D8
:10344000FFF7E8FE10BD10B57620FFF709FF10BDAD
:1034500010B57620FFF7F2FE10BD10B57620FFF70D
:10346000D9FE10BD10B56620FFF7FAFE10BD10B5ED
:103470006620FFF7E3FE10BD10B56620FFF7CAFE19
:1034800010BD10B59420FFF7C5FE10BD10B5024B5E
:10349000185CFFF7BFFE10BD8A680000044A13687D
:1034A000002B04D0013B1360002B00D162B67047A3
:1034B0000002002072B6024A13680133136070479D
:1034C0000002002010B5064C064801F037FC042825
:1034D00001D1002010BD013C002CF5D10320F9E7FB
:1034E000EA03000000E0074010B50B4B0B490A78D7
:1034F000002A07D0084C0A4801F020FC012806D118
:10350000002003E0013B002BF1D1032010BD013C62
:10351000002CF0D1F9E7C046EA03000002D00751C1
:1035200000E00740F7B507000E00150001200193E9
:10353000002F15D0002913D0FFF76AFD094C102287
:1035400000212000FDF7CAF827602671002D03D066
:10355000019BA560237363730120FFF75FFD0020CB
:10356000FEBDC04604020020F0B5B14C8DB0029003
:103570000391237B01206373FFF74AFD2379029AAD
:10358000934206D80120FFF749FD022738000DB00D
:10359000F0BD029A23689200D35809AC1D780193BC
:1035A000039B2A002372029B2370019B636002230A
:1035B0009A430492012A01D0052D0AD101219D4888
:1035C00001F010FB002807D10120FFF727FD01279C
:1035D000DCE70321072DF2D80123002763723C00AA
:1035E0000593934E337BA3422AD80120FFF716FDA3
:1035F000914800F0AFFE049B012B4AD1013802280C
:1036000035D9039B012B00D00DE106270120FFF7E0
:10361000FFFC0023012609AD6B72013CE4B2FF2CD4
:1036200000D1AFE0824BA2009B68D358002BF4D0AE
:103630001A793242F1D028001A6899689047ECE76D
:10364000B268A3009B58002B0ED01A7905990A4244
:103650000AD01A68996809A89047002804D0039BEB
:1036600004277473012BC0D10134E4B2B9E7FFF72A
:103670005BFE724B9842C4D8FFF732FE704EB042E8
:10368000BFD8FFF741FEB042BBD8FFF739FEB042CA
:10369000B7D8039B012B00D0C1E00A2D00D9BCE0B4
:1036A0002800FDF749FA060A0D1E879A7B822F73C0
:1036B0007800002207AB1A702DE0032207ABFAE76F
:1036C0005C4801F03BFB012808D00021594801F07B
:1036D00099FAFFF709FF071E00D057E7012207AB51
:1036E000E9E7544801F02AFB042808D00221514898
:1036F00001F088FAFFF7E6FE071E00D046E7042235
:1037000007ABD8E7072207AB1A80019AD2789A70E4
:10371000019A1279DA702B00083B022B06D8019B24
:1037200006AA5B799372019B9B79D372019B5B78AC
:10373000002B0AD0012D08D9019B02229978414B18
:1037400000294DD019690A431A613A4807A901F0C6
:103750007DFA002800D00327002D45D1FFF7C4FED5
:10376000071E00D012E700270120FFF751FC029B43
:103770002F4D0024AB73022309AE737201932B7B90
:10378000A34236D80120FFF749FCFFE6082207AB29
:10379000FF321A80BFE72C4A07ABFAE7022207ABD9
:1037A0001A700222FF329A80B5E7022207AB1A7024
:1037B000264AF8E7022207AB1A70013A1D489A80A0
:1037C00001F0BCFA0128A6D000211A4801F01AFA2B
:1037D000FFF78AFE071E9ED0D8E6052207AB6AE7F0
:1037E000196991431961B0E7012DBDD1FFF76AFE58
:1037F000B6E7AA68A3009B58002B0BD01A79019951
:103800000A4207D030001A6899689047002801D012
:1038100005276C730134E4B2B1E70327B6E6002F45
:1038200000D13AE7F2E6002F00D0EFE6EDE6C04621
:103830000402002000E007400040064040420F0024
:1038400080841E0000ED00E007030000010200007C
:1038500010B5064801F072FA03000020012B03D0D6
:103860000B30042B00D10A3810BDC04600E00740E1
:10387000F7B5FF2403681D4A1E0A26401C40B3000A
:103880009F581B4A05009B5830000193FFF7C6FD67
:1038900000222100380001F059FA019BA400E4182D
:1038A00084232A795B05234352001A6080236A79B6
:1038B0005B0523431A609023AA795B052343120119
:1038C0001A600C4B1C43EB791B042360EB79002B33
:1038D0000AD0094B9B57002B06D01F2213401E3ADB
:1038E0009A401300054A1360F7BDC046E468000023
:1038F000EC68000000001818F468000000E100E027
:10390000F8B5FF2405000368114A180A20401C403E
:1039100083009F580F4A9E58FFF780FD3800210012
:10392000012201F013FA6A682100380001F01DFA43
:1039300088232A7AA400A4195B05234392001A6005
:1039400098235B051C436B7A9B012360F8BDC0463E
:10395000E4680000EC68000070B50C00002807D196
:10396000002C0FD170BD05000835FFF781FF28003E
:1039700003680133F7D1F3E7250020000C35FFF78A
:10398000BFFF2C0023680133F6D1EBE7FF22030AC7
:10399000044913409B0059580123104083404B6059
:1039A0007047C046E4680000FF22030A0449134040
:1039B0009B0059580123104083408B607047C046DC
:1039C000E4680000084B8200D258942310B50232FC
:1039D0005B0513431B78002B02D000F03FFA10BDAB
:1039E00000F092FAFBE7C0468C68000002008023DA
:1039F0000C325B0513431A78002AFCD00171704722
:103A000070B50D00084B8000C45820002900183004
:103A1000FFF7AEFA0328F8D0002801D0042323745E
:103A2000207CC0B270BDC0461402002010B5104BFF
:103A30008000C458E37C002B05D0237C052B02D0EA
:103A4000237C042B0BD10B4B18589823821C5B054D
:103A5000134300221A7001F0F7F901236374A37C69
:103A6000002B03D020001830FFF73FFA10BDC046EE
:103A7000140200208C680000F0B51700002289B005
:103A800005930EAB1B7805000393830032481E5844
:103A900032481C5807AB1A80A37C880A049302237F
:103AA000FF3363828B0A0193CBB21E2801D11A0027
:103AB0000B0A5B00D8B2019B00211E2B05D08F4260
:103AC00003D1012303995B1A59B20143CBB202938C
:103AD0000299019807AB197001211E2801D15A7073
:103AE0004918A3603000E1600299FFF77FFF2800CA
:103AF0000F99FFF785FF237C002B0CD1002F0AD0F4
:103B0000059BA760E36030003978FFF76FFF28005E
:103B10000F99FFF775FF237C039A1A4314D1019B79
:103B20001E2B01D0002F0FD0002301273000A360EF
:103B3000E76001F077F9029930003943FFF756FF4B
:103B400028000F99FFF75CFF0023207CE374049B9F
:103B5000C0B2A37409B0F0BD8C680000140200204C
:103B6000F7B583000193184B8200D75805000C006D
:103B70000126002F26D1154B3900D35820002422CE
:103B80000193FCF7ABFD200039001830FFF7A6F9D0
:103B90002800FFF767FC019801F0EFF80A4BAA0034
:103BA000D4501F220A4B5B5D134032009A40094BF0
:103BB0001A609C22019B52050233134380226674D3
:103BC0003E001A703000FEBD140200208C68000018
:103BD0009068000000E100E0F7B50E4E8500AB599B
:103BE000002701930C4B0400EA589C2302325B052A
:103BF00013431F70FFF73BFC084B01981A5D1F230E
:103C00001A401E3B9340064A1830D367FFF77DF9F0
:103C1000AF51F7BD140200208C68000090680000CE
:103C200004E100E00A4B800070B5C5584B686A6932
:103C30000C0093420BD0074BC658FFF765FB0023DF
:103C400001006268300001F0A7F863686B6170BD25
:103C5000140200208C680000F0B587B00492059330
:103C6000334A0FAB1E7883009C580391627C070097
:103C7000002A03D10320207407B0F0BD002E01D12B
:103C80001E220E922B4A3800D55800230399E36078
:103C9000A360237423606374A674FFF7C3FF9023AB
:103CA0001021AA1C5B05134319708423E91C5B05D2
:103CB0000B430221197098235B05134302934023A1
:103CC000029A2800137001F0ADF8039B38001988A0
:103CD0000E9B049A019301230093059BFFF7CCFEF2
:103CE0000D9B002B17D0237C002B11D10C9B28009F
:103CF000A3600D9BE3600C9B1978FFF777FE002E05
:103D000003D038000E99FFF77BFE207CC0B2B3E7EA
:103D1000237C042BF9D100230126029A1370EB783F
:103D20005B09334202D0280001F08EF86674ECE79C
:103D3000140200208C680000F0B589B0079311AB25
:103D40001B780692364A029383009C580591627C48
:103D50000600002A03D10320207409B0F0BD029AA6
:103D6000002A01D11E32109200272E4A0599D558FB
:103D70000E9B300023600F9BA7606360029BE7608F
:103D8000A37427746774FFF74DFF9023AA1C5B058B
:103D90001A4310231370842304925B05EA1C134317
:103DA00002221A709823AA185B051A4340232800A0
:103DB0001370039201F036F8059B069A1988109B40
:103DC000300001930097079BFFF756FE237CDAB281
:103DD000BB4215D1049BA91C1A708C235B050B43B5
:103DE0000F99012900D108221A702B79029B002B10
:103DF00003D030001099FFF703FE207CC0B2ACE77F
:103E0000237C042BF9D10126039B1F70EB785B09FF
:103E1000334202D0280001F017F86674EDE7C0467F
:103E2000140200208C6800001FB501240394089C34
:103E30000294079C0194069C0094FFF70DFF04B0C8
:103E400010BD1FB501240394089C0294079C0194A3
:103E5000069C0094FFF770FF04B010BD244B70B5B2
:103E60008400E5588423EA1C5B05134302221A7080
:103E70009023A9185B050B431B78EA78DBB2920606
:103E80001DD5942252050A431278002A17D0194AE8
:103E9000A458012B14D1EA781A4204D004332374B5
:103EA000FFF7C4FD0BE0E368013BE360002BF7D0B4
:103EB000A36828005A1CA2605978FFF797FD70BDCF
:103EC0006268013A6260002A06D08C235B05012AF1
:103ED0000AD000220B4309E0FFF7A8FD23685A1C13
:103EE00022602A791A70EAE708220B431A70F5E774
:103EF0008C68000014020020C31C84204005184375
:103F000002230370704700000122F0B5904B81003E
:103F1000CD5889B0EB1C0193EB7890261B091A4011
:103F200005920122EB7876059B091A400292320035
:103F3000AB1D1A43944612780090D2B20792942295
:103F400052051A431278AF1CD0B203909820400556
:103F500003431878C0B206907E480C5831003943AC
:103F600001910978C9B20491002A35D0079A002A34
:103F70000ED01023624628001370FFF7BDFF236B9D
:103F8000002B52D06A4601211078626B98474CE0B2
:103F9000069A002A20D0402228001A70FFF7ACFFB2
:103FA00023002C331B78002B03D198225205174392
:103FB0003B70236B002B04D06A4680211078626B23
:103FC0009847E37D002B04D0200080211830FEF7B5
:103FD0009EFF0A23237028E02800FFF78DFF059B32
:103FE000002B24D0EB1C1E4310233370029B002BAC
:103FF00010D0EB785B07DA0F002B48DB019B1A70BF
:10400000236B002B04D06A4604211078626B98471A
:104010002B790AE0082323702C342378002B04D159
:1040200098235B051F43029B3B7009B0F0BD029BC8
:10403000002BDED1049B012B54D1EB78049A134260
:1040400030D0019B029A1A702B7923002C331B78F5
:10405000002B07D1039B002B04D198235B051F4342
:10406000039B3B70236B002B04D06A460821107819
:10407000626B9847A37D002B04D0200008211830E4
:10408000FEF745FF00236360E3602375CDE710234F
:10409000019A1370236B002B04D06A46022110781A
:1040A000626B98476368002B50D028008022E36839
:1040B0000C3052051978024310780028FCD0297181
:1040C0000133E3606368013B63606368002BACD13C
:1040D000E3602375236B002BA7D06A46102110786C
:1040E000626B53E72B79A268DBB2002A2CD02269DD
:1040F0001370236901332361A368013BA360A368A4
:10410000002B00D091E7039B002B11D123002C330F
:104110001B78002B04D198235B051F43039B3B7046
:10412000E37D002B04D0200020211830FEF7EFFEA5
:10413000002363752361236B002B00D175E76A466A
:1041400020211078626B21E7072343E7062341E72C
:104150008C68000014020020042902D0072907D02F
:104160007047902303305B05184310230370F7E773
:104170009C2303305B0518438023F7E7DC2270B5EE
:104180000024094B8000C558084B5205C35808331A
:104190001A431460AA7CA24203D028001430FEF710
:1041A000A4FE2C7470BDC046180200209468000064
:1041B0000C4B800070B5C5580B4B0024C058D4235D
:1041C00002005B05083213431C602200074900F01F
:1041D0005CFEEB7CA34203D028002030FEF785FE76
:1041E0006C7470BD18020020946800001B0002006F
:1041F000F8B52B4A83009C580600227C002A02D185
:10420000627C002A3ED0274AD558DC232F005B056C
:104210001A0008373A431268002A15D02A1D1343A2
:104220001B68002B10D0A368002B0DD023681A78D0
:104230000133EA602360A368013BA360A368002BFD
:1042400002D13000FFF79AFFD4235B051F433A6881
:10425000002A0DD02A1D13431B68002B08D0EB68E1
:1042600062681370E36A002B0DD02100300098477C
:1042700028000D4900F04AFE002803D028000A4912
:1042800000F048FEF8BD636801336360E368013BFA
:10429000E360E368002BEBD13000FFF789FFE7E72D
:1042A00018020020946800001300010084225205C7
:1042B000024312780300D0B2002A0CD080200133D0
:1042C000400503431878013843425841024B4042AD
:1042D0001840024BC0187047808D5B0080841E0020
:1042E000020070B5074B083213431C78064B10329E
:1042F00013431D78FFF7DAFFEDB2E4B26419E04032
:1043000070BDC046000090100000101010B50D4B9D
:10431000821D13431A780400D3B2002A0FD0012B58
:1043200007D1FFF7C3FF084B08341C432378D8405C
:1043300010BD0020022BFBD1044B1868F8E704489D
:10434000F6E7C04600000811000090101C02002093
:10435000006CDC020C4A811D0A4312780300D0B2C3
:10436000012A04D002280BD000280BD170478022EC
:104370000133520513431B78002BF7D10220F5E7D8
:104380000320F3E70520F1E70000081102009C2359
:1043900018325B05134380221A700022064B034338
:1043A0001A70064B063018430378DAB2002BFBD1A3
:1043B000034B10000B607047000008130000081149
:1043C000006CDC02F8B504000D0016001F00FFF7BA
:1043D000C1FF012823D1002D25D08023621C5B055D
:1043E00013431D70842302225B0523431A702200AD
:1043F000104B083213437200D2B21A7040220E4B97
:104400000E48234306341A7004432378012BFCD151
:10441000002D0DD10A4B334100203B60F8BD02282E
:10442000DBD1012DD9D139002000FFF7AFFFD4E750
:10443000044BF0E700009010000008130000081182
:1044400080841E0000127A0010B50A4C0300226816
:104450000120002A0CD0084A7F301A431070074808
:10446000063303431A78022AFCD1002023680B602C
:1044700010BDC0461C0200200000081300000811F7
:104480009C23C9015B050343C9B2197070479C2383
:104490005B0503431878431E9841C0B270479423CC
:1044A00049015B050343C9B21970704770B50668CE
:1044B0000C0030002049FCF753FB1F490500300079
:1044C000FCF7D4FB0E00E12130000901FCF748FBAA
:1044D000E121E08009013000FCF7C8FB0E003C211F
:1044E0003000FCF73DFB3C2120813000FCF7BEFB97
:1044F0006E22A1720321114BFF3223802388954243
:104500000AD80F499B0700D10E490123CA5CAA4271
:104510000CD36380A58070BD01339BB223800B4018
:10452000AD1A5A425A416E32FF32E7E70133AD1AF3
:104530000D2BEBD1EEE7C04680510100B207000021
:10454000C0680000986800000188114A03008A18BA
:10455000002030B5812A17D85A88541E0B2C13D846
:104560009C88651E1E2D0FD8DD88172D0CD81D893F
:104570003B2D09D89B7A3B2B06D88B0705D0054BE2
:104580009B5CA3424041C0B230BD034BF8E7C0463C
:104590004EF8FFFFC06800009868000070B5134D2A
:1045A000838802885B196E25FF35554344885B1963
:1045B00095085B190E4D6600755B5B19920710D06C
:1045C0000B600A680B4BC4885343827A00899B189E
:1045D000E122120162439B183C2242439B180B606C
:1045E00070BD022CECD8013BEAE7C0464A05F5FF56
:1045F000A6680000805101008023084A1B0212684F
:104600009A4209D1A02310305B0518430368002BA0
:1046100002D10133FF3303607047C0461C02002003
:104620000100802210B500230124520510311143EE
:104630000C600B6090214360490504601C3001430D
:104640000B608821490501430B6084214905014322
:1046500010430B60036010BD0200902314325B0511
:10466000134300221A604260103201601A607047E2
:1046700003680B6070470000104B820070B5D5587E
:10468000802204000E4B92051A602800FFF7C8FF35
:104690002800FFF7B1FF0B4B1F261A5D01231800FE
:1046A00009493240095DC025314090408B40074A9E
:1046B0006D00505153511060136070BDD068000000
:1046C0003C80845ED4680000D568000000E100E012
:1046D000F7B50027114B8000C55808000E00019760
:1046E000FFF732FF0400B84216D001A93000FFF7EF
:1046F00055FF3800FEF73AFE01008020000281429B
:1047000006D0FCF72DFA01000198FCF729FA019078
:1047100028000199FFF7A0FF2000FEBDD06800002F
:10472000F7B50025124B8000C4580E00200001A9E7
:104730000195FFF79DFF2800FEF718FE0500802079
:10474000000285420ED00B4B290004341C43FCF7B9
:1047500007FA2768019C29004443B8B2FCF700FA25
:1047600024180194310001A8FFF7A0FEF7BDC04650
:10477000D068000000007810F0B50027184B8000CA
:1047800085B0C55808000E0001920397FFF7DCFEC4
:104790000400B84203D10024200005B0F0BD300071
:1047A00003A9FFF7FBFE38002E68FEF7DFFD0100CE
:1047B00080200002814206D0FCF7D2F90100039864
:1047C000FCF7CEF90390039BB342E4D3AB6088239C
:1047D0001C355B051D43019B9A002A60DCE7C0463F
:1047E000D0680000044B8000C25888231C325B054F
:1047F0001343890019607047D0680000054B8000A2
:10480000C258882314325B0513431868431E98412D
:10481000C0B27047D06800006B46E0221B78D2021D
:104820001B041340024A09070B43801803607047BA
:1048300044100000084B8200D258902310B5033278
:104840005B0513431B78002B02D000F013F910BD59
:1048500000F078F9FBE7C046D86800009C210C4BBB
:104860000C4A8000C3588258002003324905114386
:1048700010B518710870942149050A4310701A7F09
:10488000824203D020331800FEF72FFB10BDC04634
:1048900024020020D8680000F7B50C0005001B4B6F
:1048A0003022002187002000FE58FBF717FF280068
:1048B000FEF7C9FDFEF728FD2060300000F080FB08
:1048C000200000212030FEF709FBF31C0193902308
:1048D000F21C5B051343102230001A70032100F014
:1048E000ADFB3000002100F0CEFB094BFC50094B22
:1048F0005A5D1F231A401E3B9340074A13609823BA
:10490000019A5B05134340221A70F7BDD868000076
:1049100024020020DC68000000E100E0F8B50D4E44
:1049200085000D4BAF590400E85800F049FB3800F2
:104930002030FEF7EAFA094B20001A5D1F231A40C7
:104940001E3B9340064AD367FEF782FD0023AB511E
:10495000F8BDC04624020020D8680000DC680000D2
:1049600004E100E00A4B800070B5C658094B0C000A
:10497000C358150030001A68096800F028FB286049
:10498000A37930006279217900F06AFB70BDC046DE
:10499000D868000024020020F7B51E4A83009C5806
:1049A000050022790420002A16D11B4A9E580029AE
:1049B00003D0280001AAFFF7D5FF9823002140204B
:1049C000F21C5B0513431970187027698F4204D1DC
:1049D0002800FFF743FF0020FEBD0123237194232D
:1049E0005B05A16133431B780720002BF4D0A3683B
:1049F000191E02D019780133A360B1712369013BFC
:104A00002361A3690133A3619C235B051A438023BF
:104A10001370E0E724020020D8680000F8B5134FB7
:104A2000134C85002C59ED590127069E2777A2606B
:104A30002661E3606661FFF7AFFF002814D1200014
:104A400007992030FEF794FA0328F8D000280BD0FD
:104A50009C23002203355B052B4322711A7094239B
:104A600003205B051D432A70F8BDC046D8680000CE
:104A70002402002010B51E4B8200D358197900295A
:104A800034D01C4951585A69002A11D09C22520531
:104A90000A431278002A0BD08A79DC68D2B2002C43
:104AA00003D02270DA680132DA605A69013A5A6139
:104AB0001A69002A12D0942252050A431278002A59
:104AC0000CD09A68141E02D0147801329A608C714E
:104AD0001A69013A1A619A6901329A611A69002ABF
:104AE00004D15B69002B01D1FFF7B8FE10BDC046B1
:104AF00024020020D8680000104A8000815800225B
:104B00000F4B10B5C3580331581CC2779C20400589
:104B10000843DA621A701A835A629A621A63027040
:104B20009420400501430A701A0038321278002A96
:104B300003D00121181DFEF7EAF910BDD868000066
:104B40002402002070B5254B8200D358591CC97F20
:104B5000002942D022495258D96A002917DB9421F2
:104B6000490511430978002911D0D969CCB2596A95
:104B7000002905D0DD6A002D02DD0C780131596273
:104B80009471D96A0139D962596B01315963D96A73
:104B9000002905DA9421D41C4905214300240C7016
:104BA000196B002911DD9C21490511430978002961
:104BB0000BD09279996AD2B2002903D00A709A6A0E
:104BC00001329A621A6B013A1A63DA6A002A04DC2B
:104BD0001B6B002B01DCFFF78FFF70BD2402002050
:104BE000D8680000012903D0032909D000207047AC
:104BF00094235B0518430078431E9841C0B2F6E742
:104C00008423F6E7431C034849011843C9B20170E5
:104C10007047C04600008812831C9420490140055B
:104C20001843C9B201707047831C034889011843B7
:104C3000C9B201707047C04600000813831C8C2065
:104C4000C90040051843C9B201707047F7B50400A8
:104C5000364EE31C1E43337808780D00DBB207287C
:104C600060D8FBF769FF04192B0E192B2B45304B2D
:104C700001341C43002323703378012BFCD1002026
:104C8000FEBD012BFCD12A4B01341C434023237071
:104C90003378042BFCD1F2E70021012801D0042055
:104CA0000231337898423FD12000FFF7ABFF042157
:104CB000204A13698B43136130BFE0E70227B842F3
:104CC00007D100270B79BB4203D020004979FFF7B9
:104CD000ABFF194B01341C4327703378154ADBB204
:104CE0000193019B01330193042311690B43E2E714
:104CF0000421114B621C1A4311706A78A11C0B43EA
:104D00001A70002A06D1AB78002B03D02000E97876
:104D1000FFF782FFAB79002BDFD02000E979FFF7A6
:104D20008DFFDAE70120ABE70320A9E70000301090
:104D30000000881200ED00E000001010C31C0248C3
:104D400018430078C0B270470000301001231430BF
:104D50008B40012A04D18022120510430360704762
:104D60008022D204DB431043F8E701238B40002A62
:104D700001D0436070478360FCE70023C2220370C8
:104D800043708370C37043718371C3710372427245
:104D90008372C37270470000F0B5002487B002939D
:104DA000FA230126270025009B005343039004911A
:104DB000009301947642AB000593194BAA009B180F
:104DC00059880498A140FBF7CBFE009B009AC31AB8
:104DD000824200D9131AB3421FD2114AA900525C71
:104DE00027000192002B02D00135322D13D101345E
:104DF000032C01D0002B0DD1029A002A00D01360A1
:104E00003F220199BB0111400B43039ADBB253705F
:104E100007B0F0BD00251E00CDE73300E4E7C04633
:104E2000F6680000942302305B0503431B78002BD7
:104E300005D088235B051843042303707047802343
:104E40001B0518433023F8E7942210B55205841C43
:104E5000224311780300CAB2022001290DD180211A
:104E6000C90421438024CD300870E400033319784D
:104E7000490908001040114200D110BD013C002C2E
:104E800001D0C046F3E70920F7E7012310B58B40B6
:104E90000400080C04280AD8FBF74EFE030E141772
:104EA0001A008020002A03D000050443236010BDAF
:104EB000C004DB430443F9E7201D8024002A0AD004
:104EC0002405F2E720000830F7E720000C30F4E773
:104ED00020001030F1E7E404EBE70200002300B506
:104EE000080C042808D80133FBF726FE03080A0C37
:104EF0000E001068C8400340180000BD5068F9E774
:104F00009068F7E7D068F5E71069F3E710B5FFF7A9
:104F1000E4FF10BD294A0300881800B510284BD8BB
:104F2000FBF70AFE433C27201912094A4A4A4A2E37
:104F30004A4A4A4A3500D0208022043340050343C0
:104F4000520300201A6000BDCC20802204334005AB
:104F500003431203F5E7C8208022043340050343CE
:104F6000D202EEE7C42080220433400503439202BC
:104F7000E7E7C02080220433400503435202E0E704
:104F8000FC2080220433400503431206D9E7F820B1
:104F90008022043340050343D205D2E7BC2080229F
:104FA0000433400503431202CBE7B82080220433C8
:104FB00040050343D201C4E70320C4E7F2FFFEFF2C
:104FC0000423C37000238370437003717047F0B5EE
:104FD000130B89B001260393082301247642029320
:104FE0009B19079004910592019302270025631EE7
:104FF0000693210005987943FBF7B2FD049B834299
:1050000007D31B1AB34204D21E00069B03900295DD
:10501000019301357F00092D01D0002EE9D1082C24
:1050200002D00134002EE0D1019B029A1B010398AB
:105030001343079ADBB2537009B0F0BD842310B557
:105040000224C21C5B0513434A0022401A709023BD
:1050500000195B0518431023C9001940017010BDE9
:1050600010B58C2403306405C9000443C9B2217013
:105070008821920049050143D2B20A70802252056C
:105080001043037010BD8023012202305B050343EF
:105090000A401A708C235B051843082389001940C5
:1050A0000170704704FEFF1F0967576172705370EB
:1050B00069436F6D6D6F6E53696E6B4275666665A1
:1050C000725B25645D203D205B3078253032585D71
:1050D0000A00776172705365744C6F77506F776513
:1050E000724D6F6465286B57617270506F7765728F
:1050F0004D6F6465564C50532C2030202F2A20735E
:105100006C656570207365636F6E6473203A206907
:105110007272656C6576616E742068657265202AAE
:105120002F292829206661696C65642E2E2E0A00BD
:105130000D0A0A0A0A5B202A0909090957617270D7
:1051400020284857207265766973696F6E2043295D
:10515000202F20476C61757820284857207265768B
:105160006973696F6E2042290909092A205D0A00C6
:105170000D5B2020090909092020202020204361FF
:105180006D627269646765202F2050687973636F60
:105190006D706C61622020200909090920205D0AD8
:1051A0000A000D09537570706C793D25646D562C9D
:1051B0000944656661756C7420546172676574207A
:1051C000526561642052656769737465723D307819
:1051D000253032780A000D094932433D25646B625F
:1051E0002F732C095350493D25646B622F732C0992
:1051F000554152543D2564622F732C094932432096
:1052000050756C6C2D55703D25640A0A000D0953CC
:10521000494D2D3E53434743363D30782530327853
:1052200009095254432D3E53523D3078253032788F
:1052300009095254432D3E5453523D3078253032A3
:10524000780A000D094D43475F43313D30782530E2
:1052500032780909094D43475F43323D30782530A4
:10526000327809094D43475F533D30782530327815
:105270000A000D094D43475F53433D3078253032D6
:10528000780909094D43475F4D433D307825303259
:105290007809094F53435F43523D307825303278C7
:1052A0000A000D09534D435F504D50524F543D304D
:1052B0007825303278090909534D435F504D4354E6
:1052C000524C3D30782530327809095343422D3E07
:1052D0005343523D3078253032780A000D09504D45
:1052E000435F52454753433D3078253032780909B2
:1052F0000953494D5F53434743343D30782530329D
:1053000078095254432D3E5450523D307825303266
:10531000780A0A000D0925647320696E20525443EF
:105320002048616E646C657220746F2D64617465D1
:105330002C09256420506D6772204572726F72735C
:105340000A001B5B306D1B5B343B34336D1B5B31E0
:105350003B33376D0D53616E697479206368656303
:105360006B206661696C6564211B5B306D0A000D02
:1053700009307825303278202D2D3E205B3078257D
:10538000303278203078253032782030782530322D
:10539000785D0A000D09307825303278202D2D3EB9
:1053A000203078253032780A000D093078253032E7
:1053B00078202D2D3E202D2D2D2D0A000D0A09259A
:1053C000642F256420737563636573732072617441
:1053D000652E0A000D0925642F256420737563630B
:1053E0006573736573206D617463686564207265AD
:1053F000662E2076616C7565206F662030782530CA
:1054000032782E0A000D0925642062616420636FE2
:105410006D6D616E64732E0A0A0041626F757420AF
:10542000746F204750494F5F4452565F496E69740C
:1054300028292E2E2E200041626F757420746F2053
:105440006C6F77506F77657250696E5374617465D5
:105450007328292E2E2E2000426F6F7420646F6EE9
:10546000652E0A00507265737320616E79206B653A
:105470007920746F2073686F77206D656E752E2E9E
:105480002E0A00776172705365744C6F77506F7796
:1054900065724D6F6465286B57617270506F7765E8
:1054A000724D6F646552554E2C2030202F2A207388
:1054B0006C656570207365636F6E6473203A206954
:1054C0007272656C6576616E742068657265202AFB
:1054D0002F292829206661696C65642E2E2E0A000A
:1054E0000D0A0957726974696E6720646972656391
:1054F000746C7920746F20666C6173682E20507212
:105500006573732027712720746F20657869742E66
:105510000A000A2043616C6C696E672064697370CD
:105520006C617920696E697469616C697361746911
:105530006F6E2066756E6374696F6E2C206265668F
:105540006F7265206D656E75206F66206F7074696F
:105550006F6E732E0A000D53656C6563743A0A0012
:105560000D2D202761273A207365742064656661DC
:10557000756C742073656E736F722E0A000D2D208A
:105580002762273A2073657420493243206261758F
:105590006420726174652E0A000D2D202763273A5E
:1055A00020736574205350492062617564207261D4
:1055B00074652E0A000D2D202764273A2073657428
:1055C0002055415254206261756420726174652EC9
:1055D0000A000D2D202765273A2073657420646525
:1055E0006661756C74207265676973746572206199
:1055F0006464726573732E0A000D2D202766273AA6
:10560000207772697465206279746520746F2073E5
:10561000656E736F722E0A000D2D202767273A20C2
:105620007365742064656661756C742073656E7350
:105630006F7220737570706C7920766F6C7461670F
:10564000652E0A000D2D202768273A20706F776598
:1056500072646F776E20636F6D6D616E6420746F1E
:1056600020616C6C2073656E736F72732E0A000D6F
:105670002D202769273A207365742070756C6C2D76
:10568000757020656E61626C652076616C75652E43
:105690000A000D2D20276A273A2072657065617413
:1056A0002072656164207265672030782530327819
:1056B000206F6E2073656E736F72202325642E0A2F
:1056C000000D2D20276B273A20736C6565702075BF
:1056D0006E74696C2072657365742E0A000D2D203E
:1056E000276C273A2073656E64207265706561745B
:1056F00065642062797465206F6E204932432E0AFA
:10570000000D2D20276D273A2073656E6420726589
:105710007065617465642062797465206F6E2053D2
:1057200050492E0A000D2D20276E273A20656E6104
:10573000626C652073656E736F7220737570706C28
:105740007920766F6C746167652E0A000D2D202715
:105750006F273A2064697361626C652073656E73AC
:105760006F7220737570706C7920766F6C746167DE
:10577000652E0A000D2D202770273A207377697453
:10578000636820746F20564C5052206D6F64652EF4
:105790000A000D2D202772273A20737769746368F9
:1057A00020746F2052554E206D6F64652E0A000DD7
:1057B0002D202773273A20706F776572207570202F
:1057C000616C6C2073656E736F72732E0A000D2D01
:1057D000202774273A2064756D702070726F63659E
:1057E00073736F722073746174652E0A000D2D201F
:1057F0002775273A20736574204932432061646419
:10580000726573732E0A000D2D202778273A2064C5
:10581000697361626C652053574420616E64207324
:1058200070696E20666F7220313020736563732E4D
:105830000A000D2D20277A273A2070657270657452
:1058400075616C6C792064756D7020616C6C20736F
:10585000656E736F7220646174612E0A000D456E6F
:105860007465722073656C656374696F6E3E2000A9
:105870000D0953656C6563743A0A000D092D2027E4
:105880003127204144584C333632090909283078F1
:1058900030302D2D30783244293A20312E365620A2
:1058A0002D2D20332E35562028636F6D70696C6561
:1058B00064206F757429200A000D092D20273227D6
:1058C00020424D58303535616363656C20090928E5
:1058D000307830302D2D30783346293A20322E342E
:1058E00056202D2D20332E36562028636F6D70697B
:1058F0006C6564206F757429200A000D092D20271E
:10590000332720424D583035356779726F090909C0
:1059100028307830302D2D30783346293A20322EF9
:105920003456202D2D20332E36562028636F6D706F
:10593000696C6564206F757429200A000D092D209B
:1059400027342720424D583035356D6167090909E4
:1059500028307834302D2D30783532293A20322EC7
:105960003456202D2D20332E36562028636F6D702F
:10597000696C6564206F757429200A000D092D205B
:10598000273527204D4D4138343531510909092833
:10599000307830302D2D30783331293A20312E397E
:1059A0003556202D2D20332E36560A000D092D2078
:1059B0002736272043555252454E545F53454E5388
:1059C000455F494E41323139090909283078303074
:1059D0002D2D30783331293A20332E3356202D2D7A
:1059E00020352E35560A000D092D20273727204D4A
:1059F00041473331313009090928307830302D2DB5
:105A000030783131293A20312E393556202D2D204C
:105A1000332E36562028636F6D70696C6564206F75
:105A2000757429200A000D092D20273827204844A5
:105A3000433130303009090928307830302D2D308D
:105A4000783146293A20332E3056202D2D20352E00
:105A500030562028636F6D70696C6564206F7574B3
:105A600029200A000D092D202739272053493730D6
:105A7000323109090928307830302D2D3078304600
:105A8000293A20312E3956202D2D20332E365620FE
:105A900028636F6D70696C6564206F757429200AC6
:105AA000000D092D20276127204C33474432304810
:105AB00009090928307830462D2D30783339293AB4
:105AC00020322E3256202D2D20332E36562028639C
:105AD0006F6D70696C6564206F757429200A000D04
:105AE000092D2027622720424D4536383009090903
:105AF00028307841412D2D30784638293A20312EF2
:105B00003656202D2D20332E36562028636F6D708B
:105B1000696C6564206F757429200A000D092D20B9
:105B2000274D2720424E4F30353509090928307856
:105B300030442D2D30783735293A20322E375620F3
:105B40002D2D20332E36562028636F6D70696C65BD
:105B500064206F757429200A000D092D20274D2718
:105B6000205246343330434C333331480909092835
:105B7000307830442D2D30783735293A203356206F
:105B80002D2D20332E36562028636F6D70696C657D
:105B900064206F757429200A000D092D20276427C1
:105BA00020544353333437323509090928307830CB
:105BB000302D2D30783144293A20322E3756202D81
:105BC0002D20332E33562028636F6D70696C656409
:105BD000206F757429200A000D092D2027652720C4
:105BE000534934373035090909286E2F61293A2085
:105BF00020202020202020322E3756202D2D203509
:105C00002E35562028636F6D70696C6564206F7542
:105C10007429200A000D092D2027672720434353AC
:105C200038313109090928307830302D2D30784647
:105C300046293A20312E3856202D2D20332E365627
:105C40002028636F6D70696C6564206F75742920FE
:105C50000A000D092D2027682720414D4738383389
:105C60003409090928307830302D2D3F293A203366
:105C70002E3356202D2D20332E33562028636F6D62
:105C800070696C6564206F757429200A000D092DF8
:105C900020276A2720415337323632090909283034
:105CA0007830302D2D30783242293A20322E375636
:105CB000202D2D20332E36562028636F6D70696C91
:105CC0006564206F757429200A000D092D20276B4B
:105CD00027204153373236330909092830783030CC
:105CE0002D2D30783242293A20322E3756202D2D54
:105CF00020332E36562028636F6D70696C656420E2
:105D00006F757429200A000D09456E746572207341
:105D1000656C656374696F6E3E20000D09496E768F
:105D2000616C69642073656C656374696F6E2027AC
:105D300025632720210A000D0A0953657420493282
:105D4000432062617564207261746520696E206B06
:105D50006270732028652E672E2C2027303030315A
:105D600027293E20000D0A094932432062617564EB
:105D700020726174652073657420746F202564201F
:105D80006B622F73000D0A0953657420535049202C
:105D900062617564207261746520696E206B627047
:105DA000732028652E672E2C20273030303127298C
:105DB0003E20000D0A09535049206261756420722B
:105DC0006174653A202564206B622F73000D0A0907
:105DD000536574205541525420626175642072618C
:105DE000746520696E206B6270732028652E672EA3
:105DF0002C20273030303127293E20000D0A09554C
:105E0000415254206261756420726174653A2025A4
:105E100064206B622F73000D0A09456E7465722051
