:10000000000600201D050000450500004505000014
:1000100000000000000000000000000000000000E0
:100020000000000000000000000000004505000086
:10003000000000000000000045050000450500002C
:100040004505000045050000450500004505000088
:10005000450500004505000045050000AD0F000006
:10006000732F0000450500007D2F000045050000AE
:10007000872F0000450500004505000045050000EC
:100080004505000045050000450500004505000048
:10009000850F00009D0F000045050000450500008C
:1000A0004505000045050000450500004505000028
:1000B0004505000045050000BD0F00004505000096
:10040000FFFFFFFFFFFFFFFFFFFFFFFFFE3DFFFFBF
:100410000448054B10B5834203D0044B002B00D099
:10042000984710BD04FFFF1F04FFFF1F00000000DE
:1004300006480749091A8B10C90FC91810B5491089
:1004400003D0044B002B00D0984710BD04FFFF1FC2
:1004500004FFFF1F0000000010B5074C2378002B9D
:1004600009D1FFF7D5FF054B002B02D0044800E06F
:1004700000BF0123237010BD04FFFF1F0000000018
:10048000C46B0000054B10B5002B03D00449054890
:1004900000E000BFFFF7CCFF10BDC0460000000029
:1004A00008FFFF1FC46B0000402292029A1A924676
:1004B0007047C046154B002B00D1114B9D46FFF7EE
:1004C000F3FF00218B460F461148124A121A00F022
:1004D00005F90C4B002B00D098470B4B002B00D09C
:1004E00098470020002104000D000B4800F02EF872
:1004F00000F06AF82000290001F0E4F800F03AF872
:1005000000000800000000000000000000060020BD
:1005100004FFFF1F2C020020A105000072B6064850
:100520000649074A02600A6002F032FD02F072FDDD
:1005300062B6FFF7BFFF000080E100E080E200E06C
:10054000FFFFFFFF004800474505000010B5010010
:1005500000230022002000F01FFA10BD10B50A0091
:10056000002100F0BBF810BD014B18687047C04671
:1005700000FEFF1F084B10B50400002B02D0002125
:1005800000F078FA054B1868836A002B00D0984772
:10059000200000F05BFCC046750A00004C520000D1
:1005A00070B5074D074C641BA41005D0013CA30097
:1005B000EB589847002CF9D106F00AFB70BDC046F5
:1005C000E86B0000EC6B000070B50C4D0C4E761B18
:1005D000B61005D0002408CD01349847A642FAD1C0
:1005E00006F0F0FA074D084E761BB61005D0002431
:1005F00008CD01349847A642FAD170BDE46B0000E3
:10060000E46B0000E46B0000E86B000010B5034BE6
:100610000100186800F00CF910BDC04600FEFF1F75
:1006200010B5034B0100186800F0ACF810BDC046CF
:1006300000FEFF1FF0B5C64600B50F2A43D90B00D8
:10064000032603431E400C000300002E40D115007A
:10065000103D2D09AC462D01A846804400E03B002A
:10066000676825685F60E7681D60DF601F00A56838
:1006700010379D6010344345F1D165460F230C249B
:1006800001352D01491913404519144223D08C59C5
:10069000AC5104369C1B032CF9D80324043B9B0863
:1006A00001339B002240ED18C918561E002A07D0BE
:1006B000002300E02300CA5C5C1CEA549E42F9D18E
:1006C00004BC9046F0BD0500561E002AF0D1F7E7A5
:1006D000561E0500ECE71A00F6E7C046F0B5050027
:1006E00083074AD0541E002A44D0CEB2030003220E
:1006F00002E00135013C3DD301332E701342F8D1A5
:10070000032C2FD9FF220A40150215432A04154352
:100710000F2C35D92700103F3F093E01B4461E007B
:100720001A0010366644156055609560D560103229
:10073000B242F8D10F260C2201373F012640DB19C7
:100740003700224217D03E1FB608B400A4461A0054
:100750001C1D644420C2A242FCD103240136B60011
:100760009B193C40002C05D0C9B21C1919700133EB
:100770009C42FBD1F0BD3400F4E714000300BFE756
:100780002700E0E770B50500002915D00C1F23688D
:10079000002B27DB280000F0CBF9244B1A68002A35
:1007A00005D0A2420CD921686018824224D0626030
:1007B00028001C6000F0BEF970BDA34203D81A00E7
:1007C0005368002BF9D111685018A0421BD027D8CC
:1007D00021686018834207D063605460280000F0ED
:1007E000A9F9E9E7E418D5E718685B68844661442D
:1007F000216063605460F1E7106852688446614488
:1008000021606260D4E720680918501811608342A3
:10081000E4D118685B688446614411605360DDE789
:100820000C2328002B6000F085F9C5E720FFFF1F8F
:10083000F8B50323CD1C9D43083506000C2D2AD2A4
:100840000C25A94229D8300000F072F92A4F3A68E5
:10085000002A0AD013685B1B04D441E023685B1BA9
:100860001FD522005468002CF8D17B68002B3DD0A6
:100870002900300000F042F8431C2AD00323C41C96
:100880009C43A04205D0211A300000F037F8431CE9
:100890001FD0256010E0002DD3DA0C230020336038
:1008A000F8BD0B2B05D86368A2421DD0536003E04E
:1008B00014002360E4182560300000F03BF92000AC
:1008C00007220B30231D9043C21AE9D01B1AA350F4
:1008D000E6E70C233000336000F02CF90020DFE75E
:1008E0000B2BE5D8140053683B60E5E7002130008E
:1008F00000F004F87860BBE720FFFF1F002370B50D
:10090000064C05000800236000F0A2FA431C00D04A
:1009100070BD2368002BFBD02B60F9E72802002074
:1009200003000A7801311A700133002AF9D17047A7
:1009300010B5830727D00378002B26D003000321AE
:1009400002E01A78002A1CD001330B42F9D1196851
:100950000F4A104C8A188A4322420FD10433196877
:100960000B4A8A188A43224208D104331968084A7C
:100970008A188A432242F1D000E001331A78002A13
:10098000FBD1181A10BD0300E1E70020FAE7C046CA
:10099000FFFEFEFE80808080F0B546464F46D6467C
:1009A000C0B51F002F4B82B01C6805000E0090469A
:1009B000002C2DD063681F2B50DC002D1CD088220A
:1009C000A0589146002834D07832825894469A0034
:1009D00091468144424649460A6001216246994057
:1009E0000A43944680228A46614652008150494615
:1009F000803A8F50022D16D000205A1C02339B00E3
:100A000062601E5102B01CBC90469946A246F0BDE1
:100A1000154C1C60154B002BCCD01B680193882310
:100A2000019AE250C6E75546843281580D438550FD
:100A3000E2E70F4B002B11D084204000FFF7E6FDCA
:100A400000280BD0802200235200835004328350B0
:100A50004B460022E05094466368B8E701204042CC
:100A6000D0E7C046B4FFFF1F28FFFF1F00000000B3
:100A70000D060000F0B5DE464E46454657462B4B68
:100A800088469B46E0B51E6883B00190002E45D095
:100A900088237568F7586C1E40D40135AD00783353
:100AA00075199A460AE0002F05D03B00A20080335A
:100AB0009B58434505D0043D013C2FD34346002BB2
:100AC000F1D173682A68013BA34222D000232B6036
:100AD000002AF0D073689946002F18D001235146A0
:100AE000A3407958194212D0822040003858A10002
:100AF0007958009018420ED1019890475B46726871
:100B00001B684A4501D1B342D5D01E00BEE79047CD
:100B1000F4E77460DCE708009047EFE703B03CBC03
:100B200090469946A246AB46F0BDC046B4FFFF1FB3
:100B30007047C0467047C04602B471464908490034
:100B4000095C49008E4402BC7047C04603B471463C
:100B5000490840004900095E49008E4403BC7047C3
:100B6000002243088B4274D303098B425FD3030AEC
:100B70008B4244D3030B8B4228D3030C8B420DD3FF
:100B8000FF22090212BA030C8B4202D3121209028D
:100B900065D0030B8B4219D300E0090AC30B8B42CB
:100BA00001D3CB03C01A5241830B8B4201D38B0379
:100BB000C01A5241430B8B4201D34B03C01A52411E
:100BC000030B8B4201D30B03C01A5241C30A8B4261
:100BD00001D3CB02C01A5241830A8B4201D38B024C
:100BE000C01A5241430A8B4201D34B02C01A5241F0
:100BF000030A8B4201D30B02C01A5241CDD2C30962
:100C00008B4201D3CB01C01A524183098B4201D3DD
:100C10008B01C01A524143098B4201D34B01C01AC8
:100C2000524103098B4201D30B01C01A5241C30840
:100C30008B4201D3CB00C01A524183088B4201D3AF
:100C40008B00C01A524143088B4201D34B00C01A9B
:100C50005241411A00D20146524110467047FFE707
:100C600001B5002000F0F0F802BDC0460029F7D021
:100C700076E7704703460B437FD4002243088B423C
:100C800074D303098B425FD3030A8B4244D3030B13
:100C90008B4228D3030C8B420DD3FF22090212BAD8
:100CA000030C8B4202D31212090265D0030B8B4254
:100CB00019D300E0090AC30B8B4201D3CB03C01A3E
:100CC0005241830B8B4201D38B03C01A5241430B19
:100CD0008B4201D34B03C01A5241030B8B4201D309
:100CE0000B03C01A5241C30A8B4201D3CB02C01A74
:100CF0005241830A8B4201D38B02C01A5241430AEC
:100D00008B4201D34B02C01A5241030A8B4201D3DA
:100D10000B02C01A5241CDD2C3098B4201D3CB0181
:100D2000C01A524183098B4201D38B01C01A524130
:100D300043098B4201D34B01C01A524103098B4234
:100D400001D30B01C01A5241C3088B4201D3CB001F
:100D5000C01A524183088B4201D38B00C01A524102
:100D600043088B4201D34B00C01A5241411A00D2B2
:100D700001465241104670475DE0CA0F00D049421B
:100D8000031000D34042534000229C4603098B428B
:100D90002DD3030A8B4212D3FC22890112BA030A13
:100DA0008B420CD3890192118B4208D38901921195
:100DB0008B4204D389013AD0921100E08909C3091A
:100DC0008B4201D3CB01C01A524183098B4201D31C
:100DD0008B01C01A524143098B4201D34B01C01A07
:100DE000524103098B4201D30B01C01A5241C3087F
:100DF0008B4201D3CB00C01A524183088B4201D3EE
:100E00008B00C01A5241D9D243088B4201D34B0008
:100E1000C01A5241411A00D20146634652415B104A
:100E2000104601D34042002B00D54942704763462B
:100E30005B1000D3404201B5002000F005F802BD70
:100E40000029F8D016E770477047C046FEE7C04655
:100E50000A4A0300116810B5002901D10849116040
:100E600010680849C3188B4206D9FFF77DFB0C2395
:100E700003600120404210BD1360FCE7B8FFFF1F74
:100E80003002002030020020837802209842804106
:100E900040427047437A0020013B012B03D90B7875
:100EA000013001330B707047C023174A9B00136059
:100EB000164A1360164A13600023164A1360164A36
:100EC0001360164A1360164A1360164A1360164AD6
:100ED0001360164A1360164A1360164A1360164AC6
:100EE0001360164A1360164A1360164A1360164AB6
:100EF0001360164A1360164A1360164A1360164AA6
:100F00001360164A136070470090145404901454F0
:100F1000089014540C9014541090145414901454B9
:100F2000189014541C901454209014542490145469
:100F30003090145400A0145404A0145408A0145465
:100F40000CA0145410A0145414A0145418A0145439
:100F50001CA0145428A014542CA0145434A01454CD
:100F600003003038092805D91A00613A052A02D849
:100F7000573B180070471A00413A0020052AF9D85B
:100F8000373BF6E710B5002003F00CFD002803D036
:100F90000021080003F0FAFC10BD0000024A1368AB
:100FA000013313607047C04680FEFF1F10B5072154
:100FB000014803F0A5F910BD00C007400122024B13
:100FC00052421A607047C046A090044037B50120D5
:100FD00002F00DFBC02300240D4A9B0013600D4A54
:100FE0000D4D13600D4A200013600D4B2C716C7178
:100FF000AC711A68FA239B0053430A492B6003F033
:101000001FFD2900200001AA03F080FD37BDC04666
:101010001890145420901454640000202490145408
:1010200084FEFF1F3400002010B5002003F04AFDAD
:1010300080230A4A5B001360094A07201360094AAB
:10104000136002F085FD062002F082FD092002F007
:101050007FFD002002F0D0FA10BDC0461890145455
:101060001C9014542490145410B5002002F0CEFAB1
:101070008023064A9B001360054A0020136002F09B
:101080007FFE0020034902F03FFE10BD0CA0145467
:1010900010A014541000002010B5002002F070FEC3
:1010A0000020034B1860034B186002F0B4FA10BD27
:1010B0000CA0145410A01454014B1B887047C04658
:1010C00074FEFF1F0FB41FB50E4B1B78DCB2002B54
:1010D0000FD107AB039340232000009306990A4BDE
:1010E00003AA01F00FFE002807DA2000074901F0EB
:1010F0002DFD1FBC08BC04B01847052002F049F8BC
:10110000F7E7C046CDFFFF1FCEFFFF1F16690000A7
:1011100010B50400002901D0FFF7C6FE002102200F
:1011200001F066F82100042001F062F8002802D0E6
:101130000148FFF7C7FF10BD7A520000F8B50E0056
:10114000040026481500FFF7BDFF2548FFF7BAFF4A
:10115000320021002348FFF7B5FF234B23481968CD
:10116000234B244E1A68244B244F1B68FFF7AAFF19
:10117000234B244CF958244872693368FFF7A2FFC7
:1011800021786278A3792148C9B2D2B2DBB2FFF7E5
:1011900099FF1F4B217A227E1B781E48C9B2D2B21A
:1011A000DBB2FFF78FFF1C4B1C4819785A781C4B99
:1011B000C9B21B69D2B2FFF785FF1A4B1A4899785A
:1011C0001A4BC9B2FA587368FFF77CFF184B2A789C
:1011D00019681848FFF776FFF8BDC046D8520000DE
:1011E000185300004A53000078FEFF1F7E53000092
:1011F00084FEFF1F00D003408CFEFF1F00700440E0
:101200003C10000000400640B5530000EB530000C6
:10121000005006401A54000000E007404A54000005
:1012200000ED00E000D007408454000034100000BE
:1012300080FEFF1FBC54000010B501F093FC002895
:10124000FBDB10BD70B5FFF7F7FF0400FFF7F4FFFD
:10125000FF26050020003040FFF782FE0400280032
:101260003040FFF77DFE24012018C0B270BD70B57C
:10127000FFF7E2FF0600FFF7DFFF0500FFF7DCFFE7
:101280000400FFF7D9FFFF22FA236421164015401E
:10129000303E14409B00303D4D4373435A39303C3F
:1012A0004C435B1910401B193038181870BD0000F2
:1012B000F0B591B01C0016AB0C91197817AB0592E4
:1012C0001A7818AB1B7805000D931CAB1B780EA881
:1012D0000E931DAB1B880F1C099321231B18DB7F6A
:1012E00008931FAB1B880F9320AB1B780A93914286
:1012F00000D9171C059BFFB2002C05D1002B05D18E
:101300005448FFF7DFFE01E0002BF9D1280000254B
:101310002E00514B1B88FFF7D5FE099B04950293C5
:10132000069500230793079B199A934200DC8FE0F0
:101330000E9B002B04D001370D9BFFB29F42F0D9CA
:10134000069B3100F2184548FFF7BCFE322001F041
:1013500020FF3200089B04994148FFF7B3FE32207A
:1013600001F017FF29003F48FFF7ACFE322001F0E3
:1013700010FF11B0F0BD039B2C22FB180B936B46A2
:101380009B18187801210C9B9847002848D1029B94
:10139000099A0136934204D9643B9BB202932E4BC7
:1013A0001B88002C27D0E368089A9B789B1A5A4226
:1013B0005341049AD31804930A9B002B0BD0E26884
:1013C000E368E068039980785B7812787918009078
:1013D0002548FFF777FE1B9B002B02DD180001F06C
:1013E000D8FE039B01330393039B1A9A9342C2DBFB
:1013F000079B013396E7059B089A9B789B1A5A42F4
:101400005341049AD31804930A9B002BE3D0059B05
:1014100016489A78039BD2B2F918FFF753FEDAE721
:10142000022810D10B991248FFF74CFE069B0F9A29
:1014300001330693029B9342CDD264339BB2029355
:10144000054B1B88C7E70338434258412D18C2E7B4
:101450000023C8E7EA54000074FEFF1F6455000033
:101460007C550000AD550000175500003C550000AC
:1014700051550000F0B591B01C0016AB0C911978D5
:1014800017AB05921A7818AB1B7805000D931CABAF
:101490001B780EA80E931DAB1B880F1C09932123EC
:1014A0001B18DB7F08931FAB1B880F9320AB1B78A7
:1014B0000A93914200D9171C059BFFB2002C05D15D
:1014C000002B05D15548FFF7FDFD01E0002BF9D1B8
:1014D000280000252E00524B1B88FFF7F3FD099BC7
:1014E00004950293069500230793079B199A93424C
:1014F00000DC91E00E9B002B04D001370D9BFFB266
:101500009F42F0D9069B3100F2184648FFF7DAFDFA
:10151000322001F03EFE3200089B04994248FFF75A
:10152000D1FD322001F035FE29004048FFF7CAFD09
:10153000322001F02EFE11B0F0BD039B2C22FB18CF
:101540000B936B469B18187802210C9B9847002838
:101550004AD1029B099A0136934204D9643B9BB25B
:1015600002932F4B1B88002C27D0E368089A9B78A6
:101570009B1A5A425341049AD31804930A9B002B96
:101580000BD0E268E368E068039980785B781278B2
:10159000791800902648FFF795FD1B9B002B02DD74
:1015A000180001F0F6FD039B01330393039B1A9A85
:1015B0009342C2DB079B013396E7059B089A9B7811
:1015C0009B1A5A425341049AD31804930A9B002B46
:1015D000E3D0059B03999A78DB781648D2B2DBB248
:1015E0007918FFF76FFDD8E7022810D10B99124840
:1015F000FFF768FD069B0F9A01330693029B934207
:10160000CBD264339BB20293054B1B88C5E70338EA
:10161000434258412D18C0E70023C6E7EA540000B2
:1016200074FEFF1F645500007C550000AD5500009E
:1016300017550000C25500005155000070B50C0050
:10164000160088B00CAA157806A908800A4A05A8D1
:1016500005700A4D12682D684A6004AA167001933D
:10166000009023000020029502F0B2FC002800D078
:10167000022008B070BDC04678FEFF1F7CFEFF1F31
:10168000F7B56A46CB1DDB08DB00D31A02AF9D46D7
:101690000C000500FFF79AFC0021094B02AE1B6805
:1016A0002A00019300943300080003F08BFA040031
:1016B000FFF7BAFC002C00D00424BD462000F2BD88
:1016C00088FEFF1FF0B50027BDB029AC0722390006
:1016D0002000FFF703F8DA4A01253092032219AB04
:1016E00033931BAB34931DAB369321AB389323ABB1
:1016F000399325AB3A9327AB15A91FAE38003B931E
:1017000030AB1A713291189325703594379601F0E9
:1017100059FF280001F056FF8022CA4B12021A60BE
:1017200001F056FD3B003A0039003800009501F009
:1017300029FAC54A2B000221C44801F06DFD290099
:10174000280001F075FD380003F06AF89C21C04BB9
:1017500038002D9308AB5B181F80023108AB5B1873
:101760002DA91F702E9503F087F82A00390015A8BF
:10177000FEF7B4FF5820299B08A91D93A2880918D9
:101780000A80A279023008A909180A7003220638D3
:1017900008A909180A701F93A2880C38B280A27990
:1017A00008A9B271052232701993A28809180A801B
:1017B000A279023008A909180A700222063808A97D
:1017C00009180A701B93A2880C3008A909180A800E
:1017D000A279023008A909180A700422063808A95B
:1017E00009180A702193A2881C3008A909180A80D8
:1017F000A279023008A909180A700822063808A937
:1018000009180A702393A2880C3008A909180A80C5
:10181000A279023008A909180A700921063808AA15
:10182000121811702593A3880C3008AA121813807F
:10183000A379023008AA121813700A23063808AADE
:10184000121813707C2208AB9B181F7018AA2B006B
:1018500033A801F03BFF7F48FFF734FC7E497F4807
:1018600002F04EF97E4C2000FFF72CFCC0237D4A8D
:101870009B0013607C4A7D4813607D4A1360FFF72C
:1018800021FCFFF711FB2000FFF71CFCE1211D20CC
:10189000C90000F061FDFA214020090100F0A2FF1B
:1018A000744B75481D70FFF70DFC744B74481C7821
:1018B0001F70FFF707FC714BE4B21C70714C01F014
:1018C00051F90500012001F064FC002D19DA013CFA
:1018D000002CF4D16C4B2100188815AA80B2FFF7B8
:1018E0002DFC9622694B5200210008201A6000F05E
:1018F0007FFC071E02D06648FFF7E4FB6548FFF750
:10190000E1FB65480026FFF7DDFB00F015FE05232F
:101910000E960D930023594A5B4C137020883100BA
:1019200015AA80B2FFF70AFC5C48FFF7CBFB5C48C6
:10193000FFF7C8FB5B48FFF7C5FB5B48FFF7C2FB3F
:101940005A48FFF7BFFB5A48FFF7BCFB5948FFF75F
:10195000B9FB5948FFF7B6FB5848FFF7B3FB5848A7
:10196000FFF7B0FB31000D9A5648FFF7ABFB564826
:10197000FFF7A8FB5548FFF7A5FB5548FFF7A2FB6B
:101980005448FFF79FFB5448FFF79CFB5348FFF771
:1019900099FB5348FFF796FB5248FFF793FB5248D9
:1019A000FFF790FB5148FFF78DFB5148FFF78AFB8B
:1019B0005048FFF787FB5048FFF784FBFFF73CFCDC
:1019C000FF21050001400A2900D1A4E30800503896
:1019D0002A2800D9DFE0FFF7B9F89903DE009DFF60
:1019E000DE00DE00DE00DE00DE00DE00DE0097034B
:1019F000DE00DE00DE00DE00DE00DE009500E0003E
:101A0000F20002010C0115014F015A01DE006B01C9
:101A1000EB01F801F80133029DFF3602DE004202BD
:101A20004B02E3024803DE00DE005503DE005D03E7
:101A3000324B0E9301236CE7314B0E93022368E780
:101A4000950E00001C02002064FEFF1FECFEFF1F2D
:101A5000E0070100DD55000098FEFF1F90FEFF1F0C
:101A6000205600000090145404901454FA550000BD
:101A700008901454CCFFFF1F1B560000CDFFFF1F22
:101A800027560000B80B000074FEFF1F78FEFF1FF2
:101A900046560000A3560000D55600001957000016
:101AA00023570000405700005C57000078570000A3
:101AB00095570000BC570000DB5700000758000096
:101AC000325800005558000084580000A05800000B
:101AD000C4580000E85800000F59000037590000B2
:101AE000555900007259000091590000B05900008A
:101AF000CA590000F5590000205A0000BCFFFF1F22
:101B0000C4FFFF1FDD48FFF7DDFADD48FFF7DAFA13
:101B1000DC48FFF7D7FADC48FFF7D4FADB48FFF7D9
:101B2000D1FADB48FFF7CEFADA48FFF7CBFADA480A
:101B3000FFF7C8FAD948FFF7C5FAD948FFF7C2FA44
:101B4000D848FFF7BFFAD848FFF7BCFAD748FFF7E5
:101B5000B9FAD748FFF7B6FAD648FFF7B3FAD6482E
:101B6000FFF7B0FAD548FFF7ADFAD548FFF7AAFA64
:101B7000D448FFF7A7FAD448FFF7A4FAD348FFF7F1
:101B8000A1FAFFF759FBFF210140352900D14FE7AA
:101B9000362900D150E7CE480EE0CE48FFF792FA42
:101BA000FFF765FBCC4BCD4A18601968914201D113
:101BB000CB4A1A601968CB48FFF784FAAAE6CA48EC
:101BC000FFF780FAFFF753FBC84BC44A1860196847
:101BD000914201D1C24A1A601968C548ECE7C5486C
:101BE000FFF770FAFFF743FBC34B18601968C3484F
:101BF000E2E7C348FFF766FAFFF724FB060001009F
:101C0000C048D9E7C048FFF75DFAFFF71BFBBF4D9F
:101C1000010004002800FFF755FABD48FFF752FA0B
:101C2000FFF710FB382208AB9B1801001870280042
:101C3000FFF748FAB748992C37D0A74B2BAD1B6854
:101C40002C802C93B44B1A881B88FFF70DFAB34BEA
:101C500017AA1B6816700293012316A90091002091
:101C60002900019302F0B4F9011E02D0AC48FFF73D
:101C700029FAFFF711FA4DE6AA48FFF723FAFFF712
:101C8000F6FA80B220802188A74889B294E7A74855
:101C9000FFF718FAA64C2000FFF714FA2000FFF710
:101CA00011FAA448FFF70EFAA348FFF70BFA31E642
:101CB0003100A248FFF706FAFFF7BEFA3038431E9C
:101CC0009841C3B29E481093FFF7FCF9FFF7B4FAAE
:101CD000303811909B48FFF7F5F9FFF7ADFA30382F
:101CE000431E9841C3B298481293FFF7EBF9FFF7F0
:101CF000BEFA0F909548FFF7E5F9FFF7B8FA05002F
:101D00009348FFF7DFF9FFF7B2FA04009148FFF7B5
:101D1000D9F9FFF797FA0F9B3200139000938E4882
:101D20002B000D99FFF7CEF97B4B0D9A1B88901E67
:101D30009BB2A4B203281BD8FEF7FEFE023236384F
:101D40000793109B129A06930F9B0A920593119B7F
:101D5000139A049305230293002308927F49804A33
:101D600080480994039501930096FFF783FB80E771
:101D70000793109B129A06930F9B0A920593119B4F
:101D8000139A049331230293002308927649774AE9
:101D900077480994039501930096FFF789FA68E75D
:101DA0007448FFF78FF964E77348FAE77348F8E778
:101DB0007348FFF787F9012420000021FFF7A8F9F5
:101DC00021003C20FFF7A4F9F6E75848FFF77AF91D
:101DD0006C48FFF777F9FFF735FA8C2308A9C91883
:101DE00008706948FFF76EF9FFF741FA8C224A4BF9
:101DF00008A91B888A18EDB20400010012789BB272
:101E00006C2D10D16148FFF75DF90025A54200DB7C
:101E100080E52BAB1A7800230121FF200093FFF708
:101E20000DFC0135F2E75A48FFF74CF90025A542B1
:101E300000DB6FE501212BA8FFF722FC0135F6E757
:101E40002388238866E50021022000F0D1F9071ECF
:101E500000D15FE54F48082F00D15BE525E7002161
:101E6000082000F0C5F94C48002F00D152E51CE7CE
:101E70002E48FFF727F9494817E7C046335A0000B4
:101E80003E5A00007C5A0000BE5A0000FF5A000073
:101E90003F5B00006F5B0000AA5B0000E95B000095
:101EA000275C0000645C0000A25C0000DF5C0000B6
:101EB0001C5D00005C5D00009B5D0000D85D0000C3
:101EC000155E0000505E00008D5E0000CA5E0000DE
:101ED000DE5E0000FA5E000078FEFF1F0F270000A4
:101EE00010270000285F0000485F000084FEFF1FED
:101EF000765F0000905F00008CFEFF1FBF5F000058
:101F0000DA5F000010600000276000005A600000E7
:101F1000706000009960000074FEFF1F7CFEFF1FD0
:101F2000BF600000E060000019610000486100002F
:101F300076610000A6610000D76100000962000020
:101F4000436200006C62000085620000C462000011
:101F5000F06200002863000059630000F1270000D0
:101F6000C4FFFF1F9663000091230000BCFFFF1F0A
:101F7000B3630000C1630000EC630000176400005D
:101F8000486400006B6400008A640000AA640000DA
:101F9000F564000040650000465600009E650000A4
:101FA0002BA9002001F0D6FAFA212B988900FEF720
:101FB000D7FD01005948FFF785F801F01DFD01002C
:101FC0005748FFF77FF801F0B1F901005548FFF7D6
:101FD00079F8554B554819684B1E9941FFF772F82F
:101FE000002001F00EFB01005148FFF76BF80020C4
:101FF00001F016FB01004F48FFF764F8002001F0E4
:1020000014FB01004C48FFF75DF8002001F0E2FAF4
:1020100001004A48FFF756F8012001F0DBFA010001
:102020004748FFF74FF8474B474819684B1E9941FF
:10203000FFF748F8002001F0D5FA01004348FFF708
:1020400041F8434B434819684B1E9941FFF73AF852
:10205000414B424819684B1E9941FFF733F8002065
:1020600001F0E8FA01003E48A6E50E9B3D48002B32
:1020700000D11AE63C48FFF725F8FFF7E3F80E9B7E
:10208000587047E43948FFF71DF8394801F081F8E6
:1020900038480AE63848FFF715F8FFF7E8F881B244
:1020A0003648FFF70FF83648FFF70CF8FFF7C4F88B
:1020B000C4B2683C604244413248FFF703F801F083
:1020C00023F80121002000F04DF901210500002036
:1020D00000F098FB2D182C48FEF7F4FF2B48FEF774
:1020E000F1FF2B48E4B2FEF7EDFF200000F08EF97F
:1020F000200000F09DFB29002648FEF7E3FF00F0DA
:1021000031FD7128F1D1B4E52348CEE52348FEF72F
:10211000D9FF2348C9E52348C7E5C046CA65000082
:10212000DC650000F26500003C80845E19660000FA
:102130002A6600003B6600004C66000060660000F6
:10214000746600003C8004508866000099660000B8
:1021500034808459AA6600003480045ABB660000AB
:10216000CD660000DE6600001C67000054670000BA
:1021700010270000736700007D670000C96700003A
:10218000FF67000025600000286800004A68000022
:1021900024600000ED650000816800009768000081
:1021A000B9680000E46800001FB5040001A9002020
:1021B00002F08AFB694601A802F0C4FA009B684657
:1021C0001C1901A9009402F045FA012201A900207E
:1021D00002F0A6FB1FBD00000022034B1A60802204
:1021E000024BD205DA67704700901C5804E100E00A
:1021F00070B50D000A2408281CD8FEF79DFC051DAB
:102200002A3F546771795C0001F0F6FB0524012830
:1022100010D0FFF7E1FF2800FFF7C6FF00210800FC
:1022200001F076FA01210400002001F001F8002CF1
:1022300022D10024200070BD01F0DEFB062401281D
:10224000F8D0FFF7C9FF2800FFF7AEFF00210120FB
:10225000E6E701F0D1FB08240128EBD001F066F895
:10226000002803D00121002000F0E2FF002102201D
:1022700001F04EFA0028DCD00924DBE701F0BCFBBA
:1022800007240028D6D0FFF7A7FF2800FFF78CFF10
:102290000021032001F03CFA040001F0ADFB012114
:1022A0000028C4D1C1E7FFF797FF2800FFF77CFFA4
:1022B00000210420EEE70021082001F029FA041E85
:1022C000DAD10121080000F0B3FFB3E7FFF784FF84
:1022D0002800FFF769FF0021052001F019FACBE77C
:1022E000FFF77AFF2800FFF75FFF00210620F4E7E1
:1022F000FFF772FF2800FFF757FF00210720ECE7E8
:10230000F0B506000D00114B89B05A7806AC22805A
:102310000F4A05AF12680792D88880B2FEF7CCFE4C
:102320003E7004AE3570FEF79FFE0A4B3A001B6804
:1023300021000293012300200193009601F048FE42
:10234000002800D0022009B0F0BDC046BCFFFF1F2E
:1023500078FEFF1F7CFEFF1F014B5870D98070472D
:10236000BCFFFF1F70B50400084B0D00D88880B279
:10237000FEF7A2FE21000920FFF7C2FF290004009A
:102380002A20FFF7BDFF2043C0B270BDBCFFFF1F76
:1023900070B588B06A46184B04001B780E001375A0
:1023A000182822D8C31F0320012B23D9134B06ADB5
:1023B0005A782A80124A12680792D88880B2FEF7AB
:1023C0007BFE6B461C75FEF74FFE0E4B29001B680B
:1023D000002002930C4B0196009305AA012301F003
:1023E00004FE002806D0022004E023001D3B032049
:1023F000142BDBD908B070BD3C690000BCFFFF1F87
:1024000078FEFF1F7CFEFF1FBEFFFF1F70B5324C22
:102410000500E08880B2FEF74FFE02210120FFF7A1
:10242000B7FFA178E278C9B2D2B200281DD02B48FC
:10243000FEF748FE02210320FFF7AAFFA178E27809
:10244000C9B2D2B2002822D02448FEF73BFE0221B6
:102450000520FFF79DFFA178E278C9B2D2B200282B
:1024600027D01E48FEF72EFE70BD002D03D01C485D
:10247000FEF728FEDEE79208890111438022194BFE
:10248000920151401848C918FEF71CFED2E7002DF2
:1024900003D01348FEF716FED9E7920889011143CD
:1024A0008022104B920151400F48C918FEF70AFED6
:1024B000CDE7002D03D00A48FEF704FED4E79208CA
:1024C000890111438022074B920151400648C918E7
:1024D000FEF7F8FDC8E7C046BCFFFF1F3E690000DD
:1024E0004569000000E0FFFF5569000037B50E2583
:1024F000FF350400280001F01DFB0A2000F049FE12
:10250000280001F025FB0C2001F022FBFA23084AE9
:102510009B00147000210193012308000093054BD8
:1025200002F050FB0400280001F004FB20003EBD37
:102530008C0000206C000020C02310B58024704A5D
:102540009B0013606F4A64001360FEF73FFD6E4B03
:1025500020001C606D4B1C606D4B1C6001F0EAFAA2
:10256000642000F016FE200001F0F2FA642000F072
:1025700010FE200001F0DEFA642000F00AFE65493A
:10258000002000F0E3FAAE20FFF7B0FFA020FFF735
:10259000ADFF7220FFF7AAFFA120FFF7A7FF0020E1
:1025A000FFF7A4FFA220FFF7A1FF0020FFF79EFF87
:1025B000A420FFF79BFFA820FFF798FF3F20FFF71D
:1025C00095FFAD20FFF792FF8E20FFF78FFFB02021
:1025D000FFF78CFF0B20FFF789FFB120FFF786FF85
:1025E0003120FFF783FFB320FFF780FFF020FFF7D4
:1025F0007DFF8A20FFF77AFFFF20FFF777FF8B2010
:10260000FFF774FFFF20FFF771FF8A20FFF76EFFCF
:10261000FF20FFF76BFFBB20FFF768FF3E20FFF7AF
:1026200065FFBE20FFF762FF3E20FFF75FFF8720B8
:10263000FFF75CFF0F20FFF759FF8120FFF756FFE0
:10264000FF20FFF753FF8220FFF750FFFF20FFF727
:102650004DFF8320FFF74AFFFF20FFF747FFAF2022
:10266000FFF744FF2C49002000F070FA2620FFF706
:102670003DFF0120FFF73AFF2849002000F066FAED
:102680002520FFF733FF0020FFF730FF0020FFF782
:102690002DFF5F20FFF72AFF3F20FFF727FF20498C
:1026A000002000F053FA1F48FEF70CFDAF20FFF7A3
:1026B0001DFF2220FFF71AFF0020FFF717FF002061
:1026C000FFF714FF5F20FFF711FF3F20FFF70EFF1A
:1026D0000020FFF70BFF3F20FFF708FF0020FFF768
:1026E00005FF0020FFF702FF3F20FFF7FFFE00205D
:1026F000FFF7FCFE0C49002000F028FA002010BD76
:10270000209014542490145434A014543090145431
:1027100000A014545A69000074690000BC690000EC
:10272000DB690000F9690000186A0000F0B50D00CF
:102730000700124B89B05A7806AC2280104A04AECA
:1027400012686DBA0792D88880B2FEF7B5FC377070
:1027500005AF3D800225FEF787FC0A4B32001B685F
:1027600021000293002001230195009701F030FC25
:10277000002800D0280009B0F0BDC046C4FFFF1FEC
:1027800078FEFF1F7CFEFF1FF0B5134B89B05A780F
:1027900006AF3A80114A0400126802260792D888D0
:1027A00005AD80B2FEF788FCFEF75EFC0C4B3900ED
:1027B0001B6801960293002300951A00180001F08F
:1027C00014FC002806D12A786B7812021343238068
:1027D00009B0F0BD3000FBE7C4FFFF1F78FEFF1F0C
:1027E0007CFEFF1F014B5870D9807047C4FFFF1F4C
:1027F000032310B5052803D80800FFF7C5FF030021
:10280000180010BD70B50400084B0D00D88880B2C8
:10281000FEF752FC21000020FFF788FF290004008A
:102820000520FFF783FF2043C0B270BDC4FFFF1F28
:1028300037B5274B0500D88880B2FEF73DFC6B46C4
:102840009C1D2000FFF7A0FF00281BD02148FEF7A9
:1028500039FC2000FFF798FF00281CD01D48FEF728
:1028600031FC2000FFF790FF00281FD01948FEF729
:1028700029FC2000FFF788FF002820D01648FEF72B
:1028800021FC37BD21881548002D01D1144809B21B
:10289000FEF718FCDDE721881048C9082180002DCB
:1028A00001D110488900FEF70DFCDAE721880B48BA
:1028B000002D01D10C4809B2FEF704FCD9E72188AC
:1028C0000A48002D00D10A48FEF7FCFBD9E7C046B4
:1028D000C4FFFF1F3E690000516A0000386A000013
:1028E00055690000416A0000496A0000576A00000B
:1028F0005F6A00000369C268934201D880681B18B0
:10290000013B981A7047F7B58368C46801931F1B91
:10291000436805000E001819A418974207D83A001A
:10292000FDF788FE019B6868E41A2200F119FDF7A3
:1029300081FEEC60F7BD0023F7B506001700C568FF
:10294000019100933369B4689D421FD2013B5B1B28
:10295000641BBC4200D93C009C4200D91C00736837
:10296000220058190199FDF765FE009B2D191B19CE
:102970000093019B3F1B1B190193B368AB4200D12D
:102980000025F560002FDDD10098FEBD1B19DDE7A5
:10299000022310B50F4C104A236163610F4BA261F3
:1029A000E3616423A2640E4A2362E26400230422EA
:1029B000A3626362E362A3656365E3652265094917
:1029C000E01DFDF7ADFF20000749FDF7A9FF20231B
:1029D000A37110BDAC000020666A00002801002031
:1029E000240100206F6A0000736A0000F0B5274BD5
:1029F00085B01B780E0002900192002B01D1FFF7E9
:102A0000C7FF1823029A00255343204AD3185A6D52
:102A10009C6D0392944219D91B6D019D1B1B9D4215
:102A200000D91D001827029B30005F43174B2A0076
:102A3000DF19FB6C76191919FDF7FCFD019B641970
:102A40005B1B01933B6DA34200D10024039B019FBC
:102A50001B1B9F4200D91F00002F0CD01823029A85
:102A600030005343094AED19D318D96C3A000919BB
:102A7000FDF7E0FDE419002D05D01823029A034864
:102A80005343C0188465280005B0F0BDAC00002099
:102A900010B50B00EFF31084012181F310881900A9
:102AA000FFF7A4FF84F3108810BD0000F8B51600EE
:102AB0001822451C55434243164B0F005D199B18C5
:102AC000DC6A012C10D0022C1BD0002C1FD1280056
:102AD000FFF710FF864205D8320039002800FFF7C3
:102AE00012FF34002000F8BD2800FFF703FF340078
:102AF000864200D90400220039002800FFF703FFB6
:102B0000F0E732002800FFF716FF0400EAE7002490
:102B1000E8E7C046AC000020F8B50B4B04001B787A
:102B20000E001700002B01D1FFF732FFEFF31085E5
:102B3000012181F310883A0031002000FFF7B6FF31
:102B400085F31088F8BDC046AC00002070B50500C4
:102B500008000C00FDF7ECFE210002002800FFF742
:102B6000DBFF70BD13B56B46DC1D01222100002088
:102B7000FFF78EFF012801D1207816BD01204042C9
:102B8000FBE70000F7B5164C0193237805000F0012
:102B90001600002B01D1FFF7FBFE2369AB421CD9C5
:102BA000EFF31082012181F31088002D0CD018233F
:102BB000691C59436B43675061184E600199E318D3
:102BC000196200219962596218204543089B6419D3
:102BD000E36282F310880020FEBD01204042FBE743
:102BE000AC000020826810B504004068531C83428A
:102BF00005D820688154A360E3680133E360A268CC
:102C000063689A4209D121682069FFF785FFA368AC
:102C1000984203D001235B42E36010BD0023A36010
:102C2000FBE70000F0B5050017000800012685B09D
:102C30000A9C02910093B84219D2009A01969642DA
:102C400000D2019201230B9A1A4003920B9A1A4266
:102C500002D1002C10D10024EB680126002B4BDBA5
:102C6000009B012B1FD9013B00937E43F8E73900FD
:102C7000FDF776FF0136DEE70B9B20269B0704D588
:102C8000009B1036002B00D0103E019BA342E3D2E4
:102C900031002800FFF7A6FFEB68013C002BDBDBCF
:102CA000002CF2D1D7E731000298FDF759FF874297
:102CB000DBD902983100FDF7D9FF114B0291195C65
:102CC0002800FFF78FFFEB68002B05DB3900300091
:102CD000FDF746FFBE4211D2039B002B0CD0002C07
:102CE0000AD0019BA34207D220212800FFF77AFFD8
:102CF000EB68013C002BF2DA05B0F0BD0600D8E726
:102D00007A6A0000F0B58FB007900E001800149991
:102D100015000693FDF722FC069B079A0993149B66
:102D20000D920A9300230B930C93317801360029FE
:102D300007D10C9B0293002B00DD09E10C980FB02A
:102D4000F0BD252900D0B3E000270822042006E0CA
:102D5000302B0DD1022300E001231F430E003378F6
:102D6000711C2D2BF8D0F3D8232B10D02B2B0CD08B
:102D700000240A213378721C18003038092808D83A
:102D80004C43303C16001C19F4E70743E6E71743B1
:102D9000E4E7002102912E2B0ED116000A20327892
:102DA000711C1300303B092B06D8029B0E004343D5
:102DB000303BD3180293F2E7042331780A0001363E
:102DC0009A43682A01D13178F8E7782909D86F2920
:102DD0000BD8632967D017D8252969D0582900D185
:102DE00095E00C9B002BA0DAA3E7703908000829B6
:102DF000F7D8FDF7ABFEA500F6FFF6FF9400F6FF4F
:102E00008300F6FFF6FF8C006429EAD12B681A1DB7
:102E10001B682A60DA179818039301235040049323
:102E2000092849DC029B049A0593934200D205923B
:102E3000002C05D0039B002B01DB7B0700D5013C58
:102E400002231F4202D0029B002B05D001231F4208
:102E500002D1002C36D100240C9B0493002BC0DB44
:102E6000039B002B3ADA2D215B42039309A8FFF75D
:102E7000B9FE0C9B002BB4DB03233B40022B05D196
:102E8000029B002B02D1002C2CD100240C9B04931C
:102E9000002BA6DB0A22029B03990197009409A844
:102EA000FFF7C0FE9DE72B6819681A1D2A60C9B29A
:102EB00009A8FFF797FE94E70A21FDF7DBFE049BC4
:102EC0000133ACE7059BA342C6D2202109A8FFF736
:102ED00089FE0C9B013C002BBBDABDE77B07C8D504
:102EE0002B21C3E7059BA342D0D2302109A8FFF7CD
:102EF00079FE0C9B013C002BC5DAC7E70A22296842
:102F000001970B1D2B60029B00940968C7E7296895
:102F100001970B1D2B60029B00941022F5E72B6894
:102F20001A1D2A601C6821780134002900D158E755
:102F300009A8FFF757FE0C9B0293002BF3DA50E72A
:102F400029680B1D2B600023019308330093E4E7ED
:102F50000B9A002A03D006990798FFF7DDFD0C9B1A
:102F600002930B9B0393039A029B944663440C9336
:102F7000E4E610B5002000F0F9FD10BD10B500200A
:102F800001F02CFD10BD10B5002001F005FA10BDB8
:102F9000082310B5164A9178194202D091780B4354
:102FA0009370882100222220124B49015A50124965
:102FB000124C08708020124940025850196811487C
:102FC00001401960195910480840C0218904014383
:102FD000195180210D4B1A7219767F391A70597068
:102FE0000B490A700C3299791142FCD110BDC046D0
:102FF00000D007400070044000E0074004100000CB
:1030000044100000FFFFF3FFFFFFFFF00040064009
:10301000005006401249134810B5814205D00022E5
:10302000114B9B089B009A420FD1104B104A99609C
:10303000002310491048521A9A420AD100210F4B1E
:103040000F4AD21A013A08D210BD84588C5004326B
:10305000E9E7CC5CC4540133EEE719700133F1E7C2
:1030600000000000000000000000000000ED00E093
:10307000F06C0000EC6B000000FEFF1F04FFFF1F60
:103080002C020020030041700020187058609860E6
:10309000704710B5437804000120FF2B08D000F0E2
:1030A000DDFA63780133DBB2637000F0CBFA002005
:1030B00010BD0020704770B504000D0000F0CEFA7E
:1030C000E1682943E16000F0BDFA002070BD000016
:1030D00000220A4B9A641A0040329A631A00303276
:1030E0009A621A0020329A611A0010329A60044AD9
:1030F0001360044B9B60DB607047C046900100206A
:103100008C010020E00100200022024B1A601868A8
:1031100080B270470C007C5070B5437804000D00FD
:10312000002B0BD0002500F099FA6378013BDBB24D
:103130006370257000F086FA280070BD0220002917
:10314000FBD02378002B17D0FFF7DEFF6368A2685F
:10315000834204D8C01A824206D30320EDE7C01A86
:1031600080235B02C018F6E700F078FA0023237092
:1031700000F068FA0220E0E74B1CEED000F06EFA97
:103180000123237000F05EFAFFF7BEFFA5606060C8
:10319000E3E770B50500FFF7B7FF8026040076026D
:1031A000FFF7B2FF0300844203D8031B9D42F7D20E
:1031B00070BD301BC318F9E710B5012801D100F02C
:1031C0004DFA10BD10B5012801D100F03BFA10BD39
:1031D00010B5FFF77DFF01230020084A084913605E
:1031E000084A094C1060086004212160074C2160E6
:1031F00007490B6007490860136010BD3880045010
:1032000000008450000004500000045104000451E8
:1032100004000C500000045310B5044C20602171D0
:103220000020A2602373637310BDC046F00100202C
:103230000422F0B587B005AC3B4E0190029120709E
:10324000617033790092834226D90022337B1500C6
:10325000737301230092A3700393334F3B7BAB4204
:103260001DD8009B002B02D0029B012B48D10120CE
:10327000FFF7A2FF0C20019B002558433368181864
:1032800000F0D6F8019B012073710226FFF79AFF28
:10329000A6703B7BAB421AD8009807B0F0BDBA6865
:1032A000AB009B58002B0FD01A7903990A420BD020
:1032B00020001A6899689047002805D0029B7D730A
:1032C000002B1BD0052300930135EDB2C5E7BA688A
:1032D000AB009B58002B0ED01A7932420BD0200045
:1032E0001A6899689047002805D0029B7D73002BCF
:1032F00017D0062300930135EDB2CAE705230093EA
:103300000023A370013DEDB2FF2DC5D0064BAA00EE
:103310009B68D358002BF5D020001A689968904715
:10332000F0E706230093B7E7F0010020014B58793E
:103330007047C046F001002013B50400002021783A
:103340000190022920D0032922D0012925D12279F8
:1033500001AB144801F00AF9002814D1A3795A1ED0
:103360009341114ADB01137063785A1E93410F4A4F
:103370005B001370A2780E4B1A70E2780D4B1A7036
:1033800062790D4B1A7016BD0100227901ABE0E79E
:1033900001A9044801F02CF9DEE701A9014801F078
:1033A000C9F8D9E7004006401840865300408650CF
:1033B000004006500140065018401650084A430984
:1033C0009B009B18F822C00512051040184380236B
:1033D0005B0518430068431E9841C0B27047C04661
:1033E00028800440074A43099B009B18F822C00527
:1033F00012051040184380235B0518430023036027
:103400007047C04628800440F821084A43099B00C1
:103410009B180905C2050A40134380225205134335
:103420001F2210401E3A82401A60704728800440D4
:10343000072373B5009300230400104D1A000121E7
:10344000280001F0BDFA2000FFF776FF637A28001C
:1034500000930023217A1A0001F0B2FAE379084AB6
:103460009B041360074BA17A1D68280001F0DCF86B
:103470002800E17A01F0E7F8002076BD00700440F2
:1034800000700C59E46A000010B5054801F012F80C
:10349000044B1968C9B20131FDF762FB10BDC0468B
:1034A0000040064044801C5E10B5FFF7EDFF10BDE4
:1034B00010B5054800F0FEFF044B1968C9B2013190
:1034C000FDF74EFB10BDC046004006404480145836
:1034D00010B5FFF7EDFF10BD0B4B1B68DBB2022BE5
:1034E0000CD0032B0DD00020834206D1074A106870
:1034F00080221202904200D018007047044B1868D6
:10350000FBE7FA208000F8E700700C591C0200204D
:103510002002002010B5FFF7DFFF10BD054B10B5EE
:10352000186801F088F80023984201D0024B1B680C
:10353000180010BDE46A00001C020020044B0120AA
:103540001B6810B5DBB2002B01D0FFF7E7FF10BD01
:103550000480045210B50C0012282AD8FDF7ECFAAA
:103560000A0A0A0F290F12152929181B29292929A6
:103570001E222600FFF788FF2060002010BDFFF705
:1035800097FFF9E7FFF7A8FFF6E7FFF7C7FFF3E7B5
:103590000A4B2360F1E7FFF7D1FFEDE7084800F0A1
:1035A00089FFE9E7064800F06FFFE5E7FA239B0093
:1035B000EFE7002302202360E0E7C046006CDC0256
:1035C0000040064010B5024B185CFFF71DFF10BD10
:1035D0008A6A000010B5024B185CFFF7EFFE10BDC1
:1035E0008A6A000010B5BB20FFF7E8FE10BD10B5D9
:1035F0007620FFF709FF10BD10B57620FFF7F2FE29
:1036000010BD10B57620FFF7D9FE10BD10B56620AD
:10361000FFF7FAFE10BD10B56620FFF7E3FE10BD00
:1036200010B56620FFF7CAFE10BD10B59420FFF755
:10363000C5FE10BD10B5024B185CFFF7BFFE10BDF4
:103640008C6A0000044A1368002B04D0013B13600D
:10365000002B00D162B670470002002072B6024A09
:1036600013680133136070470002002010B5064C48
:10367000064801F037FC042801D1002010BD013CB0
:10368000002CF5D10320F9E7EA03000000E0074031
:1036900010B50B4B0B490A78002A07D0084C0A4892
:1036A00001F020FC012806D1002003E0013B002BA3
:1036B000F1D1032010BD013C002CF0D1F9E7C04648
:1036C000EA03000002D0075100E00740F7B5070009
:1036D0000E00150001200193002F15D0002913D0F2
:1036E000FFF76AFD094C102200212000FCF7F6FFCD
:1036F00027602671002D03D0019BA560237363739F
:103700000120FFF75FFD0020FEBDC046040200203F
:10371000F0B5B14C8DB002900391237B012063730F
:10372000FFF74AFD2379029A934206D80120FFF75A
:1037300049FD022738000DB0F0BD029A23689200BF
:10374000D35809AC1D780193039B2A002372029B76
:103750002370019B636002239A430492012A01D0E3
:10376000052D0AD101219D4801F010FB002807D149
:103770000120FFF727FD0127DCE70321072DF2D801
:103780000123002763723C000593934E337BA342D1
:103790002AD80120FFF716FD914800F0AFFE049BE8
:1037A000012B4AD10138022835D9039B012B00D0C7
:1037B0000DE106270120FFF7FFFC0023012609ADDC
:1037C0006B72013CE4B2FF2C00D1AFE0824BA2004F
:1037D0009B68D358002BF4D01A793242F1D02800DC
:1037E0001A6899689047ECE7B268A3009B58002BD1
:1037F0000ED01A7905990A420AD01A68996809A860
:103800009047002804D0039B04277473012BC0D178
:103810000134E4B2B9E7FFF75BFE724B9842C4D8BB
:10382000FFF732FE704EB042BFD8FFF741FEB04204
:10383000BBD8FFF739FEB042B7D8039B012B00D0AD
:10384000C1E00A2D00D9BCE02800FDF775F9060A91
:103850000D1E879A7B822F737800002207AB1A70A7
:103860002DE0032207ABFAE75C4801F03BFB01289F
:1038700008D00021594801F099FAFFF709FF071E07
:1038800000D057E7012207ABE9E7544801F02AFBD3
:10389000042808D00221514801F088FAFFF7E6FE1B
:1038A000071E00D046E7042207ABD8E7072207AB84
:1038B0001A80019AD2789A70019A1279DA702B00E4
:1038C000083B022B06D8019B06AA5B799372019BE9
:1038D0009B79D372019B5B78002B0AD0012D08D90C
:1038E000019B02229978414B00294DD019690A4366
:1038F0001A613A4807A901F07DFA002800D0032791
:10390000002D45D1FFF7C4FE071E00D012E70027A7
:103910000120FFF751FC029B2F4D0024AB730223C3
:1039200009AE737201932B7BA34236D80120FFF7B7
:1039300049FCFFE6082207ABFF321A80BFE72C4A9A
:1039400007ABFAE7022207AB1A700222FF329A8015
:10395000B5E7022207AB1A70264AF8E7022207AB46
:103960001A70013A1D489A8001F0BCFA0128A6D0CD
:1039700000211A4801F01AFAFFF78AFE071E9ED0AE
:10398000D8E6052207AB6AE7196991431961B0E7E8
:10399000012DBDD1FFF76AFEB6E7AA68A3009B58C8
:1039A000002B0BD01A7901990A4207D030001A680F
:1039B00099689047002801D005276C730134E4B260
:1039C000B1E70327B6E6002F00D13AE7F2E6002F71
:1039D00000D0EFE6EDE6C0460402002000E007401C
:1039E0000040064040420F0080841E0000ED00E0D1
:1039F000070300000102000010B5064801F072FA4A
:103A000003000020012B03D00B30042B00D10A3817
:103A100010BDC04600E00740F7B5FF2403681D4A0B
:103A20001E0A26401C40B3009F581B4A05009B58A5
:103A300030000193FFF7C6FD00222100380001F09D
:103A400059FA019BA400E41884232A795B052343D7
:103A500052001A6080236A795B0523431A60902321
:103A6000AA795B05234312011A600C4B1C43EB79C6
:103A70001B042360EB79002B0AD0094B9B57002BCA
:103A800006D01F2213401E3A9A401300054A1360C5
:103A9000F7BDC046E86A0000F06A00000000181890
:103AA000F86A000000E100E0F8B5FF2405000368B3
:103AB000114A180A20401C4083009F580F4A9E5804
:103AC000FFF780FD38002100012201F013FA6A6837
:103AD0002100380001F01DFA88232A7AA400A419D5
:103AE0005B05234392001A6098235B051C436B7AA5
:103AF0009B012360F8BDC046E86A0000F06A000040
:103B000070B50C00002807D1002C0FD170BD050046
:103B10000835FFF781FF280003680133F7D1F3E789
:103B2000250020000C35FFF7BFFF2C002368013370
:103B3000F6D1EBE7FF22030A044913409B005958D2
:103B40000123104083404B607047C046E86A000084
:103B5000FF22030A044913409B00595801231040D7
:103B600083408B607047C046E86A0000084B8200C3
:103B7000D258942310B502325B0513431B78002BF7
:103B800002D000F03FFA10BD00F092FAFBE7C04609
:103B9000906A0000020080230C325B0513431A7800
:103BA000002AFCD00171704770B50D00084B8000F1
:103BB000C458200029001830FFF7AEFA0328F8D0C7
:103BC000002801D004232374207CC0B270BDC046FD
:103BD0001402002010B5104B8000C458E37C002B69
:103BE00005D0237C052B02D0237C042B0BD10B4B5F
:103BF00018589823821C5B05134300221A7001F0A9
:103C0000F7F901236374A37C002B03D02000183044
:103C1000FFF73FFA10BDC04614020020906A000072
:103C2000F0B51700002289B005930EAB1B78050094
:103C30000393830032481E5832481C5807AB1A8041
:103C4000A37C880A04930223FF3363828B0A0193C7
:103C5000CBB21E2801D11A000B0A5B00D8B2019B1F
:103C600000211E2B05D08F4203D1012303995B1A3B
:103C700059B20143CBB202930299019807AB197074
:103C800001211E2801D15A704918A3603000E1605B
:103C90000299FFF77FFF28000F99FFF785FF237C2C
:103CA000002B0CD1002F0AD0059BA760E3603000E9
:103CB0003978FFF76FFF28000F99FFF775FF237C16
:103CC000039A1A4314D1019B1E2B01D0002F0FD051
:103CD000002301273000A360E76001F077F9029923
:103CE00030003943FFF756FF28000F99FFF75CFFBC
:103CF0000023207CE374049BC0B2A37409B0F0BD20
:103D0000906A000014020020F7B583000193184B5D
:103D10008200D75805000C000126002F26D1154B34
:103D20003900D358200024220193FCF7D7FC20004F
:103D300039001830FFF7A6F92800FFF767FC019853
:103D400001F0EFF80A4BAA00D4501F220A4B5B5D2A
:103D5000134032009A40094B1A609C22019B520585
:103D600002331343802266743E001A703000FEBD99
:103D700014020020906A0000946A000000E100E054
:103D8000F7B50E4E8500AB59002701930C4B04008C
:103D9000EA589C2302325B0513431F70FFF73BFC7C
:103DA000084B01981A5D1F231A401E3B9340064A98
:103DB0001830D367FFF77DF9AF51F7BD140200202B
:103DC000906A0000946A000004E100E00A4B800061
:103DD00070B5C5584B686A690C0093420BD0074B0D
:103DE000C658FFF765FB002301006268300001F050
:103DF000A7F863686B6170BD14020020906A000030
:103E0000F0B587B004920593334A0FAB1E78830058
:103E10009C580391627C0700002A03D10320207480
:103E200007B0F0BD002E01D11E220E922B4A3800A1
:103E3000D55800230399E360A3602374236063745F
:103E4000A674FFF7C3FF90231021AA1C5B05134340
:103E500019708423E91C5B050B4302211970982318
:103E60005B05134302934023029A2800137001F06C
:103E7000ADF8039B380019880E9B049A0193012327
:103E80000093059BFFF7CCFE0D9B002B17D0237CE6
:103E9000002B11D10C9B2800A3600D9BE3600C9BB1
:103EA0001978FFF777FE002E03D038000E99FFF740
:103EB0007BFE207CC0B2B3E7237C042BF9D1002326
:103EC0000126029A1370EB785B09334202D0280076
:103ED00001F08EF86674ECE714020020906A00008E
:103EE000F0B589B0079311AB1B780692364A02935E
:103EF00083009C580591627C0600002A03D10320B0
:103F0000207409B0F0BD029A002A01D11E3210922D
:103F100000272E4A0599D5580E9B300023600F9B31
:103F2000A7606360029BE760A37427746774FFF760
:103F30004DFF9023AA1C5B051A43102313708423A2
:103F400004925B05EA1C134302221A709823AA18F4
:103F50005B051A43402328001370039201F036F8E2
:103F6000059B069A1988109B300001930097079BC8
:103F7000FFF756FE237CDAB2BB4215D1049BA91C85
:103F80001A708C235B050B430F99012900D108227D
:103F90001A702B79029B002B03D030001099FFF789
:103FA00003FE207CC0B2ACE7237C042BF9D10126B0
:103FB000039B1F70EB785B09334202D0280001F0AD
:103FC00017F86674EDE7C04614020020906A0000FE
:103FD0001FB501240394089C0294079C0194069C3D
:103FE0000094FFF70DFF04B010BD1FB5012403942A
:103FF000089C0294079C0194069C0094FFF770FFB4
:1040000004B010BD244B70B58400E5588423EA1C2D
:104010005B05134302221A709023A9185B050B431A
:104020001B78EA78DBB292061DD5942252050A432A
:104030001278002A17D0194AA458012B14D1EA7813
:104040001A4204D004332374FFF7C4FD0BE0E36885
:10405000013BE360002BF7D0A36828005A1CA26044
:104060005978FFF797FD70BD6268013A6260002AD7
:1040700006D08C235B05012A0AD000220B4309E0FD
:10408000FFF7A8FD23685A1C22602A791A70EAE714
:1040900008220B431A70F5E7906A00001402002012
:1040A000C31C84204005184302230370704700009E
:1040B0000122F0B5904B8100CD5889B0EB1C0193E3
:1040C000EB7890261B091A4005920122EB787605C1
:1040D0009B091A4002923200AB1D1A439446127893
:1040E0000090D2B20792942252051A431278AF1C64
:1040F000D0B203909820400503431878C0B20690D0
:104100007E480C583100394301910978C9B20491B5
:10411000002A35D0079A002A0ED0102362462800C4
:104120001370FFF7BDFF236B002B52D06A460121AD
:104130001078626B98474CE0069A002A20D0402203
:1041400028001A70FFF7ACFF23002C331B78002BDC
:1041500003D19822520517433B70236B002B04D0E8
:104160006A4680211078626B9847E37D002B04D06B
:10417000200080211830FEF79EFF0A23237028E0DC
:104180002800FFF78DFF059B002B24D0EB1C1E435E
:1041900010233370029B002B10D0EB785B07DA0FF3
:1041A000002B48DB019B1A70236B002B04D06A465E
:1041B00004211078626B98472B790AE0082323705A
:1041C0002C342378002B04D198235B051F43029BDA
:1041D0003B7009B0F0BD029B002BDED1049B012B8C
:1041E00054D1EB78049A134230D0019B029A1A7092
:1041F0002B7923002C331B78002B07D1039B002B3A
:1042000004D198235B051F43039B3B70236B002B5A
:1042100004D06A4608211078626B9847A37D002B72
:1042200004D0200008211830FEF745FF002363600A
:10423000E3602375CDE71023019A1370236B002BE5
:1042400004D06A4602211078626B98476368002B9D
:1042500050D028008022E3680C30520519780243C0
:1042600010780028FCD029710133E3606368013BBA
:1042700063606368002BACD1E3602375236B002B74
:10428000A7D06A4610211078626B53E72B79A26899
:10429000DBB2002A2CD02269137023690133236119
:1042A000A368013BA360A368002B00D091E7039BA8
:1042B000002B11D123002C331B78002B04D1982321
:1042C0005B051F43039B3B70E37D002B04D0200064
:1042D00020211830FEF7EFFE002363752361236B66
:1042E000002B00D175E76A4620211078626B21E728
:1042F000072343E7062341E7906A000014020020E9
:10430000042902D0072907D07047902303305B05AA
:10431000184310230370F7E79C2303305B05184311
:104320008023F7E7DC2270B50024094B8000C558D4
:10433000084B5205C35808331A431460AA7CA242A2
:1043400003D028001430FEF7A4FE2C7470BDC046C4
:1043500018020020986A00000C4B800070B5C55808
:104360000B4B0024C058D42302005B0508321343D2
:104370001C602200074900F05CFEEB7CA34203D0E6
:1043800028002030FEF785FE6C7470BD18020020F6
:10439000986A00001B000200F8B52B4A83009C5865
:1043A0000600227C002A02D1627C002A3ED0274AE5
:1043B000D558DC232F005B051A0008373A431268F2
:1043C000002A15D02A1D13431B68002B10D0A368A8
:1043D000002B0DD023681A780133EA602360A368AC
:1043E000013BA360A368002B02D13000FFF79AFFC6
:1043F000D4235B051F433A68002A0DD02A1D1343BE
:104400001B68002B08D0EB6862681370E36A002B0E
:104410000DD021003000984728000D4900F04AFED9
:10442000002803D028000A4900F048FEF8BD636860
:1044300001336360E368013BE360E368002BEBD189
:104440003000FFF789FFE7E718020020986A0000B4
:104450001300010084225205024312780300D0B2F7
:10446000002A0CD08020013340050343187801381E
:1044700043425841024B40421840024BC01870471B
:10448000808D5B0080841E00020070B5074B0832EF
:1044900013431C78064B103213431D78FFF7DAFFE5
:1044A000EDB2E4B26419E04070BDC0460000901067
:1044B0000000101010B50D4B821D13431A78040034
:1044C000D3B2002A0FD0012B07D1FFF7C3FF084B4F
:1044D00008341C432378D84010BD0020022BFBD1A8
:1044E000044B1868F8E70448F6E7C04600000811D6
:1044F000000090101C020020006CDC020C4A811DA0
:104500000A4312780300D0B2012A04D002280BD04B
:1045100000280BD1704780220133520513431B78CA
:10452000002BF7D10220F5E70320F3E70520F1E7A0
:104530000000081102009C2318325B0513438022FF
:104540001A700022064B03431A70064B06301843BC
:104550000378DAB2002BFBD1034B10000B607047DD
:104560000000081300000811006CDC02F8B504001C
:104570000D0016001F00FFF7C1FF012823D1002DF9
:1045800025D08023621C5B0513431D708423022207
:104590005B0523431A702200104B0832134372004C
:1045A000D2B21A7040220E4B0E48234306341A70C2
:1045B00004432378012BFCD1002D0DD10A4B33414C
:1045C00000203B60F8BD0228DBD1012DD9D1390094
:1045D0002000FFF7AFFFD4E7044BF0E70000901096
:1045E000000008130000081180841E0000127A00E9
:1045F00010B50A4C030022680120002A0CD0084A9A
:104600007F301A4310700748063303431A78022A92
:10461000FCD1002023680B6010BDC0461C020020A6
:1046200000000813000008119C23C9015B05034327
:10463000C9B2197070479C235B0503431878431E69
:104640009841C0B27047942349015B050343C9B246
:104650001970704770B506680C0030002049FCF7EF
:104660007FFA1F4905003000FCF700FB0E00E12136
:1046700030000901FCF774FAE121E0800901300003
:10468000FCF7F4FA0E003C213000FCF769FA3C21FB
:1046900020813000FCF7EAFA6E22A1720321114B4F
:1046A000FF322380238895420AD80F499B0700D107
:1046B0000E490123CA5CAA420CD36380A58070BD59
:1046C00001339BB223800B40AD1A5A425A416E32DD
:1046D000FF32E7E70133AD1A0D2BEBD1EEE7C04611
:1046E00080510100B2070000C46A00009C6A00000B
:1046F0000188114A03008A18002030B5812A17D892
:104700005A88541E0B2C13D89C88651E1E2D0FD85A
:10471000DD88172D0CD81D893B2D09D89B7A3B2BA2
:1047200006D88B0705D0054B9B5CA3424041C0B225
:1047300030BD034BF8E7C0464EF8FFFFC46A0000E7
:104740009C6A000070B5134D838802885B196E2542
:10475000FF35554344885B1995085B190E4D66007B
:10476000755B5B19920710D00B600A680B4BC4880D
:104770005343827A00899B18E122120162439B18FD
:104780003C2242439B180B6070BD022CECD8013BCD
:10479000EAE7C0464A05F5FFAA6A00008051010019
:1047A0008023084A1B0212689A4209D1A0231030C4
:1047B0005B0518430368002B02D10133FF3303600C
:1047C0007047C0461C0200200100802210B5002363
:1047D00001245205103111430C600B60902143609D
:1047E000490504601C3001430B60882149050143E1
:1047F0000B6084214905014310430B60036010BD29
:104800000200902314325B05134300221A604260B9
:10481000103201601A60704703680B607047000037
:10482000104B820070B5D558802204000E4B9205C3
:104830001A602800FFF7C8FF2800FFF7B1FF0B4BF5
:104840001F261A5D0123180009493240095DC02561
:10485000314090408B40074A6D00505153511060D9
:10486000136070BDD46A00003C80845ED86A00008A
:10487000D96A000000E100E0F7B50027114B800085
:10488000C55808000E000197FFF732FF0400B84238
:1048900016D001A93000FFF755FF3800FEF73AFEA9
:1048A000010080200002814206D0FCF759F9010086
:1048B0000198FCF755F9019028000199FFF7A0FF36
:1048C0002000FEBDD46A0000F7B50025124B800021
:1048D000C4580E00200001A90195FFF79DFF280094
:1048E000FEF718FE05008020000285420ED00B4B1B
:1048F000290004341C43FCF733F92768019C290084
:104900004443B8B2FCF72CF924180194310001A8F3
:10491000FFF7A0FEF7BDC046D46A00000000781083
:10492000F0B50027184B800085B0C55808000E0070
:1049300001920397FFF7DCFE0400B84203D1002484
:10494000200005B0F0BD300003A9FFF7FBFE3800E2
:104950002E68FEF7DFFD010080200002814206D0B4
:10496000FCF7FEF801000398FCF7FAF80390039BAC
:10497000B342E4D3AB6088231C355B051D43019B28
:104980009A002A60DCE7C046D46A0000044B80002D
:10499000C25888231C325B05134389001960704795
:1049A000D46A0000054B8000C258882314325B058E
:1049B00013431868431E9841C0B27047D46A000080
:1049C0006B46E0221B78D2021B041340024A0907FF
:1049D0000B4380180360704744100000084B8200AE
:1049E000D258902310B503325B0513431B78002B7C
:1049F00002D000F013F910BD00F078F9FBE7C046D3
:104A0000DC6A00009C210C4B0C4A8000C358825881
:104A1000002003324905114310B518710870942124
:104A200049050A4310701A7F824203D020331800D0
:104A3000FEF72FFB10BDC04624020020DC6A0000F8
:104A4000F7B50C0005001B4B302200218700200029
:104A5000FE58FBF743FE2800FEF7C9FDFEF728FDD0
:104A60002060300000F080FB200000212030FEF7A5
:104A700009FBF31C01939023F21C5B0513431022E6
:104A800030001A70032100F0ADFB3000002100F06F
:104A9000CEFB094BFC50094B5A5D1F231A401E3BAD
:104AA0009340074A13609823019A5B051343402201
:104AB0001A70F7BDDC6A000024020020E06A0000E2
:104AC00000E100E0F8B50D4E85000D4BAF59040034
:104AD000E85800F049FB38002030FEF7EAFA094BAD
:104AE00020001A5D1F231A401E3B9340064AD367DD
:104AF000FEF782FD0023AB51F8BDC0462402002022
:104B0000DC6A0000E06A000004E100E00A4B80007B
:104B100070B5C658094B0C00C358150030001A6810
:104B2000096800F028FB2860A379300062792179B8
:104B300000F06AFB70BDC046DC6A00002402002061
:104B4000F7B51E4A83009C58050022790420002AEC
:104B500016D11B4A9E58002903D0280001AAFFF74E
:104B6000D5FF982300214020F21C5B0513431970E8
:104B7000187027698F4204D12800FFF743FF0020F7
:104B8000FEBD0123237194235B05A16133431B7890
:104B90000720002BF4D0A368191E02D01978013326
:104BA000A360B1712369013B2361A3690133A36150
:104BB0009C235B051A4380231370E0E72402002046
:104BC000DC6A0000F8B5134F134C85002C59ED59E1
:104BD0000127069E2777A2602661E3606661FFF7E2
:104BE000AFFF002814D1200007992030FEF794FA77
:104BF0000328F8D000280BD09C23002203355B0546
:104C00002B4322711A70942303205B051D432A70E5
:104C1000F8BDC046DC6A00002402002010B51E4B1F
:104C20008200D3581979002934D01C4951585A6947
:104C3000002A11D09C2252050A431278002A0BD078
:104C40008A79DC68D2B2002C03D02270DA68013293
:104C5000DA605A69013A5A611A69002A12D094221C
:104C600052050A431278002A0CD09A68141E02D00A
:104C7000147801329A608C711A69013A1A619A6942
:104C800001329A611A69002A04D15B69002B01D1B3
:104C9000FFF7B8FE10BDC04624020020DC6A000009
:104CA000104A8000815800220F4B10B5C3580331C1
:104CB000581CC2779C2040050843DA621A701A8398
:104CC0005A629A621A6302709420400501430A7086
:104CD0001A0038321278002A03D00121181DFEF77D
:104CE000EAF910BDDC6A00002402002070B5254BF3
:104CF0008200D358591CC97F002942D022495258FA
:104D0000D96A002917DB9421490511430978002944
:104D100011D0D969CCB2596A002905D0DD6A002DBD
:104D200002DD0C78013159629471D96A0139D96276
:104D3000596B01315963D96A002905DA9421D41CD1
:104D40004905214300240C70196B002911DD9C21B9
:104D500049051143097800290BD09279996AD2B29A
:104D6000002903D00A709A6A01329A621A6B013ADA
:104D70001A63DA6A002A04DC1B6B002B01DCFFF7E4
:104D80008FFF70BD24020020DC6A0000012903D0DF
:104D9000032909D00020704794235B05184300784D
:104DA000431E9841C0B2F6E78423F6E7431C03484C
:104DB00049011843C9B201707047C046000088120B
:104DC000831C9420490140051843C9B20170704703
:104DD000831C034889011843C9B201707047C0465B
:104DE00000000813831C8C20C90040051843C9B279
:104DF00001707047F7B50400364EE31C1E4333784C
:104E000008780D00DBB2072860D8FBF795FE04197F
:104E10002B0E192B2B45304B01341C4300232370E0
:104E20003378012BFCD10020FEBD012BFCD12A4B95
:104E300001341C43402323703378042BFCD1F2E768
:104E40000021012801D004200231337898423FD15B
:104E50002000FFF7ABFF0421204A13698B43136145
:104E600030BFE0E70227B84207D100270B79BB42E9
:104E700003D020004979FFF7ABFF194B01341C43E5
:104E800027703378154ADBB20193019B01330193FC
:104E9000042311690B43E2E70421114B621C1A43FE
:104EA00011706A78A11C0B431A70002A06D1AB78E6
:104EB000002B03D02000E978FFF782FFAB79002BAD
:104EC000DFD02000E979FFF78DFFDAE70120ABE7BB
:104ED0000320A9E7000030100000881200ED00E078
:104EE00000001010C31C024818430078C0B270477D
:104EF00000003010012314308B40012A04D180229D
:104F000012051043036070478022D204DB43104334
:104F1000F8E701238B40002A01D04360704783608B
:104F2000FCE70023C222037043708370C370437197
:104F30008371C371037242728372C372704700003F
:104F4000F0B5002487B00293FA230126270025003C
:104F50009B00534303900491009301947642AB006D
:104F60000593194BAA009B1859880498A140FBF798
:104F7000F7FD009B009AC31A824200D9131AB3426C
:104F80001FD2114AA900525C27000192002B02D0C7
:104F90000135322D13D10134032C01D0002B0DD15A
:104FA000029A002A00D013603F220199BB011140F0
:104FB0000B43039ADBB2537007B0F0BD00251E000F
:104FC000CDE73300E4E7C046FA6A000094230230DC
:104FD0005B0503431B78002B05D088235B05184332
:104FE00004230370704780231B0518433023F8E720
:104FF000942210B55205841C224311780300CAB2D2
:10500000022001290DD18021C90421438024CD3003
:105010000870E40003331978490908001040114270
:1050200000D110BD013C002C01D0C046F3E709209F
:10503000F7E7012310B58B400400080C04280AD8B8
:10504000FBF77AFD030E14171A008020002A03D004
:1050500000050443236010BDC004DB430443F9E7AB
:10506000201D8024002A0AD02405F2E72000083001
:10507000F7E720000C30F4E720001030F1E7E404FB
:10508000EBE70200002300B5080C042808D8013320
:10509000FBF752FD03080A0C0E001068C8400340DD
:1050A000180000BD5068F9E79068F7E7D068F5E7A9
:1050B0001069F3E710B5FFF7E4FF10BD294A0300BC
:1050C000881800B510284BD8FBF736FD433C272045
:1050D0001912094A4A4A4A2E4A4A4A4A3500D020F9
:1050E0008022043340050343520300201A6000BDB0
:1050F000CC2080220433400503431203F5E7C82087
:105100008022043340050343D202EEE7C42080220C
:105110000433400503439202E7E7C02080220433B2
:10512000400503435202E0E7FC208022043340059F
:1051300003431206D9E7F8208022043340050343D5
:10514000D205D2E7BC20802204334005034312027B
:10515000CBE7B8208022043340050343D201C4E7E3
:105160000320C4E7F2FFFEFF0423C3700023837013
:10517000437003717047F0B5130B89B00126039398
:1051800008230124764202939B190790049105920B
:10519000019302270025631E069321000598794399
:1051A000FBF7DEFC049B834207D31B1AB34204D2F5
:1051B0001E00069B03900295019301357F00092D87
:1051C00001D0002EE9D1082C02D00134002EE0D10C
:1051D000019B029A1B0103981343079ADBB2537099
:1051E00009B0F0BD842310B50224C21C5B05134333
:1051F0004A0022401A70902300195B0518431023BF
:10520000C9001940017010BD10B58C24033064052D
:10521000C9000443C9B221708821920049050143A5
:10522000D2B20A70802252051043037010BD802351
:10523000012202305B0503430A401A708C235B0590
:1052400018430823890019400170704704FEFF1FAE
:10525000096757617270537069436F6D6D6F6E535C
:10526000696E6B4275666665725B25645D203D20E4
:105270005B3078253032585D0A0077617270536573
:10528000744C6F77506F7765724D6F6465286B57FC
:10529000617270506F7765724D6F6465564C5053F4
:1052A0002C2030202F2A20736C6565702073656375
:1052B0006F6E6473203A20697272656C6576616EF8
:1052C000742068657265202A2F2928292066616963
:1052D0006C65642E2E2E0A000D0A0A0A0A5B202A2B
:1052E00009090909576172702028485720726576AC
:1052F0006973696F6E204329202F20476C61757890
:1053000020284857207265766973696F6E2042299C
:105310000909092A205D0A000D5B202009090909F5
:1053200020202020202043616D627269646765201F
:105330002F2050687973636F6D706C61622020203C
:105340000909090920205D0A0A000D0953757070CA
:105350006C793D25646D562C0944656661756C74E5
:1053600020546172676574205265616420526567DC
:1053700069737465723D3078253032780A000D0902
:105380004932433D25646B622F732C095350493DCC
:1053900025646B622F732C09554152543D2564627C
:1053A0002F732C094932432050756C6C2D55703D7C
:1053B00025640A0A000D0953494D2D3E53434743C6
:1053C000363D30782530327809095254432D3E530A
:1053D000523D30782530327809095254432D3E54DD
:1053E00053523D3078253032780A000D094D43473D
:1053F0005F43313D3078253032780909094D434704
:105400005F43323D30782530327809094D43475F9C
:10541000533D3078253032780A000D094D43475FFF
:1054200053433D3078253032780909094D43475FB1
:105430004D433D30782530327809094F53435F435F
:10544000523D3078253032780A000D09534D435FC4
:10545000504D50524F543D3078253032780909096B
:10546000534D435F504D4354524C3D3078253032BC
:105470007809095343422D3E5343523D307825303D
:1054800032780A000D09504D435F52454753433D62
:1054900030782530327809090953494D5F53434725
:1054A00043343D307825303278095254432D3E54F0
:1054B00050523D3078253032780A0A000D092564B3
:1054C0007320696E205254432048616E646C65728B
:1054D00020746F2D646174652C09256420506D67FC
:1054E00072204572726F72730A001B5B306D1B5B1A
:1054F000343B34336D1B5B313B33376D0D53616E81
:1055000069747920636865636B206661696C6564A2
:10551000211B5B306D0A000D093078253032782070
:105520002D2D3E205B3078253032782030782530A4
:105530003278203078253032785D0A000D093078D5
:1055400025303278202D2D3E203078253032780AD3
:10555000000D09307825303278202D2D3E202D2D5C
:105560002D2D0A000D0A0925642F2564207375630B
:105570006365737320726174652E0A000D092564DA
:105580002F256420737563636573736573206D6184
:105590007463686564207265662E2076616C75653B
:1055A000206F66203078253032782E0A000D0925CC
:1055B000642062616420636F6D6D616E64732E0A96
:1055C0000A000D09307825303278202D2D3E20300C
:1055D00078253032783078253032780A0041626F91
:1055E000757420746F204750494F5F4452565F498D
:1055F0006E697428292E2E2E200041626F7574204A
:10560000746F206C6F77506F77657250696E53744A
:105610006174657328292E2E2E2000426F6F74202E
:10562000646F6E652E0A00507265737320616E7927
:10563000206B657920746F2073686F77206D656EBD
:10564000752E2E2E0A00776172705365744C6F7739
:10565000506F7765724D6F6465286B57617270503B
:105660006F7765724D6F646552554E2C2030202F38
:105670002A20736C656570207365636F6E64732098
:105680003A20697272656C6576616E742068657225
:1056900065202A2F292829206661696C65642E2ED1
:1056A0002E0A000D0A0957726974696E67206469D1
:1056B000726563746C7920746F20666C6173682EF8
:1056C0002050726573732027712720746F206578CE
:1056D00069742E0A000A2043616C6C696E6720644D
:1056E0006973706C617920696E697469616C697342
:1056F0006174696F6E2066756E6374696F6E2C20BD
:105700006265666F7265206D656E75206F66206FCD
:105710007074696F6E732E0A000D53656C65637447
:105720003A0A000D2D202761273A20736574206402
:10573000656661756C742073656E736F722E0A00F6
:105740000D2D202762273A207365742049324320AB
:105750006261756420726174652E0A000D2D202728
:1057600063273A2073657420535049206261756441
:1057700020726174652E0A000D2D202764273A20BF
:1057800073657420554152542062617564207261C2
:1057900074652E0A000D2D202765273A2073657445
:1057A0002064656661756C742072656769737465E1
:1057B0007220616464726573732E0A000D2D2027B8
:1057C00066273A207772697465206279746520745F
:1057D0006F2073656E736F722E0A000D2D20276780
:1057E000273A207365742064656661756C74207354
:1057F000656E736F7220737570706C7920766F6C44
:10580000746167652E0A000D2D202768273A2070E5
:105810006F776572646F776E20636F6D6D616E6414
:1058200020746F20616C6C2073656E736F72732EC1
:105830000A000D2D202769273A20736574207075A2
:105840006C6C2D757020656E61626C652076616C84
:1058500075652E0A000D2D20276A273A2072657083
:1058600065617420726561642072656720307825F7
:10587000303278206F6E2073656E736F722023252F
:10588000642E0A000D2D20276B273A20736C656566
:105890007020756E74696C2072657365742E0A00D1
:1058A0000D2D20276C273A2073656E642072657079
:1058B00065617465642062797465206F6E20493279
:1058C000432E0A000D2D20276D273A2073656E6444
:1058D0002072657065617465642062797465206FFB
:1058E0006E205350492E0A000D2D20276E273A2096
:1058F000656E61626C652073656E736F722073757F
:1059000070706C7920766F6C746167652E0A000D7B
:105910002D20276F273A2064697361626C652073BC
:10592000656E736F7220737570706C7920766F6C12
:10593000746167652E0A000D2D202770273A2073A9
:10594000776974636820746F20564C5052206D6FD5
:1059500064652E0A000D2D202772273A207377697F
:1059600074636820746F2052554E206D6F64652EED
:105970000A000D2D202773273A20706F776572205B
:10598000757020616C6C2073656E736F72732E0A74
:10599000000D2D202774273A2064756D70207072D9
:1059A0006F636573736F722073746174652E0A0080
:1059B0000D2D202775273A20736574204932432026
:1059C000616464726573732E0A000D2D2027782799
:1059D0003A2064697361626C652053574420616E9C
:1059E00064207370696E20666F7220313020736599
:1059F00063732E0A000D2D20277A273A20706572D6
:105A000070657475616C6C792064756D7020616C63
:105A10006C2073656E736F7220646174612E0A006E
:105A20000D456E7465722073656C656374696F6E85
:105A30003E20000D0953656C6563743A0A000D0938
:105A40002D20273127204144584C3336320909098B
:105A500028307830302D2D30783244293A20312EBC
:105A60003656202D2D20332E35562028636F6D702D
:105A7000696C6564206F757429200A000D092D205A
:105A800027322720424D58303535616363656C20DD
:105A9000090928307830302D2D30783346293A20C6
:105AA000322E3456202D2D20332E36562028636F6B
:105AB0006D70696C6564206F757429200A000D098A
:105AC0002D2027332720424D583035356779726FA6
:105AD00009090928307830302D2D30783346293A9D
:105AE00020322E3456202D2D20332E36562028637A
:105AF0006F6D70696C6564206F757429200A000DE4
:105B0000092D2027342720424D583035356D6167E7
:105B100009090928307834302D2D30783532293A6A
:105B200020322E3456202D2D20332E365620286339
:105B30006F6D70696C6564206F757429200A000DA3
:105B4000092D20273527204D4D4138343531510955
:105B5000090928307830302D2D30783331293A201A
:105B6000312E393556202D2D20332E36560A000D74
:105B7000092D202736272043555252454E545F5356
:105B8000454E53455F494E413231390909092830A4
:105B90007830302D2D30783035293A20332E335659
:105BA000202D2D20352E35560A000D092D202737A2
:105BB00027204D41473331313009090928307830E9
:105BC000302D2D30783131293A20312E393556207B
:105BD0002D2D20332E36562028636F6D70696C652D
:105BE00064206F757429200A000D092D202738279D
:105BF00020484443313030300909092830783030AA
:105C00002D2D30783146293A20332E3056202D2D37
:105C100020352E30562028636F6D70696C656420C6
:105C20006F757429200A000D092D2027392720536C
:105C3000493730323109090928307830302D2D307C
:105C4000783046293A20312E3956202D2D20332EFA
:105C500036562028636F6D70696C6564206F7574AB
:105C600029200A000D092D20276127204C334744A5
:105C700032304809090928307830462D2D307833E4
:105C800039293A20322E3256202D2D20332E3656E9
:105C90002028636F6D70696C6564206F75742920AE
:105CA0000A000D092D2027622720424D4536383045
:105CB00009090928307841412D2D30784638293A94
:105CC00020312E3656202D2D20332E365620286397
:105CD0006F6D70696C6564206F757429200A000D02
:105CE000092D20274D2720424E4F3035350909090F
:105CF00028307830442D2D30783735293A20322E0F
:105D00003756202D2D20332E36562028636F6D7088
:105D1000696C6564206F757429200A000D092D20B7
:105D2000274D27205246343330434C333331480912
:105D3000090928307830442D2D30783735293A201C
:105D40003356202D2D20332E36562028636F6D704C
:105D5000696C6564206F757429200A000D092D2077
:105D6000276427205443533334373235090909282F
:105D7000307830302D2D30783144293A20322E378A
:105D800056202D2D20332E33562028636F6D7069D9
:105D90006C6564206F757429200A000D092D202779
:105DA000652720534934373035090909286E2F619A
:105DB000293A2020202020202020322E3756202D46
:105DC0002D20352E35562028636F6D70696C656403
:105DD000206F757429200A000D092D2027672720C0
:105DE00043435338313109090928307830302D2D9B
:105DF00030784646293A20312E3856202D2D203332
:105E00002E36562028636F6D70696C6564206F753F
:105E10007429200A000D092D2027682720414D47AD
